{
  "contractName": "Game",
  "abi": [
    {
      "anonymous": false,
      "inputs": [
        {
          "indexed": false,
          "internalType": "address",
          "name": "player",
          "type": "address"
        },
        {
          "indexed": false,
          "internalType": "bool",
          "name": "hit",
          "type": "bool"
        },
        {
          "indexed": false,
          "internalType": "string",
          "name": "coordinate",
          "type": "string"
        }
      ],
      "name": "SendMoveResult",
      "type": "event"
    },
    {
      "anonymous": false,
      "inputs": [
        {
          "indexed": false,
          "internalType": "address",
          "name": "player",
          "type": "address"
        },
        {
          "indexed": false,
          "internalType": "string",
          "name": "move",
          "type": "string"
        }
      ],
      "name": "SendMovesAdvice",
      "type": "event"
    },
    {
      "anonymous": false,
      "inputs": [
        {
          "indexed": false,
          "internalType": "address",
          "name": "player",
          "type": "address"
        },
        {
          "indexed": false,
          "internalType": "bytes32",
          "name": "gameId",
          "type": "bytes32"
        },
        {
          "indexed": false,
          "internalType": "uint256",
          "name": "ships",
          "type": "uint256"
        },
        {
          "indexed": false,
          "internalType": "uint256",
          "name": "tableSize",
          "type": "uint256"
        }
      ],
      "name": "SendNewGameCreate",
      "type": "event"
    },
    {
      "anonymous": false,
      "inputs": [
        {
          "indexed": false,
          "internalType": "address",
          "name": "player",
          "type": "address"
        },
        {
          "indexed": false,
          "internalType": "int256",
          "name": "amount",
          "type": "int256"
        }
      ],
      "name": "SendRequestAmount",
      "type": "event"
    },
    {
      "anonymous": false,
      "inputs": [
        {
          "indexed": false,
          "internalType": "address",
          "name": "player",
          "type": "address"
        }
      ],
      "name": "SendRequestBoard",
      "type": "event"
    },
    {
      "anonymous": false,
      "inputs": [
        {
          "indexed": false,
          "internalType": "address",
          "name": "play",
          "type": "address"
        },
        {
          "indexed": false,
          "internalType": "address",
          "name": "wait",
          "type": "address"
        }
      ],
      "name": "SendTurnAdvice",
      "type": "event"
    },
    {
      "anonymous": false,
      "inputs": [
        {
          "indexed": false,
          "internalType": "address",
          "name": "player",
          "type": "address"
        }
      ],
      "name": "SendVictory",
      "type": "event"
    },
    {
      "anonymous": false,
      "inputs": [
        {
          "indexed": false,
          "internalType": "address",
          "name": "player",
          "type": "address"
        }
      ],
      "name": "SendWrongMove",
      "type": "event"
    },
    {
      "stateMutability": "nonpayable",
      "type": "fallback"
    },
    {
      "inputs": [
        {
          "internalType": "uint256",
          "name": "",
          "type": "uint256"
        }
      ],
      "name": "matches",
      "outputs": [
        {
          "internalType": "bytes32",
          "name": "gameId",
          "type": "bytes32"
        },
        {
          "internalType": "uint256",
          "name": "tableSize",
          "type": "uint256"
        },
        {
          "internalType": "uint256",
          "name": "ships",
          "type": "uint256"
        },
        {
          "internalType": "address",
          "name": "p1",
          "type": "address"
        },
        {
          "internalType": "address",
          "name": "p2",
          "type": "address"
        },
        {
          "internalType": "int256",
          "name": "registration",
          "type": "int256"
        },
        {
          "internalType": "int256",
          "name": "reward",
          "type": "int256"
        },
        {
          "internalType": "bool",
          "name": "turn",
          "type": "bool"
        },
        {
          "internalType": "bytes32",
          "name": "b1",
          "type": "bytes32"
        },
        {
          "internalType": "bytes32",
          "name": "b2",
          "type": "bytes32"
        },
        {
          "internalType": "string",
          "name": "lastMove",
          "type": "string"
        }
      ],
      "stateMutability": "view",
      "type": "function",
      "constant": true
    },
    {
      "inputs": [
        {
          "internalType": "bytes32",
          "name": "_gameId",
          "type": "bytes32"
        },
        {
          "internalType": "bool",
          "name": "_isNew",
          "type": "bool"
        },
        {
          "internalType": "uint8[]",
          "name": "_info",
          "type": "uint8[]"
        }
      ],
      "name": "join",
      "outputs": [],
      "stateMutability": "nonpayable",
      "type": "function"
    },
    {
      "inputs": [
        {
          "internalType": "bytes32",
          "name": "_gameId",
          "type": "bytes32"
        },
        {
          "internalType": "int256",
          "name": "_registration",
          "type": "int256"
        }
      ],
      "name": "setReward",
      "outputs": [],
      "stateMutability": "nonpayable",
      "type": "function"
    },
    {
      "inputs": [
        {
          "internalType": "bytes32",
          "name": "_gameId",
          "type": "bytes32"
        }
      ],
      "name": "getInformations",
      "outputs": [
        {
          "internalType": "bytes32",
          "name": "",
          "type": "bytes32"
        },
        {
          "internalType": "bytes",
          "name": "",
          "type": "bytes"
        },
        {
          "internalType": "bytes",
          "name": "",
          "type": "bytes"
        },
        {
          "internalType": "address",
          "name": "",
          "type": "address"
        },
        {
          "internalType": "address",
          "name": "",
          "type": "address"
        },
        {
          "internalType": "bytes",
          "name": "",
          "type": "bytes"
        },
        {
          "internalType": "bytes",
          "name": "",
          "type": "bytes"
        },
        {
          "internalType": "bool",
          "name": "",
          "type": "bool"
        },
        {
          "internalType": "bytes32",
          "name": "",
          "type": "bytes32"
        },
        {
          "internalType": "bytes32",
          "name": "",
          "type": "bytes32"
        },
        {
          "internalType": "string",
          "name": "",
          "type": "string"
        },
        {
          "internalType": "string[]",
          "name": "",
          "type": "string[]"
        }
      ],
      "stateMutability": "view",
      "type": "function",
      "constant": true
    },
    {
      "inputs": [
        {
          "internalType": "bytes32",
          "name": "_gameId",
          "type": "bytes32"
        }
      ],
      "name": "getReward",
      "outputs": [
        {
          "internalType": "int256",
          "name": "",
          "type": "int256"
        }
      ],
      "stateMutability": "view",
      "type": "function",
      "constant": true
    },
    {
      "inputs": [
        {
          "internalType": "bytes32",
          "name": "_gameId",
          "type": "bytes32"
        }
      ],
      "name": "pay",
      "outputs": [],
      "stateMutability": "payable",
      "type": "function",
      "payable": true
    },
    {
      "inputs": [
        {
          "internalType": "bytes32",
          "name": "_gameId",
          "type": "bytes32"
        },
        {
          "internalType": "bytes32",
          "name": "_hashedBoard",
          "type": "bytes32"
        }
      ],
      "name": "setBoard",
      "outputs": [],
      "stateMutability": "nonpayable",
      "type": "function"
    },
    {
      "inputs": [
        {
          "internalType": "bytes32",
          "name": "_gameId",
          "type": "bytes32"
        },
        {
          "internalType": "string",
          "name": "_coordinate",
          "type": "string"
        }
      ],
      "name": "shoot",
      "outputs": [],
      "stateMutability": "nonpayable",
      "type": "function"
    },
    {
      "inputs": [
        {
          "internalType": "bytes32",
          "name": "_gameId",
          "type": "bytes32"
        }
      ],
      "name": "getLastMoves",
      "outputs": [
        {
          "internalType": "string",
          "name": "",
          "type": "string"
        }
      ],
      "stateMutability": "view",
      "type": "function",
      "constant": true
    },
    {
      "inputs": [
        {
          "internalType": "bytes32",
          "name": "_gameId",
          "type": "bytes32"
        },
        {
          "internalType": "bytes32[]",
          "name": "_sibilings",
          "type": "bytes32[]"
        },
        {
          "internalType": "bool",
          "name": "_hit",
          "type": "bool"
        },
        {
          "internalType": "uint256",
          "name": "_leafIndex",
          "type": "uint256"
        }
      ],
      "name": "checkMerkleProof",
      "outputs": [],
      "stateMutability": "nonpayable",
      "type": "function"
    },
    {
      "inputs": [
        {
          "internalType": "bytes32",
          "name": "_gameId",
          "type": "bytes32"
        },
        {
          "internalType": "string[][]",
          "name": "_board",
          "type": "string[][]"
        }
      ],
      "name": "checkBoard",
      "outputs": [
        {
          "internalType": "bool",
          "name": "",
          "type": "bool"
        }
      ],
      "stateMutability": "payable",
      "type": "function",
      "payable": true
    },
    {
      "inputs": [],
      "name": "notifyDelay",
      "outputs": [],
      "stateMutability": "nonpayable",
      "type": "function"
    }
  ],
  "bytecode": "0x608060405234801561001057600080fd5b506144fe806100206000396000f3fe6080604052600436106100ab5760003560e01c8063b4df513811610064578063b4df5138146101ef578063c7bad2b714610218578063cf9e4fb914610241578063e0e797ee14610271578063e4cc82a01461029a578063fbf5fea8146102d7576100ac565b806301fb893a146100c75780634768d4ef1461010f5780634da6a8541461015657806363fed9a41461017f5780637eebaf06146101bc5780638609cad1146101d3576100ac565b5b3480156100b857600080fd5b506100c56000801b610300565b005b3480156100d357600080fd5b506100ee60048036038101906100e99190612c74565b6103a1565b6040516101069c9b9a99989796959493929190612efd565b60405180910390f35b34801561011b57600080fd5b5061013660048036038101906101319190613017565b61084a565b60405161014d9b9a9998979695949392919061306c565b60405180910390f35b34801561016257600080fd5b5061017d60048036038101906101789190613292565b610989565b005b34801561018b57600080fd5b506101a660048036038101906101a19190612c74565b61136e565b6040516101b39190613315565b60405180910390f35b3480156101c857600080fd5b506101d1611400565b005b6101ed60048036038101906101e89190612c74565b610300565b005b3480156101fb57600080fd5b506102166004803603810190610211919061342c565b611402565b005b34801561022457600080fd5b5061023f600480360381019061023a91906134f6565b611b9d565b005b61025b600480360381019061025691906137cd565b611eeb565b6040516102689190613829565b60405180910390f35b34801561027d57600080fd5b5061029860048036038101906102939190613870565b612109565b005b3480156102a657600080fd5b506102c160048036038101906102bc9190612c74565b6123be565b6040516102ce91906138b0565b60405180910390f35b3480156102e357600080fd5b506102fe60048036038101906102f991906138d2565b6124d5565b005b60005b6000805490508160ff16101561039d578160008260ff168154811061032b5761032a613912565b5b90600052602060002090600c0201600001540361038a5760008160ff168154811061035957610358613912565b5b90600052602060002090600c020160050154670de0b6b3a76400003461037f919061399f565b1461038957600080fd5b5b8080610395906139d0565b915050610303565b5050565b6000606080600080606080600080600060608060005b6000805490508160ff161015610839578d60008260ff16815481106103df576103de613912565b5b90600052602060002090600c020160000154036108265760008160ff168154811061040d5761040c613912565b5b90600052602060002090600c02016000015460008260ff168154811061043657610435613912565b5b90600052602060002090600c0201600101546040516020016104589190613a1a565b60405160208183030381529060405260008360ff168154811061047e5761047d613912565b5b90600052602060002090600c0201600201546040516020016104a09190613a1a565b60405160208183030381529060405260008460ff16815481106104c6576104c5613912565b5b90600052602060002090600c020160030160009054906101000a900473ffffffffffffffffffffffffffffffffffffffff1660008560ff168154811061050f5761050e613912565b5b90600052602060002090600c020160040160009054906101000a900473ffffffffffffffffffffffffffffffffffffffff1660008660ff168154811061055857610557613912565b5b90600052602060002090600c02016005015460405160200161057a9190613a56565b60405160208183030381529060405260008760ff16815481106105a05761059f613912565b5b90600052602060002090600c0201600601546040516020016105c29190613a56565b60405160208183030381529060405260008860ff16815481106105e8576105e7613912565b5b90600052602060002090600c020160070160009054906101000a900460ff1660008960ff168154811061061e5761061d613912565b5b90600052602060002090600c02016008015460008a60ff168154811061064757610646613912565b5b90600052602060002090600c02016009015460008b60ff16815481106106705761066f613912565b5b90600052602060002090600c0201600a0160008c60ff168154811061069857610697613912565b5b90600052602060002090600c0201600b018180546106b590613aa0565b80601f01602080910402602001604051908101604052809291908181526020018280546106e190613aa0565b801561072e5780601f106107035761010080835404028352916020019161072e565b820191906000526020600020905b81548152906001019060200180831161071157829003601f168201915b5050505050915080805480602002602001604051908101604052809291908181526020016000905b8282101561080257838290600052602060002001805461077590613aa0565b80601f01602080910402602001604051908101604052809291908181526020018280546107a190613aa0565b80156107ee5780601f106107c3576101008083540402835291602001916107ee565b820191906000526020600020905b8154815290600101906020018083116107d157829003601f168201915b505050505081526020019060010190610756565b5050505090509c509c509c509c509c509c509c509c509c509c509c509c505061083b565b8080610831906139d0565b9150506103b7565b505b91939597999b5091939597999b565b6000818154811061085a57600080fd5b90600052602060002090600c02016000915090508060000154908060010154908060020154908060030160009054906101000a900473ffffffffffffffffffffffffffffffffffffffff16908060040160009054906101000a900473ffffffffffffffffffffffffffffffffffffffff16908060050154908060060154908060070160009054906101000a900460ff169080600801549080600901549080600a01805461090690613aa0565b80601f016020809104026020016040519081016040528092919081815260200182805461093290613aa0565b801561097f5780601f106109545761010080835404028352916020019161097f565b820191906000526020600020905b81548152906001019060200180831161096257829003601f168201915b505050505090508b565b60005b6000805490508160ff161015611366578460008260ff16815481106109b4576109b3613912565b5b90600052602060002090600c020160000154036113535760003373ffffffffffffffffffffffffffffffffffffffff1660008360ff16815481106109fb576109fa613912565b5b90600052602060002090600c020160030160009054906101000a900473ffffffffffffffffffffffffffffffffffffffff1673ffffffffffffffffffffffffffffffffffffffff1603610a785760008260ff1681548110610a5f57610a5e613912565b5b90600052602060002090600c0201600801549050610aa4565b60008260ff1681548110610a8f57610a8e613912565b5b90600052602060002090600c02016009015490505b600085600081518110610aba57610ab9613912565b5b602002602001015190506000600190505b8651811015610b8c5760008290506000888381518110610aee57610aed613912565b5b602002602001015190506000600288610b079190613ad1565b03610b3c578181604051602001610b1f929190613b23565b604051602081830303815290604052805190602001209350610b68565b8082604051602001610b4f929190613b23565b6040516020818303038152906040528051906020012093505b600287610b75919061399f565b965050508080610b8490613b4f565b915050610acb565b5081810361131457600085610bd6576040518060400160405280600281526020017f2d30000000000000000000000000000000000000000000000000000000000000815250610c0d565b6040518060400160405280600281526020017f2d310000000000000000000000000000000000000000000000000000000000008152505b905060008460ff1681548110610c2657610c25613912565b5b90600052602060002090600c0201600b0160008560ff1681548110610c4e57610c4d613912565b5b90600052602060002090600c0201600a0182604051602001610c71929190613c6b565b604051602081830303815290604052908060018154018082558091505060019003906000526020600020016000909190919091509081610cb19190613e26565b506000808560ff1681548110610cca57610cc9613912565b5b90600052602060002090600c020160030160009054906101000a900473ffffffffffffffffffffffffffffffffffffffff1673ffffffffffffffffffffffffffffffffffffffff163373ffffffffffffffffffffffffffffffffffffffff1603610e285760008560ff1681548110610d4557610d44613912565b5b90600052602060002090600c020160040160009054906101000a900473ffffffffffffffffffffffffffffffffffffffff1690507f3720eac80eef1a0032b520af14f1cf6d138e8336fb49aec65910b19d8ac3459060008660ff1681548110610db157610db0613912565b5b90600052602060002090600c020160040160009054906101000a900473ffffffffffffffffffffffffffffffffffffffff168860008860ff1681548110610dfb57610dfa613912565b5b90600052602060002090600c0201600a01604051610e1b93929190613f7c565b60405180910390a1610f1e565b60008560ff1681548110610e3f57610e3e613912565b5b90600052602060002090600c020160030160009054906101000a900473ffffffffffffffffffffffffffffffffffffffff1690507f3720eac80eef1a0032b520af14f1cf6d138e8336fb49aec65910b19d8ac3459060008660ff1681548110610eab57610eaa613912565b5b90600052602060002090600c020160030160009054906101000a900473ffffffffffffffffffffffffffffffffffffffff168860008860ff1681548110610ef557610ef4613912565b5b90600052602060002090600c0201600a01604051610f1593929190613f7c565b60405180910390a15b6111cf60008660ff1681548110610f3857610f37613912565b5b90600052602060002090600c0201604051806101800160405290816000820154815260200160018201548152602001600282015481526020016003820160009054906101000a900473ffffffffffffffffffffffffffffffffffffffff1673ffffffffffffffffffffffffffffffffffffffff1673ffffffffffffffffffffffffffffffffffffffff1681526020016004820160009054906101000a900473ffffffffffffffffffffffffffffffffffffffff1673ffffffffffffffffffffffffffffffffffffffff1673ffffffffffffffffffffffffffffffffffffffff16815260200160058201548152602001600682015481526020016007820160009054906101000a900460ff161515151581526020016008820154815260200160098201548152602001600a8201805461106f90613aa0565b80601f016020809104026020016040519081016040528092919081815260200182805461109b90613aa0565b80156110e85780601f106110bd576101008083540402835291602001916110e8565b820191906000526020600020905b8154815290600101906020018083116110cb57829003601f168201915b50505050508152602001600b8201805480602002602001604051908101604052809291908181526020016000905b828210156111c257838290600052602060002001805461113590613aa0565b80601f016020809104026020016040519081016040528092919081815260200182805461116190613aa0565b80156111ae5780601f10611183576101008083540402835291602001916111ae565b820191906000526020600020905b81548152906001019060200180831161119157829003601f168201915b505050505081526020019060010190611116565b5050505081525050612715565b15611210577fc7e0345890e3d3863c7f66518e8fe24252b162afe06faf9b20c50ac5d774fdfa336040516112039190613fba565b60405180910390a161130a565b7fca8e1fe07bfdc2062d88c000bbc3453971e9ea79bdb90e60748c50e8526026b73382604051611241929190613fd5565b60405180910390a160008560ff16815481106112605761125f613912565b5b90600052602060002090600c020160070160009054906101000a900460ff166112c857600160008660ff168154811061129c5761129b613912565b5b90600052602060002090600c020160070160006101000a81548160ff0219169083151502179055611308565b6000808660ff16815481106112e0576112df613912565b5b90600052602060002090600c020160070160006101000a81548160ff02191690831515021790555b505b5050505050611368565b7f9709744f7c7359edb2e10790a4a8501b0bb5fcec380968177c7a3e91249d52d8336040516113439190613fba565b60405180910390a1505050611368565b808061135e906139d0565b91505061098c565b505b50505050565b600080600090505b6000805490508160ff1610156113f9578260008260ff168154811061139e5761139d613912565b5b90600052602060002090600c020160000154036113e65760008160ff16815481106113cc576113cb613912565b5b90600052602060002090600c0201600501549150506113fb565b80806113f1906139d0565b915050611376565b505b919050565b565b6000801b83146116465760005b6000805490508160ff161015611644578360008260ff168154811061143757611436613912565b5b90600052602060002090600c0201600001540361163157600073ffffffffffffffffffffffffffffffffffffffff1660008260ff168154811061147d5761147c613912565b5b90600052602060002090600c020160040160009054906101000a900473ffffffffffffffffffffffffffffffffffffffff1673ffffffffffffffffffffffffffffffffffffffff16036115ec573360008260ff16815481106114e2576114e1613912565b5b90600052602060002090600c020160040160006101000a81548173ffffffffffffffffffffffffffffffffffffffff021916908373ffffffffffffffffffffffffffffffffffffffff1602179055507f3baf3f8e2dd70ad22e86a9d44c0df0d7b3d08b1febe5cbb35803f1b02d89471b3360008360ff168154811061156a57611569613912565b5b90600052602060002090600c02016000015460008460ff168154811061159357611592613912565b5b90600052602060002090600c02016002015460008560ff16815481106115bc576115bb613912565b5b90600052602060002090600c0201600101546040516115de9493929190613ffe565b60405180910390a150611b98565b7f3baf3f8e2dd70ad22e86a9d44c0df0d7b3d08b1febe5cbb35803f1b02d89471b33600080600060405161162394939291906140bc565b60405180910390a150611b98565b808061163c906139d0565b91505061140f565b505b811561199357600080805490506040516020016116639190614101565b60405160208183030381529060405280519060200120905060008067ffffffffffffffff81111561169757611696613123565b5b6040519080825280602002602001820160405280156116ca57816020015b60608152602001906001900390816116b55790505b5090506000604051806101800160405280848152602001856001815181106116f5576116f4613912565b5b602002602001015160ff1681526020018560008151811061171957611718613912565b5b602002602001015160ff1681526020013373ffffffffffffffffffffffffffffffffffffffff168152602001600073ffffffffffffffffffffffffffffffffffffffff1681526020017fffffffffffffffffffffffffffffffffffffffffffffffffffffffffffffffff8152602001600081526020016001151581526020016000801b81526020016000801b81526020016040518060200160405280600081525081526020018381525090806001815401808255809150506001900390600052602060002090600c020160009091909190915060008201518160000155602082015181600101556040820151816002015560608201518160030160006101000a81548173ffffffffffffffffffffffffffffffffffffffff021916908373ffffffffffffffffffffffffffffffffffffffff16021790555060808201518160040160006101000a81548173ffffffffffffffffffffffffffffffffffffffff021916908373ffffffffffffffffffffffffffffffffffffffff16021790555060a0820151816005015560c0820151816006015560e08201518160070160006101000a81548160ff0219169083151502179055506101008201518160080155610120820151816009015561014082015181600a0190816118f89190613e26565b5061016082015181600b019080519060200190611916929190612b50565b5050507f3baf3f8e2dd70ad22e86a9d44c0df0d7b3d08b1febe5cbb35803f1b02d89471b3383856000815181106119505761194f613912565b5b60200260200101518660018151811061196c5761196b613912565b5b6020026020010151604051611984949392919061414d565b60405180910390a15050611b98565b60005b6000805490508160ff161015611b5757600073ffffffffffffffffffffffffffffffffffffffff1660008260ff16815481106119d5576119d4613912565b5b90600052602060002090600c020160040160009054906101000a900473ffffffffffffffffffffffffffffffffffffffff1673ffffffffffffffffffffffffffffffffffffffff1614611b44573360008260ff1681548110611a3a57611a39613912565b5b90600052602060002090600c020160040160006101000a81548173ffffffffffffffffffffffffffffffffffffffff021916908373ffffffffffffffffffffffffffffffffffffffff1602179055507f3baf3f8e2dd70ad22e86a9d44c0df0d7b3d08b1febe5cbb35803f1b02d89471b3360008360ff1681548110611ac257611ac1613912565b5b90600052602060002090600c02016000015460008460ff1681548110611aeb57611aea613912565b5b90600052602060002090600c02016002015460008560ff1681548110611b1457611b13613912565b5b90600052602060002090600c020160010154604051611b369493929190613ffe565b60405180910390a150611b98565b8080611b4f906139d0565b915050611996565b507f3baf3f8e2dd70ad22e86a9d44c0df0d7b3d08b1febe5cbb35803f1b02d89471b336000806000604051611b8f94939291906140bc565b60405180910390a15b505050565b60005b6000805490508160ff161015611ee5578360008260ff1681548110611bc857611bc7613912565b5b90600052602060002090600c02016000015403611ed2573373ffffffffffffffffffffffffffffffffffffffff1660008260ff1681548110611c0d57611c0c613912565b5b90600052602060002090600c020160030160009054906101000a900473ffffffffffffffffffffffffffffffffffffffff1673ffffffffffffffffffffffffffffffffffffffff16148015611c94575060008160ff1681548110611c7457611c73613912565b5b90600052602060002090600c020160070160009054906101000a900460ff165b15611d5957828260008360ff1681548110611cb257611cb1613912565b5b90600052602060002090600c0201600a019182611cd092919061419d565b507f9896a41f3ec53837e18850fc683491a3edd592acbd543159a73aae26e3e64b2860008260ff1681548110611d0957611d08613912565b5b90600052602060002090600c020160040160009054906101000a900473ffffffffffffffffffffffffffffffffffffffff168484604051611d4c9392919061429a565b60405180910390a1611ed1565b3373ffffffffffffffffffffffffffffffffffffffff1660008260ff1681548110611d8757611d86613912565b5b90600052602060002090600c020160040160009054906101000a900473ffffffffffffffffffffffffffffffffffffffff1673ffffffffffffffffffffffffffffffffffffffff16148015611e0f575060008160ff1681548110611dee57611ded613912565b5b90600052602060002090600c020160070160009054906101000a900460ff16155b15611ed057828260008360ff1681548110611e2d57611e2c613912565b5b90600052602060002090600c0201600a019182611e4b92919061419d565b507f9896a41f3ec53837e18850fc683491a3edd592acbd543159a73aae26e3e64b2860008260ff1681548110611e8457611e83613912565b5b90600052602060002090600c020160030160009054906101000a900473ffffffffffffffffffffffffffffffffffffffff168484604051611ec79392919061429a565b60405180910390a15b5b5b8080611edd906139d0565b915050611ba0565b50505050565b600080600160f81b905060005b6000805490508160ff161015612101578460008260ff1681548110611f2057611f1f613912565b5b90600052602060002090600c020160000154036120ee576000805b60008360ff1681548110611f5257611f51613912565b5b90600052602060002090600c0201600101548110156120715760005b60008460ff1681548110611f8557611f84613912565b5b90600052602060002090600c02016001015481101561205d57847effffffffffffffffffffffffffffffffffffffffffffffffffffffffffffff1916878381518110611fd457611fd3613912565b5b60200260200101518281518110611fee57611fed613912565b5b602002602001015160008151811061200957612008613912565b5b602001015160f81c60f81b7effffffffffffffffffffffffffffffffffffffffffffffffffffffffffffff19160361204a578280612046906139d0565b9350505b808061205590613b4f565b915050611f6e565b50808061206990613b4f565b915050611f3b565b5060008260ff168154811061208957612088613912565b5b90600052602060002090600c0201600201548160ff16036120ec573373ffffffffffffffffffffffffffffffffffffffff166108fc479081150290604051600060405180830381858888f193505050501580156120ea573d6000803e3d6000fd5b505b505b80806120f9906139d0565b915050611ef8565b505092915050565b60005b6000805490508160ff1610156123b8578260008260ff168154811061213457612133613912565b5b90600052602060002090600c020160000154036123a5576000808260ff168154811061216357612162613912565b5b90600052602060002090600c0201600501541215612331578160008260ff168154811061219357612192613912565b5b90600052602060002090600c0201600501819055503373ffffffffffffffffffffffffffffffffffffffff1660008260ff16815481106121d6576121d5613912565b5b90600052602060002090600c020160030160009054906101000a900473ffffffffffffffffffffffffffffffffffffffff1673ffffffffffffffffffffffffffffffffffffffff16036122a9577f8baeb50b886fb168a371117c6cb88337a25606fe162d778425bd068ef9d25da560008260ff168154811061225b5761225a613912565b5b90600052602060002090600c020160040160009054906101000a900473ffffffffffffffffffffffffffffffffffffffff168360405161229c9291906142cc565b60405180910390a161232b565b7f8baeb50b886fb168a371117c6cb88337a25606fe162d778425bd068ef9d25da560008260ff16815481106122e1576122e0613912565b5b90600052602060002090600c020160040160009054906101000a900473ffffffffffffffffffffffffffffffffffffffff16836040516123229291906142cc565b60405180910390a15b506123ba565b8160008260ff168154811061234957612348613912565b5b90600052602060002090600c0201600501540361239f5760028261236d91906142f5565b60008260ff168154811061238457612383613912565b5b90600052602060002090600c020160060181905550506123ba565b506123ba565b80806123b0906139d0565b91505061210c565b505b5050565b606060005b6000805490508160ff1610156124ce578260008260ff16815481106123eb576123ea613912565b5b90600052602060002090600c020160000154036124bb5760008160ff168154811061241957612418613912565b5b90600052602060002090600c0201600a01805461243590613aa0565b80601f016020809104026020016040519081016040528092919081815260200182805461246190613aa0565b80156124ae5780601f10612483576101008083540402835291602001916124ae565b820191906000526020600020905b81548152906001019060200180831161249157829003601f168201915b50505050509150506124d0565b80806124c6906139d0565b9150506123c3565b505b919050565b60005b6000805490508160ff161015612710578260008260ff1681548110612500576124ff613912565b5b90600052602060002090600c020160000154036126fd573373ffffffffffffffffffffffffffffffffffffffff1660008260ff168154811061254557612544613912565b5b90600052602060002090600c020160030160009054906101000a900473ffffffffffffffffffffffffffffffffffffffff1673ffffffffffffffffffffffffffffffffffffffff16036125c4578160008260ff16815481106125aa576125a9613912565b5b90600052602060002090600c0201600801819055506125f2565b8160008260ff16815481106125dc576125db613912565b5b90600052602060002090600c0201600901819055505b600160008260ff168154811061260b5761260a613912565b5b90600052602060002090600c020160070160006101000a81548160ff0219169083151502179055507fca8e1fe07bfdc2062d88c000bbc3453971e9ea79bdb90e60748c50e8526026b760008260ff168154811061266b5761266a613912565b5b90600052602060002090600c020160030160009054906101000a900473ffffffffffffffffffffffffffffffffffffffff1660008360ff16815481106126b4576126b3613912565b5b90600052602060002090600c020160040160009054906101000a900473ffffffffffffffffffffffffffffffffffffffff166040516126f4929190613fd5565b60405180910390a15b8080612708906139d0565b9150506124d8565b505050565b60008060028360400151612729919061436d565b905060008360e00151156128055760005b846101600151518110156127ff57846101600151518110156127eb5760006127b6866101600151838151811061277357612772613912565b5b60200260200101516040518060400160405280600181526020017f2d000000000000000000000000000000000000000000000000000000000000008152506128f1565b90506127dc816002815181106127cf576127ce613912565b5b6020026020010151612ab8565b836127e791906143af565b9250505b6002816127f891906143af565b905061273a565b506128d3565b6000600190505b846101600151518110156128d157846101600151518110156128bd576000612888866101600151838151811061284557612844613912565b5b60200260200101516040518060400160405280600181526020017f2d000000000000000000000000000000000000000000000000000000000000008152506128f1565b90506128ae816002815181106128a1576128a0613912565b5b6020026020010151612ab8565b836128b991906143af565b9250505b6002816128ca91906143af565b905061280c565b505b8181036128e5576001925050506128ec565b6000925050505b919050565b606060006040518060200160405280600081525090506000808590506000865167ffffffffffffffff81111561292a57612929613123565b5b60405190808252806020026020018201604052801561295d57816020015b60608152602001906001900390816129485790505b50905060005b8251811015612a8b57866000815181106129805761297f613912565b5b602001015160f81c60f81b7effffffffffffffffffffffffffffffffffffffffffffffffffffffffffffff19168382815181106129c0576129bf613912565b5b602001015160f81c60f81b7effffffffffffffffffffffffffffffffffffffffffffffffffffffffffffff191603612a365784828581518110612a0657612a05613912565b5b60200260200101819052506040518060200160405280600081525094508380612a2e90613b4f565b945050612a78565b84888281518110612a4a57612a49613912565b5b602001015160f81c60f81b604051602001612a6692919061446c565b60405160208183030381529060405294505b8080612a8390613b4f565b915050612963565b5083818481518110612aa057612a9f613912565b5b60200260200101819052508094505050505092915050565b6000808290506000805b8251811015612b45576000838281518110612ae057612adf613912565b5b602001015160f81c60f81b60f81c60ff16905060308110158015612b05575060398111155b15612b3157603081612b179190614494565b600a84612b24919061436d565b612b2e91906143af565b92505b508080612b3d90613b4f565b915050612ac2565b508092505050919050565b828054828255906000526020600020908101928215612b98579160200282015b82811115612b97578251829081612b879190613e26565b5091602001919060010190612b70565b5b509050612ba59190612ba9565b5090565b5b80821115612bc95760008181612bc09190612bcd565b50600101612baa565b5090565b508054612bd990613aa0565b6000825580601f10612beb5750612c0a565b601f016020900490600052602060002090810190612c099190612c0d565b5b50565b5b80821115612c26576000816000905550600101612c0e565b5090565b6000604051905090565b600080fd5b600080fd5b6000819050919050565b612c5181612c3e565b8114612c5c57600080fd5b50565b600081359050612c6e81612c48565b92915050565b600060208284031215612c8a57612c89612c34565b5b6000612c9884828501612c5f565b91505092915050565b612caa81612c3e565b82525050565b600081519050919050565b600082825260208201905092915050565b60005b83811015612cea578082015181840152602081019050612ccf565b60008484015250505050565b6000601f19601f8301169050919050565b6000612d1282612cb0565b612d1c8185612cbb565b9350612d2c818560208601612ccc565b612d3581612cf6565b840191505092915050565b600073ffffffffffffffffffffffffffffffffffffffff82169050919050565b6000612d6b82612d40565b9050919050565b612d7b81612d60565b82525050565b60008115159050919050565b612d9681612d81565b82525050565b600081519050919050565b600082825260208201905092915050565b6000612dc382612d9c565b612dcd8185612da7565b9350612ddd818560208601612ccc565b612de681612cf6565b840191505092915050565b600081519050919050565b600082825260208201905092915050565b6000819050602082019050919050565b600082825260208201905092915050565b6000612e3982612d9c565b612e438185612e1d565b9350612e53818560208601612ccc565b612e5c81612cf6565b840191505092915050565b6000612e738383612e2e565b905092915050565b6000602082019050919050565b6000612e9382612df1565b612e9d8185612dfc565b935083602082028501612eaf85612e0d565b8060005b85811015612eeb5784840389528151612ecc8582612e67565b9450612ed783612e7b565b925060208a01995050600181019050612eb3565b50829750879550505050505092915050565b600061018082019050612f13600083018f612ca1565b8181036020830152612f25818e612d07565b90508181036040830152612f39818d612d07565b9050612f48606083018c612d72565b612f55608083018b612d72565b81810360a0830152612f67818a612d07565b905081810360c0830152612f7b8189612d07565b9050612f8a60e0830188612d8d565b612f98610100830187612ca1565b612fa6610120830186612ca1565b818103610140830152612fb98185612db8565b9050818103610160830152612fce8184612e88565b90509d9c50505050505050505050505050565b6000819050919050565b612ff481612fe1565b8114612fff57600080fd5b50565b60008135905061301181612feb565b92915050565b60006020828403121561302d5761302c612c34565b5b600061303b84828501613002565b91505092915050565b61304d81612fe1565b82525050565b6000819050919050565b61306681613053565b82525050565b600061016082019050613082600083018e612ca1565b61308f602083018d613044565b61309c604083018c613044565b6130a9606083018b612d72565b6130b6608083018a612d72565b6130c360a083018961305d565b6130d060c083018861305d565b6130dd60e0830187612d8d565b6130eb610100830186612ca1565b6130f9610120830185612ca1565b81810361014083015261310c8184612db8565b90509c9b505050505050505050505050565b600080fd5b7f4e487b7100000000000000000000000000000000000000000000000000000000600052604160045260246000fd5b61315b82612cf6565b810181811067ffffffffffffffff8211171561317a57613179613123565b5b80604052505050565b600061318d612c2a565b90506131998282613152565b919050565b600067ffffffffffffffff8211156131b9576131b8613123565b5b602082029050602081019050919050565b600080fd5b60006131e26131dd8461319e565b613183565b90508083825260208201905060208402830185811115613205576132046131ca565b5b835b8181101561322e578061321a8882612c5f565b845260208401935050602081019050613207565b5050509392505050565b600082601f83011261324d5761324c61311e565b5b813561325d8482602086016131cf565b91505092915050565b61326f81612d81565b811461327a57600080fd5b50565b60008135905061328c81613266565b92915050565b600080600080608085870312156132ac576132ab612c34565b5b60006132ba87828801612c5f565b945050602085013567ffffffffffffffff8111156132db576132da612c39565b5b6132e787828801613238565b93505060406132f88782880161327d565b925050606061330987828801613002565b91505092959194509250565b600060208201905061332a600083018461305d565b92915050565b600067ffffffffffffffff82111561334b5761334a613123565b5b602082029050602081019050919050565b600060ff82169050919050565b6133728161335c565b811461337d57600080fd5b50565b60008135905061338f81613369565b92915050565b60006133a86133a384613330565b613183565b905080838252602082019050602084028301858111156133cb576133ca6131ca565b5b835b818110156133f457806133e08882613380565b8452602084019350506020810190506133cd565b5050509392505050565b600082601f8301126134135761341261311e565b5b8135613423848260208601613395565b91505092915050565b60008060006060848603121561344557613444612c34565b5b600061345386828701612c5f565b93505060206134648682870161327d565b925050604084013567ffffffffffffffff81111561348557613484612c39565b5b613491868287016133fe565b9150509250925092565b600080fd5b60008083601f8401126134b6576134b561311e565b5b8235905067ffffffffffffffff8111156134d3576134d261349b565b5b6020830191508360018202830111156134ef576134ee6131ca565b5b9250929050565b60008060006040848603121561350f5761350e612c34565b5b600061351d86828701612c5f565b935050602084013567ffffffffffffffff81111561353e5761353d612c39565b5b61354a868287016134a0565b92509250509250925092565b600067ffffffffffffffff82111561357157613570613123565b5b602082029050602081019050919050565b600067ffffffffffffffff82111561359d5761359c613123565b5b602082029050602081019050919050565b600080fd5b600067ffffffffffffffff8211156135ce576135cd613123565b5b6135d782612cf6565b9050602081019050919050565b82818337600083830152505050565b6000613606613601846135b3565b613183565b905082815260208101848484011115613622576136216135ae565b5b61362d8482856135e4565b509392505050565b600082601f83011261364a5761364961311e565b5b813561365a8482602086016135f3565b91505092915050565b600061367661367184613582565b613183565b90508083825260208201905060208402830185811115613699576136986131ca565b5b835b818110156136e057803567ffffffffffffffff8111156136be576136bd61311e565b5b8086016136cb8982613635565b8552602085019450505060208101905061369b565b5050509392505050565b600082601f8301126136ff576136fe61311e565b5b813561370f848260208601613663565b91505092915050565b600061372b61372684613556565b613183565b9050808382526020820190506020840283018581111561374e5761374d6131ca565b5b835b8181101561379557803567ffffffffffffffff8111156137735761377261311e565b5b80860161378089826136ea565b85526020850194505050602081019050613750565b5050509392505050565b600082601f8301126137b4576137b361311e565b5b81356137c4848260208601613718565b91505092915050565b600080604083850312156137e4576137e3612c34565b5b60006137f285828601612c5f565b925050602083013567ffffffffffffffff81111561381357613812612c39565b5b61381f8582860161379f565b9150509250929050565b600060208201905061383e6000830184612d8d565b92915050565b61384d81613053565b811461385857600080fd5b50565b60008135905061386a81613844565b92915050565b6000806040838503121561388757613886612c34565b5b600061389585828601612c5f565b92505060206138a68582860161385b565b9150509250929050565b600060208201905081810360008301526138ca8184612db8565b905092915050565b600080604083850312156138e9576138e8612c34565b5b60006138f785828601612c5f565b925050602061390885828601612c5f565b9150509250929050565b7f4e487b7100000000000000000000000000000000000000000000000000000000600052603260045260246000fd5b7f4e487b7100000000000000000000000000000000000000000000000000000000600052601260045260246000fd5b7f4e487b7100000000000000000000000000000000000000000000000000000000600052601160045260246000fd5b60006139aa82612fe1565b91506139b583612fe1565b9250826139c5576139c4613941565b5b828204905092915050565b60006139db8261335c565b915060ff82036139ee576139ed613970565b5b600182019050919050565b6000819050919050565b613a14613a0f82612fe1565b6139f9565b82525050565b6000613a268284613a03565b60208201915081905092915050565b6000819050919050565b613a50613a4b82613053565b613a35565b82525050565b6000613a628284613a3f565b60208201915081905092915050565b7f4e487b7100000000000000000000000000000000000000000000000000000000600052602260045260246000fd5b60006002820490506001821680613ab857607f821691505b602082108103613acb57613aca613a71565b5b50919050565b6000613adc82612fe1565b9150613ae783612fe1565b925082613af757613af6613941565b5b828206905092915050565b6000819050919050565b613b1d613b1882612c3e565b613b02565b82525050565b6000613b2f8285613b0c565b602082019150613b3f8284613b0c565b6020820191508190509392505050565b6000613b5a82612fe1565b91507fffffffffffffffffffffffffffffffffffffffffffffffffffffffffffffffff8203613b8c57613b8b613970565b5b600182019050919050565b600081905092915050565b60008190508160005260206000209050919050565b60008154613bc481613aa0565b613bce8186613b97565b94506001821660008114613be95760018114613bfe57613c31565b60ff1983168652811515820286019350613c31565b613c0785613ba2565b60005b83811015613c2957815481890152600182019150602081019050613c0a565b838801955050505b50505092915050565b6000613c4582612d9c565b613c4f8185613b97565b9350613c5f818560208601612ccc565b80840191505092915050565b6000613c778285613bb7565b9150613c838284613c3a565b91508190509392505050565b60006020601f8301049050919050565b600082821b905092915050565b600060088302613cdc7fffffffffffffffffffffffffffffffffffffffffffffffffffffffffffffffff82613c9f565b613ce68683613c9f565b95508019841693508086168417925050509392505050565b6000819050919050565b6000613d23613d1e613d1984612fe1565b613cfe565b612fe1565b9050919050565b6000819050919050565b613d3d83613d08565b613d51613d4982613d2a565b848454613cac565b825550505050565b600090565b613d66613d59565b613d71818484613d34565b505050565b5b81811015613d9557613d8a600082613d5e565b600181019050613d77565b5050565b601f821115613dda57613dab81613ba2565b613db484613c8f565b81016020851015613dc3578190505b613dd7613dcf85613c8f565b830182613d76565b50505b505050565b600082821c905092915050565b6000613dfd60001984600802613ddf565b1980831691505092915050565b6000613e168383613dec565b9150826002028217905092915050565b613e2f82612d9c565b67ffffffffffffffff811115613e4857613e47613123565b5b613e528254613aa0565b613e5d828285613d99565b600060209050601f831160018114613e905760008415613e7e578287015190505b613e888582613e0a565b865550613ef0565b601f198416613e9e86613ba2565b60005b82811015613ec657848901518255600182019150602085019450602081019050613ea1565b86831015613ee35784890151613edf601f891682613dec565b8355505b6001600288020188555050505b505050505050565b60008154613f0581613aa0565b613f0f8186612da7565b94506001821660008114613f2a5760018114613f4057613f73565b60ff198316865281151560200286019350613f73565b613f4985613ba2565b60005b83811015613f6b57815481890152600182019150602081019050613f4c565b808801955050505b50505092915050565b6000606082019050613f916000830186612d72565b613f9e6020830185612d8d565b8181036040830152613fb08184613ef8565b9050949350505050565b6000602082019050613fcf6000830184612d72565b92915050565b6000604082019050613fea6000830185612d72565b613ff76020830184612d72565b9392505050565b60006080820190506140136000830187612d72565b6140206020830186612ca1565b61402d6040830185613044565b61403a6060830184613044565b95945050505050565b6000819050919050565b60008160001b9050919050565b600061407561407061406b84614043565b61404d565b612c3e565b9050919050565b6140858161405a565b82525050565b60006140a66140a161409c84614043565b613cfe565b612fe1565b9050919050565b6140b68161408b565b82525050565b60006080820190506140d16000830187612d72565b6140de602083018661407c565b6140eb60408301856140ad565b6140f860608301846140ad565b95945050505050565b60006020820190506141166000830184613044565b92915050565b600061413761413261412d8461335c565b613cfe565b612fe1565b9050919050565b6141478161411c565b82525050565b60006080820190506141626000830187612d72565b61416f6020830186612ca1565b61417c604083018561413e565b614189606083018461413e565b95945050505050565b600082905092915050565b6141a78383614192565b67ffffffffffffffff8111156141c0576141bf613123565b5b6141ca8254613aa0565b6141d5828285613d99565b6000601f83116001811461420457600084156141f2578287013590505b6141fc8582613e0a565b865550614264565b601f19841661421286613ba2565b60005b8281101561423a57848901358255600182019150602085019450602081019050614215565b868310156142575784890135614253601f891682613dec565b8355505b6001600288020188555050505b50505050505050565b60006142798385612da7565b93506142868385846135e4565b61428f83612cf6565b840190509392505050565b60006040820190506142af6000830186612d72565b81810360208301526142c281848661426d565b9050949350505050565b60006040820190506142e16000830185612d72565b6142ee602083018461305d565b9392505050565b600061430082613053565b915061430b83613053565b925082820261431981613053565b91507f8000000000000000000000000000000000000000000000000000000000000000841460008412161561435157614350613970565b5b828205841483151761436657614365613970565b5b5092915050565b600061437882612fe1565b915061438383612fe1565b925082820261439181612fe1565b915082820484148315176143a8576143a7613970565b5b5092915050565b60006143ba82612fe1565b91506143c583612fe1565b92508282019050808211156143dd576143dc613970565b5b92915050565b600081905092915050565b60006143f982612cb0565b61440381856143e3565b9350614413818560208601612ccc565b80840191505092915050565b60007fff0000000000000000000000000000000000000000000000000000000000000082169050919050565b6000819050919050565b6144666144618261441f565b61444b565b82525050565b600061447882856143ee565b91506144848284614455565b6001820191508190509392505050565b600061449f82612fe1565b91506144aa83612fe1565b92508282039050818111156144c2576144c1613970565b5b9291505056fea2646970667358221220060455bf67f00a6492234507f36ba7d31de9c7bdee1a29189429f968751d915f64736f6c63430008130033",
  "immutableReferences": {},
  "source": "// SPDX-License-Identifier: MIT \npragma solidity >=0.8.2 <0.9.0;\npragma abicoder v2;\npragma experimental ABIEncoderV2;\n\ncontract Game {\n\n    struct GameMatch{\n        bytes32 gameId;\n        uint tableSize;\n        uint ships;\n        address p1; // also the creator\n        address p2;\n        int registration; // -1: not registered, otherwise the amount \n        int reward;\n        bool turn; // if true --> p1 have to play otherwise p2 \n        bytes32 b1; // hash of the board to proof merkle tree\n        bytes32 b2;\n        string lastMove; // last move played in the game [1-2][2-4][1-1][2-2] --> first x then y\n        string[] moves;     // l'array avr quindi le caselle pari per il p1 e disapari per il p2 e li metterai le mosse fatte in chiaro\n                            // con anche il risultato della mossa tipo 1.1.0 (casella 1 1 mancato) 2.1.1 (casella 2 1 colpito)\n    }\n\n    GameMatch[] public matches;\n    event SendNewGameCreate(address player, bytes32 gameId, uint ships, uint tableSize);\n    event SendRequestAmount(address player, int amount);    //tell to the player to put the money to start play\n    event SendTurnAdvice(address play, address wait);   //tell to the player that is his/her turn\n    event SendMovesAdvice(address player, string move);  //tell to the player that have been shoot\n    event SendRequestBoard(address player);   //tell to the player that have won\n    event SendWrongMove(address player);    //tell to the player that is not a valid move\n    event SendVictory(address player);\n    event SendMoveResult(address player, bool hit, string coordinate);\n\n    function join(bytes32 _gameId, bool _isNew, uint8[] memory _info) public{\n        \n        // set player 2 in case of given game id\n        if(_gameId != 0){\n            for(uint8 i=0; i < matches.length; i++){\n                if(matches[i].gameId == _gameId){\n                    if(matches[i].p2 == address(0)){\n                        matches[i].p2 = msg.sender;\n                        emit SendNewGameCreate(msg.sender, matches[i].gameId, matches[i].ships, matches[i].tableSize);\n                        return;\n                    }\n                    else{\n                        emit SendNewGameCreate(msg.sender, 0, 0, 0);\n                        return;\n                    }\n                }\n            }\n        }\n\n        if(_isNew){\n            // otherwise create a new game\n            bytes32 newGameId = keccak256(abi.encode(matches.length));\n            string[] memory _moves = new string[](0);\n            matches.push(GameMatch(newGameId, _info[1], _info[0], msg.sender, address(0), -1, 0, true, 0, 0, \"\",  _moves));\n            emit SendNewGameCreate(msg.sender, newGameId, _info[0], _info[1]);\n            return;\n        }\n\n        // set player 2 in random game if available\n        for(uint8 i=0; i<matches.length; i++){\n            if(matches[i].p2 != address(0)){\n                matches[i].p2=msg.sender;\n                emit SendNewGameCreate(msg.sender, matches[i].gameId, matches[i].ships, matches[i].tableSize);\n                return;\n            }\n        }\n\n        emit SendNewGameCreate(msg.sender, 0, 0, 0);\n    }\n\n    /**\n        The two part agree offline and the first who call this method\n        also set the reward.    \n     */\n    function setReward(bytes32 _gameId, int _registration) external{\n        for(uint8 i=0; i<matches.length; i++){\n            if(matches[i].gameId == _gameId){\n                if(matches[i].registration < 0){\n                    matches[i].registration=_registration;\n                    if(matches[i].p1==msg.sender)\n                        emit SendRequestAmount(matches[i].p2, _registration);\n                    else\n                        emit SendRequestAmount(matches[i].p2, _registration);\n                    return;\n                }\n                else{\n                    if(matches[i].registration == _registration){\n                        matches[i].reward=_registration*2;\n                        return;\n                    }\n                    else{\n                        return;\n                    }\n                }\n            }\n        }\n    }\n\n    function getInformations(bytes32 _gameId) external view returns(\n        bytes32, \n        bytes memory,\n        bytes memory,\n        address ,\n        address ,\n        bytes memory ,\n        bytes memory ,\n        bool , \n        bytes32 ,\n        bytes32 ,\n        string memory,\n        string[] memory\n    ){\n        for(uint8 i=0; i < matches.length; i++){\n            if(matches[i].gameId == _gameId){\n                return(matches[i].gameId, abi.encodePacked(matches[i].tableSize), abi.encodePacked(matches[i].ships), matches[i].p1, matches[i].p2, abi.encodePacked(matches[i].registration), abi.encodePacked(matches[i].reward), matches[i].turn, matches[i].b1, matches[i].b2, matches[i].lastMove, matches[i].moves);\n            }\n        }\n    }\n\n    function getReward(bytes32 _gameId) external view returns(int){\n        for(uint8 i=0; i < matches.length; i++){\n            if(matches[i].gameId == _gameId){\n                return matches[i].registration;\n            }\n        }\n    }\n\n    function pay(bytes32 _gameId) public payable{\n        for(uint8 i=0; i < matches.length; i++){\n            if(matches[i].gameId == _gameId){\n                require((msg.value/1000000000000000000) == uint(matches[i].registration));\n            }\n        }\n    }\n\n    function setBoard(bytes32 _gameId, bytes32 _hashedBoard) public{\n        for(uint8 i=0; i < matches.length; i++){\n            if(matches[i].gameId == _gameId){\n                if(matches[i].p1==msg.sender){\n                    matches[i].b1=_hashedBoard;\n                }\n                else{\n                    matches[i].b2=_hashedBoard;\n                }\n                matches[i].turn=true;\n                emit SendTurnAdvice(matches[i].p1, matches[i].p2);\n            }\n        }\n    }\n\n    function shoot(bytes32 _gameId, string calldata _coordinate) public{\n        // stores the coordination for the other player\n        for(uint8 i=0; i < matches.length; i++){\n            if(matches[i].gameId == _gameId){\n                if(matches[i].p1==msg.sender && matches[i].turn){\n                    matches[i].lastMove=_coordinate;\n                    emit SendMovesAdvice(matches[i].p2, _coordinate);\n                }\n                else if(matches[i].p2==msg.sender && !matches[i].turn){\n                    matches[i].lastMove=_coordinate;\n                    emit SendMovesAdvice(matches[i].p1, _coordinate);\n                }\n            }\n        }\n    }\n\n    /**\n        get the last move of the game\n        then compute the merkle tree as a proof \n     */\n    function getLastMoves(bytes32 _gameId) public view returns(string memory){\n        for(uint8 i=0; i < matches.length; i++){\n            if(matches[i].gameId == _gameId){\n                return matches[i].lastMove;\n            }\n        }\n    }\n\n    function checkMerkleProof(bytes32 _gameId, bytes32[] memory _sibilings, bool _hit, uint256 _leafIndex) public {\n        \n        for(uint8 i=0; i < matches.length; i++){\n            if(matches[i].gameId == _gameId){\n                bytes32 _trueBoard;\n                if(matches[i].p1==msg.sender){\n                    _trueBoard=matches[i].b1;\n                }\n                else{\n                    _trueBoard=matches[i].b2;\n                }        \n                \n               \n                //uint row = stringToUint(splitString(matches[i].lastMove, \"-\")[0]) - 1;\n                //uint col = stringToUint(splitString(matches[i].lastMove, \"-\")[1]) - 1;\n                //uint toCheck = row*matches[i].tableSize + col;\n                \n                //if(toCheck%2!=0){\n                //    bytes32 _t = _sibilings[0];\n                //    _sibilings[0] = _sibilings[1];\n                //    _sibilings[1] = _t;\n                //}\n\n                bytes32 _b=_sibilings[0];\n                for(uint j=1; j < _sibilings.length; j++){\n                    // compute the merkle proof\n                    bytes32 _b1=_b;\n                    bytes32 _b2=_sibilings[j];\n                    if(_leafIndex% 2 == 0)\n                        _b=keccak256(abi.encodePacked(_b1, _b2));\n                    else\n                        _b=keccak256(abi.encodePacked(_b2, _b1));\n\n                    _leafIndex = _leafIndex / 2;\n                }\n\n                // confronta il risultato con _b se ok allora memorizza la mossa valida e return true\n\n                if(_b == _trueBoard){\n                    string memory _r=_hit?\"-1\":\"-0\";\n                    matches[i].moves.push(string(abi.encodePacked(matches[i].lastMove, _r)));\n                    address _wait;\n                    if(msg.sender==matches[i].p1){\n                        _wait=matches[i].p2;\n                        emit SendMoveResult(matches[i].p2, _hit, matches[i].lastMove);\n                    }else{\n                        _wait =matches[i].p1;\n                        emit SendMoveResult(matches[i].p1, _hit, matches[i].lastMove);\n                    }\n\n                    // chiama la funzione checkWin e richiedi la board da controllare\n                    if(checkWin(matches[i])){\n                        emit SendRequestBoard(msg.sender);\n                        \n                    }else{\n                        // altrimenti emetti l'evento cambia turno\n                        emit SendTurnAdvice(msg.sender, _wait);\n                        matches[i].turn ? matches[i].turn=false : matches[i].turn=true; \n                    }\n                        \n                    return;\n                }\n                else{   \n                    emit SendWrongMove(msg.sender);             \n                    return;\n                }                \n            }\n        }\n    }\n\n    function checkWin(GameMatch memory g) internal pure returns(bool){\n        uint _shipToSink=g.ships*2; //because all ships have fixed length of two\n        uint _shipSinked=0;\n        if(g.turn){\n            for (uint i=0; i<g.moves.length; i+=2){\n                if(i < g.moves.length){\n                    string[] memory _s = splitString(g.moves[i], \"-\");\n                    _shipSinked += stringToUint(_s[2]);\n                }\n            }\n        }else{\n            for(uint i = 1; i < g.moves.length; i+=2){\n                if(i < g.moves.length){\n                    string[] memory _s = splitString(g.moves[i], \"-\");\n                    _shipSinked += stringToUint(_s[2]);\n                }\n            }\n        }\n\n        if(_shipSinked==_shipToSink){\n            return true;\n        }else{\n            return false;\n        }\n    }\n\n    function checkBoard(bytes32 _gameId, string[][] memory _board) public payable returns(bool){\n        bytes1 _one = 0x01;        \n        for(uint8 i=0; i < matches.length; i++){\n            if(matches[i].gameId == _gameId){\n                //controllo sovrapposizioni navi\n                uint8 count=0;\n                for(uint q = 0; q < matches[i].tableSize; q++){\n                    for(uint k = 0; k < matches[i].tableSize; k++){\n                        if(bytes(_board[q][k])[0] == _one) //there is a ship\n                            count++;\n                    }\n                }\n\n                if(count == matches[i].ships){ //there aren't ship overlapped\n                    payable(msg.sender).transfer(address(this).balance);\n                }\n            }\n        }\n    }\n\n    function notifyDelay() public{\n        //wait for 5 blocks and if there isn't a reply\n        // pay the other player\n    }\n\n    fallback() external{\n        pay(0);\n    }\n\n\n    /**\n        Some utility functions for internal use only    \n     */\n    function splitString(string memory _s, string memory _separator) internal pure returns(string[] memory){\n        string memory _temp=\"\";\n        uint count=0;\n        bytes memory _sbytes=bytes(_s);\n        string[] memory _res = new string[](bytes(_s).length);\n        for(uint i=0; i < _sbytes.length; i++){\n            if(_sbytes[i]==bytes(_separator)[0]){\n                _res[count] = _temp;\n                _temp=\"\";\n                count++;\n            }\n            else{\n                _temp=string(bytes.concat(bytes(_temp), bytes(_s)[i]));\n            }\n        }\n        _res[count] = _temp;\n        return _res;\n    }\n\n    function stringToUint(string memory _str) internal pure returns (uint) {\n        bytes memory b = bytes(_str);\n        uint result = 0;\n        for (uint i = 0; i < b.length; i++) {\n            uint c = uint(uint8(b[i]));\n            if (c >= 48 && c <= 57) {\n                result = result * 10 + (c - 48);\n            }\n        }\n        return result;\n    }\n}",
  "sourcePath": "/home/davide/Documenti/magistrale/P2PBC/projects/battleship/contracts/Game.sol",
  "compiler": {
    "name": "solc",
    "version": "0.8.19+commit.7dd6d404.Emscripten.clang"
  },
  "schemaVersion": "3.4.13",
  "updatedAt": "2023-06-12T13:22:17.969Z",
  "networkType": "ethereum",
  "devdoc": {
    "kind": "dev",
    "methods": {},
    "version": 1
  },
  "userdoc": {
    "kind": "user",
    "methods": {
      "getLastMoves(bytes32)": {
        "notice": "get the last move of the game then compute the merkle tree as a proof "
      },
      "setReward(bytes32,int256)": {
        "notice": "The two part agree offline and the first who call this method also set the reward.    "
      }
    },
    "version": 1
  }
}