{
  "contractName": "Game",
  "abi": [
    {
      "anonymous": false,
      "inputs": [
        {
          "indexed": false,
          "internalType": "address",
          "name": "player",
          "type": "address"
        },
        {
          "indexed": false,
          "internalType": "bool",
          "name": "hit",
          "type": "bool"
        },
        {
          "indexed": false,
          "internalType": "string",
          "name": "coordinate",
          "type": "string"
        }
      ],
      "name": "SendMoveResult",
      "type": "event"
    },
    {
      "anonymous": false,
      "inputs": [
        {
          "indexed": false,
          "internalType": "address",
          "name": "player",
          "type": "address"
        },
        {
          "indexed": false,
          "internalType": "string",
          "name": "move",
          "type": "string"
        }
      ],
      "name": "SendMovesAdvice",
      "type": "event"
    },
    {
      "anonymous": false,
      "inputs": [
        {
          "indexed": false,
          "internalType": "address",
          "name": "player",
          "type": "address"
        },
        {
          "indexed": false,
          "internalType": "bytes32",
          "name": "gameId",
          "type": "bytes32"
        },
        {
          "indexed": false,
          "internalType": "uint256",
          "name": "ships",
          "type": "uint256"
        },
        {
          "indexed": false,
          "internalType": "uint256",
          "name": "tableSize",
          "type": "uint256"
        }
      ],
      "name": "SendNewGameCreate",
      "type": "event"
    },
    {
      "anonymous": false,
      "inputs": [
        {
          "indexed": false,
          "internalType": "address",
          "name": "player",
          "type": "address"
        },
        {
          "indexed": false,
          "internalType": "int256",
          "name": "amount",
          "type": "int256"
        }
      ],
      "name": "SendRequestAmount",
      "type": "event"
    },
    {
      "anonymous": false,
      "inputs": [
        {
          "indexed": false,
          "internalType": "address",
          "name": "player",
          "type": "address"
        }
      ],
      "name": "SendRequestBoard",
      "type": "event"
    },
    {
      "anonymous": false,
      "inputs": [
        {
          "indexed": false,
          "internalType": "address",
          "name": "player",
          "type": "address"
        }
      ],
      "name": "SendTurnAdvice",
      "type": "event"
    },
    {
      "anonymous": false,
      "inputs": [
        {
          "indexed": false,
          "internalType": "address",
          "name": "player",
          "type": "address"
        }
      ],
      "name": "SendVictory",
      "type": "event"
    },
    {
      "anonymous": false,
      "inputs": [
        {
          "indexed": false,
          "internalType": "address",
          "name": "player",
          "type": "address"
        }
      ],
      "name": "SendWrongMove",
      "type": "event"
    },
    {
      "stateMutability": "nonpayable",
      "type": "fallback"
    },
    {
      "inputs": [
        {
          "internalType": "uint256",
          "name": "",
          "type": "uint256"
        }
      ],
      "name": "matches",
      "outputs": [
        {
          "internalType": "bytes32",
          "name": "gameId",
          "type": "bytes32"
        },
        {
          "internalType": "uint256",
          "name": "tableSize",
          "type": "uint256"
        },
        {
          "internalType": "uint256",
          "name": "ships",
          "type": "uint256"
        },
        {
          "internalType": "address",
          "name": "p1",
          "type": "address"
        },
        {
          "internalType": "address",
          "name": "p2",
          "type": "address"
        },
        {
          "internalType": "int256",
          "name": "registration",
          "type": "int256"
        },
        {
          "internalType": "int256",
          "name": "reward",
          "type": "int256"
        },
        {
          "internalType": "bool",
          "name": "turn",
          "type": "bool"
        },
        {
          "internalType": "bytes32",
          "name": "b1",
          "type": "bytes32"
        },
        {
          "internalType": "bytes32",
          "name": "b2",
          "type": "bytes32"
        },
        {
          "internalType": "string",
          "name": "lastMove",
          "type": "string"
        }
      ],
      "stateMutability": "view",
      "type": "function",
      "constant": true
    },
    {
      "inputs": [
        {
          "internalType": "bytes32",
          "name": "_gameId",
          "type": "bytes32"
        },
        {
          "internalType": "bool",
          "name": "_isNew",
          "type": "bool"
        },
        {
          "internalType": "uint8[]",
          "name": "_info",
          "type": "uint8[]"
        }
      ],
      "name": "join",
      "outputs": [],
      "stateMutability": "nonpayable",
      "type": "function"
    },
    {
      "inputs": [
        {
          "internalType": "bytes32",
          "name": "_gameId",
          "type": "bytes32"
        },
        {
          "internalType": "int256",
          "name": "_registration",
          "type": "int256"
        }
      ],
      "name": "setReward",
      "outputs": [],
      "stateMutability": "nonpayable",
      "type": "function"
    },
    {
      "inputs": [
        {
          "internalType": "bytes32",
          "name": "_gameId",
          "type": "bytes32"
        }
      ],
      "name": "getInformations",
      "outputs": [
        {
          "internalType": "bytes32",
          "name": "",
          "type": "bytes32"
        },
        {
          "internalType": "bytes",
          "name": "",
          "type": "bytes"
        },
        {
          "internalType": "bytes",
          "name": "",
          "type": "bytes"
        },
        {
          "internalType": "address",
          "name": "",
          "type": "address"
        },
        {
          "internalType": "address",
          "name": "",
          "type": "address"
        },
        {
          "internalType": "bytes",
          "name": "",
          "type": "bytes"
        },
        {
          "internalType": "bytes",
          "name": "",
          "type": "bytes"
        },
        {
          "internalType": "bool",
          "name": "",
          "type": "bool"
        },
        {
          "internalType": "bytes32",
          "name": "",
          "type": "bytes32"
        },
        {
          "internalType": "bytes32",
          "name": "",
          "type": "bytes32"
        },
        {
          "internalType": "string",
          "name": "",
          "type": "string"
        },
        {
          "internalType": "string[]",
          "name": "",
          "type": "string[]"
        }
      ],
      "stateMutability": "view",
      "type": "function",
      "constant": true
    },
    {
      "inputs": [
        {
          "internalType": "bytes32",
          "name": "_gameId",
          "type": "bytes32"
        }
      ],
      "name": "getReward",
      "outputs": [
        {
          "internalType": "int256",
          "name": "",
          "type": "int256"
        }
      ],
      "stateMutability": "view",
      "type": "function",
      "constant": true
    },
    {
      "inputs": [
        {
          "internalType": "bytes32",
          "name": "_gameId",
          "type": "bytes32"
        }
      ],
      "name": "pay",
      "outputs": [],
      "stateMutability": "payable",
      "type": "function",
      "payable": true
    },
    {
      "inputs": [
        {
          "internalType": "bytes32",
          "name": "_gameId",
          "type": "bytes32"
        },
        {
          "internalType": "bytes32",
          "name": "_hashedBoard",
          "type": "bytes32"
        }
      ],
      "name": "setBoard",
      "outputs": [],
      "stateMutability": "nonpayable",
      "type": "function"
    },
    {
      "inputs": [
        {
          "internalType": "bytes32",
          "name": "_gameId",
          "type": "bytes32"
        },
        {
          "internalType": "string",
          "name": "_coordinate",
          "type": "string"
        }
      ],
      "name": "shoot",
      "outputs": [],
      "stateMutability": "nonpayable",
      "type": "function"
    },
    {
      "inputs": [
        {
          "internalType": "bytes32",
          "name": "_gameId",
          "type": "bytes32"
        }
      ],
      "name": "getLastMoves",
      "outputs": [
        {
          "internalType": "string",
          "name": "",
          "type": "string"
        }
      ],
      "stateMutability": "view",
      "type": "function",
      "constant": true
    },
    {
      "inputs": [
        {
          "internalType": "bytes32",
          "name": "_gameId",
          "type": "bytes32"
        },
        {
          "internalType": "bytes32[]",
          "name": "_sibilings",
          "type": "bytes32[]"
        },
        {
          "internalType": "bool",
          "name": "_hit",
          "type": "bool"
        }
      ],
      "name": "checkMerkleProof",
      "outputs": [],
      "stateMutability": "nonpayable",
      "type": "function"
    },
    {
      "inputs": [
        {
          "internalType": "bytes32",
          "name": "_gameId",
          "type": "bytes32"
        },
        {
          "internalType": "bytes32[]",
          "name": "_sibilings",
          "type": "bytes32[]"
        },
        {
          "internalType": "bool",
          "name": "_hit",
          "type": "bool"
        }
      ],
      "name": "checkFun",
      "outputs": [],
      "stateMutability": "nonpayable",
      "type": "function"
    },
    {
      "inputs": [
        {
          "internalType": "bytes32",
          "name": "_gameId",
          "type": "bytes32"
        },
        {
          "internalType": "string[][]",
          "name": "_board",
          "type": "string[][]"
        }
      ],
      "name": "checkBoard",
      "outputs": [
        {
          "internalType": "bool",
          "name": "",
          "type": "bool"
        }
      ],
      "stateMutability": "payable",
      "type": "function",
      "payable": true
    },
    {
      "inputs": [],
      "name": "notifyDelay",
      "outputs": [],
      "stateMutability": "nonpayable",
      "type": "function"
    }
  ],
  "bytecode": "0x608060405234801561001057600080fd5b50614579806100206000396000f3fe6080604052600436106100c65760003560e01c80638609cad11161007f578063cf9e4fb911610059578063cf9e4fb914610285578063e0e797ee146102b5578063e4cc82a0146102de578063fbf5fea81461031b576100c7565b80638609cad114610217578063b4df513814610233578063c7bad2b71461025c576100c7565b806301fb893a146100e2578063102c34ea1461012a5780634768d4ef1461015357806363fed9a41461019a5780637eebaf06146101d7578063853036b5146101ee576100c7565b5b3480156100d357600080fd5b506100e06000801b610344565b005b3480156100ee57600080fd5b5061010960048036038101906101049190612d2c565b6103e5565b6040516101219c9b9a99989796959493929190612fb5565b60405180910390f35b34801561013657600080fd5b50610151600480360381019061014c919061320d565b61088e565b005b34801561015f57600080fd5b5061017a600480360381019061017591906132b2565b610ce1565b6040516101919b9a99989796959493929190613307565b60405180910390f35b3480156101a657600080fd5b506101c160048036038101906101bc9190612d2c565b610e20565b6040516101ce91906133b9565b60405180910390f35b3480156101e357600080fd5b506101ec610eb2565b005b3480156101fa57600080fd5b506102156004803603810190610210919061320d565b610eb4565b005b610231600480360381019061022c9190612d2c565b610344565b005b34801561023f57600080fd5b5061025a600480360381019061025591906134d0565b6116e0565b005b34801561026857600080fd5b50610283600480360381019061027e919061359a565b611e7b565b005b61029f600480360381019061029a9190613871565b6121c9565b6040516102ac91906138cd565b60405180910390f35b3480156102c157600080fd5b506102dc60048036038101906102d79190613914565b6123e7565b005b3480156102ea57600080fd5b5061030560048036038101906103009190612d2c565b61269c565b6040516103129190613954565b60405180910390f35b34801561032757600080fd5b50610342600480360381019061033d9190613976565b6127b3565b005b60005b6000805490508160ff1610156103e1578160008260ff168154811061036f5761036e6139b6565b5b90600052602060002090600c020160000154036103ce5760008160ff168154811061039d5761039c6139b6565b5b90600052602060002090600c020160050154670de0b6b3a7640000346103c39190613a43565b146103cd57600080fd5b5b80806103d990613a74565b915050610347565b5050565b6000606080600080606080600080600060608060005b6000805490508160ff16101561087d578d60008260ff1681548110610423576104226139b6565b5b90600052602060002090600c0201600001540361086a5760008160ff1681548110610451576104506139b6565b5b90600052602060002090600c02016000015460008260ff168154811061047a576104796139b6565b5b90600052602060002090600c02016001015460405160200161049c9190613abe565b60405160208183030381529060405260008360ff16815481106104c2576104c16139b6565b5b90600052602060002090600c0201600201546040516020016104e49190613abe565b60405160208183030381529060405260008460ff168154811061050a576105096139b6565b5b90600052602060002090600c020160030160009054906101000a900473ffffffffffffffffffffffffffffffffffffffff1660008560ff1681548110610553576105526139b6565b5b90600052602060002090600c020160040160009054906101000a900473ffffffffffffffffffffffffffffffffffffffff1660008660ff168154811061059c5761059b6139b6565b5b90600052602060002090600c0201600501546040516020016105be9190613afa565b60405160208183030381529060405260008760ff16815481106105e4576105e36139b6565b5b90600052602060002090600c0201600601546040516020016106069190613afa565b60405160208183030381529060405260008860ff168154811061062c5761062b6139b6565b5b90600052602060002090600c020160070160009054906101000a900460ff1660008960ff1681548110610662576106616139b6565b5b90600052602060002090600c02016008015460008a60ff168154811061068b5761068a6139b6565b5b90600052602060002090600c02016009015460008b60ff16815481106106b4576106b36139b6565b5b90600052602060002090600c0201600a0160008c60ff16815481106106dc576106db6139b6565b5b90600052602060002090600c0201600b018180546106f990613b44565b80601f016020809104026020016040519081016040528092919081815260200182805461072590613b44565b80156107725780601f1061074757610100808354040283529160200191610772565b820191906000526020600020905b81548152906001019060200180831161075557829003601f168201915b5050505050915080805480602002602001604051908101604052809291908181526020016000905b828210156108465783829060005260206000200180546107b990613b44565b80601f01602080910402602001604051908101604052809291908181526020018280546107e590613b44565b80156108325780601f1061080757610100808354040283529160200191610832565b820191906000526020600020905b81548152906001019060200180831161081557829003601f168201915b50505050508152602001906001019061079a565b5050505090509c509c509c509c509c509c509c509c509c509c509c509c505061087f565b808061087590613a74565b9150506103fb565b505b91939597999b5091939597999b565b60005b6000805490508160ff161015610cdb578360008260ff16815481106108b9576108b86139b6565b5b90600052602060002090600c02016000015403610cc85760003373ffffffffffffffffffffffffffffffffffffffff1660008360ff1681548110610900576108ff6139b6565b5b90600052602060002090600c020160030160009054906101000a900473ffffffffffffffffffffffffffffffffffffffff1673ffffffffffffffffffffffffffffffffffffffff160361097d5760008260ff1681548110610964576109636139b6565b5b90600052602060002090600c02016008015490506109a9565b60008260ff1681548110610994576109936139b6565b5b90600052602060002090600c02016009015490505b60006001610abf610a9f60008660ff16815481106109ca576109c96139b6565b5b90600052602060002090600c0201600a0180546109e690613b44565b80601f0160208091040260200160405190810160405280929190818152602001828054610a1290613b44565b8015610a5f5780601f10610a3457610100808354040283529160200191610a5f565b820191906000526020600020905b815481529060010190602001808311610a4257829003601f168201915b50505050506040518060400160405280600181526020017f2d000000000000000000000000000000000000000000000000000000000000008152506129a9565b600081518110610ab257610ab16139b6565b5b6020026020010151612b70565b610ac99190613b75565b905060006001610be1610bc160008760ff1681548110610aec57610aeb6139b6565b5b90600052602060002090600c0201600a018054610b0890613b44565b80601f0160208091040260200160405190810160405280929190818152602001828054610b3490613b44565b8015610b815780601f10610b5657610100808354040283529160200191610b81565b820191906000526020600020905b815481529060010190602001808311610b6457829003601f168201915b50505050506040518060400160405280600181526020017f2d000000000000000000000000000000000000000000000000000000000000008152506129a9565b600181518110610bd457610bd36139b6565b5b6020026020010151612b70565b610beb9190613b75565b905060008160008660ff1681548110610c0757610c066139b6565b5b90600052602060002090600c02016001015484610c249190613ba9565b610c2e9190613beb565b90506000600282610c3f9190613c1f565b14610cc357600087600081518110610c5a57610c596139b6565b5b6020026020010151905087600181518110610c7857610c776139b6565b5b602002602001015188600081518110610c9457610c936139b6565b5b6020026020010181815250508088600181518110610cb557610cb46139b6565b5b602002602001018181525050505b505050505b8080610cd390613a74565b915050610891565b50505050565b60008181548110610cf157600080fd5b90600052602060002090600c02016000915090508060000154908060010154908060020154908060030160009054906101000a900473ffffffffffffffffffffffffffffffffffffffff16908060040160009054906101000a900473ffffffffffffffffffffffffffffffffffffffff16908060050154908060060154908060070160009054906101000a900460ff169080600801549080600901549080600a018054610d9d90613b44565b80601f0160208091040260200160405190810160405280929190818152602001828054610dc990613b44565b8015610e165780601f10610deb57610100808354040283529160200191610e16565b820191906000526020600020905b815481529060010190602001808311610df957829003601f168201915b505050505090508b565b600080600090505b6000805490508160ff161015610eab578260008260ff1681548110610e5057610e4f6139b6565b5b90600052602060002090600c02016000015403610e985760008160ff1681548110610e7e57610e7d6139b6565b5b90600052602060002090600c020160050154915050610ead565b8080610ea390613a74565b915050610e28565b505b919050565b565b60005b6000805490508160ff1610156116d9578360008260ff1681548110610edf57610ede6139b6565b5b90600052602060002090600c020160000154036116c65760003373ffffffffffffffffffffffffffffffffffffffff1660008360ff1681548110610f2657610f256139b6565b5b90600052602060002090600c020160030160009054906101000a900473ffffffffffffffffffffffffffffffffffffffff1673ffffffffffffffffffffffffffffffffffffffff1603610fa35760008260ff1681548110610f8a57610f896139b6565b5b90600052602060002090600c0201600801549050610fcf565b60008260ff1681548110610fba57610fb96139b6565b5b90600052602060002090600c02016009015490505b600060016110e56110c560008660ff1681548110610ff057610fef6139b6565b5b90600052602060002090600c0201600a01805461100c90613b44565b80601f016020809104026020016040519081016040528092919081815260200182805461103890613b44565b80156110855780601f1061105a57610100808354040283529160200191611085565b820191906000526020600020905b81548152906001019060200180831161106857829003601f168201915b50505050506040518060400160405280600181526020017f2d000000000000000000000000000000000000000000000000000000000000008152506129a9565b6000815181106110d8576110d76139b6565b5b6020026020010151612b70565b6110ef9190613b75565b9050600060016112076111e760008760ff1681548110611112576111116139b6565b5b90600052602060002090600c0201600a01805461112e90613b44565b80601f016020809104026020016040519081016040528092919081815260200182805461115a90613b44565b80156111a75780601f1061117c576101008083540402835291602001916111a7565b820191906000526020600020905b81548152906001019060200180831161118a57829003601f168201915b50505050506040518060400160405280600181526020017f2d000000000000000000000000000000000000000000000000000000000000008152506129a9565b6001815181106111fa576111f96139b6565b5b6020026020010151612b70565b6112119190613b75565b905060008160008660ff168154811061122d5761122c6139b6565b5b90600052602060002090600c0201600101548461124a9190613ba9565b6112549190613beb565b905060006002826112659190613c1f565b146112e9576000876000815181106112805761127f6139b6565b5b602002602001015190508760018151811061129e5761129d6139b6565b5b6020026020010151886000815181106112ba576112b96139b6565b5b60200260200101818152505080886001815181106112db576112da6139b6565b5b602002602001018181525050505b6000876000815181106112ff576112fe6139b6565b5b602002602001015190506000600190505b885181101561137d57600082905060008a8381518110611333576113326139b6565b5b602002602001015190508181604051602001611350929190613c71565b6040516020818303038152906040528051906020012093505050808061137590613c9d565b915050611310565b50848103611684576000876113c7576040518060400160405280600281526020017f2d300000000000000000000000000000000000000000000000000000000000008152506113fe565b6040518060400160405280600281526020017f2d310000000000000000000000000000000000000000000000000000000000008152505b905060008760ff1681548110611417576114166139b6565b5b90600052602060002090600c0201600b0160008860ff168154811061143f5761143e6139b6565b5b90600052602060002090600c0201600a0182604051602001611462929190613db9565b6040516020818303038152906040529080600181540180825580915050600190039060005260206000200160009091909190915090816114a29190613f74565b5060008760ff16815481106114ba576114b96139b6565b5b90600052602060002090600c020160030160009054906101000a900473ffffffffffffffffffffffffffffffffffffffff1673ffffffffffffffffffffffffffffffffffffffff163373ffffffffffffffffffffffffffffffffffffffff16036115cd577f3720eac80eef1a0032b520af14f1cf6d138e8336fb49aec65910b19d8ac3459060008860ff1681548110611556576115556139b6565b5b90600052602060002090600c020160040160009054906101000a900473ffffffffffffffffffffffffffffffffffffffff168960008a60ff16815481106115a05761159f6139b6565b5b90600052602060002090600c0201600a016040516115c0939291906140ca565b60405180910390a1611678565b7f3720eac80eef1a0032b520af14f1cf6d138e8336fb49aec65910b19d8ac3459060008860ff1681548110611605576116046139b6565b5b90600052602060002090600c020160030160009054906101000a900473ffffffffffffffffffffffffffffffffffffffff168960008a60ff168154811061164f5761164e6139b6565b5b90600052602060002090600c0201600a0160405161166f939291906140ca565b60405180910390a15b505050505050506116db565b7f9709744f7c7359edb2e10790a4a8501b0bb5fcec380968177c7a3e91249d52d8336040516116b39190614108565b60405180910390a15050505050506116db565b80806116d190613a74565b915050610eb7565b505b505050565b6000801b83146119245760005b6000805490508160ff161015611922578360008260ff1681548110611715576117146139b6565b5b90600052602060002090600c0201600001540361190f57600073ffffffffffffffffffffffffffffffffffffffff1660008260ff168154811061175b5761175a6139b6565b5b90600052602060002090600c020160040160009054906101000a900473ffffffffffffffffffffffffffffffffffffffff1673ffffffffffffffffffffffffffffffffffffffff16036118ca573360008260ff16815481106117c0576117bf6139b6565b5b90600052602060002090600c020160040160006101000a81548173ffffffffffffffffffffffffffffffffffffffff021916908373ffffffffffffffffffffffffffffffffffffffff1602179055507f3baf3f8e2dd70ad22e86a9d44c0df0d7b3d08b1febe5cbb35803f1b02d89471b3360008360ff1681548110611848576118476139b6565b5b90600052602060002090600c02016000015460008460ff1681548110611871576118706139b6565b5b90600052602060002090600c02016002015460008560ff168154811061189a576118996139b6565b5b90600052602060002090600c0201600101546040516118bc9493929190614123565b60405180910390a150611e76565b7f3baf3f8e2dd70ad22e86a9d44c0df0d7b3d08b1febe5cbb35803f1b02d89471b33600080600060405161190194939291906141e1565b60405180910390a150611e76565b808061191a90613a74565b9150506116ed565b505b8115611c7157600080805490506040516020016119419190614226565b60405160208183030381529060405280519060200120905060008067ffffffffffffffff8111156119755761197461309e565b5b6040519080825280602002602001820160405280156119a857816020015b60608152602001906001900390816119935790505b5090506000604051806101800160405280848152602001856001815181106119d3576119d26139b6565b5b602002602001015160ff168152602001856000815181106119f7576119f66139b6565b5b602002602001015160ff1681526020013373ffffffffffffffffffffffffffffffffffffffff168152602001600073ffffffffffffffffffffffffffffffffffffffff1681526020017fffffffffffffffffffffffffffffffffffffffffffffffffffffffffffffffff8152602001600081526020016001151581526020016000801b81526020016000801b81526020016040518060200160405280600081525081526020018381525090806001815401808255809150506001900390600052602060002090600c020160009091909190915060008201518160000155602082015181600101556040820151816002015560608201518160030160006101000a81548173ffffffffffffffffffffffffffffffffffffffff021916908373ffffffffffffffffffffffffffffffffffffffff16021790555060808201518160040160006101000a81548173ffffffffffffffffffffffffffffffffffffffff021916908373ffffffffffffffffffffffffffffffffffffffff16021790555060a0820151816005015560c0820151816006015560e08201518160070160006101000a81548160ff0219169083151502179055506101008201518160080155610120820151816009015561014082015181600a019081611bd69190613f74565b5061016082015181600b019080519060200190611bf4929190612c08565b5050507f3baf3f8e2dd70ad22e86a9d44c0df0d7b3d08b1febe5cbb35803f1b02d89471b338385600081518110611c2e57611c2d6139b6565b5b602002602001015186600181518110611c4a57611c496139b6565b5b6020026020010151604051611c629493929190614272565b60405180910390a15050611e76565b60005b6000805490508160ff161015611e3557600073ffffffffffffffffffffffffffffffffffffffff1660008260ff1681548110611cb357611cb26139b6565b5b90600052602060002090600c020160040160009054906101000a900473ffffffffffffffffffffffffffffffffffffffff1673ffffffffffffffffffffffffffffffffffffffff1614611e22573360008260ff1681548110611d1857611d176139b6565b5b90600052602060002090600c020160040160006101000a81548173ffffffffffffffffffffffffffffffffffffffff021916908373ffffffffffffffffffffffffffffffffffffffff1602179055507f3baf3f8e2dd70ad22e86a9d44c0df0d7b3d08b1febe5cbb35803f1b02d89471b3360008360ff1681548110611da057611d9f6139b6565b5b90600052602060002090600c02016000015460008460ff1681548110611dc957611dc86139b6565b5b90600052602060002090600c02016002015460008560ff1681548110611df257611df16139b6565b5b90600052602060002090600c020160010154604051611e149493929190614123565b60405180910390a150611e76565b8080611e2d90613a74565b915050611c74565b507f3baf3f8e2dd70ad22e86a9d44c0df0d7b3d08b1febe5cbb35803f1b02d89471b336000806000604051611e6d94939291906141e1565b60405180910390a15b505050565b60005b6000805490508160ff1610156121c3578360008260ff1681548110611ea657611ea56139b6565b5b90600052602060002090600c020160000154036121b0573373ffffffffffffffffffffffffffffffffffffffff1660008260ff1681548110611eeb57611eea6139b6565b5b90600052602060002090600c020160030160009054906101000a900473ffffffffffffffffffffffffffffffffffffffff1673ffffffffffffffffffffffffffffffffffffffff16148015611f72575060008160ff1681548110611f5257611f516139b6565b5b90600052602060002090600c020160070160009054906101000a900460ff165b1561203757828260008360ff1681548110611f9057611f8f6139b6565b5b90600052602060002090600c0201600a019182611fae9291906142c2565b507f9896a41f3ec53837e18850fc683491a3edd592acbd543159a73aae26e3e64b2860008260ff1681548110611fe757611fe66139b6565b5b90600052602060002090600c020160040160009054906101000a900473ffffffffffffffffffffffffffffffffffffffff16848460405161202a939291906143bf565b60405180910390a16121af565b3373ffffffffffffffffffffffffffffffffffffffff1660008260ff1681548110612065576120646139b6565b5b90600052602060002090600c020160030160009054906101000a900473ffffffffffffffffffffffffffffffffffffffff1673ffffffffffffffffffffffffffffffffffffffff161480156120ed575060008160ff16815481106120cc576120cb6139b6565b5b90600052602060002090600c020160070160009054906101000a900460ff16155b156121ae57828260008360ff168154811061210b5761210a6139b6565b5b90600052602060002090600c0201600a0191826121299291906142c2565b507f9896a41f3ec53837e18850fc683491a3edd592acbd543159a73aae26e3e64b2860008260ff1681548110612162576121616139b6565b5b90600052602060002090600c020160030160009054906101000a900473ffffffffffffffffffffffffffffffffffffffff1684846040516121a5939291906143bf565b60405180910390a15b5b5b80806121bb90613a74565b915050611e7e565b50505050565b600080600160f81b905060005b6000805490508160ff1610156123df578460008260ff16815481106121fe576121fd6139b6565b5b90600052602060002090600c020160000154036123cc576000805b60008360ff16815481106122305761222f6139b6565b5b90600052602060002090600c02016001015481101561234f5760005b60008460ff1681548110612263576122626139b6565b5b90600052602060002090600c02016001015481101561233b57847effffffffffffffffffffffffffffffffffffffffffffffffffffffffffffff19168783815181106122b2576122b16139b6565b5b602002602001015182815181106122cc576122cb6139b6565b5b60200260200101516000815181106122e7576122e66139b6565b5b602001015160f81c60f81b7effffffffffffffffffffffffffffffffffffffffffffffffffffffffffffff19160361232857828061232490613a74565b9350505b808061233390613c9d565b91505061224c565b50808061234790613c9d565b915050612219565b5060008260ff1681548110612367576123666139b6565b5b90600052602060002090600c0201600201548160ff16036123ca573373ffffffffffffffffffffffffffffffffffffffff166108fc479081150290604051600060405180830381858888f193505050501580156123c8573d6000803e3d6000fd5b505b505b80806123d790613a74565b9150506121d6565b505092915050565b60005b6000805490508160ff161015612696578260008260ff1681548110612412576124116139b6565b5b90600052602060002090600c02016000015403612683576000808260ff1681548110612441576124406139b6565b5b90600052602060002090600c020160050154121561260f578160008260ff1681548110612471576124706139b6565b5b90600052602060002090600c0201600501819055503373ffffffffffffffffffffffffffffffffffffffff1660008260ff16815481106124b4576124b36139b6565b5b90600052602060002090600c020160030160009054906101000a900473ffffffffffffffffffffffffffffffffffffffff1673ffffffffffffffffffffffffffffffffffffffff1603612587577f8baeb50b886fb168a371117c6cb88337a25606fe162d778425bd068ef9d25da560008260ff1681548110612539576125386139b6565b5b90600052602060002090600c020160040160009054906101000a900473ffffffffffffffffffffffffffffffffffffffff168360405161257a9291906143f1565b60405180910390a1612609565b7f8baeb50b886fb168a371117c6cb88337a25606fe162d778425bd068ef9d25da560008260ff16815481106125bf576125be6139b6565b5b90600052602060002090600c020160040160009054906101000a900473ffffffffffffffffffffffffffffffffffffffff16836040516126009291906143f1565b60405180910390a15b50612698565b8160008260ff1681548110612627576126266139b6565b5b90600052602060002090600c0201600501540361267d5760028261264b919061441a565b60008260ff1681548110612662576126616139b6565b5b90600052602060002090600c02016006018190555050612698565b50612698565b808061268e90613a74565b9150506123ea565b505b5050565b606060005b6000805490508160ff1610156127ac578260008260ff16815481106126c9576126c86139b6565b5b90600052602060002090600c020160000154036127995760008160ff16815481106126f7576126f66139b6565b5b90600052602060002090600c0201600a01805461271390613b44565b80601f016020809104026020016040519081016040528092919081815260200182805461273f90613b44565b801561278c5780601f106127615761010080835404028352916020019161278c565b820191906000526020600020905b81548152906001019060200180831161276f57829003601f168201915b50505050509150506127ae565b80806127a490613a74565b9150506126a1565b505b919050565b60005b6000805490508160ff1610156129a4578260008260ff16815481106127de576127dd6139b6565b5b90600052602060002090600c02016000015403612991573373ffffffffffffffffffffffffffffffffffffffff1660008260ff1681548110612823576128226139b6565b5b90600052602060002090600c020160030160009054906101000a900473ffffffffffffffffffffffffffffffffffffffff1673ffffffffffffffffffffffffffffffffffffffff16036128a2578160008260ff1681548110612888576128876139b6565b5b90600052602060002090600c0201600801819055506128d0565b8160008260ff16815481106128ba576128b96139b6565b5b90600052602060002090600c0201600901819055505b600160008260ff16815481106128e9576128e86139b6565b5b90600052602060002090600c020160070160006101000a81548160ff0219169083151502179055507fbac0d2f1d5b86b0ca75625d37a148747faa00f4de41c5c586f79880e455c2dc560008260ff1681548110612949576129486139b6565b5b90600052602060002090600c020160030160009054906101000a900473ffffffffffffffffffffffffffffffffffffffff166040516129889190614108565b60405180910390a15b808061299c90613a74565b9150506127b6565b505050565b606060006040518060200160405280600081525090506000808590506000865167ffffffffffffffff8111156129e2576129e161309e565b5b604051908082528060200260200182016040528015612a1557816020015b6060815260200190600190039081612a005790505b50905060005b8251811015612b435786600081518110612a3857612a376139b6565b5b602001015160f81c60f81b7effffffffffffffffffffffffffffffffffffffffffffffffffffffffffffff1916838281518110612a7857612a776139b6565b5b602001015160f81c60f81b7effffffffffffffffffffffffffffffffffffffffffffffffffffffffffffff191603612aee5784828581518110612abe57612abd6139b6565b5b60200260200101819052506040518060200160405280600081525094508380612ae690613c9d565b945050612b30565b84888281518110612b0257612b016139b6565b5b602001015160f81c60f81b604051602001612b1e92919061451b565b60405160208183030381529060405294505b8080612b3b90613c9d565b915050612a1b565b5083818481518110612b5857612b576139b6565b5b60200260200101819052508094505050505092915050565b6000808290506000805b8251811015612bfd576000838281518110612b9857612b976139b6565b5b602001015160f81c60f81b60f81c60ff16905060308110158015612bbd575060398111155b15612be957603081612bcf9190613b75565b600a84612bdc9190613ba9565b612be69190613beb565b92505b508080612bf590613c9d565b915050612b7a565b508092505050919050565b828054828255906000526020600020908101928215612c50579160200282015b82811115612c4f578251829081612c3f9190613f74565b5091602001919060010190612c28565b5b509050612c5d9190612c61565b5090565b5b80821115612c815760008181612c789190612c85565b50600101612c62565b5090565b508054612c9190613b44565b6000825580601f10612ca35750612cc2565b601f016020900490600052602060002090810190612cc19190612cc5565b5b50565b5b80821115612cde576000816000905550600101612cc6565b5090565b6000604051905090565b600080fd5b600080fd5b6000819050919050565b612d0981612cf6565b8114612d1457600080fd5b50565b600081359050612d2681612d00565b92915050565b600060208284031215612d4257612d41612cec565b5b6000612d5084828501612d17565b91505092915050565b612d6281612cf6565b82525050565b600081519050919050565b600082825260208201905092915050565b60005b83811015612da2578082015181840152602081019050612d87565b60008484015250505050565b6000601f19601f8301169050919050565b6000612dca82612d68565b612dd48185612d73565b9350612de4818560208601612d84565b612ded81612dae565b840191505092915050565b600073ffffffffffffffffffffffffffffffffffffffff82169050919050565b6000612e2382612df8565b9050919050565b612e3381612e18565b82525050565b60008115159050919050565b612e4e81612e39565b82525050565b600081519050919050565b600082825260208201905092915050565b6000612e7b82612e54565b612e858185612e5f565b9350612e95818560208601612d84565b612e9e81612dae565b840191505092915050565b600081519050919050565b600082825260208201905092915050565b6000819050602082019050919050565b600082825260208201905092915050565b6000612ef182612e54565b612efb8185612ed5565b9350612f0b818560208601612d84565b612f1481612dae565b840191505092915050565b6000612f2b8383612ee6565b905092915050565b6000602082019050919050565b6000612f4b82612ea9565b612f558185612eb4565b935083602082028501612f6785612ec5565b8060005b85811015612fa35784840389528151612f848582612f1f565b9450612f8f83612f33565b925060208a01995050600181019050612f6b565b50829750879550505050505092915050565b600061018082019050612fcb600083018f612d59565b8181036020830152612fdd818e612dbf565b90508181036040830152612ff1818d612dbf565b9050613000606083018c612e2a565b61300d608083018b612e2a565b81810360a083015261301f818a612dbf565b905081810360c08301526130338189612dbf565b905061304260e0830188612e45565b613050610100830187612d59565b61305e610120830186612d59565b8181036101408301526130718185612e70565b90508181036101608301526130868184612f40565b90509d9c50505050505050505050505050565b600080fd5b7f4e487b7100000000000000000000000000000000000000000000000000000000600052604160045260246000fd5b6130d682612dae565b810181811067ffffffffffffffff821117156130f5576130f461309e565b5b80604052505050565b6000613108612ce2565b905061311482826130cd565b919050565b600067ffffffffffffffff8211156131345761313361309e565b5b602082029050602081019050919050565b600080fd5b600061315d61315884613119565b6130fe565b905080838252602082019050602084028301858111156131805761317f613145565b5b835b818110156131a957806131958882612d17565b845260208401935050602081019050613182565b5050509392505050565b600082601f8301126131c8576131c7613099565b5b81356131d884826020860161314a565b91505092915050565b6131ea81612e39565b81146131f557600080fd5b50565b600081359050613207816131e1565b92915050565b60008060006060848603121561322657613225612cec565b5b600061323486828701612d17565b935050602084013567ffffffffffffffff81111561325557613254612cf1565b5b613261868287016131b3565b9250506040613272868287016131f8565b9150509250925092565b6000819050919050565b61328f8161327c565b811461329a57600080fd5b50565b6000813590506132ac81613286565b92915050565b6000602082840312156132c8576132c7612cec565b5b60006132d68482850161329d565b91505092915050565b6132e88161327c565b82525050565b6000819050919050565b613301816132ee565b82525050565b60006101608201905061331d600083018e612d59565b61332a602083018d6132df565b613337604083018c6132df565b613344606083018b612e2a565b613351608083018a612e2a565b61335e60a08301896132f8565b61336b60c08301886132f8565b61337860e0830187612e45565b613386610100830186612d59565b613394610120830185612d59565b8181036101408301526133a78184612e70565b90509c9b505050505050505050505050565b60006020820190506133ce60008301846132f8565b92915050565b600067ffffffffffffffff8211156133ef576133ee61309e565b5b602082029050602081019050919050565b600060ff82169050919050565b61341681613400565b811461342157600080fd5b50565b6000813590506134338161340d565b92915050565b600061344c613447846133d4565b6130fe565b9050808382526020820190506020840283018581111561346f5761346e613145565b5b835b8181101561349857806134848882613424565b845260208401935050602081019050613471565b5050509392505050565b600082601f8301126134b7576134b6613099565b5b81356134c7848260208601613439565b91505092915050565b6000806000606084860312156134e9576134e8612cec565b5b60006134f786828701612d17565b9350506020613508868287016131f8565b925050604084013567ffffffffffffffff81111561352957613528612cf1565b5b613535868287016134a2565b9150509250925092565b600080fd5b60008083601f84011261355a57613559613099565b5b8235905067ffffffffffffffff8111156135775761357661353f565b5b60208301915083600182028301111561359357613592613145565b5b9250929050565b6000806000604084860312156135b3576135b2612cec565b5b60006135c186828701612d17565b935050602084013567ffffffffffffffff8111156135e2576135e1612cf1565b5b6135ee86828701613544565b92509250509250925092565b600067ffffffffffffffff8211156136155761361461309e565b5b602082029050602081019050919050565b600067ffffffffffffffff8211156136415761364061309e565b5b602082029050602081019050919050565b600080fd5b600067ffffffffffffffff8211156136725761367161309e565b5b61367b82612dae565b9050602081019050919050565b82818337600083830152505050565b60006136aa6136a584613657565b6130fe565b9050828152602081018484840111156136c6576136c5613652565b5b6136d1848285613688565b509392505050565b600082601f8301126136ee576136ed613099565b5b81356136fe848260208601613697565b91505092915050565b600061371a61371584613626565b6130fe565b9050808382526020820190506020840283018581111561373d5761373c613145565b5b835b8181101561378457803567ffffffffffffffff81111561376257613761613099565b5b80860161376f89826136d9565b8552602085019450505060208101905061373f565b5050509392505050565b600082601f8301126137a3576137a2613099565b5b81356137b3848260208601613707565b91505092915050565b60006137cf6137ca846135fa565b6130fe565b905080838252602082019050602084028301858111156137f2576137f1613145565b5b835b8181101561383957803567ffffffffffffffff81111561381757613816613099565b5b808601613824898261378e565b855260208501945050506020810190506137f4565b5050509392505050565b600082601f83011261385857613857613099565b5b81356138688482602086016137bc565b91505092915050565b6000806040838503121561388857613887612cec565b5b600061389685828601612d17565b925050602083013567ffffffffffffffff8111156138b7576138b6612cf1565b5b6138c385828601613843565b9150509250929050565b60006020820190506138e26000830184612e45565b92915050565b6138f1816132ee565b81146138fc57600080fd5b50565b60008135905061390e816138e8565b92915050565b6000806040838503121561392b5761392a612cec565b5b600061393985828601612d17565b925050602061394a858286016138ff565b9150509250929050565b6000602082019050818103600083015261396e8184612e70565b905092915050565b6000806040838503121561398d5761398c612cec565b5b600061399b85828601612d17565b92505060206139ac85828601612d17565b9150509250929050565b7f4e487b7100000000000000000000000000000000000000000000000000000000600052603260045260246000fd5b7f4e487b7100000000000000000000000000000000000000000000000000000000600052601260045260246000fd5b7f4e487b7100000000000000000000000000000000000000000000000000000000600052601160045260246000fd5b6000613a4e8261327c565b9150613a598361327c565b925082613a6957613a686139e5565b5b828204905092915050565b6000613a7f82613400565b915060ff8203613a9257613a91613a14565b5b600182019050919050565b6000819050919050565b613ab8613ab38261327c565b613a9d565b82525050565b6000613aca8284613aa7565b60208201915081905092915050565b6000819050919050565b613af4613aef826132ee565b613ad9565b82525050565b6000613b068284613ae3565b60208201915081905092915050565b7f4e487b7100000000000000000000000000000000000000000000000000000000600052602260045260246000fd5b60006002820490506001821680613b5c57607f821691505b602082108103613b6f57613b6e613b15565b5b50919050565b6000613b808261327c565b9150613b8b8361327c565b9250828203905081811115613ba357613ba2613a14565b5b92915050565b6000613bb48261327c565b9150613bbf8361327c565b9250828202613bcd8161327c565b91508282048414831517613be457613be3613a14565b5b5092915050565b6000613bf68261327c565b9150613c018361327c565b9250828201905080821115613c1957613c18613a14565b5b92915050565b6000613c2a8261327c565b9150613c358361327c565b925082613c4557613c446139e5565b5b828206905092915050565b6000819050919050565b613c6b613c6682612cf6565b613c50565b82525050565b6000613c7d8285613c5a565b602082019150613c8d8284613c5a565b6020820191508190509392505050565b6000613ca88261327c565b91507fffffffffffffffffffffffffffffffffffffffffffffffffffffffffffffffff8203613cda57613cd9613a14565b5b600182019050919050565b600081905092915050565b60008190508160005260206000209050919050565b60008154613d1281613b44565b613d1c8186613ce5565b94506001821660008114613d375760018114613d4c57613d7f565b60ff1983168652811515820286019350613d7f565b613d5585613cf0565b60005b83811015613d7757815481890152600182019150602081019050613d58565b838801955050505b50505092915050565b6000613d9382612e54565b613d9d8185613ce5565b9350613dad818560208601612d84565b80840191505092915050565b6000613dc58285613d05565b9150613dd18284613d88565b91508190509392505050565b60006020601f8301049050919050565b600082821b905092915050565b600060088302613e2a7fffffffffffffffffffffffffffffffffffffffffffffffffffffffffffffffff82613ded565b613e348683613ded565b95508019841693508086168417925050509392505050565b6000819050919050565b6000613e71613e6c613e678461327c565b613e4c565b61327c565b9050919050565b6000819050919050565b613e8b83613e56565b613e9f613e9782613e78565b848454613dfa565b825550505050565b600090565b613eb4613ea7565b613ebf818484613e82565b505050565b5b81811015613ee357613ed8600082613eac565b600181019050613ec5565b5050565b601f821115613f2857613ef981613cf0565b613f0284613ddd565b81016020851015613f11578190505b613f25613f1d85613ddd565b830182613ec4565b50505b505050565b600082821c905092915050565b6000613f4b60001984600802613f2d565b1980831691505092915050565b6000613f648383613f3a565b9150826002028217905092915050565b613f7d82612e54565b67ffffffffffffffff811115613f9657613f9561309e565b5b613fa08254613b44565b613fab828285613ee7565b600060209050601f831160018114613fde5760008415613fcc578287015190505b613fd68582613f58565b86555061403e565b601f198416613fec86613cf0565b60005b8281101561401457848901518255600182019150602085019450602081019050613fef565b86831015614031578489015161402d601f891682613f3a565b8355505b6001600288020188555050505b505050505050565b6000815461405381613b44565b61405d8186612e5f565b94506001821660008114614078576001811461408e576140c1565b60ff1983168652811515602002860193506140c1565b61409785613cf0565b60005b838110156140b95781548189015260018201915060208101905061409a565b808801955050505b50505092915050565b60006060820190506140df6000830186612e2a565b6140ec6020830185612e45565b81810360408301526140fe8184614046565b9050949350505050565b600060208201905061411d6000830184612e2a565b92915050565b60006080820190506141386000830187612e2a565b6141456020830186612d59565b61415260408301856132df565b61415f60608301846132df565b95945050505050565b6000819050919050565b60008160001b9050919050565b600061419a61419561419084614168565b614172565b612cf6565b9050919050565b6141aa8161417f565b82525050565b60006141cb6141c66141c184614168565b613e4c565b61327c565b9050919050565b6141db816141b0565b82525050565b60006080820190506141f66000830187612e2a565b61420360208301866141a1565b61421060408301856141d2565b61421d60608301846141d2565b95945050505050565b600060208201905061423b60008301846132df565b92915050565b600061425c61425761425284613400565b613e4c565b61327c565b9050919050565b61426c81614241565b82525050565b60006080820190506142876000830187612e2a565b6142946020830186612d59565b6142a16040830185614263565b6142ae6060830184614263565b95945050505050565b600082905092915050565b6142cc83836142b7565b67ffffffffffffffff8111156142e5576142e461309e565b5b6142ef8254613b44565b6142fa828285613ee7565b6000601f8311600181146143295760008415614317578287013590505b6143218582613f58565b865550614389565b601f19841661433786613cf0565b60005b8281101561435f5784890135825560018201915060208501945060208101905061433a565b8683101561437c5784890135614378601f891682613f3a565b8355505b6001600288020188555050505b50505050505050565b600061439e8385612e5f565b93506143ab838584613688565b6143b483612dae565b840190509392505050565b60006040820190506143d46000830186612e2a565b81810360208301526143e7818486614392565b9050949350505050565b60006040820190506144066000830185612e2a565b61441360208301846132f8565b9392505050565b6000614425826132ee565b9150614430836132ee565b925082820261443e816132ee565b91507f8000000000000000000000000000000000000000000000000000000000000000841460008412161561447657614475613a14565b5b828205841483151761448b5761448a613a14565b5b5092915050565b600081905092915050565b60006144a882612d68565b6144b28185614492565b93506144c2818560208601612d84565b80840191505092915050565b60007fff0000000000000000000000000000000000000000000000000000000000000082169050919050565b6000819050919050565b614515614510826144ce565b6144fa565b82525050565b6000614527828561449d565b91506145338284614504565b600182019150819050939250505056fea2646970667358221220a2cb33302e563c8f336ddcaa414e14faebdee3fcabfbb9ac5e51cf3aa979a26164736f6c63430008130033",
  "immutableReferences": {},
  "source": "// SPDX-License-Identifier: MIT \npragma solidity >=0.8.2 <0.9.0;\npragma abicoder v2;\npragma experimental ABIEncoderV2;\n\ncontract Game {\n\n    struct GameMatch{\n        bytes32 gameId;\n        uint tableSize;\n        uint ships;\n        address p1; // also the creator\n        address p2;\n        int registration; // -1: not registered, otherwise the amount \n        int reward;\n        bool turn; // if true --> p1 have to play otherwise p2 \n        bytes32 b1; // hash of the board to proof merkle tree\n        bytes32 b2;\n        string lastMove; // last move played in the game [1-2][2-4][1-1][2-2] --> first x then y\n        string[] moves;     // l'array avr quindi le caselle pari per il p1 e disapari per il p2 e li metterai le mosse fatte in chiaro\n                            // con anche il risultato della mossa tipo 1.1.0 (casella 1 1 mancato) 2.1.1 (casella 2 1 colpito)\n    }\n\n    GameMatch[] public matches;\n    event SendNewGameCreate(address player, bytes32 gameId, uint ships, uint tableSize);\n    event SendRequestAmount(address player, int amount);    //tell to the player to put the money to start play\n    event SendTurnAdvice(address player);   //tell to the player that is his/her turn\n    event SendMovesAdvice(address player, string move);  //tell to the player that have been shoot\n    event SendRequestBoard(address player);   //tell to the player that have won\n    event SendWrongMove(address player);    //tell to the player that is not a valid move\n    event SendVictory(address player);\n    event SendMoveResult(address player, bool hit, string coordinate);\n\n    function join(bytes32 _gameId, bool _isNew, uint8[] memory _info) public{\n        \n        // set player 2 in case of given game id\n        if(_gameId != 0){\n            for(uint8 i=0; i < matches.length; i++){\n                if(matches[i].gameId == _gameId){\n                    if(matches[i].p2 == address(0)){\n                        matches[i].p2 = msg.sender;\n                        emit SendNewGameCreate(msg.sender, matches[i].gameId, matches[i].ships, matches[i].tableSize);\n                        return;\n                    }\n                    else{\n                        emit SendNewGameCreate(msg.sender, 0, 0, 0);\n                        return;\n                    }\n                }\n            }\n        }\n\n        if(_isNew){\n            // otherwise create a new game\n            bytes32 newGameId = keccak256(abi.encode(matches.length));\n            string[] memory _moves = new string[](0);\n            matches.push(GameMatch(newGameId, _info[1], _info[0], msg.sender, address(0), -1, 0, true, 0, 0, \"\",  _moves));\n            emit SendNewGameCreate(msg.sender, newGameId, _info[0], _info[1]);\n            return;\n        }\n\n        // set player 2 in random game if available\n        for(uint8 i=0; i<matches.length; i++){\n            if(matches[i].p2 != address(0)){\n                matches[i].p2=msg.sender;\n                emit SendNewGameCreate(msg.sender, matches[i].gameId, matches[i].ships, matches[i].tableSize);\n                return;\n            }\n        }\n\n        emit SendNewGameCreate(msg.sender, 0, 0, 0);\n    }\n\n    /**\n        The two part agree offline and the first who call this method\n        also set the reward.    \n     */\n    function setReward(bytes32 _gameId, int _registration) external{\n        for(uint8 i=0; i<matches.length; i++){\n            if(matches[i].gameId == _gameId){\n                if(matches[i].registration < 0){\n                    matches[i].registration=_registration;\n                    if(matches[i].p1==msg.sender)\n                        emit SendRequestAmount(matches[i].p2, _registration);\n                    else\n                        emit SendRequestAmount(matches[i].p2, _registration);\n                    return;\n                }\n                else{\n                    if(matches[i].registration == _registration){\n                        matches[i].reward=_registration*2;\n                        return;\n                    }\n                    else{\n                        return;\n                    }\n                }\n            }\n        }\n    }\n\n    function getInformations(bytes32 _gameId) external view returns(\n        bytes32, \n        bytes memory,\n        bytes memory,\n        address ,\n        address ,\n        bytes memory ,\n        bytes memory ,\n        bool , \n        bytes32 ,\n        bytes32 ,\n        string memory,\n        string[] memory\n    ){\n        for(uint8 i=0; i < matches.length; i++){\n            if(matches[i].gameId == _gameId){\n                return(matches[i].gameId, abi.encodePacked(matches[i].tableSize), abi.encodePacked(matches[i].ships), matches[i].p1, matches[i].p2, abi.encodePacked(matches[i].registration), abi.encodePacked(matches[i].reward), matches[i].turn, matches[i].b1, matches[i].b2, matches[i].lastMove, matches[i].moves);\n            }\n        }\n    }\n\n    function getReward(bytes32 _gameId) external view returns(int){\n        for(uint8 i=0; i < matches.length; i++){\n            if(matches[i].gameId == _gameId){\n                return matches[i].registration;\n            }\n        }\n    }\n\n    function pay(bytes32 _gameId) public payable{\n        for(uint8 i=0; i < matches.length; i++){\n            if(matches[i].gameId == _gameId){\n                require((msg.value/1000000000000000000) == uint(matches[i].registration));\n            }\n        }\n    }\n\n    function setBoard(bytes32 _gameId, bytes32 _hashedBoard) public{\n        for(uint8 i=0; i < matches.length; i++){\n            if(matches[i].gameId == _gameId){\n                if(matches[i].p1==msg.sender){\n                    matches[i].b1=_hashedBoard;\n                }\n                else{\n                    matches[i].b2=_hashedBoard;\n                }\n                matches[i].turn=true;\n                emit SendTurnAdvice(matches[i].p1);\n            }\n        }\n    }\n\n    function shoot(bytes32 _gameId, string calldata _coordinate) public{\n        // stores the coordination for the other player\n        for(uint8 i=0; i < matches.length; i++){\n            if(matches[i].gameId == _gameId){\n                if(matches[i].p1==msg.sender && matches[i].turn){\n                    matches[i].lastMove=_coordinate;\n                    emit SendMovesAdvice(matches[i].p2, _coordinate);\n                }\n                else if(matches[i].p1==msg.sender && !matches[i].turn){\n                    matches[i].lastMove=_coordinate;\n                    emit SendMovesAdvice(matches[i].p1, _coordinate);\n                }\n            }\n        }\n    }\n\n    /**\n        get the last move of the game\n        then compute the merkle tree as a proof \n     */\n    function getLastMoves(bytes32 _gameId) public view returns(string memory){\n        for(uint8 i=0; i < matches.length; i++){\n            if(matches[i].gameId == _gameId){\n                return matches[i].lastMove;\n            }\n        }\n    }\n\n    function checkMerkleProof(bytes32 _gameId, bytes32[] memory _sibilings, bool _hit) public {\n        \n        for(uint8 i=0; i < matches.length; i++){\n            if(matches[i].gameId == _gameId){\n                bytes32 _trueBoard;\n                if(matches[i].p1==msg.sender){\n                    _trueBoard=matches[i].b1;\n                }\n                else{\n                    _trueBoard=matches[i].b2;\n                }        \n                \n               \n                uint row = stringToUint(splitString(matches[i].lastMove, \"-\")[0]) - 1;\n                uint col = stringToUint(splitString(matches[i].lastMove, \"-\")[1]) - 1;\n                uint toCheck = row*matches[i].tableSize + col;\n                \n                if(toCheck%2!=0){\n                    bytes32 _t = _sibilings[0];\n                    _sibilings[0] = _sibilings[1];\n                    _sibilings[1] = _t;\n                }\n\n                bytes32 _b=_sibilings[0];\n                for(uint j=1; j < _sibilings.length; j++){\n                    // compute the merkle proof\n                    bytes32 _b1=_b;\n                    bytes32 _b2=_sibilings[j];\n                    _b=keccak256(abi.encodePacked(_b1, _b2));          \n                }\n\n                // confronta il risultato con _b se ok allora memorizza la mossa valida e return true\n\n                if(_b == _trueBoard){\n                    string memory _r=_hit?\"-1\":\"-0\";\n                    matches[i].moves.push(string(abi.encodePacked(matches[i].lastMove, _r)));\n                    \n                    if(msg.sender==matches[i].p1){\n                        emit SendMoveResult(matches[i].p2, _hit, matches[i].lastMove);\n                    }else{\n                        emit SendMoveResult(matches[i].p1, _hit, matches[i].lastMove);\n                    }\n\n                    // chiama la funzione checkWin e richiedi la board da controllare\n                    /*if(checkWin(matches[i])){\n                        emit SendRequestBoard(msg.sender);\n                        \n                    }else{\n                        // altrimenti emetti l'evento cambia turno\n                        emit SendTurnAdvice(msg.sender);\n                        matches[i].turn ? matches[i].turn=false : matches[i].turn=true; //meglio riuscire a toglierla\n                    }*/\n                        \n                    return;\n                }\n                else{   \n                    emit SendWrongMove(msg.sender);             \n                    return;\n                }                \n            }\n        }\n    }\n\n\n    function checkFun(bytes32 _gameId, bytes32[] memory _sibilings, bool _hit) public {\n        \n        for(uint8 i=0; i < matches.length; i++){\n            if(matches[i].gameId == _gameId){\n                bytes32 _trueBoard;\n                if(matches[i].p1==msg.sender){\n                    _trueBoard=matches[i].b1;\n                }\n                else{\n                    _trueBoard=matches[i].b2;\n                }   \n                \n                uint row = stringToUint(splitString(matches[i].lastMove, \"-\")[0]) - 1;\n                uint col = stringToUint(splitString(matches[i].lastMove, \"-\")[1]) - 1;\n                uint toCheck = row*matches[i].tableSize + col;     \n\n                if(toCheck%2!=0){\n                    bytes32 _t = _sibilings[0];\n                    _sibilings[0] = _sibilings[1];\n                    _sibilings[1] = _t;\n                }           \n            }\n        }\n    }\n\n    function checkWin(GameMatch memory g) internal pure returns(bool){\n        uint _shipToSink=g.ships*2; //because all ships have fixed length of two\n        uint _shipSinked=0;\n        if(g.turn){\n            for (uint i=0; i<g.moves.length; i+=2){\n                if(i < g.moves.length){\n                    string[] memory _s = splitString(g.moves[i], \"-\");\n                    _shipSinked += stringToUint(_s[2]);\n                }\n            }\n        }else{\n            for(uint i = 1; i < g.moves.length; i+=2){\n                if(i < g.moves.length){\n                    string[] memory _s = splitString(g.moves[i], \"-\");\n                    _shipSinked += stringToUint(_s[2]);\n                }\n            }\n        }\n\n        if(_shipSinked==_shipToSink){\n            return true;\n        }else{\n            return false;\n        }\n    }\n\n    function checkBoard(bytes32 _gameId, string[][] memory _board) public payable returns(bool){\n        bytes1 _one = 0x01;        \n        for(uint8 i=0; i < matches.length; i++){\n            if(matches[i].gameId == _gameId){\n                //controllo sovrapposizioni navi\n                uint8 count=0;\n                for(uint q = 0; q < matches[i].tableSize; q++){\n                    for(uint k = 0; k < matches[i].tableSize; k++){\n                        if(bytes(_board[q][k])[0] == _one) //there is a ship\n                            count++;\n                    }\n                }\n\n                if(count == matches[i].ships){ //there aren't ship overlapped\n                    payable(msg.sender).transfer(address(this).balance);\n                }\n            }\n        }\n    }\n\n    function notifyDelay() public{\n        //wait for 5 blocks and if there isn't a reply\n        // pay the other player\n    }\n\n    fallback() external{\n        pay(0);\n    }\n\n\n    /**\n        Some utility functions for internal use only    \n     */\n    function splitString(string memory _s, string memory _separator) internal pure returns(string[] memory){\n        string memory _temp=\"\";\n        uint count=0;\n        bytes memory _sbytes=bytes(_s);\n        string[] memory _res = new string[](bytes(_s).length);\n        for(uint i=0; i < _sbytes.length; i++){\n            if(_sbytes[i]==bytes(_separator)[0]){\n                _res[count] = _temp;\n                _temp=\"\";\n                count++;\n            }\n            else{\n                _temp=string(bytes.concat(bytes(_temp), bytes(_s)[i]));\n            }\n        }\n        _res[count] = _temp;\n        return _res;\n    }\n\n    function stringToUint(string memory _str) internal pure returns (uint) {\n        bytes memory b = bytes(_str);\n        uint result = 0;\n        for (uint i = 0; i < b.length; i++) {\n            uint c = uint(uint8(b[i]));\n            if (c >= 48 && c <= 57) {\n                result = result * 10 + (c - 48);\n            }\n        }\n        return result;\n    }\n}",
  "sourcePath": "/home/davide/Documenti/magistrale/P2PBC/projects/battleship/contracts/Game.sol",
  "compiler": {
    "name": "solc",
    "version": "0.8.19+commit.7dd6d404.Emscripten.clang"
  },
  "schemaVersion": "3.4.13",
  "updatedAt": "2023-06-10T16:49:45.485Z",
  "networkType": "ethereum",
  "devdoc": {
    "kind": "dev",
    "methods": {},
    "version": 1
  },
  "userdoc": {
    "kind": "user",
    "methods": {
      "getLastMoves(bytes32)": {
        "notice": "get the last move of the game then compute the merkle tree as a proof "
      },
      "setReward(bytes32,int256)": {
        "notice": "The two part agree offline and the first who call this method also set the reward.    "
      }
    },
    "version": 1
  }
}