{
  "contractName": "Game",
  "abi": [
    {
      "anonymous": false,
      "inputs": [
        {
          "indexed": false,
          "internalType": "address",
          "name": "player",
          "type": "address"
        }
      ],
      "name": "SendMovesAdvice",
      "type": "event"
    },
    {
      "anonymous": false,
      "inputs": [
        {
          "indexed": false,
          "internalType": "address",
          "name": "p1",
          "type": "address"
        },
        {
          "indexed": false,
          "internalType": "address",
          "name": "p2",
          "type": "address"
        }
      ],
      "name": "SendRequestAmount",
      "type": "event"
    },
    {
      "anonymous": false,
      "inputs": [
        {
          "indexed": false,
          "internalType": "address",
          "name": "player",
          "type": "address"
        }
      ],
      "name": "SendRequestBoard",
      "type": "event"
    },
    {
      "anonymous": false,
      "inputs": [
        {
          "indexed": false,
          "internalType": "address",
          "name": "player",
          "type": "address"
        }
      ],
      "name": "SendTurnAdvice",
      "type": "event"
    },
    {
      "anonymous": false,
      "inputs": [
        {
          "indexed": false,
          "internalType": "address",
          "name": "player",
          "type": "address"
        }
      ],
      "name": "SendWrongMove",
      "type": "event"
    },
    {
      "inputs": [
        {
          "internalType": "bytes32",
          "name": "_gameId",
          "type": "bytes32"
        },
        {
          "internalType": "bool",
          "name": "_isNew",
          "type": "bool"
        },
        {
          "internalType": "uint8[]",
          "name": "_info",
          "type": "uint8[]"
        }
      ],
      "name": "join",
      "outputs": [
        {
          "internalType": "bytes32",
          "name": "",
          "type": "bytes32"
        }
      ],
      "stateMutability": "nonpayable",
      "type": "function"
    },
    {
      "inputs": [
        {
          "internalType": "bytes32",
          "name": "_gameId",
          "type": "bytes32"
        },
        {
          "internalType": "int256",
          "name": "_amount",
          "type": "int256"
        }
      ],
      "name": "setReward",
      "outputs": [
        {
          "internalType": "bool",
          "name": "",
          "type": "bool"
        }
      ],
      "stateMutability": "nonpayable",
      "type": "function"
    },
    {
      "inputs": [
        {
          "internalType": "bytes32",
          "name": "_gameId",
          "type": "bytes32"
        }
      ],
      "name": "payGame",
      "outputs": [],
      "stateMutability": "payable",
      "type": "function",
      "payable": true
    },
    {
      "inputs": [
        {
          "internalType": "bytes32",
          "name": "_gameId",
          "type": "bytes32"
        },
        {
          "internalType": "bytes32",
          "name": "_hashedBoard",
          "type": "bytes32"
        }
      ],
      "name": "setBoard",
      "outputs": [],
      "stateMutability": "nonpayable",
      "type": "function"
    },
    {
      "inputs": [
        {
          "internalType": "bytes32",
          "name": "_gameId",
          "type": "bytes32"
        },
        {
          "internalType": "string",
          "name": "_coordinate",
          "type": "string"
        }
      ],
      "name": "shoot",
      "outputs": [],
      "stateMutability": "nonpayable",
      "type": "function"
    },
    {
      "inputs": [
        {
          "internalType": "bytes32",
          "name": "_gameId",
          "type": "bytes32"
        }
      ],
      "name": "getLastMoves",
      "outputs": [
        {
          "internalType": "string",
          "name": "",
          "type": "string"
        }
      ],
      "stateMutability": "view",
      "type": "function",
      "constant": true
    },
    {
      "inputs": [
        {
          "internalType": "bytes32",
          "name": "_gameId",
          "type": "bytes32"
        },
        {
          "internalType": "bytes32[]",
          "name": "_sibilings",
          "type": "bytes32[]"
        }
      ],
      "name": "checkMerkleProof",
      "outputs": [
        {
          "internalType": "bool",
          "name": "",
          "type": "bool"
        }
      ],
      "stateMutability": "nonpayable",
      "type": "function"
    },
    {
      "inputs": [
        {
          "internalType": "bytes32",
          "name": "_gameId",
          "type": "bytes32"
        },
        {
          "internalType": "string[][]",
          "name": "_board",
          "type": "string[][]"
        }
      ],
      "name": "checkBoard",
      "outputs": [
        {
          "internalType": "bool",
          "name": "",
          "type": "bool"
        }
      ],
      "stateMutability": "payable",
      "type": "function",
      "payable": true
    },
    {
      "inputs": [],
      "name": "notifyDelay",
      "outputs": [],
      "stateMutability": "nonpayable",
      "type": "function"
    }
  ],
  "bytecode": "0x608060405234801561001057600080fd5b50612de8806100206000396000f3fe6080604052600436106100865760003560e01c8063c7bad2b711610059578063c7bad2b714610138578063cf9e4fb914610161578063e0e797ee14610191578063e4cc82a0146101ce578063fbf5fea81461020b57610086565b80634b3d815c1461008b5780637eebaf06146100a75780639507c260146100be578063b4df5138146100fb575b600080fd5b6100a560048036038101906100a09190611e67565b610234565b005b3480156100b357600080fd5b506100bc6102c2565b005b3480156100ca57600080fd5b506100e560048036038101906100e09190611ef9565b6102c4565b6040516100f29190611f74565b60405180910390f35b34801561010757600080fd5b50610122600480360381019061011d9190612143565b6109a6565b60405161012f91906121c1565b60405180910390f35b34801561014457600080fd5b5061015f600480360381019061015a9190612232565b610fe8565b005b61017b60048036038101906101769190612509565b6111fb565b6040516101889190611f74565b60405180910390f35b34801561019d57600080fd5b506101b860048036038101906101b3919061259b565b61141c565b6040516101c59190611f74565b60405180910390f35b3480156101da57600080fd5b506101f560048036038101906101f09190611e67565b611561565b604051610202919061265a565b60405180910390f35b34801561021757600080fd5b50610232600480360381019061022d919061267c565b611678565b005b60005b6000805490508160ff1610156102be578160008260ff168154811061025f5761025e6126bc565b5b90600052602060002090600c020160000154036102ab5760008160ff168154811061028d5761028c6126bc565b5b90600052602060002090600c02016005015434146102aa57600080fd5b5b80806102b69061271a565b915050610237565b5050565b565b600080600090505b6000805490508160ff16101561099d578460008260ff16815481106102f4576102f36126bc565b5b90600052602060002090600c0201600001540361098a5760003373ffffffffffffffffffffffffffffffffffffffff1660008360ff168154811061033b5761033a6126bc565b5b90600052602060002090600c020160030160009054906101000a900473ffffffffffffffffffffffffffffffffffffffff1673ffffffffffffffffffffffffffffffffffffffff16036103b85760008260ff168154811061039f5761039e6126bc565b5b90600052602060002090600c02016008015490506103e4565b60008260ff16815481106103cf576103ce6126bc565b5b90600052602060002090600c02016009015490505b600080600090505b86869050811015610492576000604067ffffffffffffffff81111561041457610413611fcc565b5b6040519080825280601f01601f1916602001820160405280156104465781602001600182028036833780820191505090505b509050600088888760ff16818110610461576104606126bc565b5b905060200201359050836020830152806040830152604060002093505050808061048a9061274d565b9150506103ec565b508181036109475760008360ff16815481106104b1576104b06126bc565b5b90600052602060002090600c0201600b0160018160018154018082558091505003906000526020600020505061080260008460ff16815481106104f7576104f66126bc565b5b90600052602060002090600c02016040518061018001604052908160008201548152602001600182015481526020016002820180548060200260200160405190810160405280929190818152602001828054801561059a57602002820191906000526020600020906000905b82829054906101000a900460ff1660ff16815260200190600101906020826000010492830192600103820291508084116105635790505b505050505081526020016003820160009054906101000a900473ffffffffffffffffffffffffffffffffffffffff1673ffffffffffffffffffffffffffffffffffffffff1673ffffffffffffffffffffffffffffffffffffffff1681526020016004820160009054906101000a900473ffffffffffffffffffffffffffffffffffffffff1673ffffffffffffffffffffffffffffffffffffffff1673ffffffffffffffffffffffffffffffffffffffff16815260200160058201548152602001600682015481526020016007820160009054906101000a900460ff161515151581526020016008820154815260200160098201548152602001600a820180546106a2906127c4565b80601f01602080910402602001604051908101604052809291908181526020018280546106ce906127c4565b801561071b5780601f106106f05761010080835404028352916020019161071b565b820191906000526020600020905b8154815290600101906020018083116106fe57829003601f168201915b50505050508152602001600b8201805480602002602001604051908101604052809291908181526020016000905b828210156107f5578382906000526020600020018054610768906127c4565b80601f0160208091040260200160405190810160405280929190818152602001828054610794906127c4565b80156107e15780601f106107b6576101008083540402835291602001916107e1565b820191906000526020600020905b8154815290600101906020018083116107c457829003601f168201915b505050505081526020019060010190610749565b505050508152505061186e565b15610843577fc7e0345890e3d3863c7f66518e8fe24252b162afe06faf9b20c50ac5d774fdfa336040516108369190612836565b60405180910390a161093b565b7fbac0d2f1d5b86b0ca75625d37a148747faa00f4de41c5c586f79880e455c2dc5336040516108729190612836565b60405180910390a160008360ff1681548110610891576108906126bc565b5b90600052602060002090600c020160070160009054906101000a900460ff166108f957600160008460ff16815481106108cd576108cc6126bc565b5b90600052602060002090600c020160070160006101000a81548160ff0219169083151502179055610939565b6000808460ff1681548110610911576109106126bc565b5b90600052602060002090600c020160070160006101000a81548160ff02191690831515021790555b505b6001935050505061099f565b7f9709744f7c7359edb2e10790a4a8501b0bb5fcec380968177c7a3e91249d52d8336040516109769190612836565b60405180910390a16000935050505061099f565b80806109959061271a565b9150506102cc565b505b9392505050565b6000808490506000602060ff1603610b315760005b6000805490508160ff161015610b2f578560008260ff16815481106109e3576109e26126bc565b5b90600052602060002090600c02016000015403610b1c57600073ffffffffffffffffffffffffffffffffffffffff1660008260ff1681548110610a2957610a286126bc565b5b90600052602060002090600c020160040160009054906101000a900473ffffffffffffffffffffffffffffffffffffffff1673ffffffffffffffffffffffffffffffffffffffff1603610b0f573360008260ff1681548110610a8e57610a8d6126bc565b5b90600052602060002090600c020160040160006101000a81548173ffffffffffffffffffffffffffffffffffffffff021916908373ffffffffffffffffffffffffffffffffffffffff16021790555060008160ff1681548110610af457610af36126bc565b5b90600052602060002090600c02016000015492505050610fe1565b6000801b92505050610fe1565b8080610b279061271a565b9150506109bb565b505b60005b6000805490508160ff161015610c6c57600073ffffffffffffffffffffffffffffffffffffffff1660008260ff1681548110610b7357610b726126bc565b5b90600052602060002090600c020160040160009054906101000a900473ffffffffffffffffffffffffffffffffffffffff1673ffffffffffffffffffffffffffffffffffffffff1614610c59573360008260ff1681548110610bd857610bd76126bc565b5b90600052602060002090600c020160040160006101000a81548173ffffffffffffffffffffffffffffffffffffffff021916908373ffffffffffffffffffffffffffffffffffffffff16021790555060008160ff1681548110610c3e57610c3d6126bc565b5b90600052602060002090600c02016000015492505050610fe1565b8080610c649061271a565b915050610b34565b508315610fd95760008080549050604051602001610c8a9190612860565b6040516020818303038152906040528051906020012090506000600167ffffffffffffffff811115610cbf57610cbe611fcc565b5b604051908082528060200260200182016040528015610ced5781602001602082028036833780820191505090505b50905060008067ffffffffffffffff811115610d0c57610d0b611fcc565b5b604051908082528060200260200182016040528015610d3f57816020015b6060815260200190600190039081610d2a5790505b50905085600081518110610d5657610d556126bc565b5b602002602001015182600081518110610d7257610d716126bc565b5b602002602001019060ff16908160ff1681525050600060405180610180016040528085815260200188600181518110610dae57610dad6126bc565b5b602002602001015160ff1681526020018481526020013373ffffffffffffffffffffffffffffffffffffffff168152602001600073ffffffffffffffffffffffffffffffffffffffff1681526020017fffffffffffffffffffffffffffffffffffffffffffffffffffffffffffffffff8152602001600081526020016001151581526020016000801b81526020016000801b815260200160405180602001604052806000815250815260200183815250905060008190806001815401808255809150506001900390600052602060002090600c020160009091909190915060008201518160000155602082015181600101556040820151816002019080519060200190610ebc929190611c9c565b5060608201518160030160006101000a81548173ffffffffffffffffffffffffffffffffffffffff021916908373ffffffffffffffffffffffffffffffffffffffff16021790555060808201518160040160006101000a81548173ffffffffffffffffffffffffffffffffffffffff021916908373ffffffffffffffffffffffffffffffffffffffff16021790555060a0820151816005015560c0820151816006015560e08201518160070160006101000a81548160ff0219169083151502179055506101008201518160080155610120820151816009015561014082015181600a019081610fab9190612a27565b5061016082015181600b019080519060200190610fc9929190611d43565b5050508395505050505050610fe1565b6000801b9150505b9392505050565b60005b6000805490508160ff1610156111f5578360008260ff1681548110611013576110126126bc565b5b90600052602060002090600c020160000154036111e257828260008360ff1681548110611043576110426126bc565b5b90600052602060002090600c0201600a019182611061929190612b04565b503373ffffffffffffffffffffffffffffffffffffffff1660008260ff16815481106110905761108f6126bc565b5b90600052602060002090600c020160030160009054906101000a900473ffffffffffffffffffffffffffffffffffffffff1673ffffffffffffffffffffffffffffffffffffffff1603611161577fa42dd9e1d9175b98ede6b33b1bc3f78cd3f694b7213da993c11516d22751a66d60008260ff1681548110611115576111146126bc565b5b90600052602060002090600c020160030160009054906101000a900473ffffffffffffffffffffffffffffffffffffffff166040516111549190612836565b60405180910390a16111e1565b7fa42dd9e1d9175b98ede6b33b1bc3f78cd3f694b7213da993c11516d22751a66d60008260ff1681548110611199576111986126bc565b5b90600052602060002090600c020160040160009054906101000a900473ffffffffffffffffffffffffffffffffffffffff166040516111d89190612836565b60405180910390a15b5b80806111ed9061271a565b915050610feb565b50505050565b600080600160f81b905060005b6000805490508160ff161015611414578460008260ff16815481106112305761122f6126bc565b5b90600052602060002090600c02016000015403611401576000805b60008360ff1681548110611262576112616126bc565b5b90600052602060002090600c0201600101548110156113815760005b60008460ff1681548110611295576112946126bc565b5b90600052602060002090600c02016001015481101561136d57847effffffffffffffffffffffffffffffffffffffffffffffffffffffffffffff19168783815181106112e4576112e36126bc565b5b602002602001015182815181106112fe576112fd6126bc565b5b6020026020010151600081518110611319576113186126bc565b5b602001015160f81c60f81b7effffffffffffffffffffffffffffffffffffffffffffffffffffffffffffff19160361135a5782806113569061271a565b9350505b80806113659061274d565b91505061127e565b5080806113799061274d565b91505061124b565b5060008260ff1681548110611399576113986126bc565b5b90600052602060002090600c0201600201805490508160ff16036113ff573373ffffffffffffffffffffffffffffffffffffffff166108fc479081150290604051600060405180830381858888f193505050501580156113fd573d6000803e3d6000fd5b505b505b808061140c9061271a565b915050611208565b505092915050565b600080600090505b6000805490508160ff161015611559578360008260ff168154811061144c5761144b6126bc565b5b90600052602060002090600c02016000015403611546576000808260ff168154811061147b5761147a6126bc565b5b90600052602060002090600c02016005015412156114ca578260008260ff16815481106114ab576114aa6126bc565b5b90600052602060002090600c020160050181905550600191505061155b565b8260008260ff16815481106114e2576114e16126bc565b5b90600052602060002090600c0201600501540361153c576002836115069190612bd4565b60008260ff168154811061151d5761151c6126bc565b5b90600052602060002090600c020160060181905550600191505061155b565b600091505061155b565b80806115519061271a565b915050611424565b505b92915050565b606060005b6000805490508160ff161015611671578260008260ff168154811061158e5761158d6126bc565b5b90600052602060002090600c0201600001540361165e5760008160ff16815481106115bc576115bb6126bc565b5b90600052602060002090600c0201600a0180546115d8906127c4565b80601f0160208091040260200160405190810160405280929190818152602001828054611604906127c4565b80156116515780601f1061162657610100808354040283529160200191611651565b820191906000526020600020905b81548152906001019060200180831161163457829003601f168201915b5050505050915050611673565b80806116699061271a565b915050611566565b505b919050565b60005b6000805490508160ff161015611869578260008260ff16815481106116a3576116a26126bc565b5b90600052602060002090600c02016000015403611856573373ffffffffffffffffffffffffffffffffffffffff1660008260ff16815481106116e8576116e76126bc565b5b90600052602060002090600c020160030160009054906101000a900473ffffffffffffffffffffffffffffffffffffffff1673ffffffffffffffffffffffffffffffffffffffff1603611767578160008260ff168154811061174d5761174c6126bc565b5b90600052602060002090600c020160080181905550611795565b8160008260ff168154811061177f5761177e6126bc565b5b90600052602060002090600c0201600901819055505b600160008260ff16815481106117ae576117ad6126bc565b5b90600052602060002090600c020160070160006101000a81548160ff0219169083151502179055507fbac0d2f1d5b86b0ca75625d37a148747faa00f4de41c5c586f79880e455c2dc560008260ff168154811061180e5761180d6126bc565b5b90600052602060002090600c020160030160009054906101000a900473ffffffffffffffffffffffffffffffffffffffff1660405161184d9190612836565b60405180910390a15b80806118619061271a565b91505061167b565b505050565b6000806000905060005b8360400151518110156118c7578360400151818151811061189c5761189b6126bc565b5b602002602001015160ff16826118b29190612c4c565b915080806118bf9061274d565b915050611878565b5060008360e00151156119925760005b8461016001515181101561198c5760006119458661016001518381518110611902576119016126bc565b5b60200260200101516040518060400160405280600181526020017f2e00000000000000000000000000000000000000000000000000000000000000815250611a6e565b905061196b8160028151811061195e5761195d6126bc565b5b6020026020010151611c04565b836119769190612c4c565b9250506002816119869190612c4c565b506118d7565b50611a50565b6000600190505b84610160015151811015611a4e576000611a0786610160015183815181106119c4576119c36126bc565b5b60200260200101516040518060400160405280600181526020017f2e00000000000000000000000000000000000000000000000000000000000000815250611a6e565b9050611a2d81600281518110611a2057611a1f6126bc565b5b6020026020010151611c04565b83611a389190612c4c565b925050600281611a489190612c4c565b50611999565b505b818103611a6257600192505050611a69565b6000925050505b919050565b606060006040518060200160405280600081525090506000808590506000865167ffffffffffffffff811115611aa757611aa6611fcc565b5b604051908082528060200260200182016040528015611ada57816020015b6060815260200190600190039081611ac55790505b50905060005b8251811015611bf65786600081518110611afd57611afc6126bc565b5b602001015160f81c60f81b7effffffffffffffffffffffffffffffffffffffffffffffffffffffffffffff1916838281518110611b3d57611b3c6126bc565b5b602001015160f81c60f81b7effffffffffffffffffffffffffffffffffffffffffffffffffffffffffffff191603611ba15784828581518110611b8357611b826126bc565b5b60200260200101819052508380611b999061274d565b945050611be3565b84888281518110611bb557611bb46126bc565b5b602001015160f81c60f81b604051602001611bd1929190612d14565b60405160208183030381529060405294505b8080611bee9061274d565b915050611ae0565b508094505050505092915050565b6000808290506000805b8251811015611c91576000838281518110611c2c57611c2b6126bc565b5b602001015160f81c60f81b60f81c60ff16905060308110158015611c51575060398111155b15611c7d57603081611c639190612d3c565b600a84611c709190612d70565b611c7a9190612c4c565b92505b508080611c899061274d565b915050611c0e565b508092505050919050565b82805482825590600052602060002090601f01602090048101928215611d325791602002820160005b83821115611d0357835183826101000a81548160ff021916908360ff1602179055509260200192600101602081600001049283019260010302611cc5565b8015611d305782816101000a81549060ff0219169055600101602081600001049283019260010302611d03565b505b509050611d3f9190611d9c565b5090565b828054828255906000526020600020908101928215611d8b579160200282015b82811115611d8a578251829081611d7a9190612a27565b5091602001919060010190611d63565b5b509050611d989190611db9565b5090565b5b80821115611db5576000816000905550600101611d9d565b5090565b5b80821115611dd95760008181611dd09190611ddd565b50600101611dba565b5090565b508054611de9906127c4565b6000825580601f10611dfb5750611e1a565b601f016020900490600052602060002090810190611e199190611d9c565b5b50565b6000604051905090565b600080fd5b600080fd5b6000819050919050565b611e4481611e31565b8114611e4f57600080fd5b50565b600081359050611e6181611e3b565b92915050565b600060208284031215611e7d57611e7c611e27565b5b6000611e8b84828501611e52565b91505092915050565b600080fd5b600080fd5b600080fd5b60008083601f840112611eb957611eb8611e94565b5b8235905067ffffffffffffffff811115611ed657611ed5611e99565b5b602083019150836020820283011115611ef257611ef1611e9e565b5b9250929050565b600080600060408486031215611f1257611f11611e27565b5b6000611f2086828701611e52565b935050602084013567ffffffffffffffff811115611f4157611f40611e2c565b5b611f4d86828701611ea3565b92509250509250925092565b60008115159050919050565b611f6e81611f59565b82525050565b6000602082019050611f896000830184611f65565b92915050565b611f9881611f59565b8114611fa357600080fd5b50565b600081359050611fb581611f8f565b92915050565b6000601f19601f8301169050919050565b7f4e487b7100000000000000000000000000000000000000000000000000000000600052604160045260246000fd5b61200482611fbb565b810181811067ffffffffffffffff8211171561202357612022611fcc565b5b80604052505050565b6000612036611e1d565b90506120428282611ffb565b919050565b600067ffffffffffffffff82111561206257612061611fcc565b5b602082029050602081019050919050565b600060ff82169050919050565b61208981612073565b811461209457600080fd5b50565b6000813590506120a681612080565b92915050565b60006120bf6120ba84612047565b61202c565b905080838252602082019050602084028301858111156120e2576120e1611e9e565b5b835b8181101561210b57806120f78882612097565b8452602084019350506020810190506120e4565b5050509392505050565b600082601f83011261212a57612129611e94565b5b813561213a8482602086016120ac565b91505092915050565b60008060006060848603121561215c5761215b611e27565b5b600061216a86828701611e52565b935050602061217b86828701611fa6565b925050604084013567ffffffffffffffff81111561219c5761219b611e2c565b5b6121a886828701612115565b9150509250925092565b6121bb81611e31565b82525050565b60006020820190506121d660008301846121b2565b92915050565b60008083601f8401126121f2576121f1611e94565b5b8235905067ffffffffffffffff81111561220f5761220e611e99565b5b60208301915083600182028301111561222b5761222a611e9e565b5b9250929050565b60008060006040848603121561224b5761224a611e27565b5b600061225986828701611e52565b935050602084013567ffffffffffffffff81111561227a57612279611e2c565b5b612286868287016121dc565b92509250509250925092565b600067ffffffffffffffff8211156122ad576122ac611fcc565b5b602082029050602081019050919050565b600067ffffffffffffffff8211156122d9576122d8611fcc565b5b602082029050602081019050919050565b600080fd5b600067ffffffffffffffff82111561230a57612309611fcc565b5b61231382611fbb565b9050602081019050919050565b82818337600083830152505050565b600061234261233d846122ef565b61202c565b90508281526020810184848401111561235e5761235d6122ea565b5b612369848285612320565b509392505050565b600082601f83011261238657612385611e94565b5b813561239684826020860161232f565b91505092915050565b60006123b26123ad846122be565b61202c565b905080838252602082019050602084028301858111156123d5576123d4611e9e565b5b835b8181101561241c57803567ffffffffffffffff8111156123fa576123f9611e94565b5b8086016124078982612371565b855260208501945050506020810190506123d7565b5050509392505050565b600082601f83011261243b5761243a611e94565b5b813561244b84826020860161239f565b91505092915050565b600061246761246284612292565b61202c565b9050808382526020820190506020840283018581111561248a57612489611e9e565b5b835b818110156124d157803567ffffffffffffffff8111156124af576124ae611e94565b5b8086016124bc8982612426565b8552602085019450505060208101905061248c565b5050509392505050565b600082601f8301126124f0576124ef611e94565b5b8135612500848260208601612454565b91505092915050565b600080604083850312156125205761251f611e27565b5b600061252e85828601611e52565b925050602083013567ffffffffffffffff81111561254f5761254e611e2c565b5b61255b858286016124db565b9150509250929050565b6000819050919050565b61257881612565565b811461258357600080fd5b50565b6000813590506125958161256f565b92915050565b600080604083850312156125b2576125b1611e27565b5b60006125c085828601611e52565b92505060206125d185828601612586565b9150509250929050565b600081519050919050565b600082825260208201905092915050565b60005b838110156126155780820151818401526020810190506125fa565b60008484015250505050565b600061262c826125db565b61263681856125e6565b93506126468185602086016125f7565b61264f81611fbb565b840191505092915050565b600060208201905081810360008301526126748184612621565b905092915050565b6000806040838503121561269357612692611e27565b5b60006126a185828601611e52565b92505060206126b285828601611e52565b9150509250929050565b7f4e487b7100000000000000000000000000000000000000000000000000000000600052603260045260246000fd5b7f4e487b7100000000000000000000000000000000000000000000000000000000600052601160045260246000fd5b600061272582612073565b915060ff8203612738576127376126eb565b5b600182019050919050565b6000819050919050565b600061275882612743565b91507fffffffffffffffffffffffffffffffffffffffffffffffffffffffffffffffff820361278a576127896126eb565b5b600182019050919050565b7f4e487b7100000000000000000000000000000000000000000000000000000000600052602260045260246000fd5b600060028204905060018216806127dc57607f821691505b6020821081036127ef576127ee612795565b5b50919050565b600073ffffffffffffffffffffffffffffffffffffffff82169050919050565b6000612820826127f5565b9050919050565b61283081612815565b82525050565b600060208201905061284b6000830184612827565b92915050565b61285a81612743565b82525050565b60006020820190506128756000830184612851565b92915050565b60008190508160005260206000209050919050565b60006020601f8301049050919050565b600082821b905092915050565b6000600883026128dd7fffffffffffffffffffffffffffffffffffffffffffffffffffffffffffffffff826128a0565b6128e786836128a0565b95508019841693508086168417925050509392505050565b6000819050919050565b600061292461291f61291a84612743565b6128ff565b612743565b9050919050565b6000819050919050565b61293e83612909565b61295261294a8261292b565b8484546128ad565b825550505050565b600090565b61296761295a565b612972818484612935565b505050565b5b818110156129965761298b60008261295f565b600181019050612978565b5050565b601f8211156129db576129ac8161287b565b6129b584612890565b810160208510156129c4578190505b6129d86129d085612890565b830182612977565b50505b505050565b600082821c905092915050565b60006129fe600019846008026129e0565b1980831691505092915050565b6000612a1783836129ed565b9150826002028217905092915050565b612a30826125db565b67ffffffffffffffff811115612a4957612a48611fcc565b5b612a5382546127c4565b612a5e82828561299a565b600060209050601f831160018114612a915760008415612a7f578287015190505b612a898582612a0b565b865550612af1565b601f198416612a9f8661287b565b60005b82811015612ac757848901518255600182019150602085019450602081019050612aa2565b86831015612ae45784890151612ae0601f8916826129ed565b8355505b6001600288020188555050505b505050505050565b600082905092915050565b612b0e8383612af9565b67ffffffffffffffff811115612b2757612b26611fcc565b5b612b3182546127c4565b612b3c82828561299a565b6000601f831160018114612b6b5760008415612b59578287013590505b612b638582612a0b565b865550612bcb565b601f198416612b798661287b565b60005b82811015612ba157848901358255600182019150602085019450602081019050612b7c565b86831015612bbe5784890135612bba601f8916826129ed565b8355505b6001600288020188555050505b50505050505050565b6000612bdf82612565565b9150612bea83612565565b9250828202612bf881612565565b91507f80000000000000000000000000000000000000000000000000000000000000008414600084121615612c3057612c2f6126eb565b5b8282058414831517612c4557612c446126eb565b5b5092915050565b6000612c5782612743565b9150612c6283612743565b9250828201905080821115612c7a57612c796126eb565b5b92915050565b600081519050919050565b600081905092915050565b6000612ca182612c80565b612cab8185612c8b565b9350612cbb8185602086016125f7565b80840191505092915050565b60007fff0000000000000000000000000000000000000000000000000000000000000082169050919050565b6000819050919050565b612d0e612d0982612cc7565b612cf3565b82525050565b6000612d208285612c96565b9150612d2c8284612cfd565b6001820191508190509392505050565b6000612d4782612743565b9150612d5283612743565b9250828203905081811115612d6a57612d696126eb565b5b92915050565b6000612d7b82612743565b9150612d8683612743565b9250828202612d9481612743565b91508282048414831517612dab57612daa6126eb565b5b509291505056fea2646970667358221220a8f3bcf8d9a9425a55d732cb8c8b25dd5bc1e8bfa548d70e0805ace5887adb0b64736f6c63430008130033",
  "immutableReferences": {},
  "source": "// SPDX-License-Identifier: MIT \npragma solidity >=0.8.2 <0.9.0;\npragma abicoder v2;\n\ncontract Game {\n\n    struct GameMatch{\n        bytes32 gameId;\n        uint tableSize;\n        uint8[] ships;\n        address p1; // also the creator\n        address p2;\n        int registration; // -1: not registered, otherwise the amount \n        int reward;\n        bool turn; // if true --> p1 have to play otherwise p2 \n        bytes32 b1; // hash of the board to proof merkle tree\n        bytes32 b2;\n        string lastMove; // last move played in the game [1.2][2.4][1.1][2.2] --> first x then y\n        string[] moves;     // l'array avr quindi le caselle pari per il p1 e disapari per il p2 e li metterai le mosse fatte in chiaro\n                            // con anche il risultato della mossa tipo 1.1.0 (casella 1 1 mancato) 2.1.1 (casella 2 1 colpito)\n    }\n\n    GameMatch[] matches;\n    event SendRequestAmount(address p1, address p2);    //tell to the player to put the money to start play\n    event SendTurnAdvice(address player);   //tell to the player that is his/her turn\n    event SendMovesAdvice(address player);  //tell to the player that have been shoot\n    event SendRequestBoard(address player);   //tell to the player that have won\n    event SendWrongMove(address player);    //tell to the player that is not a valid move\n\n    function join(bytes32 _gameId, bool _isNew, uint8[] memory _info) external returns(bytes32){\n        \n        // set player 2 in case of given game id\n        bytes32 _gameIdTest = _gameId;\n        if(_gameIdTest.length == 0){\n            for(uint8 i=0; i<matches.length; i++){\n                if(matches[i].gameId == _gameId){\n                    if(matches[i].p2 == address(0)){\n                        matches[i].p2 = msg.sender;\n                        return matches[i].gameId;\n                    }\n                    else\n                        return 0;\n                }\n            }\n        }\n\n        // set player 2 in random game if available\n        for(uint8 i=0; i<matches.length; i++){\n            if(matches[i].p2 != address(0)){\n                matches[i].p2=msg.sender;\n                return matches[i].gameId;\n            }\n        }\n\n        if(_isNew){\n            // otherwise create a new game\n            bytes32 newGameId = keccak256(abi.encode(matches.length));\n            uint8[] memory _ships= new uint8[](1);\n            string[] memory _moves = new string[](0);\n            _ships[0]=_info[0];\n            GameMatch memory newGame = GameMatch(newGameId, _info[1], _ships, msg.sender, address(0), -1, 0, true, 0, 0, \"\",  _moves);\n            matches.push(newGame);\n            return newGameId;\n        }else\n            return 0;\n    }\n\n    /**\n        The two part agree offline and the first who call this method\n        also set the reward.    \n     */\n    function setReward(bytes32 _gameId, int _amount) external returns(bool){\n        for(uint8 i=0; i<matches.length; i++){\n            if(matches[i].gameId == _gameId){\n                if(matches[i].registration < 0){\n                    matches[i].registration=_amount;\n                    return true;\n                }\n                else{\n                    if(matches[i].registration == _amount){\n                        matches[i].reward=_amount*2;\n                        return true;\n                    }\n                    else{\n                        return false;\n                    }\n                }\n            }\n        }\n    }\n\n    function payGame(bytes32 _gameId) public payable{\n        for(uint8 i=0; i < matches.length; i++){\n            if(matches[i].gameId == _gameId){\n                require(msg.value == uint(matches[i].registration));\n            }\n        }\n    }\n\n    function setBoard(bytes32 _gameId, bytes32 _hashedBoard) public{\n        for(uint8 i=0; i < matches.length; i++){\n            if(matches[i].gameId == _gameId){\n                if(matches[i].p1==msg.sender){\n                    matches[i].b1=_hashedBoard;\n                }\n                else{\n                    matches[i].b2=_hashedBoard;\n                }\n                matches[i].turn=true;\n                emit SendTurnAdvice(matches[i].p1);\n            }\n        }\n    }\n\n    function shoot(bytes32 _gameId, string calldata _coordinate) public{\n        // stores the coordination for the other player\n        for(uint8 i=0; i < matches.length; i++){\n            if(matches[i].gameId == _gameId){\n                matches[i].lastMove=_coordinate;\n                if(matches[i].p1==msg.sender){\n                    emit SendMovesAdvice(matches[i].p1);\n                }\n                else{\n                    emit SendMovesAdvice(matches[i].p2);\n                }\n            }\n        }\n    }\n\n    /**\n        get the last move of the game\n        then compute the merkle tree as a proof \n     */\n    function getLastMoves(bytes32 _gameId) public view returns(string memory){\n        for(uint8 i=0; i < matches.length; i++){\n            if(matches[i].gameId == _gameId){\n                return matches[i].lastMove;\n            }\n        }\n    }\n\n    function checkMerkleProof(bytes32 _gameId, bytes32[] calldata _sibilings) public returns(bool){\n        \n        for(uint8 i=0; i < matches.length; i++){\n            if(matches[i].gameId == _gameId){\n                bytes32 _trueBoard;\n                if(matches[i].p1==msg.sender){\n                    _trueBoard=matches[i].b1;\n                }\n                else{\n                    _trueBoard=matches[i].b2;\n                }\n                \n                bytes32 _b; //=keccak256(_firstNode); wait for the reply of teacher\n                for(uint j=0; j < _sibilings.length; j++){\n                    // compute the merkle proof\n                    // there is an issue and it's reported in the PDF\n                    bytes memory _temp = new bytes(64);\n                    bytes32 _b1=_sibilings[i];\n                    assembly {\n                        mstore(add(_temp, 32), _b)\n                        mstore(add(_temp, 64), _b1)\n                        _b := keccak256(0x00, 0x40)\n                    }            \n                }\n\n                // confronta il risultato con _b se ok allora memorizza la mossa valida e return true\n\n                if(_b == _trueBoard){\n\n                    matches[i].moves.push();\n                    // chiama la funzione checkWin e se true emetti evento vittoria\n                    if(checkWin(matches[i])){\n                        emit SendRequestBoard(msg.sender);\n                    }else{\n                        // altrimenti emetti l'evento cambia turno\n                        emit SendTurnAdvice(msg.sender);\n                        matches[i].turn ? matches[i].turn=false : matches[i].turn=true;\n                    }\n                        \n                    return true;\n                }\n                else{   \n                    emit SendWrongMove(msg.sender);             \n                    return false;\n                }\n                \n            }\n        }\n    }\n\n    function checkWin(GameMatch memory g) internal pure returns(bool){\n        uint _shipToSink=0;\n        for(uint i=0; i < g.ships.length; i++){\n            _shipToSink+=g.ships[i];\n        }\n        uint _shipSinked=0;\n        if(g.turn){\n            for (uint i=0; i<g.moves.length; i+2){\n                string[] memory _s = splitString(g.moves[i], \".\");\n                _shipSinked += stringToUint(_s[2]);\n            }\n        }else{\n            for(uint i = 1; i < g.moves.length; i+2){\n                string[] memory _s = splitString(g.moves[i], \".\");\n                _shipSinked += stringToUint(_s[2]);\n            }\n        }\n\n        if(_shipSinked==_shipToSink){\n            return true;\n        }else{\n            return false;\n        }\n    }\n\n    function checkBoard(bytes32 _gameId, string[][] memory _board) public payable returns(bool){\n        bytes1 _one = 0x01;        \n        for(uint8 i=0; i < matches.length; i++){\n            if(matches[i].gameId == _gameId){\n                //controllo sovrapposizioni navi\n                uint8 count=0;\n                for(uint q = 0; q < matches[i].tableSize; q++){\n                    for(uint k = 0; k < matches[i].tableSize; k++){\n                        if(bytes(_board[q][k])[0] == _one) //there is a ship\n                            count++;\n                    }\n                }\n\n                if(count == matches[i].ships.length){ //there aren't ship overlapped\n                    payable(msg.sender).transfer(address(this).balance);\n                }\n            }\n        }\n    }\n\n    function notifyDelay() public{\n        //wait for 5 blocks and if there isn't a reply\n        // pay the other player\n    }\n\n\n    /**\n        Some utility functions for internal use only    \n     */\n    function splitString(string memory _s, string memory _separator) internal pure returns(string[] memory){\n        string memory _temp=\"\";\n        uint count=0;\n        bytes memory _sbytes=bytes(_s);\n        string[] memory _res = new string[](bytes(_s).length);\n        for(uint i=0; i < _sbytes.length; i++){\n            if(_sbytes[i]==bytes(_separator)[0]){\n                _res[count] = _temp;\n                count++;\n            }\n            else{\n                _temp=string(bytes.concat(bytes(_temp), bytes(_s)[i]));\n            }\n        }\n        return _res;\n    }\n\n    function stringToUint(string memory _str) internal pure returns (uint) {\n        bytes memory b = bytes(_str);\n        uint result = 0;\n        for (uint i = 0; i < b.length; i++) {\n            uint c = uint(uint8(b[i]));\n            if (c >= 48 && c <= 57) {\n                result = result * 10 + (c - 48);\n            }\n        }\n        return result;\n    }\n}",
  "sourcePath": "/home/davide/Documenti/magistrale/P2PBC/projects/battleship/contracts/Game.sol",
  "compiler": {
    "name": "solc",
    "version": "0.8.19+commit.7dd6d404.Emscripten.clang"
  },
  "schemaVersion": "3.4.13",
  "updatedAt": "2023-05-23T14:01:47.819Z",
  "networkType": "ethereum",
  "devdoc": {
    "kind": "dev",
    "methods": {},
    "version": 1
  },
  "userdoc": {
    "kind": "user",
    "methods": {
      "getLastMoves(bytes32)": {
        "notice": "get the last move of the game then compute the merkle tree as a proof "
      },
      "setReward(bytes32,int256)": {
        "notice": "The two part agree offline and the first who call this method also set the reward.    "
      }
    },
    "version": 1
  }
}