{
  "contractName": "Game",
  "abi": [
    {
      "anonymous": false,
      "inputs": [
        {
          "indexed": false,
          "internalType": "address",
          "name": "player",
          "type": "address"
        }
      ],
      "name": "SendMovesAdvice",
      "type": "event"
    },
    {
      "anonymous": false,
      "inputs": [
        {
          "indexed": false,
          "internalType": "address",
          "name": "player",
          "type": "address"
        },
        {
          "indexed": false,
          "internalType": "bytes32",
          "name": "gameId",
          "type": "bytes32"
        }
      ],
      "name": "SendNewGameCreate",
      "type": "event"
    },
    {
      "anonymous": false,
      "inputs": [
        {
          "indexed": false,
          "internalType": "address",
          "name": "player",
          "type": "address"
        },
        {
          "indexed": false,
          "internalType": "int256",
          "name": "amount",
          "type": "int256"
        }
      ],
      "name": "SendRequestAmount",
      "type": "event"
    },
    {
      "anonymous": false,
      "inputs": [
        {
          "indexed": false,
          "internalType": "address",
          "name": "player",
          "type": "address"
        }
      ],
      "name": "SendRequestBoard",
      "type": "event"
    },
    {
      "anonymous": false,
      "inputs": [
        {
          "indexed": false,
          "internalType": "address",
          "name": "player",
          "type": "address"
        }
      ],
      "name": "SendTurnAdvice",
      "type": "event"
    },
    {
      "anonymous": false,
      "inputs": [
        {
          "indexed": false,
          "internalType": "address",
          "name": "player",
          "type": "address"
        }
      ],
      "name": "SendWrongMove",
      "type": "event"
    },
    {
      "stateMutability": "nonpayable",
      "type": "fallback"
    },
    {
      "inputs": [
        {
          "internalType": "uint256",
          "name": "",
          "type": "uint256"
        }
      ],
      "name": "matches",
      "outputs": [
        {
          "internalType": "bytes32",
          "name": "gameId",
          "type": "bytes32"
        },
        {
          "internalType": "uint256",
          "name": "tableSize",
          "type": "uint256"
        },
        {
          "internalType": "address",
          "name": "p1",
          "type": "address"
        },
        {
          "internalType": "address",
          "name": "p2",
          "type": "address"
        },
        {
          "internalType": "int256",
          "name": "registration",
          "type": "int256"
        },
        {
          "internalType": "int256",
          "name": "reward",
          "type": "int256"
        },
        {
          "internalType": "bool",
          "name": "turn",
          "type": "bool"
        },
        {
          "internalType": "bytes32",
          "name": "b1",
          "type": "bytes32"
        },
        {
          "internalType": "bytes32",
          "name": "b2",
          "type": "bytes32"
        },
        {
          "internalType": "string",
          "name": "lastMove",
          "type": "string"
        }
      ],
      "stateMutability": "view",
      "type": "function",
      "constant": true
    },
    {
      "inputs": [
        {
          "internalType": "bytes32",
          "name": "_gameId",
          "type": "bytes32"
        },
        {
          "internalType": "bool",
          "name": "_isNew",
          "type": "bool"
        },
        {
          "internalType": "uint8[]",
          "name": "_info",
          "type": "uint8[]"
        }
      ],
      "name": "join",
      "outputs": [],
      "stateMutability": "nonpayable",
      "type": "function"
    },
    {
      "inputs": [
        {
          "internalType": "bytes32",
          "name": "_gameId",
          "type": "bytes32"
        },
        {
          "internalType": "int256",
          "name": "_registration",
          "type": "int256"
        }
      ],
      "name": "setReward",
      "outputs": [],
      "stateMutability": "nonpayable",
      "type": "function"
    },
    {
      "inputs": [
        {
          "internalType": "bytes32",
          "name": "_gameId",
          "type": "bytes32"
        }
      ],
      "name": "getInformations",
      "outputs": [
        {
          "components": [
            {
              "internalType": "bytes32",
              "name": "gameId",
              "type": "bytes32"
            },
            {
              "internalType": "uint256",
              "name": "tableSize",
              "type": "uint256"
            },
            {
              "internalType": "uint8[]",
              "name": "ships",
              "type": "uint8[]"
            },
            {
              "internalType": "address",
              "name": "p1",
              "type": "address"
            },
            {
              "internalType": "address",
              "name": "p2",
              "type": "address"
            },
            {
              "internalType": "int256",
              "name": "registration",
              "type": "int256"
            },
            {
              "internalType": "int256",
              "name": "reward",
              "type": "int256"
            },
            {
              "internalType": "bool",
              "name": "turn",
              "type": "bool"
            },
            {
              "internalType": "bytes32",
              "name": "b1",
              "type": "bytes32"
            },
            {
              "internalType": "bytes32",
              "name": "b2",
              "type": "bytes32"
            },
            {
              "internalType": "string",
              "name": "lastMove",
              "type": "string"
            },
            {
              "internalType": "string[]",
              "name": "moves",
              "type": "string[]"
            }
          ],
          "internalType": "struct Game.GameMatch",
          "name": "",
          "type": "tuple"
        }
      ],
      "stateMutability": "nonpayable",
      "type": "function"
    },
    {
      "inputs": [
        {
          "internalType": "bytes32",
          "name": "_gameId",
          "type": "bytes32"
        }
      ],
      "name": "getReward",
      "outputs": [
        {
          "internalType": "int256",
          "name": "",
          "type": "int256"
        }
      ],
      "stateMutability": "view",
      "type": "function",
      "constant": true
    },
    {
      "inputs": [
        {
          "internalType": "bytes32",
          "name": "_gameId",
          "type": "bytes32"
        }
      ],
      "name": "pay",
      "outputs": [],
      "stateMutability": "payable",
      "type": "function",
      "payable": true
    },
    {
      "inputs": [
        {
          "internalType": "bytes32",
          "name": "_gameId",
          "type": "bytes32"
        },
        {
          "internalType": "bytes32",
          "name": "_hashedBoard",
          "type": "bytes32"
        }
      ],
      "name": "setBoard",
      "outputs": [],
      "stateMutability": "nonpayable",
      "type": "function"
    },
    {
      "inputs": [
        {
          "internalType": "bytes32",
          "name": "_gameId",
          "type": "bytes32"
        },
        {
          "internalType": "string",
          "name": "_coordinate",
          "type": "string"
        }
      ],
      "name": "shoot",
      "outputs": [],
      "stateMutability": "nonpayable",
      "type": "function"
    },
    {
      "inputs": [
        {
          "internalType": "bytes32",
          "name": "_gameId",
          "type": "bytes32"
        }
      ],
      "name": "getLastMoves",
      "outputs": [
        {
          "internalType": "string",
          "name": "",
          "type": "string"
        }
      ],
      "stateMutability": "view",
      "type": "function",
      "constant": true
    },
    {
      "inputs": [
        {
          "internalType": "bytes32",
          "name": "_gameId",
          "type": "bytes32"
        },
        {
          "internalType": "bytes32[]",
          "name": "_sibilings",
          "type": "bytes32[]"
        }
      ],
      "name": "checkMerkleProof",
      "outputs": [
        {
          "internalType": "bool",
          "name": "",
          "type": "bool"
        }
      ],
      "stateMutability": "nonpayable",
      "type": "function"
    },
    {
      "inputs": [
        {
          "internalType": "bytes32",
          "name": "_gameId",
          "type": "bytes32"
        },
        {
          "internalType": "string[][]",
          "name": "_board",
          "type": "string[][]"
        }
      ],
      "name": "checkBoard",
      "outputs": [
        {
          "internalType": "bool",
          "name": "",
          "type": "bool"
        }
      ],
      "stateMutability": "payable",
      "type": "function",
      "payable": true
    },
    {
      "inputs": [],
      "name": "notifyDelay",
      "outputs": [],
      "stateMutability": "nonpayable",
      "type": "function"
    }
  ],
  "bytecode": "0x608060405234801561001057600080fd5b5061391b806100206000396000f3fe6080604052600436106100ab5760003560e01c8063b4df513811610064578063b4df5138146101f7578063c7bad2b714610220578063cf9e4fb914610249578063e0e797ee14610279578063e4cc82a0146102a2578063fbf5fea8146102df576100ac565b806301fb893a146100c75780634768d4ef1461010457806363fed9a41461014a5780637eebaf06146101875780638609cad11461019e5780639507c260146101ba576100ac565b5b3480156100b857600080fd5b506100c56000801b610308565b005b3480156100d357600080fd5b506100ee60048036038101906100e99190612423565b6103a9565b6040516100fb919061281c565b60405180910390f35b34801561011057600080fd5b5061012b6004803603810190610126919061286a565b6103b6565b6040516101419a9998979695949392919061292c565b60405180910390f35b34801561015657600080fd5b50610171600480360381019061016c9190612423565b6104ef565b60405161017e91906129cf565b60405180910390f35b34801561019357600080fd5b5061019c610581565b005b6101b860048036038101906101b39190612423565b610308565b005b3480156101c657600080fd5b506101e160048036038101906101dc9190612a4f565b610583565b6040516101ee9190612aaf565b60405180910390f35b34801561020357600080fd5b5061021e60048036038101906102199190612c60565b610c65565b005b34801561022c57600080fd5b5061024760048036038101906102429190612d25565b61139c565b005b610263600480360381019061025e9190612ffc565b6115af565b6040516102709190612aaf565b60405180910390f35b34801561028557600080fd5b506102a0600480360381019061029b9190613084565b6117d0565b005b3480156102ae57600080fd5b506102c960048036038101906102c49190612423565b611a85565b6040516102d691906130c4565b60405180910390f35b3480156102eb57600080fd5b50610306600480360381019061030191906130e6565b611b9c565b005b60005b6000805490508160ff1610156103a5578160008260ff168154811061033357610332613126565b5b90600052602060002090600c020160000154036103925760008160ff168154811061036157610360613126565b5b90600052602060002090600c020160050154670de0b6b3a76400003461038791906131b3565b1461039157600080fd5b5b808061039d906131e4565b91505061030b565b5050565b6103b16121c0565b919050565b600081815481106103c657600080fd5b90600052602060002090600c02016000915090508060000154908060010154908060030160009054906101000a900473ffffffffffffffffffffffffffffffffffffffff16908060040160009054906101000a900473ffffffffffffffffffffffffffffffffffffffff16908060050154908060060154908060070160009054906101000a900460ff169080600801549080600901549080600a01805461046c9061323c565b80601f01602080910402602001604051908101604052809291908181526020018280546104989061323c565b80156104e55780601f106104ba576101008083540402835291602001916104e5565b820191906000526020600020905b8154815290600101906020018083116104c857829003601f168201915b505050505090508a565b600080600090505b6000805490508160ff16101561057a578260008260ff168154811061051f5761051e613126565b5b90600052602060002090600c020160000154036105675760008160ff168154811061054d5761054c613126565b5b90600052602060002090600c02016005015491505061057c565b8080610572906131e4565b9150506104f7565b505b919050565b565b600080600090505b6000805490508160ff161015610c5c578460008260ff16815481106105b3576105b2613126565b5b90600052602060002090600c02016000015403610c495760003373ffffffffffffffffffffffffffffffffffffffff1660008360ff16815481106105fa576105f9613126565b5b90600052602060002090600c020160030160009054906101000a900473ffffffffffffffffffffffffffffffffffffffff1673ffffffffffffffffffffffffffffffffffffffff16036106775760008260ff168154811061065e5761065d613126565b5b90600052602060002090600c02016008015490506106a3565b60008260ff168154811061068e5761068d613126565b5b90600052602060002090600c02016009015490505b600080600090505b86869050811015610751576000604067ffffffffffffffff8111156106d3576106d2612af6565b5b6040519080825280601f01601f1916602001820160405280156107055781602001600182028036833780820191505090505b509050600088888760ff168181106107205761071f613126565b5b90506020020135905083602083015280604083015260406000209350505080806107499061326d565b9150506106ab565b50818103610c065760008360ff16815481106107705761076f613126565b5b90600052602060002090600c0201600b01600181600181540180825580915050039060005260206000205050610ac160008460ff16815481106107b6576107b5613126565b5b90600052602060002090600c02016040518061018001604052908160008201548152602001600182015481526020016002820180548060200260200160405190810160405280929190818152602001828054801561085957602002820191906000526020600020906000905b82829054906101000a900460ff1660ff16815260200190600101906020826000010492830192600103820291508084116108225790505b505050505081526020016003820160009054906101000a900473ffffffffffffffffffffffffffffffffffffffff1673ffffffffffffffffffffffffffffffffffffffff1673ffffffffffffffffffffffffffffffffffffffff1681526020016004820160009054906101000a900473ffffffffffffffffffffffffffffffffffffffff1673ffffffffffffffffffffffffffffffffffffffff1673ffffffffffffffffffffffffffffffffffffffff16815260200160058201548152602001600682015481526020016007820160009054906101000a900460ff161515151581526020016008820154815260200160098201548152602001600a820180546109619061323c565b80601f016020809104026020016040519081016040528092919081815260200182805461098d9061323c565b80156109da5780601f106109af576101008083540402835291602001916109da565b820191906000526020600020905b8154815290600101906020018083116109bd57829003601f168201915b50505050508152602001600b8201805480602002602001604051908101604052809291908181526020016000905b82821015610ab4578382906000526020600020018054610a279061323c565b80601f0160208091040260200160405190810160405280929190818152602001828054610a539061323c565b8015610aa05780601f10610a7557610100808354040283529160200191610aa0565b820191906000526020600020905b815481529060010190602001808311610a8357829003601f168201915b505050505081526020019060010190610a08565b5050505081525050611d92565b15610b02577fc7e0345890e3d3863c7f66518e8fe24252b162afe06faf9b20c50ac5d774fdfa33604051610af591906132b5565b60405180910390a1610bfa565b7fbac0d2f1d5b86b0ca75625d37a148747faa00f4de41c5c586f79880e455c2dc533604051610b3191906132b5565b60405180910390a160008360ff1681548110610b5057610b4f613126565b5b90600052602060002090600c020160070160009054906101000a900460ff16610bb857600160008460ff1681548110610b8c57610b8b613126565b5b90600052602060002090600c020160070160006101000a81548160ff0219169083151502179055610bf8565b6000808460ff1681548110610bd057610bcf613126565b5b90600052602060002090600c020160070160006101000a81548160ff02191690831515021790555b505b60019350505050610c5e565b7f9709744f7c7359edb2e10790a4a8501b0bb5fcec380968177c7a3e91249d52d833604051610c3591906132b5565b60405180910390a160009350505050610c5e565b8080610c54906131e4565b91505061058b565b505b9392505050565b6000801b8314610e505760005b6000805490508160ff161015610e4e578360008260ff1681548110610c9a57610c99613126565b5b90600052602060002090600c02016000015403610e3b57600073ffffffffffffffffffffffffffffffffffffffff1660008260ff1681548110610ce057610cdf613126565b5b90600052602060002090600c020160040160009054906101000a900473ffffffffffffffffffffffffffffffffffffffff1673ffffffffffffffffffffffffffffffffffffffff1603610dfb573360008260ff1681548110610d4557610d44613126565b5b90600052602060002090600c020160040160006101000a81548173ffffffffffffffffffffffffffffffffffffffff021916908373ffffffffffffffffffffffffffffffffffffffff1602179055507f24e3120dee1a7172611f0ca41434f8041a1ed6c9f69a04417e48a62dc92979fc3360008360ff1681548110610dcd57610dcc613126565b5b90600052602060002090600c020160000154604051610ded9291906132d0565b60405180910390a150611397565b7f24e3120dee1a7172611f0ca41434f8041a1ed6c9f69a04417e48a62dc92979fc336000604051610e2d929190613341565b60405180910390a150611397565b8080610e46906131e4565b915050610c72565b505b81156111eb5760008080549050604051602001610e6d919061336a565b6040516020818303038152906040528051906020012090506000600167ffffffffffffffff811115610ea257610ea1612af6565b5b604051908082528060200260200182016040528015610ed05781602001602082028036833780820191505090505b50905060008067ffffffffffffffff811115610eef57610eee612af6565b5b604051908082528060200260200182016040528015610f2257816020015b6060815260200190600190039081610f0d5790505b50905083600081518110610f3957610f38613126565b5b602002602001015182600081518110610f5557610f54613126565b5b602002602001019060ff16908160ff1681525050600060405180610180016040528085815260200186600181518110610f9157610f90613126565b5b602002602001015160ff1681526020018481526020013373ffffffffffffffffffffffffffffffffffffffff168152602001600073ffffffffffffffffffffffffffffffffffffffff1681526020017fffffffffffffffffffffffffffffffffffffffffffffffffffffffffffffffff8152602001600081526020016001151581526020016000801b81526020016000801b81526020016040518060200160405280600081525081526020018381525090806001815401808255809150506001900390600052602060002090600c02016000909190919091506000820151816000015560208201518160010155604082015181600201908051906020019061109a929190612258565b5060608201518160030160006101000a81548173ffffffffffffffffffffffffffffffffffffffff021916908373ffffffffffffffffffffffffffffffffffffffff16021790555060808201518160040160006101000a81548173ffffffffffffffffffffffffffffffffffffffff021916908373ffffffffffffffffffffffffffffffffffffffff16021790555060a0820151816005015560c0820151816006015560e08201518160070160006101000a81548160ff0219169083151502179055506101008201518160080155610120820151816009015561014082015181600a0190816111899190613531565b5061016082015181600b0190805190602001906111a79291906122ff565b5050507f24e3120dee1a7172611f0ca41434f8041a1ed6c9f69a04417e48a62dc92979fc33846040516111db9291906132d0565b60405180910390a1505050611397565b60005b6000805490508160ff16101561135b57600073ffffffffffffffffffffffffffffffffffffffff1660008260ff168154811061122d5761122c613126565b5b90600052602060002090600c020160040160009054906101000a900473ffffffffffffffffffffffffffffffffffffffff1673ffffffffffffffffffffffffffffffffffffffff1614611348573360008260ff168154811061129257611291613126565b5b90600052602060002090600c020160040160006101000a81548173ffffffffffffffffffffffffffffffffffffffff021916908373ffffffffffffffffffffffffffffffffffffffff1602179055507f24e3120dee1a7172611f0ca41434f8041a1ed6c9f69a04417e48a62dc92979fc3360008360ff168154811061131a57611319613126565b5b90600052602060002090600c02016000015460405161133a9291906132d0565b60405180910390a150611397565b8080611353906131e4565b9150506111ee565b507f24e3120dee1a7172611f0ca41434f8041a1ed6c9f69a04417e48a62dc92979fc33600060405161138e929190613341565b60405180910390a15b505050565b60005b6000805490508160ff1610156115a9578360008260ff16815481106113c7576113c6613126565b5b90600052602060002090600c0201600001540361159657828260008360ff16815481106113f7576113f6613126565b5b90600052602060002090600c0201600a01918261141592919061360e565b503373ffffffffffffffffffffffffffffffffffffffff1660008260ff168154811061144457611443613126565b5b90600052602060002090600c020160030160009054906101000a900473ffffffffffffffffffffffffffffffffffffffff1673ffffffffffffffffffffffffffffffffffffffff1603611515577fa42dd9e1d9175b98ede6b33b1bc3f78cd3f694b7213da993c11516d22751a66d60008260ff16815481106114c9576114c8613126565b5b90600052602060002090600c020160030160009054906101000a900473ffffffffffffffffffffffffffffffffffffffff1660405161150891906132b5565b60405180910390a1611595565b7fa42dd9e1d9175b98ede6b33b1bc3f78cd3f694b7213da993c11516d22751a66d60008260ff168154811061154d5761154c613126565b5b90600052602060002090600c020160040160009054906101000a900473ffffffffffffffffffffffffffffffffffffffff1660405161158c91906132b5565b60405180910390a15b5b80806115a1906131e4565b91505061139f565b50505050565b600080600160f81b905060005b6000805490508160ff1610156117c8578460008260ff16815481106115e4576115e3613126565b5b90600052602060002090600c020160000154036117b5576000805b60008360ff168154811061161657611615613126565b5b90600052602060002090600c0201600101548110156117355760005b60008460ff168154811061164957611648613126565b5b90600052602060002090600c02016001015481101561172157847effffffffffffffffffffffffffffffffffffffffffffffffffffffffffffff191687838151811061169857611697613126565b5b602002602001015182815181106116b2576116b1613126565b5b60200260200101516000815181106116cd576116cc613126565b5b602001015160f81c60f81b7effffffffffffffffffffffffffffffffffffffffffffffffffffffffffffff19160361170e57828061170a906131e4565b9350505b80806117199061326d565b915050611632565b50808061172d9061326d565b9150506115ff565b5060008260ff168154811061174d5761174c613126565b5b90600052602060002090600c0201600201805490508160ff16036117b3573373ffffffffffffffffffffffffffffffffffffffff166108fc479081150290604051600060405180830381858888f193505050501580156117b1573d6000803e3d6000fd5b505b505b80806117c0906131e4565b9150506115bc565b505092915050565b60005b6000805490508160ff161015611a7f578260008260ff16815481106117fb576117fa613126565b5b90600052602060002090600c02016000015403611a6c576000808260ff168154811061182a57611829613126565b5b90600052602060002090600c02016005015412156119f8578160008260ff168154811061185a57611859613126565b5b90600052602060002090600c0201600501819055503373ffffffffffffffffffffffffffffffffffffffff1660008260ff168154811061189d5761189c613126565b5b90600052602060002090600c020160030160009054906101000a900473ffffffffffffffffffffffffffffffffffffffff1673ffffffffffffffffffffffffffffffffffffffff1603611970577f8baeb50b886fb168a371117c6cb88337a25606fe162d778425bd068ef9d25da560008260ff168154811061192257611921613126565b5b90600052602060002090600c020160040160009054906101000a900473ffffffffffffffffffffffffffffffffffffffff16836040516119639291906136de565b60405180910390a16119f2565b7f8baeb50b886fb168a371117c6cb88337a25606fe162d778425bd068ef9d25da560008260ff16815481106119a8576119a7613126565b5b90600052602060002090600c020160040160009054906101000a900473ffffffffffffffffffffffffffffffffffffffff16836040516119e99291906136de565b60405180910390a15b50611a81565b8160008260ff1681548110611a1057611a0f613126565b5b90600052602060002090600c02016005015403611a6657600282611a349190613707565b60008260ff1681548110611a4b57611a4a613126565b5b90600052602060002090600c02016006018190555050611a81565b50611a81565b8080611a77906131e4565b9150506117d3565b505b5050565b606060005b6000805490508160ff161015611b95578260008260ff1681548110611ab257611ab1613126565b5b90600052602060002090600c02016000015403611b825760008160ff1681548110611ae057611adf613126565b5b90600052602060002090600c0201600a018054611afc9061323c565b80601f0160208091040260200160405190810160405280929190818152602001828054611b289061323c565b8015611b755780601f10611b4a57610100808354040283529160200191611b75565b820191906000526020600020905b815481529060010190602001808311611b5857829003601f168201915b5050505050915050611b97565b8080611b8d906131e4565b915050611a8a565b505b919050565b60005b6000805490508160ff161015611d8d578260008260ff1681548110611bc757611bc6613126565b5b90600052602060002090600c02016000015403611d7a573373ffffffffffffffffffffffffffffffffffffffff1660008260ff1681548110611c0c57611c0b613126565b5b90600052602060002090600c020160030160009054906101000a900473ffffffffffffffffffffffffffffffffffffffff1673ffffffffffffffffffffffffffffffffffffffff1603611c8b578160008260ff1681548110611c7157611c70613126565b5b90600052602060002090600c020160080181905550611cb9565b8160008260ff1681548110611ca357611ca2613126565b5b90600052602060002090600c0201600901819055505b600160008260ff1681548110611cd257611cd1613126565b5b90600052602060002090600c020160070160006101000a81548160ff0219169083151502179055507fbac0d2f1d5b86b0ca75625d37a148747faa00f4de41c5c586f79880e455c2dc560008260ff1681548110611d3257611d31613126565b5b90600052602060002090600c020160030160009054906101000a900473ffffffffffffffffffffffffffffffffffffffff16604051611d7191906132b5565b60405180910390a15b8080611d85906131e4565b915050611b9f565b505050565b6000806000905060005b836040015151811015611deb5783604001518181518110611dc057611dbf613126565b5b602002602001015160ff1682611dd6919061377f565b91508080611de39061326d565b915050611d9c565b5060008360e0015115611eb65760005b84610160015151811015611eb0576000611e698661016001518381518110611e2657611e25613126565b5b60200260200101516040518060400160405280600181526020017f2e00000000000000000000000000000000000000000000000000000000000000815250611f92565b9050611e8f81600281518110611e8257611e81613126565b5b6020026020010151612128565b83611e9a919061377f565b925050600281611eaa919061377f565b50611dfb565b50611f74565b6000600190505b84610160015151811015611f72576000611f2b8661016001518381518110611ee857611ee7613126565b5b60200260200101516040518060400160405280600181526020017f2e00000000000000000000000000000000000000000000000000000000000000815250611f92565b9050611f5181600281518110611f4457611f43613126565b5b6020026020010151612128565b83611f5c919061377f565b925050600281611f6c919061377f565b50611ebd565b505b818103611f8657600192505050611f8d565b6000925050505b919050565b606060006040518060200160405280600081525090506000808590506000865167ffffffffffffffff811115611fcb57611fca612af6565b5b604051908082528060200260200182016040528015611ffe57816020015b6060815260200190600190039081611fe95790505b50905060005b825181101561211a578660008151811061202157612020613126565b5b602001015160f81c60f81b7effffffffffffffffffffffffffffffffffffffffffffffffffffffffffffff191683828151811061206157612060613126565b5b602001015160f81c60f81b7effffffffffffffffffffffffffffffffffffffffffffffffffffffffffffff1916036120c557848285815181106120a7576120a6613126565b5b602002602001018190525083806120bd9061326d565b945050612107565b848882815181106120d9576120d8613126565b5b602001015160f81c60f81b6040516020016120f5929190613847565b60405160208183030381529060405294505b80806121129061326d565b915050612004565b508094505050505092915050565b6000808290506000805b82518110156121b55760008382815181106121505761214f613126565b5b602001015160f81c60f81b60f81c60ff16905060308110158015612175575060398111155b156121a157603081612187919061386f565b600a8461219491906138a3565b61219e919061377f565b92505b5080806121ad9061326d565b915050612132565b508092505050919050565b604051806101800160405280600080191681526020016000815260200160608152602001600073ffffffffffffffffffffffffffffffffffffffff168152602001600073ffffffffffffffffffffffffffffffffffffffff1681526020016000815260200160008152602001600015158152602001600080191681526020016000801916815260200160608152602001606081525090565b82805482825590600052602060002090601f016020900481019282156122ee5791602002820160005b838211156122bf57835183826101000a81548160ff021916908360ff1602179055509260200192600101602081600001049283019260010302612281565b80156122ec5782816101000a81549060ff02191690556001016020816000010492830192600103026122bf565b505b5090506122fb9190612358565b5090565b828054828255906000526020600020908101928215612347579160200282015b828111156123465782518290816123369190613531565b509160200191906001019061231f565b5b5090506123549190612375565b5090565b5b80821115612371576000816000905550600101612359565b5090565b5b80821115612395576000818161238c9190612399565b50600101612376565b5090565b5080546123a59061323c565b6000825580601f106123b757506123d6565b601f0160209004906000526020600020908101906123d59190612358565b5b50565b6000604051905090565b600080fd5b600080fd5b6000819050919050565b612400816123ed565b811461240b57600080fd5b50565b60008135905061241d816123f7565b92915050565b600060208284031215612439576124386123e3565b5b60006124478482850161240e565b91505092915050565b612459816123ed565b82525050565b6000819050919050565b6124728161245f565b82525050565b600081519050919050565b600082825260208201905092915050565b6000819050602082019050919050565b600060ff82169050919050565b6124ba816124a4565b82525050565b60006124cc83836124b1565b60208301905092915050565b6000602082019050919050565b60006124f082612478565b6124fa8185612483565b935061250583612494565b8060005b8381101561253657815161251d88826124c0565b9750612528836124d8565b925050600181019050612509565b5085935050505092915050565b600073ffffffffffffffffffffffffffffffffffffffff82169050919050565b600061256e82612543565b9050919050565b61257e81612563565b82525050565b6000819050919050565b61259781612584565b82525050565b60008115159050919050565b6125b28161259d565b82525050565b600081519050919050565b600082825260208201905092915050565b60005b838110156125f25780820151818401526020810190506125d7565b60008484015250505050565b6000601f19601f8301169050919050565b600061261a826125b8565b61262481856125c3565b93506126348185602086016125d4565b61263d816125fe565b840191505092915050565b600081519050919050565b600082825260208201905092915050565b6000819050602082019050919050565b6000612680838361260f565b905092915050565b6000602082019050919050565b60006126a082612648565b6126aa8185612653565b9350836020820285016126bc85612664565b8060005b858110156126f857848403895281516126d98582612674565b94506126e483612688565b925060208a019950506001810190506126c0565b50829750879550505050505092915050565b6000610180830160008301516127236000860182612450565b5060208301516127366020860182612469565b506040830151848203604086015261274e82826124e5565b91505060608301516127636060860182612575565b5060808301516127766080860182612575565b5060a083015161278960a086018261258e565b5060c083015161279c60c086018261258e565b5060e08301516127af60e08601826125a9565b506101008301516127c4610100860182612450565b506101208301516127d9610120860182612450565b506101408301518482036101408601526127f3828261260f565b91505061016083015184820361016086015261280f8282612695565b9150508091505092915050565b60006020820190508181036000830152612836818461270a565b905092915050565b6128478161245f565b811461285257600080fd5b50565b6000813590506128648161283e565b92915050565b6000602082840312156128805761287f6123e3565b5b600061288e84828501612855565b91505092915050565b6128a0816123ed565b82525050565b6128af8161245f565b82525050565b6128be81612563565b82525050565b6128cd81612584565b82525050565b6128dc8161259d565b82525050565b600082825260208201905092915050565b60006128fe826125b8565b61290881856128e2565b93506129188185602086016125d4565b612921816125fe565b840191505092915050565b600061014082019050612942600083018d612897565b61294f602083018c6128a6565b61295c604083018b6128b5565b612969606083018a6128b5565b61297660808301896128c4565b61298360a08301886128c4565b61299060c08301876128d3565b61299d60e0830186612897565b6129ab610100830185612897565b8181036101208301526129be81846128f3565b90509b9a5050505050505050505050565b60006020820190506129e460008301846128c4565b92915050565b600080fd5b600080fd5b600080fd5b60008083601f840112612a0f57612a0e6129ea565b5b8235905067ffffffffffffffff811115612a2c57612a2b6129ef565b5b602083019150836020820283011115612a4857612a476129f4565b5b9250929050565b600080600060408486031215612a6857612a676123e3565b5b6000612a768682870161240e565b935050602084013567ffffffffffffffff811115612a9757612a966123e8565b5b612aa3868287016129f9565b92509250509250925092565b6000602082019050612ac460008301846128d3565b92915050565b612ad38161259d565b8114612ade57600080fd5b50565b600081359050612af081612aca565b92915050565b7f4e487b7100000000000000000000000000000000000000000000000000000000600052604160045260246000fd5b612b2e826125fe565b810181811067ffffffffffffffff82111715612b4d57612b4c612af6565b5b80604052505050565b6000612b606123d9565b9050612b6c8282612b25565b919050565b600067ffffffffffffffff821115612b8c57612b8b612af6565b5b602082029050602081019050919050565b612ba6816124a4565b8114612bb157600080fd5b50565b600081359050612bc381612b9d565b92915050565b6000612bdc612bd784612b71565b612b56565b90508083825260208201905060208402830185811115612bff57612bfe6129f4565b5b835b81811015612c285780612c148882612bb4565b845260208401935050602081019050612c01565b5050509392505050565b600082601f830112612c4757612c466129ea565b5b8135612c57848260208601612bc9565b91505092915050565b600080600060608486031215612c7957612c786123e3565b5b6000612c878682870161240e565b9350506020612c9886828701612ae1565b925050604084013567ffffffffffffffff811115612cb957612cb86123e8565b5b612cc586828701612c32565b9150509250925092565b60008083601f840112612ce557612ce46129ea565b5b8235905067ffffffffffffffff811115612d0257612d016129ef565b5b602083019150836001820283011115612d1e57612d1d6129f4565b5b9250929050565b600080600060408486031215612d3e57612d3d6123e3565b5b6000612d4c8682870161240e565b935050602084013567ffffffffffffffff811115612d6d57612d6c6123e8565b5b612d7986828701612ccf565b92509250509250925092565b600067ffffffffffffffff821115612da057612d9f612af6565b5b602082029050602081019050919050565b600067ffffffffffffffff821115612dcc57612dcb612af6565b5b602082029050602081019050919050565b600080fd5b600067ffffffffffffffff821115612dfd57612dfc612af6565b5b612e06826125fe565b9050602081019050919050565b82818337600083830152505050565b6000612e35612e3084612de2565b612b56565b905082815260208101848484011115612e5157612e50612ddd565b5b612e5c848285612e13565b509392505050565b600082601f830112612e7957612e786129ea565b5b8135612e89848260208601612e22565b91505092915050565b6000612ea5612ea084612db1565b612b56565b90508083825260208201905060208402830185811115612ec857612ec76129f4565b5b835b81811015612f0f57803567ffffffffffffffff811115612eed57612eec6129ea565b5b808601612efa8982612e64565b85526020850194505050602081019050612eca565b5050509392505050565b600082601f830112612f2e57612f2d6129ea565b5b8135612f3e848260208601612e92565b91505092915050565b6000612f5a612f5584612d85565b612b56565b90508083825260208201905060208402830185811115612f7d57612f7c6129f4565b5b835b81811015612fc457803567ffffffffffffffff811115612fa257612fa16129ea565b5b808601612faf8982612f19565b85526020850194505050602081019050612f7f565b5050509392505050565b600082601f830112612fe357612fe26129ea565b5b8135612ff3848260208601612f47565b91505092915050565b60008060408385031215613013576130126123e3565b5b60006130218582860161240e565b925050602083013567ffffffffffffffff811115613042576130416123e8565b5b61304e85828601612fce565b9150509250929050565b61306181612584565b811461306c57600080fd5b50565b60008135905061307e81613058565b92915050565b6000806040838503121561309b5761309a6123e3565b5b60006130a98582860161240e565b92505060206130ba8582860161306f565b9150509250929050565b600060208201905081810360008301526130de81846128f3565b905092915050565b600080604083850312156130fd576130fc6123e3565b5b600061310b8582860161240e565b925050602061311c8582860161240e565b9150509250929050565b7f4e487b7100000000000000000000000000000000000000000000000000000000600052603260045260246000fd5b7f4e487b7100000000000000000000000000000000000000000000000000000000600052601260045260246000fd5b7f4e487b7100000000000000000000000000000000000000000000000000000000600052601160045260246000fd5b60006131be8261245f565b91506131c98361245f565b9250826131d9576131d8613155565b5b828204905092915050565b60006131ef826124a4565b915060ff820361320257613201613184565b5b600182019050919050565b7f4e487b7100000000000000000000000000000000000000000000000000000000600052602260045260246000fd5b6000600282049050600182168061325457607f821691505b6020821081036132675761326661320d565b5b50919050565b60006132788261245f565b91507fffffffffffffffffffffffffffffffffffffffffffffffffffffffffffffffff82036132aa576132a9613184565b5b600182019050919050565b60006020820190506132ca60008301846128b5565b92915050565b60006040820190506132e560008301856128b5565b6132f26020830184612897565b9392505050565b6000819050919050565b60008160001b9050919050565b600061332b613326613321846132f9565b613303565b6123ed565b9050919050565b61333b81613310565b82525050565b600060408201905061335660008301856128b5565b6133636020830184613332565b9392505050565b600060208201905061337f60008301846128a6565b92915050565b60008190508160005260206000209050919050565b60006020601f8301049050919050565b600082821b905092915050565b6000600883026133e77fffffffffffffffffffffffffffffffffffffffffffffffffffffffffffffffff826133aa565b6133f186836133aa565b95508019841693508086168417925050509392505050565b6000819050919050565b600061342e6134296134248461245f565b613409565b61245f565b9050919050565b6000819050919050565b61344883613413565b61345c61345482613435565b8484546133b7565b825550505050565b600090565b613471613464565b61347c81848461343f565b505050565b5b818110156134a057613495600082613469565b600181019050613482565b5050565b601f8211156134e5576134b681613385565b6134bf8461339a565b810160208510156134ce578190505b6134e26134da8561339a565b830182613481565b50505b505050565b600082821c905092915050565b6000613508600019846008026134ea565b1980831691505092915050565b600061352183836134f7565b9150826002028217905092915050565b61353a826125b8565b67ffffffffffffffff81111561355357613552612af6565b5b61355d825461323c565b6135688282856134a4565b600060209050601f83116001811461359b5760008415613589578287015190505b6135938582613515565b8655506135fb565b601f1984166135a986613385565b60005b828110156135d1578489015182556001820191506020850194506020810190506135ac565b868310156135ee57848901516135ea601f8916826134f7565b8355505b6001600288020188555050505b505050505050565b600082905092915050565b6136188383613603565b67ffffffffffffffff81111561363157613630612af6565b5b61363b825461323c565b6136468282856134a4565b6000601f8311600181146136755760008415613663578287013590505b61366d8582613515565b8655506136d5565b601f19841661368386613385565b60005b828110156136ab57848901358255600182019150602085019450602081019050613686565b868310156136c857848901356136c4601f8916826134f7565b8355505b6001600288020188555050505b50505050505050565b60006040820190506136f360008301856128b5565b61370060208301846128c4565b9392505050565b600061371282612584565b915061371d83612584565b925082820261372b81612584565b91507f8000000000000000000000000000000000000000000000000000000000000000841460008412161561376357613762613184565b5b828205841483151761377857613777613184565b5b5092915050565b600061378a8261245f565b91506137958361245f565b92508282019050808211156137ad576137ac613184565b5b92915050565b600081519050919050565b600081905092915050565b60006137d4826137b3565b6137de81856137be565b93506137ee8185602086016125d4565b80840191505092915050565b60007fff0000000000000000000000000000000000000000000000000000000000000082169050919050565b6000819050919050565b61384161383c826137fa565b613826565b82525050565b600061385382856137c9565b915061385f8284613830565b6001820191508190509392505050565b600061387a8261245f565b91506138858361245f565b925082820390508181111561389d5761389c613184565b5b92915050565b60006138ae8261245f565b91506138b98361245f565b92508282026138c78161245f565b915082820484148315176138de576138dd613184565b5b509291505056fea2646970667358221220188eb7df6490b909d15f4fe4b073eaa4271638746ce274b71ea0f08184f4440e64736f6c63430008130033",
  "immutableReferences": {},
  "source": "// SPDX-License-Identifier: MIT \npragma solidity >=0.8.2 <0.9.0;\npragma abicoder v2;\n\ncontract Game {\n\n    struct GameMatch{\n        bytes32 gameId;\n        uint tableSize;\n        uint8[] ships;\n        address p1; // also the creator\n        address p2;\n        int registration; // -1: not registered, otherwise the amount \n        int reward;\n        bool turn; // if true --> p1 have to play otherwise p2 \n        bytes32 b1; // hash of the board to proof merkle tree\n        bytes32 b2;\n        string lastMove; // last move played in the game [1.2][2.4][1.1][2.2] --> first x then y\n        string[] moves;     // l'array avr quindi le caselle pari per il p1 e disapari per il p2 e li metterai le mosse fatte in chiaro\n                            // con anche il risultato della mossa tipo 1.1.0 (casella 1 1 mancato) 2.1.1 (casella 2 1 colpito)\n    }\n\n    GameMatch[] public matches;\n    event SendNewGameCreate(address player, bytes32 gameId);\n    event SendRequestAmount(address player, int amount);    //tell to the player to put the money to start play\n    event SendTurnAdvice(address player);   //tell to the player that is his/her turn\n    event SendMovesAdvice(address player);  //tell to the player that have been shoot\n    event SendRequestBoard(address player);   //tell to the player that have won\n    event SendWrongMove(address player);    //tell to the player that is not a valid move\n\n    function join(bytes32 _gameId, bool _isNew, uint8[] memory _info) public{\n        \n        // set player 2 in case of given game id\n        if(_gameId != 0){\n            for(uint8 i=0; i < matches.length; i++){\n                if(matches[i].gameId == _gameId){\n                    if(matches[i].p2 == address(0)){\n                        matches[i].p2 = msg.sender;\n                        emit SendNewGameCreate(msg.sender, matches[i].gameId);\n                        return;\n                    }\n                    else{\n                        emit SendNewGameCreate(msg.sender, 0);\n                        return;\n                    }\n                }\n            }\n        }\n\n        if(_isNew){\n            // otherwise create a new game\n            bytes32 newGameId = keccak256(abi.encode(matches.length));\n            uint8[] memory _ships= new uint8[](1);\n            string[] memory _moves = new string[](0);\n            _ships[0]=_info[0];\n            matches.push(GameMatch(newGameId, _info[1], _ships, msg.sender, address(0), -1, 0, true, 0, 0, \"\",  _moves));\n            emit SendNewGameCreate(msg.sender, newGameId);\n            return;\n        }\n\n        // set player 2 in random game if available\n        for(uint8 i=0; i<matches.length; i++){\n            if(matches[i].p2 != address(0)){\n                matches[i].p2=msg.sender;\n                emit SendNewGameCreate(msg.sender, matches[i].gameId);\n                return;\n            }\n        }\n\n        emit SendNewGameCreate(msg.sender, 0);\n    }\n\n    /**\n        The two part agree offline and the first who call this method\n        also set the reward.    \n     */\n    function setReward(bytes32 _gameId, int _registration) external{\n        for(uint8 i=0; i<matches.length; i++){\n            if(matches[i].gameId == _gameId){\n                if(matches[i].registration < 0){\n                    matches[i].registration=_registration;\n                    if(matches[i].p1==msg.sender)\n                        emit SendRequestAmount(matches[i].p2, _registration);\n                    else\n                        emit SendRequestAmount(matches[i].p2, _registration);\n                    return;\n                }\n                else{\n                    if(matches[i].registration == _registration){\n                        matches[i].reward=_registration*2;\n                        return;\n                    }\n                    else{\n                        return;\n                    }\n                }\n            }\n        }\n    }\n\n    function getInformations(bytes32 _gameId) external returns(GameMatch memory){\n        /// TODO\n    }\n\n    function getReward(bytes32 _gameId) external view returns(int){\n        for(uint8 i=0; i < matches.length; i++){\n            if(matches[i].gameId == _gameId){\n                return matches[i].registration;\n            }\n        }\n    }\n\n    function pay(bytes32 _gameId) public payable{\n        for(uint8 i=0; i < matches.length; i++){\n            if(matches[i].gameId == _gameId){\n                require((msg.value/1000000000000000000) == uint(matches[i].registration));\n            }\n        }\n    }\n\n    function setBoard(bytes32 _gameId, bytes32 _hashedBoard) public{\n        for(uint8 i=0; i < matches.length; i++){\n            if(matches[i].gameId == _gameId){\n                if(matches[i].p1==msg.sender){\n                    matches[i].b1=_hashedBoard;\n                }\n                else{\n                    matches[i].b2=_hashedBoard;\n                }\n                matches[i].turn=true;\n                emit SendTurnAdvice(matches[i].p1);\n            }\n        }\n    }\n\n    function shoot(bytes32 _gameId, string calldata _coordinate) public{\n        // stores the coordination for the other player\n        for(uint8 i=0; i < matches.length; i++){\n            if(matches[i].gameId == _gameId){\n                matches[i].lastMove=_coordinate;\n                if(matches[i].p1==msg.sender){\n                    emit SendMovesAdvice(matches[i].p1);\n                }\n                else{\n                    emit SendMovesAdvice(matches[i].p2);\n                }\n            }\n        }\n    }\n\n    /**\n        get the last move of the game\n        then compute the merkle tree as a proof \n     */\n    function getLastMoves(bytes32 _gameId) public view returns(string memory){\n        for(uint8 i=0; i < matches.length; i++){\n            if(matches[i].gameId == _gameId){\n                return matches[i].lastMove;\n            }\n        }\n    }\n\n    function checkMerkleProof(bytes32 _gameId, bytes32[] calldata _sibilings) public returns(bool){\n        \n        for(uint8 i=0; i < matches.length; i++){\n            if(matches[i].gameId == _gameId){\n                bytes32 _trueBoard;\n                if(matches[i].p1==msg.sender){\n                    _trueBoard=matches[i].b1;\n                }\n                else{\n                    _trueBoard=matches[i].b2;\n                }\n                \n                bytes32 _b; //=keccak256(_firstNode); wait for the reply of teacher\n                for(uint j=0; j < _sibilings.length; j++){\n                    // compute the merkle proof\n                    // there is an issue and it's reported in the PDF\n                    bytes memory _temp = new bytes(64);\n                    bytes32 _b1=_sibilings[i];\n                    assembly {\n                        mstore(add(_temp, 32), _b)\n                        mstore(add(_temp, 64), _b1)\n                        _b := keccak256(0x00, 0x40)\n                    }            \n                }\n\n                // confronta il risultato con _b se ok allora memorizza la mossa valida e return true\n\n                if(_b == _trueBoard){\n\n                    matches[i].moves.push();\n                    // chiama la funzione checkWin e se true emetti evento vittoria\n                    if(checkWin(matches[i])){\n                        emit SendRequestBoard(msg.sender);\n                    }else{\n                        // altrimenti emetti l'evento cambia turno\n                        emit SendTurnAdvice(msg.sender);\n                        matches[i].turn ? matches[i].turn=false : matches[i].turn=true;\n                    }\n                        \n                    return true;\n                }\n                else{   \n                    emit SendWrongMove(msg.sender);             \n                    return false;\n                }\n                \n            }\n        }\n    }\n\n    function checkWin(GameMatch memory g) internal pure returns(bool){\n        uint _shipToSink=0;\n        for(uint i=0; i < g.ships.length; i++){\n            _shipToSink+=g.ships[i];\n        }\n        uint _shipSinked=0;\n        if(g.turn){\n            for (uint i=0; i<g.moves.length; i+2){\n                string[] memory _s = splitString(g.moves[i], \".\");\n                _shipSinked += stringToUint(_s[2]);\n            }\n        }else{\n            for(uint i = 1; i < g.moves.length; i+2){\n                string[] memory _s = splitString(g.moves[i], \".\");\n                _shipSinked += stringToUint(_s[2]);\n            }\n        }\n\n        if(_shipSinked==_shipToSink){\n            return true;\n        }else{\n            return false;\n        }\n    }\n\n    function checkBoard(bytes32 _gameId, string[][] memory _board) public payable returns(bool){\n        bytes1 _one = 0x01;        \n        for(uint8 i=0; i < matches.length; i++){\n            if(matches[i].gameId == _gameId){\n                //controllo sovrapposizioni navi\n                uint8 count=0;\n                for(uint q = 0; q < matches[i].tableSize; q++){\n                    for(uint k = 0; k < matches[i].tableSize; k++){\n                        if(bytes(_board[q][k])[0] == _one) //there is a ship\n                            count++;\n                    }\n                }\n\n                if(count == matches[i].ships.length){ //there aren't ship overlapped\n                    payable(msg.sender).transfer(address(this).balance);\n                }\n            }\n        }\n    }\n\n    function notifyDelay() public{\n        //wait for 5 blocks and if there isn't a reply\n        // pay the other player\n    }\n\n    fallback() external{\n        pay(0);\n    }\n\n\n    /**\n        Some utility functions for internal use only    \n     */\n    function splitString(string memory _s, string memory _separator) internal pure returns(string[] memory){\n        string memory _temp=\"\";\n        uint count=0;\n        bytes memory _sbytes=bytes(_s);\n        string[] memory _res = new string[](bytes(_s).length);\n        for(uint i=0; i < _sbytes.length; i++){\n            if(_sbytes[i]==bytes(_separator)[0]){\n                _res[count] = _temp;\n                count++;\n            }\n            else{\n                _temp=string(bytes.concat(bytes(_temp), bytes(_s)[i]));\n            }\n        }\n        return _res;\n    }\n\n    function stringToUint(string memory _str) internal pure returns (uint) {\n        bytes memory b = bytes(_str);\n        uint result = 0;\n        for (uint i = 0; i < b.length; i++) {\n            uint c = uint(uint8(b[i]));\n            if (c >= 48 && c <= 57) {\n                result = result * 10 + (c - 48);\n            }\n        }\n        return result;\n    }\n}",
  "sourcePath": "/home/davide/Documenti/magistrale/P2PBC/projects/battleship/contracts/Game.sol",
  "compiler": {
    "name": "solc",
    "version": "0.8.19+commit.7dd6d404.Emscripten.clang"
  },
  "schemaVersion": "3.4.13",
  "updatedAt": "2023-05-26T14:49:39.770Z",
  "networkType": "ethereum",
  "devdoc": {
    "kind": "dev",
    "methods": {},
    "version": 1
  },
  "userdoc": {
    "kind": "user",
    "methods": {
      "getLastMoves(bytes32)": {
        "notice": "get the last move of the game then compute the merkle tree as a proof "
      },
      "setReward(bytes32,int256)": {
        "notice": "The two part agree offline and the first who call this method also set the reward.    "
      }
    },
    "version": 1
  }
}