{
  "contractName": "Game",
  "abi": [
    {
      "anonymous": false,
      "inputs": [
        {
          "indexed": false,
          "internalType": "address",
          "name": "player",
          "type": "address"
        }
      ],
      "name": "SendMovesAdvice",
      "type": "event"
    },
    {
      "anonymous": false,
      "inputs": [
        {
          "indexed": false,
          "internalType": "address",
          "name": "player",
          "type": "address"
        },
        {
          "indexed": false,
          "internalType": "bytes32",
          "name": "gameId",
          "type": "bytes32"
        }
      ],
      "name": "SendNewGameCreate",
      "type": "event"
    },
    {
      "anonymous": false,
      "inputs": [
        {
          "indexed": false,
          "internalType": "address",
          "name": "player",
          "type": "address"
        },
        {
          "indexed": false,
          "internalType": "int256",
          "name": "amount",
          "type": "int256"
        }
      ],
      "name": "SendRequestAmount",
      "type": "event"
    },
    {
      "anonymous": false,
      "inputs": [
        {
          "indexed": false,
          "internalType": "address",
          "name": "player",
          "type": "address"
        }
      ],
      "name": "SendRequestBoard",
      "type": "event"
    },
    {
      "anonymous": false,
      "inputs": [
        {
          "indexed": false,
          "internalType": "address",
          "name": "player",
          "type": "address"
        }
      ],
      "name": "SendTurnAdvice",
      "type": "event"
    },
    {
      "anonymous": false,
      "inputs": [
        {
          "indexed": false,
          "internalType": "address",
          "name": "player",
          "type": "address"
        }
      ],
      "name": "SendWrongMove",
      "type": "event"
    },
    {
      "stateMutability": "nonpayable",
      "type": "fallback"
    },
    {
      "inputs": [
        {
          "internalType": "uint256",
          "name": "",
          "type": "uint256"
        }
      ],
      "name": "matches",
      "outputs": [
        {
          "internalType": "bytes32",
          "name": "gameId",
          "type": "bytes32"
        },
        {
          "internalType": "uint256",
          "name": "tableSize",
          "type": "uint256"
        },
        {
          "internalType": "uint256",
          "name": "ships",
          "type": "uint256"
        },
        {
          "internalType": "address",
          "name": "p1",
          "type": "address"
        },
        {
          "internalType": "address",
          "name": "p2",
          "type": "address"
        },
        {
          "internalType": "int256",
          "name": "registration",
          "type": "int256"
        },
        {
          "internalType": "int256",
          "name": "reward",
          "type": "int256"
        },
        {
          "internalType": "bool",
          "name": "turn",
          "type": "bool"
        },
        {
          "internalType": "bytes32",
          "name": "b1",
          "type": "bytes32"
        },
        {
          "internalType": "bytes32",
          "name": "b2",
          "type": "bytes32"
        },
        {
          "internalType": "string",
          "name": "lastMove",
          "type": "string"
        }
      ],
      "stateMutability": "view",
      "type": "function",
      "constant": true
    },
    {
      "inputs": [
        {
          "internalType": "bytes32",
          "name": "_gameId",
          "type": "bytes32"
        },
        {
          "internalType": "bool",
          "name": "_isNew",
          "type": "bool"
        },
        {
          "internalType": "uint8[]",
          "name": "_info",
          "type": "uint8[]"
        }
      ],
      "name": "join",
      "outputs": [],
      "stateMutability": "nonpayable",
      "type": "function"
    },
    {
      "inputs": [
        {
          "internalType": "bytes32",
          "name": "_gameId",
          "type": "bytes32"
        },
        {
          "internalType": "int256",
          "name": "_registration",
          "type": "int256"
        }
      ],
      "name": "setReward",
      "outputs": [],
      "stateMutability": "nonpayable",
      "type": "function"
    },
    {
      "inputs": [
        {
          "internalType": "bytes32",
          "name": "_gameId",
          "type": "bytes32"
        }
      ],
      "name": "getInformations",
      "outputs": [
        {
          "internalType": "bytes32",
          "name": "",
          "type": "bytes32"
        },
        {
          "internalType": "bytes",
          "name": "",
          "type": "bytes"
        },
        {
          "internalType": "bytes",
          "name": "",
          "type": "bytes"
        },
        {
          "internalType": "address",
          "name": "",
          "type": "address"
        },
        {
          "internalType": "address",
          "name": "",
          "type": "address"
        },
        {
          "internalType": "bytes",
          "name": "",
          "type": "bytes"
        },
        {
          "internalType": "bytes",
          "name": "",
          "type": "bytes"
        },
        {
          "internalType": "bool",
          "name": "",
          "type": "bool"
        },
        {
          "internalType": "bytes32",
          "name": "",
          "type": "bytes32"
        },
        {
          "internalType": "bytes32",
          "name": "",
          "type": "bytes32"
        },
        {
          "internalType": "string",
          "name": "",
          "type": "string"
        },
        {
          "internalType": "string[]",
          "name": "",
          "type": "string[]"
        }
      ],
      "stateMutability": "view",
      "type": "function",
      "constant": true
    },
    {
      "inputs": [
        {
          "internalType": "bytes32",
          "name": "_gameId",
          "type": "bytes32"
        }
      ],
      "name": "getReward",
      "outputs": [
        {
          "internalType": "int256",
          "name": "",
          "type": "int256"
        }
      ],
      "stateMutability": "view",
      "type": "function",
      "constant": true
    },
    {
      "inputs": [
        {
          "internalType": "bytes32",
          "name": "_gameId",
          "type": "bytes32"
        }
      ],
      "name": "pay",
      "outputs": [],
      "stateMutability": "payable",
      "type": "function",
      "payable": true
    },
    {
      "inputs": [
        {
          "internalType": "bytes32",
          "name": "_gameId",
          "type": "bytes32"
        },
        {
          "internalType": "bytes32",
          "name": "_hashedBoard",
          "type": "bytes32"
        }
      ],
      "name": "setBoard",
      "outputs": [],
      "stateMutability": "nonpayable",
      "type": "function"
    },
    {
      "inputs": [
        {
          "internalType": "bytes32",
          "name": "_gameId",
          "type": "bytes32"
        },
        {
          "internalType": "string",
          "name": "_coordinate",
          "type": "string"
        }
      ],
      "name": "shoot",
      "outputs": [],
      "stateMutability": "nonpayable",
      "type": "function"
    },
    {
      "inputs": [
        {
          "internalType": "bytes32",
          "name": "_gameId",
          "type": "bytes32"
        }
      ],
      "name": "getLastMoves",
      "outputs": [
        {
          "internalType": "string",
          "name": "",
          "type": "string"
        }
      ],
      "stateMutability": "view",
      "type": "function",
      "constant": true
    },
    {
      "inputs": [
        {
          "internalType": "bytes32",
          "name": "_gameId",
          "type": "bytes32"
        },
        {
          "internalType": "bytes32[]",
          "name": "_sibilings",
          "type": "bytes32[]"
        }
      ],
      "name": "checkMerkleProof",
      "outputs": [
        {
          "internalType": "bool",
          "name": "",
          "type": "bool"
        }
      ],
      "stateMutability": "nonpayable",
      "type": "function"
    },
    {
      "inputs": [
        {
          "internalType": "bytes32",
          "name": "_gameId",
          "type": "bytes32"
        },
        {
          "internalType": "string[][]",
          "name": "_board",
          "type": "string[][]"
        }
      ],
      "name": "checkBoard",
      "outputs": [
        {
          "internalType": "bool",
          "name": "",
          "type": "bool"
        }
      ],
      "stateMutability": "payable",
      "type": "function",
      "payable": true
    },
    {
      "inputs": [],
      "name": "notifyDelay",
      "outputs": [],
      "stateMutability": "nonpayable",
      "type": "function"
    }
  ],
  "bytecode": "0x608060405234801561001057600080fd5b50613b02806100206000396000f3fe6080604052600436106100ab5760003560e01c8063b4df513811610064578063b4df513814610203578063c7bad2b71461022c578063cf9e4fb914610255578063e0e797ee14610285578063e4cc82a0146102ae578063fbf5fea8146102eb576100ac565b806301fb893a146100c75780634768d4ef1461010f57806363fed9a4146101565780637eebaf06146101935780638609cad1146101aa5780639507c260146101c6576100ac565b5b3480156100b857600080fd5b506100c56000801b610314565b005b3480156100d357600080fd5b506100ee60048036038101906100e99190612692565b6103b5565b6040516101069c9b9a9998979695949392919061291b565b60405180910390f35b34801561011b57600080fd5b5061013660048036038101906101319190612a35565b61085e565b60405161014d9b9a99989796959493929190612a8a565b60405180910390f35b34801561016257600080fd5b5061017d60048036038101906101789190612692565b61099d565b60405161018a9190612b3c565b60405180910390f35b34801561019f57600080fd5b506101a8610a2f565b005b6101c460048036038101906101bf9190612692565b610314565b005b3480156101d257600080fd5b506101ed60048036038101906101e89190612bbc565b610a31565b6040516101fa9190612c1c565b60405180910390f35b34801561020f57600080fd5b5061022a60048036038101906102259190612dda565b61109f565b005b34801561023857600080fd5b50610253600480360381019061024e9190612e9f565b61179d565b005b61026f600480360381019061026a9190613176565b6119b0565b60405161027c9190612c1c565b60405180910390f35b34801561029157600080fd5b506102ac60048036038101906102a791906131fe565b611bce565b005b3480156102ba57600080fd5b506102d560048036038101906102d09190612692565b611e83565b6040516102e2919061323e565b60405180910390f35b3480156102f757600080fd5b50610312600480360381019061030d9190613260565b611f9a565b005b60005b6000805490508160ff1610156103b1578160008260ff168154811061033f5761033e6132a0565b5b90600052602060002090600c0201600001540361039e5760008160ff168154811061036d5761036c6132a0565b5b90600052602060002090600c020160050154670de0b6b3a764000034610393919061332d565b1461039d57600080fd5b5b80806103a99061335e565b915050610317565b5050565b6000606080600080606080600080600060608060005b6000805490508160ff16101561084d578d60008260ff16815481106103f3576103f26132a0565b5b90600052602060002090600c0201600001540361083a5760008160ff1681548110610421576104206132a0565b5b90600052602060002090600c02016000015460008260ff168154811061044a576104496132a0565b5b90600052602060002090600c02016001015460405160200161046c91906133a8565b60405160208183030381529060405260008360ff1681548110610492576104916132a0565b5b90600052602060002090600c0201600201546040516020016104b491906133a8565b60405160208183030381529060405260008460ff16815481106104da576104d96132a0565b5b90600052602060002090600c020160030160009054906101000a900473ffffffffffffffffffffffffffffffffffffffff1660008560ff1681548110610523576105226132a0565b5b90600052602060002090600c020160040160009054906101000a900473ffffffffffffffffffffffffffffffffffffffff1660008660ff168154811061056c5761056b6132a0565b5b90600052602060002090600c02016005015460405160200161058e91906133e4565b60405160208183030381529060405260008760ff16815481106105b4576105b36132a0565b5b90600052602060002090600c0201600601546040516020016105d691906133e4565b60405160208183030381529060405260008860ff16815481106105fc576105fb6132a0565b5b90600052602060002090600c020160070160009054906101000a900460ff1660008960ff1681548110610632576106316132a0565b5b90600052602060002090600c02016008015460008a60ff168154811061065b5761065a6132a0565b5b90600052602060002090600c02016009015460008b60ff1681548110610684576106836132a0565b5b90600052602060002090600c0201600a0160008c60ff16815481106106ac576106ab6132a0565b5b90600052602060002090600c0201600b018180546106c99061342e565b80601f01602080910402602001604051908101604052809291908181526020018280546106f59061342e565b80156107425780601f1061071757610100808354040283529160200191610742565b820191906000526020600020905b81548152906001019060200180831161072557829003601f168201915b5050505050915080805480602002602001604051908101604052809291908181526020016000905b828210156108165783829060005260206000200180546107899061342e565b80601f01602080910402602001604051908101604052809291908181526020018280546107b59061342e565b80156108025780601f106107d757610100808354040283529160200191610802565b820191906000526020600020905b8154815290600101906020018083116107e557829003601f168201915b50505050508152602001906001019061076a565b5050505090509c509c509c509c509c509c509c509c509c509c509c509c505061084f565b80806108459061335e565b9150506103cb565b505b91939597999b5091939597999b565b6000818154811061086e57600080fd5b90600052602060002090600c02016000915090508060000154908060010154908060020154908060030160009054906101000a900473ffffffffffffffffffffffffffffffffffffffff16908060040160009054906101000a900473ffffffffffffffffffffffffffffffffffffffff16908060050154908060060154908060070160009054906101000a900460ff169080600801549080600901549080600a01805461091a9061342e565b80601f01602080910402602001604051908101604052809291908181526020018280546109469061342e565b80156109935780601f1061096857610100808354040283529160200191610993565b820191906000526020600020905b81548152906001019060200180831161097657829003601f168201915b505050505090508b565b600080600090505b6000805490508160ff161015610a28578260008260ff16815481106109cd576109cc6132a0565b5b90600052602060002090600c02016000015403610a155760008160ff16815481106109fb576109fa6132a0565b5b90600052602060002090600c020160050154915050610a2a565b8080610a209061335e565b9150506109a5565b505b919050565b565b600080600090505b6000805490508160ff161015611096578460008260ff1681548110610a6157610a606132a0565b5b90600052602060002090600c020160000154036110835760003373ffffffffffffffffffffffffffffffffffffffff1660008360ff1681548110610aa857610aa76132a0565b5b90600052602060002090600c020160030160009054906101000a900473ffffffffffffffffffffffffffffffffffffffff1673ffffffffffffffffffffffffffffffffffffffff1603610b255760008260ff1681548110610b0c57610b0b6132a0565b5b90600052602060002090600c0201600801549050610b51565b60008260ff1681548110610b3c57610b3b6132a0565b5b90600052602060002090600c02016009015490505b600080600090505b86869050811015610bff576000604067ffffffffffffffff811115610b8157610b80612c63565b5b6040519080825280601f01601f191660200182016040528015610bb35781602001600182028036833780820191505090505b509050600088888760ff16818110610bce57610bcd6132a0565b5b9050602002013590508360208301528060408301526040600020935050508080610bf79061345f565b915050610b59565b508181036110405760008360ff1681548110610c1e57610c1d6132a0565b5b90600052602060002090600c0201600b01600181600181540180825580915050039060005260206000205050610efb60008460ff1681548110610c6457610c636132a0565b5b90600052602060002090600c0201604051806101800160405290816000820154815260200160018201548152602001600282015481526020016003820160009054906101000a900473ffffffffffffffffffffffffffffffffffffffff1673ffffffffffffffffffffffffffffffffffffffff1673ffffffffffffffffffffffffffffffffffffffff1681526020016004820160009054906101000a900473ffffffffffffffffffffffffffffffffffffffff1673ffffffffffffffffffffffffffffffffffffffff1673ffffffffffffffffffffffffffffffffffffffff16815260200160058201548152602001600682015481526020016007820160009054906101000a900460ff161515151581526020016008820154815260200160098201548152602001600a82018054610d9b9061342e565b80601f0160208091040260200160405190810160405280929190818152602001828054610dc79061342e565b8015610e145780601f10610de957610100808354040283529160200191610e14565b820191906000526020600020905b815481529060010190602001808311610df757829003601f168201915b50505050508152602001600b8201805480602002602001604051908101604052809291908181526020016000905b82821015610eee578382906000526020600020018054610e619061342e565b80601f0160208091040260200160405190810160405280929190818152602001828054610e8d9061342e565b8015610eda5780601f10610eaf57610100808354040283529160200191610eda565b820191906000526020600020905b815481529060010190602001808311610ebd57829003601f168201915b505050505081526020019060010190610e42565b5050505081525050612190565b15610f3c577fc7e0345890e3d3863c7f66518e8fe24252b162afe06faf9b20c50ac5d774fdfa33604051610f2f91906134a7565b60405180910390a1611034565b7fbac0d2f1d5b86b0ca75625d37a148747faa00f4de41c5c586f79880e455c2dc533604051610f6b91906134a7565b60405180910390a160008360ff1681548110610f8a57610f896132a0565b5b90600052602060002090600c020160070160009054906101000a900460ff16610ff257600160008460ff1681548110610fc657610fc56132a0565b5b90600052602060002090600c020160070160006101000a81548160ff0219169083151502179055611032565b6000808460ff168154811061100a576110096132a0565b5b90600052602060002090600c020160070160006101000a81548160ff02191690831515021790555b505b60019350505050611098565b7f9709744f7c7359edb2e10790a4a8501b0bb5fcec380968177c7a3e91249d52d83360405161106f91906134a7565b60405180910390a160009350505050611098565b808061108e9061335e565b915050610a39565b505b9392505050565b6000801b831461128a5760005b6000805490508160ff161015611288578360008260ff16815481106110d4576110d36132a0565b5b90600052602060002090600c0201600001540361127557600073ffffffffffffffffffffffffffffffffffffffff1660008260ff168154811061111a576111196132a0565b5b90600052602060002090600c020160040160009054906101000a900473ffffffffffffffffffffffffffffffffffffffff1673ffffffffffffffffffffffffffffffffffffffff1603611235573360008260ff168154811061117f5761117e6132a0565b5b90600052602060002090600c020160040160006101000a81548173ffffffffffffffffffffffffffffffffffffffff021916908373ffffffffffffffffffffffffffffffffffffffff1602179055507f24e3120dee1a7172611f0ca41434f8041a1ed6c9f69a04417e48a62dc92979fc3360008360ff1681548110611207576112066132a0565b5b90600052602060002090600c0201600001546040516112279291906134c2565b60405180910390a150611798565b7f24e3120dee1a7172611f0ca41434f8041a1ed6c9f69a04417e48a62dc92979fc336000604051611267929190613533565b60405180910390a150611798565b80806112809061335e565b9150506110ac565b505b81156115ec57600080805490506040516020016112a7919061355c565b6040516020818303038152906040528051906020012090506000600167ffffffffffffffff8111156112dc576112db612c63565b5b60405190808252806020026020018201604052801561130a5781602001602082028036833780820191505090505b50905060008067ffffffffffffffff81111561132957611328612c63565b5b60405190808252806020026020018201604052801561135c57816020015b60608152602001906001900390816113475790505b509050600060405180610180016040528085815260200186600181518110611387576113866132a0565b5b602002602001015160ff168152602001866000815181106113ab576113aa6132a0565b5b602002602001015160ff1681526020013373ffffffffffffffffffffffffffffffffffffffff168152602001600073ffffffffffffffffffffffffffffffffffffffff1681526020017fffffffffffffffffffffffffffffffffffffffffffffffffffffffffffffffff8152602001600081526020016001151581526020016000801b81526020016000801b81526020016040518060200160405280600081525081526020018381525090806001815401808255809150506001900390600052602060002090600c020160009091909190915060008201518160000155602082015181600101556040820151816002015560608201518160030160006101000a81548173ffffffffffffffffffffffffffffffffffffffff021916908373ffffffffffffffffffffffffffffffffffffffff16021790555060808201518160040160006101000a81548173ffffffffffffffffffffffffffffffffffffffff021916908373ffffffffffffffffffffffffffffffffffffffff16021790555060a0820151816005015560c0820151816006015560e08201518160070160006101000a81548160ff0219169083151502179055506101008201518160080155610120820151816009015561014082015181600a01908161158a9190613723565b5061016082015181600b0190805190602001906115a892919061256e565b5050507f24e3120dee1a7172611f0ca41434f8041a1ed6c9f69a04417e48a62dc92979fc33846040516115dc9291906134c2565b60405180910390a1505050611798565b60005b6000805490508160ff16101561175c57600073ffffffffffffffffffffffffffffffffffffffff1660008260ff168154811061162e5761162d6132a0565b5b90600052602060002090600c020160040160009054906101000a900473ffffffffffffffffffffffffffffffffffffffff1673ffffffffffffffffffffffffffffffffffffffff1614611749573360008260ff1681548110611693576116926132a0565b5b90600052602060002090600c020160040160006101000a81548173ffffffffffffffffffffffffffffffffffffffff021916908373ffffffffffffffffffffffffffffffffffffffff1602179055507f24e3120dee1a7172611f0ca41434f8041a1ed6c9f69a04417e48a62dc92979fc3360008360ff168154811061171b5761171a6132a0565b5b90600052602060002090600c02016000015460405161173b9291906134c2565b60405180910390a150611798565b80806117549061335e565b9150506115ef565b507f24e3120dee1a7172611f0ca41434f8041a1ed6c9f69a04417e48a62dc92979fc33600060405161178f929190613533565b60405180910390a15b505050565b60005b6000805490508160ff1610156119aa578360008260ff16815481106117c8576117c76132a0565b5b90600052602060002090600c0201600001540361199757828260008360ff16815481106117f8576117f76132a0565b5b90600052602060002090600c0201600a019182611816929190613800565b503373ffffffffffffffffffffffffffffffffffffffff1660008260ff1681548110611845576118446132a0565b5b90600052602060002090600c020160030160009054906101000a900473ffffffffffffffffffffffffffffffffffffffff1673ffffffffffffffffffffffffffffffffffffffff1603611916577fa42dd9e1d9175b98ede6b33b1bc3f78cd3f694b7213da993c11516d22751a66d60008260ff16815481106118ca576118c96132a0565b5b90600052602060002090600c020160030160009054906101000a900473ffffffffffffffffffffffffffffffffffffffff1660405161190991906134a7565b60405180910390a1611996565b7fa42dd9e1d9175b98ede6b33b1bc3f78cd3f694b7213da993c11516d22751a66d60008260ff168154811061194e5761194d6132a0565b5b90600052602060002090600c020160040160009054906101000a900473ffffffffffffffffffffffffffffffffffffffff1660405161198d91906134a7565b60405180910390a15b5b80806119a29061335e565b9150506117a0565b50505050565b600080600160f81b905060005b6000805490508160ff161015611bc6578460008260ff16815481106119e5576119e46132a0565b5b90600052602060002090600c02016000015403611bb3576000805b60008360ff1681548110611a1757611a166132a0565b5b90600052602060002090600c020160010154811015611b365760005b60008460ff1681548110611a4a57611a496132a0565b5b90600052602060002090600c020160010154811015611b2257847effffffffffffffffffffffffffffffffffffffffffffffffffffffffffffff1916878381518110611a9957611a986132a0565b5b60200260200101518281518110611ab357611ab26132a0565b5b6020026020010151600081518110611ace57611acd6132a0565b5b602001015160f81c60f81b7effffffffffffffffffffffffffffffffffffffffffffffffffffffffffffff191603611b0f578280611b0b9061335e565b9350505b8080611b1a9061345f565b915050611a33565b508080611b2e9061345f565b915050611a00565b5060008260ff1681548110611b4e57611b4d6132a0565b5b90600052602060002090600c0201600201548160ff1603611bb1573373ffffffffffffffffffffffffffffffffffffffff166108fc479081150290604051600060405180830381858888f19350505050158015611baf573d6000803e3d6000fd5b505b505b8080611bbe9061335e565b9150506119bd565b505092915050565b60005b6000805490508160ff161015611e7d578260008260ff1681548110611bf957611bf86132a0565b5b90600052602060002090600c02016000015403611e6a576000808260ff1681548110611c2857611c276132a0565b5b90600052602060002090600c0201600501541215611df6578160008260ff1681548110611c5857611c576132a0565b5b90600052602060002090600c0201600501819055503373ffffffffffffffffffffffffffffffffffffffff1660008260ff1681548110611c9b57611c9a6132a0565b5b90600052602060002090600c020160030160009054906101000a900473ffffffffffffffffffffffffffffffffffffffff1673ffffffffffffffffffffffffffffffffffffffff1603611d6e577f8baeb50b886fb168a371117c6cb88337a25606fe162d778425bd068ef9d25da560008260ff1681548110611d2057611d1f6132a0565b5b90600052602060002090600c020160040160009054906101000a900473ffffffffffffffffffffffffffffffffffffffff1683604051611d619291906138d0565b60405180910390a1611df0565b7f8baeb50b886fb168a371117c6cb88337a25606fe162d778425bd068ef9d25da560008260ff1681548110611da657611da56132a0565b5b90600052602060002090600c020160040160009054906101000a900473ffffffffffffffffffffffffffffffffffffffff1683604051611de79291906138d0565b60405180910390a15b50611e7f565b8160008260ff1681548110611e0e57611e0d6132a0565b5b90600052602060002090600c02016005015403611e6457600282611e3291906138f9565b60008260ff1681548110611e4957611e486132a0565b5b90600052602060002090600c02016006018190555050611e7f565b50611e7f565b8080611e759061335e565b915050611bd1565b505b5050565b606060005b6000805490508160ff161015611f93578260008260ff1681548110611eb057611eaf6132a0565b5b90600052602060002090600c02016000015403611f805760008160ff1681548110611ede57611edd6132a0565b5b90600052602060002090600c0201600a018054611efa9061342e565b80601f0160208091040260200160405190810160405280929190818152602001828054611f269061342e565b8015611f735780601f10611f4857610100808354040283529160200191611f73565b820191906000526020600020905b815481529060010190602001808311611f5657829003601f168201915b5050505050915050611f95565b8080611f8b9061335e565b915050611e88565b505b919050565b60005b6000805490508160ff16101561218b578260008260ff1681548110611fc557611fc46132a0565b5b90600052602060002090600c02016000015403612178573373ffffffffffffffffffffffffffffffffffffffff1660008260ff168154811061200a576120096132a0565b5b90600052602060002090600c020160030160009054906101000a900473ffffffffffffffffffffffffffffffffffffffff1673ffffffffffffffffffffffffffffffffffffffff1603612089578160008260ff168154811061206f5761206e6132a0565b5b90600052602060002090600c0201600801819055506120b7565b8160008260ff16815481106120a1576120a06132a0565b5b90600052602060002090600c0201600901819055505b600160008260ff16815481106120d0576120cf6132a0565b5b90600052602060002090600c020160070160006101000a81548160ff0219169083151502179055507fbac0d2f1d5b86b0ca75625d37a148747faa00f4de41c5c586f79880e455c2dc560008260ff16815481106121305761212f6132a0565b5b90600052602060002090600c020160030160009054906101000a900473ffffffffffffffffffffffffffffffffffffffff1660405161216f91906134a7565b60405180910390a15b80806121839061335e565b915050611f9d565b505050565b6000808260400151905060008360e00151156122645760005b8461016001515181101561225e57600061221786610160015183815181106121d4576121d36132a0565b5b60200260200101516040518060400160405280600181526020017f2e00000000000000000000000000000000000000000000000000000000000000815250612340565b905061223d816002815181106122305761222f6132a0565b5b60200260200101516124d6565b836122489190613971565b9250506002816122589190613971565b506121a9565b50612322565b6000600190505b846101600151518110156123205760006122d98661016001518381518110612296576122956132a0565b5b60200260200101516040518060400160405280600181526020017f2e00000000000000000000000000000000000000000000000000000000000000815250612340565b90506122ff816002815181106122f2576122f16132a0565b5b60200260200101516124d6565b8361230a9190613971565b92505060028161231a9190613971565b5061226b565b505b8181036123345760019250505061233b565b6000925050505b919050565b606060006040518060200160405280600081525090506000808590506000865167ffffffffffffffff81111561237957612378612c63565b5b6040519080825280602002602001820160405280156123ac57816020015b60608152602001906001900390816123975790505b50905060005b82518110156124c857866000815181106123cf576123ce6132a0565b5b602001015160f81c60f81b7effffffffffffffffffffffffffffffffffffffffffffffffffffffffffffff191683828151811061240f5761240e6132a0565b5b602001015160f81c60f81b7effffffffffffffffffffffffffffffffffffffffffffffffffffffffffffff1916036124735784828581518110612455576124546132a0565b5b6020026020010181905250838061246b9061345f565b9450506124b5565b84888281518110612487576124866132a0565b5b602001015160f81c60f81b6040516020016124a3929190613a2e565b60405160208183030381529060405294505b80806124c09061345f565b9150506123b2565b508094505050505092915050565b6000808290506000805b82518110156125635760008382815181106124fe576124fd6132a0565b5b602001015160f81c60f81b60f81c60ff16905060308110158015612523575060398111155b1561254f576030816125359190613a56565b600a846125429190613a8a565b61254c9190613971565b92505b50808061255b9061345f565b9150506124e0565b508092505050919050565b8280548282559060005260206000209081019282156125b6579160200282015b828111156125b55782518290816125a59190613723565b509160200191906001019061258e565b5b5090506125c391906125c7565b5090565b5b808211156125e757600081816125de91906125eb565b506001016125c8565b5090565b5080546125f79061342e565b6000825580601f106126095750612628565b601f016020900490600052602060002090810190612627919061262b565b5b50565b5b8082111561264457600081600090555060010161262c565b5090565b6000604051905090565b600080fd5b600080fd5b6000819050919050565b61266f8161265c565b811461267a57600080fd5b50565b60008135905061268c81612666565b92915050565b6000602082840312156126a8576126a7612652565b5b60006126b68482850161267d565b91505092915050565b6126c88161265c565b82525050565b600081519050919050565b600082825260208201905092915050565b60005b838110156127085780820151818401526020810190506126ed565b60008484015250505050565b6000601f19601f8301169050919050565b6000612730826126ce565b61273a81856126d9565b935061274a8185602086016126ea565b61275381612714565b840191505092915050565b600073ffffffffffffffffffffffffffffffffffffffff82169050919050565b60006127898261275e565b9050919050565b6127998161277e565b82525050565b60008115159050919050565b6127b48161279f565b82525050565b600081519050919050565b600082825260208201905092915050565b60006127e1826127ba565b6127eb81856127c5565b93506127fb8185602086016126ea565b61280481612714565b840191505092915050565b600081519050919050565b600082825260208201905092915050565b6000819050602082019050919050565b600082825260208201905092915050565b6000612857826127ba565b612861818561283b565b93506128718185602086016126ea565b61287a81612714565b840191505092915050565b6000612891838361284c565b905092915050565b6000602082019050919050565b60006128b18261280f565b6128bb818561281a565b9350836020820285016128cd8561282b565b8060005b8581101561290957848403895281516128ea8582612885565b94506128f583612899565b925060208a019950506001810190506128d1565b50829750879550505050505092915050565b600061018082019050612931600083018f6126bf565b8181036020830152612943818e612725565b90508181036040830152612957818d612725565b9050612966606083018c612790565b612973608083018b612790565b81810360a0830152612985818a612725565b905081810360c08301526129998189612725565b90506129a860e08301886127ab565b6129b66101008301876126bf565b6129c46101208301866126bf565b8181036101408301526129d781856127d6565b90508181036101608301526129ec81846128a6565b90509d9c50505050505050505050505050565b6000819050919050565b612a12816129ff565b8114612a1d57600080fd5b50565b600081359050612a2f81612a09565b92915050565b600060208284031215612a4b57612a4a612652565b5b6000612a5984828501612a20565b91505092915050565b612a6b816129ff565b82525050565b6000819050919050565b612a8481612a71565b82525050565b600061016082019050612aa0600083018e6126bf565b612aad602083018d612a62565b612aba604083018c612a62565b612ac7606083018b612790565b612ad4608083018a612790565b612ae160a0830189612a7b565b612aee60c0830188612a7b565b612afb60e08301876127ab565b612b096101008301866126bf565b612b176101208301856126bf565b818103610140830152612b2a81846127d6565b90509c9b505050505050505050505050565b6000602082019050612b516000830184612a7b565b92915050565b600080fd5b600080fd5b600080fd5b60008083601f840112612b7c57612b7b612b57565b5b8235905067ffffffffffffffff811115612b9957612b98612b5c565b5b602083019150836020820283011115612bb557612bb4612b61565b5b9250929050565b600080600060408486031215612bd557612bd4612652565b5b6000612be38682870161267d565b935050602084013567ffffffffffffffff811115612c0457612c03612657565b5b612c1086828701612b66565b92509250509250925092565b6000602082019050612c3160008301846127ab565b92915050565b612c408161279f565b8114612c4b57600080fd5b50565b600081359050612c5d81612c37565b92915050565b7f4e487b7100000000000000000000000000000000000000000000000000000000600052604160045260246000fd5b612c9b82612714565b810181811067ffffffffffffffff82111715612cba57612cb9612c63565b5b80604052505050565b6000612ccd612648565b9050612cd98282612c92565b919050565b600067ffffffffffffffff821115612cf957612cf8612c63565b5b602082029050602081019050919050565b600060ff82169050919050565b612d2081612d0a565b8114612d2b57600080fd5b50565b600081359050612d3d81612d17565b92915050565b6000612d56612d5184612cde565b612cc3565b90508083825260208201905060208402830185811115612d7957612d78612b61565b5b835b81811015612da25780612d8e8882612d2e565b845260208401935050602081019050612d7b565b5050509392505050565b600082601f830112612dc157612dc0612b57565b5b8135612dd1848260208601612d43565b91505092915050565b600080600060608486031215612df357612df2612652565b5b6000612e018682870161267d565b9350506020612e1286828701612c4e565b925050604084013567ffffffffffffffff811115612e3357612e32612657565b5b612e3f86828701612dac565b9150509250925092565b60008083601f840112612e5f57612e5e612b57565b5b8235905067ffffffffffffffff811115612e7c57612e7b612b5c565b5b602083019150836001820283011115612e9857612e97612b61565b5b9250929050565b600080600060408486031215612eb857612eb7612652565b5b6000612ec68682870161267d565b935050602084013567ffffffffffffffff811115612ee757612ee6612657565b5b612ef386828701612e49565b92509250509250925092565b600067ffffffffffffffff821115612f1a57612f19612c63565b5b602082029050602081019050919050565b600067ffffffffffffffff821115612f4657612f45612c63565b5b602082029050602081019050919050565b600080fd5b600067ffffffffffffffff821115612f7757612f76612c63565b5b612f8082612714565b9050602081019050919050565b82818337600083830152505050565b6000612faf612faa84612f5c565b612cc3565b905082815260208101848484011115612fcb57612fca612f57565b5b612fd6848285612f8d565b509392505050565b600082601f830112612ff357612ff2612b57565b5b8135613003848260208601612f9c565b91505092915050565b600061301f61301a84612f2b565b612cc3565b9050808382526020820190506020840283018581111561304257613041612b61565b5b835b8181101561308957803567ffffffffffffffff81111561306757613066612b57565b5b8086016130748982612fde565b85526020850194505050602081019050613044565b5050509392505050565b600082601f8301126130a8576130a7612b57565b5b81356130b884826020860161300c565b91505092915050565b60006130d46130cf84612eff565b612cc3565b905080838252602082019050602084028301858111156130f7576130f6612b61565b5b835b8181101561313e57803567ffffffffffffffff81111561311c5761311b612b57565b5b8086016131298982613093565b855260208501945050506020810190506130f9565b5050509392505050565b600082601f83011261315d5761315c612b57565b5b813561316d8482602086016130c1565b91505092915050565b6000806040838503121561318d5761318c612652565b5b600061319b8582860161267d565b925050602083013567ffffffffffffffff8111156131bc576131bb612657565b5b6131c885828601613148565b9150509250929050565b6131db81612a71565b81146131e657600080fd5b50565b6000813590506131f8816131d2565b92915050565b6000806040838503121561321557613214612652565b5b60006132238582860161267d565b9250506020613234858286016131e9565b9150509250929050565b6000602082019050818103600083015261325881846127d6565b905092915050565b6000806040838503121561327757613276612652565b5b60006132858582860161267d565b92505060206132968582860161267d565b9150509250929050565b7f4e487b7100000000000000000000000000000000000000000000000000000000600052603260045260246000fd5b7f4e487b7100000000000000000000000000000000000000000000000000000000600052601260045260246000fd5b7f4e487b7100000000000000000000000000000000000000000000000000000000600052601160045260246000fd5b6000613338826129ff565b9150613343836129ff565b925082613353576133526132cf565b5b828204905092915050565b600061336982612d0a565b915060ff820361337c5761337b6132fe565b5b600182019050919050565b6000819050919050565b6133a261339d826129ff565b613387565b82525050565b60006133b48284613391565b60208201915081905092915050565b6000819050919050565b6133de6133d982612a71565b6133c3565b82525050565b60006133f082846133cd565b60208201915081905092915050565b7f4e487b7100000000000000000000000000000000000000000000000000000000600052602260045260246000fd5b6000600282049050600182168061344657607f821691505b602082108103613459576134586133ff565b5b50919050565b600061346a826129ff565b91507fffffffffffffffffffffffffffffffffffffffffffffffffffffffffffffffff820361349c5761349b6132fe565b5b600182019050919050565b60006020820190506134bc6000830184612790565b92915050565b60006040820190506134d76000830185612790565b6134e460208301846126bf565b9392505050565b6000819050919050565b60008160001b9050919050565b600061351d613518613513846134eb565b6134f5565b61265c565b9050919050565b61352d81613502565b82525050565b60006040820190506135486000830185612790565b6135556020830184613524565b9392505050565b60006020820190506135716000830184612a62565b92915050565b60008190508160005260206000209050919050565b60006020601f8301049050919050565b600082821b905092915050565b6000600883026135d97fffffffffffffffffffffffffffffffffffffffffffffffffffffffffffffffff8261359c565b6135e3868361359c565b95508019841693508086168417925050509392505050565b6000819050919050565b600061362061361b613616846129ff565b6135fb565b6129ff565b9050919050565b6000819050919050565b61363a83613605565b61364e61364682613627565b8484546135a9565b825550505050565b600090565b613663613656565b61366e818484613631565b505050565b5b818110156136925761368760008261365b565b600181019050613674565b5050565b601f8211156136d7576136a881613577565b6136b18461358c565b810160208510156136c0578190505b6136d46136cc8561358c565b830182613673565b50505b505050565b600082821c905092915050565b60006136fa600019846008026136dc565b1980831691505092915050565b600061371383836136e9565b9150826002028217905092915050565b61372c826127ba565b67ffffffffffffffff81111561374557613744612c63565b5b61374f825461342e565b61375a828285613696565b600060209050601f83116001811461378d576000841561377b578287015190505b6137858582613707565b8655506137ed565b601f19841661379b86613577565b60005b828110156137c35784890151825560018201915060208501945060208101905061379e565b868310156137e057848901516137dc601f8916826136e9565b8355505b6001600288020188555050505b505050505050565b600082905092915050565b61380a83836137f5565b67ffffffffffffffff81111561382357613822612c63565b5b61382d825461342e565b613838828285613696565b6000601f8311600181146138675760008415613855578287013590505b61385f8582613707565b8655506138c7565b601f19841661387586613577565b60005b8281101561389d57848901358255600182019150602085019450602081019050613878565b868310156138ba57848901356138b6601f8916826136e9565b8355505b6001600288020188555050505b50505050505050565b60006040820190506138e56000830185612790565b6138f26020830184612a7b565b9392505050565b600061390482612a71565b915061390f83612a71565b925082820261391d81612a71565b91507f80000000000000000000000000000000000000000000000000000000000000008414600084121615613955576139546132fe565b5b828205841483151761396a576139696132fe565b5b5092915050565b600061397c826129ff565b9150613987836129ff565b925082820190508082111561399f5761399e6132fe565b5b92915050565b600081905092915050565b60006139bb826126ce565b6139c581856139a5565b93506139d58185602086016126ea565b80840191505092915050565b60007fff0000000000000000000000000000000000000000000000000000000000000082169050919050565b6000819050919050565b613a28613a23826139e1565b613a0d565b82525050565b6000613a3a82856139b0565b9150613a468284613a17565b6001820191508190509392505050565b6000613a61826129ff565b9150613a6c836129ff565b9250828203905081811115613a8457613a836132fe565b5b92915050565b6000613a95826129ff565b9150613aa0836129ff565b9250828202613aae816129ff565b91508282048414831517613ac557613ac46132fe565b5b509291505056fea26469706673582212206af5d657033f35921f8e1d8266129d97ece1105cb11a81637d5ce7dc6bb4e8f364736f6c63430008130033",
  "immutableReferences": {},
  "source": "// SPDX-License-Identifier: MIT \npragma solidity >=0.8.2 <0.9.0;\npragma abicoder v2;\npragma experimental ABIEncoderV2;\n\ncontract Game {\n\n    struct GameMatch{\n        bytes32 gameId;\n        uint tableSize;\n        uint ships;\n        address p1; // also the creator\n        address p2;\n        int registration; // -1: not registered, otherwise the amount \n        int reward;\n        bool turn; // if true --> p1 have to play otherwise p2 \n        bytes32 b1; // hash of the board to proof merkle tree\n        bytes32 b2;\n        string lastMove; // last move played in the game [1.2][2.4][1.1][2.2] --> first x then y\n        string[] moves;     // l'array avr quindi le caselle pari per il p1 e disapari per il p2 e li metterai le mosse fatte in chiaro\n                            // con anche il risultato della mossa tipo 1.1.0 (casella 1 1 mancato) 2.1.1 (casella 2 1 colpito)\n    }\n\n    GameMatch[] public matches;\n    event SendNewGameCreate(address player, bytes32 gameId);\n    event SendRequestAmount(address player, int amount);    //tell to the player to put the money to start play\n    event SendTurnAdvice(address player);   //tell to the player that is his/her turn\n    event SendMovesAdvice(address player);  //tell to the player that have been shoot\n    event SendRequestBoard(address player);   //tell to the player that have won\n    event SendWrongMove(address player);    //tell to the player that is not a valid move\n\n    function join(bytes32 _gameId, bool _isNew, uint8[] memory _info) public{\n        \n        // set player 2 in case of given game id\n        if(_gameId != 0){\n            for(uint8 i=0; i < matches.length; i++){\n                if(matches[i].gameId == _gameId){\n                    if(matches[i].p2 == address(0)){\n                        matches[i].p2 = msg.sender;\n                        emit SendNewGameCreate(msg.sender, matches[i].gameId);\n                        return;\n                    }\n                    else{\n                        emit SendNewGameCreate(msg.sender, 0);\n                        return;\n                    }\n                }\n            }\n        }\n\n        if(_isNew){\n            // otherwise create a new game\n            bytes32 newGameId = keccak256(abi.encode(matches.length));\n            uint8[] memory _ships= new uint8[](1);\n            string[] memory _moves = new string[](0);\n            matches.push(GameMatch(newGameId, _info[1], _info[0], msg.sender, address(0), -1, 0, true, 0, 0, \"\",  _moves));\n            emit SendNewGameCreate(msg.sender, newGameId);\n            return;\n        }\n\n        // set player 2 in random game if available\n        for(uint8 i=0; i<matches.length; i++){\n            if(matches[i].p2 != address(0)){\n                matches[i].p2=msg.sender;\n                emit SendNewGameCreate(msg.sender, matches[i].gameId);\n                return;\n            }\n        }\n\n        emit SendNewGameCreate(msg.sender, 0);\n    }\n\n    /**\n        The two part agree offline and the first who call this method\n        also set the reward.    \n     */\n    function setReward(bytes32 _gameId, int _registration) external{\n        for(uint8 i=0; i<matches.length; i++){\n            if(matches[i].gameId == _gameId){\n                if(matches[i].registration < 0){\n                    matches[i].registration=_registration;\n                    if(matches[i].p1==msg.sender)\n                        emit SendRequestAmount(matches[i].p2, _registration);\n                    else\n                        emit SendRequestAmount(matches[i].p2, _registration);\n                    return;\n                }\n                else{\n                    if(matches[i].registration == _registration){\n                        matches[i].reward=_registration*2;\n                        return;\n                    }\n                    else{\n                        return;\n                    }\n                }\n            }\n        }\n    }\n\n    function getInformations(bytes32 _gameId) external view returns(\n        bytes32, \n        bytes memory,\n        bytes memory,\n        address ,\n        address ,\n        bytes memory ,\n        bytes memory ,\n        bool , \n        bytes32 ,\n        bytes32 ,\n        string memory,\n        string[] memory\n    ){\n        for(uint8 i=0; i < matches.length; i++){\n            if(matches[i].gameId == _gameId){\n                return(matches[i].gameId, abi.encodePacked(matches[i].tableSize), abi.encodePacked(matches[i].ships), matches[i].p1, matches[i].p2, abi.encodePacked(matches[i].registration), abi.encodePacked(matches[i].reward), matches[i].turn, matches[i].b1, matches[i].b2, matches[i].lastMove, matches[i].moves);\n            }\n        }\n    }\n\n    function getReward(bytes32 _gameId) external view returns(int){\n        for(uint8 i=0; i < matches.length; i++){\n            if(matches[i].gameId == _gameId){\n                return matches[i].registration;\n            }\n        }\n    }\n\n    function pay(bytes32 _gameId) public payable{\n        for(uint8 i=0; i < matches.length; i++){\n            if(matches[i].gameId == _gameId){\n                require((msg.value/1000000000000000000) == uint(matches[i].registration));\n            }\n        }\n    }\n\n    function setBoard(bytes32 _gameId, bytes32 _hashedBoard) public{\n        for(uint8 i=0; i < matches.length; i++){\n            if(matches[i].gameId == _gameId){\n                if(matches[i].p1==msg.sender){\n                    matches[i].b1=_hashedBoard;\n                }\n                else{\n                    matches[i].b2=_hashedBoard;\n                }\n                matches[i].turn=true;\n                emit SendTurnAdvice(matches[i].p1);\n            }\n        }\n    }\n\n    function shoot(bytes32 _gameId, string calldata _coordinate) public{\n        // stores the coordination for the other player\n        for(uint8 i=0; i < matches.length; i++){\n            if(matches[i].gameId == _gameId){\n                matches[i].lastMove=_coordinate;\n                if(matches[i].p1==msg.sender){\n                    emit SendMovesAdvice(matches[i].p1);\n                }\n                else{\n                    emit SendMovesAdvice(matches[i].p2);\n                }\n            }\n        }\n    }\n\n    /**\n        get the last move of the game\n        then compute the merkle tree as a proof \n     */\n    function getLastMoves(bytes32 _gameId) public view returns(string memory){\n        for(uint8 i=0; i < matches.length; i++){\n            if(matches[i].gameId == _gameId){\n                return matches[i].lastMove;\n            }\n        }\n    }\n\n    function checkMerkleProof(bytes32 _gameId, bytes32[] calldata _sibilings) public returns(bool){\n        \n        for(uint8 i=0; i < matches.length; i++){\n            if(matches[i].gameId == _gameId){\n                bytes32 _trueBoard;\n                if(matches[i].p1==msg.sender){\n                    _trueBoard=matches[i].b1;\n                }\n                else{\n                    _trueBoard=matches[i].b2;\n                }\n                \n                bytes32 _b; //=keccak256(_firstNode); wait for the reply of teacher\n                for(uint j=0; j < _sibilings.length; j++){\n                    // compute the merkle proof\n                    // there is an issue and it's reported in the PDF\n                    bytes memory _temp = new bytes(64);\n                    bytes32 _b1=_sibilings[i];\n                    assembly {\n                        mstore(add(_temp, 32), _b)\n                        mstore(add(_temp, 64), _b1)\n                        _b := keccak256(0x00, 0x40)\n                    }            \n                }\n\n                // confronta il risultato con _b se ok allora memorizza la mossa valida e return true\n\n                if(_b == _trueBoard){\n\n                    matches[i].moves.push();\n                    // chiama la funzione checkWin e se true emetti evento vittoria\n                    if(checkWin(matches[i])){\n                        emit SendRequestBoard(msg.sender);\n                    }else{\n                        // altrimenti emetti l'evento cambia turno\n                        emit SendTurnAdvice(msg.sender);\n                        matches[i].turn ? matches[i].turn=false : matches[i].turn=true;\n                    }\n                        \n                    return true;\n                }\n                else{   \n                    emit SendWrongMove(msg.sender);             \n                    return false;\n                }\n                \n            }\n        }\n    }\n\n    function checkWin(GameMatch memory g) internal pure returns(bool){\n        uint _shipToSink=g.ships;\n        uint _shipSinked=0;\n        if(g.turn){\n            for (uint i=0; i<g.moves.length; i+2){\n                string[] memory _s = splitString(g.moves[i], \".\");\n                _shipSinked += stringToUint(_s[2]);\n            }\n        }else{\n            for(uint i = 1; i < g.moves.length; i+2){\n                string[] memory _s = splitString(g.moves[i], \".\");\n                _shipSinked += stringToUint(_s[2]);\n            }\n        }\n\n        if(_shipSinked==_shipToSink){\n            return true;\n        }else{\n            return false;\n        }\n    }\n\n    function checkBoard(bytes32 _gameId, string[][] memory _board) public payable returns(bool){\n        bytes1 _one = 0x01;        \n        for(uint8 i=0; i < matches.length; i++){\n            if(matches[i].gameId == _gameId){\n                //controllo sovrapposizioni navi\n                uint8 count=0;\n                for(uint q = 0; q < matches[i].tableSize; q++){\n                    for(uint k = 0; k < matches[i].tableSize; k++){\n                        if(bytes(_board[q][k])[0] == _one) //there is a ship\n                            count++;\n                    }\n                }\n\n                if(count == matches[i].ships){ //there aren't ship overlapped\n                    payable(msg.sender).transfer(address(this).balance);\n                }\n            }\n        }\n    }\n\n    function notifyDelay() public{\n        //wait for 5 blocks and if there isn't a reply\n        // pay the other player\n    }\n\n    fallback() external{\n        pay(0);\n    }\n\n\n    /**\n        Some utility functions for internal use only    \n     */\n    function splitString(string memory _s, string memory _separator) internal pure returns(string[] memory){\n        string memory _temp=\"\";\n        uint count=0;\n        bytes memory _sbytes=bytes(_s);\n        string[] memory _res = new string[](bytes(_s).length);\n        for(uint i=0; i < _sbytes.length; i++){\n            if(_sbytes[i]==bytes(_separator)[0]){\n                _res[count] = _temp;\n                count++;\n            }\n            else{\n                _temp=string(bytes.concat(bytes(_temp), bytes(_s)[i]));\n            }\n        }\n        return _res;\n    }\n\n    function stringToUint(string memory _str) internal pure returns (uint) {\n        bytes memory b = bytes(_str);\n        uint result = 0;\n        for (uint i = 0; i < b.length; i++) {\n            uint c = uint(uint8(b[i]));\n            if (c >= 48 && c <= 57) {\n                result = result * 10 + (c - 48);\n            }\n        }\n        return result;\n    }\n}",
  "sourcePath": "/home/davide/Documenti/magistrale/P2PBC/projects/battleship/contracts/Game.sol",
  "compiler": {
    "name": "solc",
    "version": "0.8.19+commit.7dd6d404.Emscripten.clang"
  },
  "schemaVersion": "3.4.13",
  "updatedAt": "2023-05-27T12:48:12.750Z",
  "networkType": "ethereum",
  "devdoc": {
    "kind": "dev",
    "methods": {},
    "version": 1
  },
  "userdoc": {
    "kind": "user",
    "methods": {
      "getLastMoves(bytes32)": {
        "notice": "get the last move of the game then compute the merkle tree as a proof "
      },
      "setReward(bytes32,int256)": {
        "notice": "The two part agree offline and the first who call this method also set the reward.    "
      }
    },
    "version": 1
  }
}