{
  "contractName": "Game",
  "abi": [
    {
      "anonymous": false,
      "inputs": [
        {
          "indexed": false,
          "internalType": "address",
          "name": "player",
          "type": "address"
        },
        {
          "indexed": false,
          "internalType": "bool",
          "name": "hit",
          "type": "bool"
        }
      ],
      "name": "SendMoveResult",
      "type": "event"
    },
    {
      "anonymous": false,
      "inputs": [
        {
          "indexed": false,
          "internalType": "address",
          "name": "player",
          "type": "address"
        },
        {
          "indexed": false,
          "internalType": "string",
          "name": "move",
          "type": "string"
        }
      ],
      "name": "SendMovesAdvice",
      "type": "event"
    },
    {
      "anonymous": false,
      "inputs": [
        {
          "indexed": false,
          "internalType": "address",
          "name": "player",
          "type": "address"
        },
        {
          "indexed": false,
          "internalType": "bytes32",
          "name": "gameId",
          "type": "bytes32"
        }
      ],
      "name": "SendNewGameCreate",
      "type": "event"
    },
    {
      "anonymous": false,
      "inputs": [
        {
          "indexed": false,
          "internalType": "address",
          "name": "player",
          "type": "address"
        },
        {
          "indexed": false,
          "internalType": "int256",
          "name": "amount",
          "type": "int256"
        }
      ],
      "name": "SendRequestAmount",
      "type": "event"
    },
    {
      "anonymous": false,
      "inputs": [
        {
          "indexed": false,
          "internalType": "address",
          "name": "player",
          "type": "address"
        }
      ],
      "name": "SendRequestBoard",
      "type": "event"
    },
    {
      "anonymous": false,
      "inputs": [
        {
          "indexed": false,
          "internalType": "address",
          "name": "player",
          "type": "address"
        }
      ],
      "name": "SendTurnAdvice",
      "type": "event"
    },
    {
      "anonymous": false,
      "inputs": [
        {
          "indexed": false,
          "internalType": "address",
          "name": "player",
          "type": "address"
        }
      ],
      "name": "SendVictory",
      "type": "event"
    },
    {
      "anonymous": false,
      "inputs": [
        {
          "indexed": false,
          "internalType": "address",
          "name": "player",
          "type": "address"
        }
      ],
      "name": "SendWrongMove",
      "type": "event"
    },
    {
      "stateMutability": "nonpayable",
      "type": "fallback"
    },
    {
      "inputs": [
        {
          "internalType": "uint256",
          "name": "",
          "type": "uint256"
        }
      ],
      "name": "matches",
      "outputs": [
        {
          "internalType": "bytes32",
          "name": "gameId",
          "type": "bytes32"
        },
        {
          "internalType": "uint256",
          "name": "tableSize",
          "type": "uint256"
        },
        {
          "internalType": "uint256",
          "name": "ships",
          "type": "uint256"
        },
        {
          "internalType": "address",
          "name": "p1",
          "type": "address"
        },
        {
          "internalType": "address",
          "name": "p2",
          "type": "address"
        },
        {
          "internalType": "int256",
          "name": "registration",
          "type": "int256"
        },
        {
          "internalType": "int256",
          "name": "reward",
          "type": "int256"
        },
        {
          "internalType": "bool",
          "name": "turn",
          "type": "bool"
        },
        {
          "internalType": "bytes32",
          "name": "b1",
          "type": "bytes32"
        },
        {
          "internalType": "bytes32",
          "name": "b2",
          "type": "bytes32"
        },
        {
          "internalType": "string",
          "name": "lastMove",
          "type": "string"
        }
      ],
      "stateMutability": "view",
      "type": "function",
      "constant": true
    },
    {
      "inputs": [
        {
          "internalType": "bytes32",
          "name": "_gameId",
          "type": "bytes32"
        },
        {
          "internalType": "bool",
          "name": "_isNew",
          "type": "bool"
        },
        {
          "internalType": "uint8[]",
          "name": "_info",
          "type": "uint8[]"
        }
      ],
      "name": "join",
      "outputs": [],
      "stateMutability": "nonpayable",
      "type": "function"
    },
    {
      "inputs": [
        {
          "internalType": "bytes32",
          "name": "_gameId",
          "type": "bytes32"
        },
        {
          "internalType": "int256",
          "name": "_registration",
          "type": "int256"
        }
      ],
      "name": "setReward",
      "outputs": [],
      "stateMutability": "nonpayable",
      "type": "function"
    },
    {
      "inputs": [
        {
          "internalType": "bytes32",
          "name": "_gameId",
          "type": "bytes32"
        }
      ],
      "name": "getInformations",
      "outputs": [
        {
          "internalType": "bytes32",
          "name": "",
          "type": "bytes32"
        },
        {
          "internalType": "bytes",
          "name": "",
          "type": "bytes"
        },
        {
          "internalType": "bytes",
          "name": "",
          "type": "bytes"
        },
        {
          "internalType": "address",
          "name": "",
          "type": "address"
        },
        {
          "internalType": "address",
          "name": "",
          "type": "address"
        },
        {
          "internalType": "bytes",
          "name": "",
          "type": "bytes"
        },
        {
          "internalType": "bytes",
          "name": "",
          "type": "bytes"
        },
        {
          "internalType": "bool",
          "name": "",
          "type": "bool"
        },
        {
          "internalType": "bytes32",
          "name": "",
          "type": "bytes32"
        },
        {
          "internalType": "bytes32",
          "name": "",
          "type": "bytes32"
        },
        {
          "internalType": "string",
          "name": "",
          "type": "string"
        },
        {
          "internalType": "string[]",
          "name": "",
          "type": "string[]"
        }
      ],
      "stateMutability": "view",
      "type": "function",
      "constant": true
    },
    {
      "inputs": [
        {
          "internalType": "bytes32",
          "name": "_gameId",
          "type": "bytes32"
        }
      ],
      "name": "getReward",
      "outputs": [
        {
          "internalType": "int256",
          "name": "",
          "type": "int256"
        }
      ],
      "stateMutability": "view",
      "type": "function",
      "constant": true
    },
    {
      "inputs": [
        {
          "internalType": "bytes32",
          "name": "_gameId",
          "type": "bytes32"
        }
      ],
      "name": "pay",
      "outputs": [],
      "stateMutability": "payable",
      "type": "function",
      "payable": true
    },
    {
      "inputs": [
        {
          "internalType": "bytes32",
          "name": "_gameId",
          "type": "bytes32"
        },
        {
          "internalType": "bytes32",
          "name": "_hashedBoard",
          "type": "bytes32"
        }
      ],
      "name": "setBoard",
      "outputs": [],
      "stateMutability": "nonpayable",
      "type": "function"
    },
    {
      "inputs": [
        {
          "internalType": "bytes32",
          "name": "_gameId",
          "type": "bytes32"
        },
        {
          "internalType": "string",
          "name": "_coordinate",
          "type": "string"
        }
      ],
      "name": "shoot",
      "outputs": [],
      "stateMutability": "nonpayable",
      "type": "function"
    },
    {
      "inputs": [
        {
          "internalType": "bytes32",
          "name": "_gameId",
          "type": "bytes32"
        }
      ],
      "name": "getLastMoves",
      "outputs": [
        {
          "internalType": "string",
          "name": "",
          "type": "string"
        }
      ],
      "stateMutability": "view",
      "type": "function",
      "constant": true
    },
    {
      "inputs": [
        {
          "internalType": "bytes32",
          "name": "_gameId",
          "type": "bytes32"
        },
        {
          "internalType": "bytes32[]",
          "name": "_sibilings",
          "type": "bytes32[]"
        },
        {
          "internalType": "bool",
          "name": "_hit",
          "type": "bool"
        }
      ],
      "name": "checkMerkleProof",
      "outputs": [],
      "stateMutability": "nonpayable",
      "type": "function"
    },
    {
      "inputs": [
        {
          "internalType": "string[]",
          "name": "_sibilings",
          "type": "string[]"
        }
      ],
      "name": "bildMerkleProof",
      "outputs": [],
      "stateMutability": "nonpayable",
      "type": "function"
    },
    {
      "inputs": [
        {
          "internalType": "bytes32[]",
          "name": "_sibilings",
          "type": "bytes32[]"
        }
      ],
      "name": "bildMerkleProofBytes",
      "outputs": [],
      "stateMutability": "nonpayable",
      "type": "function"
    },
    {
      "inputs": [],
      "name": "checkKeccack",
      "outputs": [],
      "stateMutability": "nonpayable",
      "type": "function"
    },
    {
      "inputs": [
        {
          "components": [
            {
              "internalType": "bytes32",
              "name": "gameId",
              "type": "bytes32"
            },
            {
              "internalType": "uint256",
              "name": "tableSize",
              "type": "uint256"
            },
            {
              "internalType": "uint256",
              "name": "ships",
              "type": "uint256"
            },
            {
              "internalType": "address",
              "name": "p1",
              "type": "address"
            },
            {
              "internalType": "address",
              "name": "p2",
              "type": "address"
            },
            {
              "internalType": "int256",
              "name": "registration",
              "type": "int256"
            },
            {
              "internalType": "int256",
              "name": "reward",
              "type": "int256"
            },
            {
              "internalType": "bool",
              "name": "turn",
              "type": "bool"
            },
            {
              "internalType": "bytes32",
              "name": "b1",
              "type": "bytes32"
            },
            {
              "internalType": "bytes32",
              "name": "b2",
              "type": "bytes32"
            },
            {
              "internalType": "string",
              "name": "lastMove",
              "type": "string"
            },
            {
              "internalType": "string[]",
              "name": "moves",
              "type": "string[]"
            }
          ],
          "internalType": "struct Game.GameMatch",
          "name": "g",
          "type": "tuple"
        }
      ],
      "name": "checkWin",
      "outputs": [
        {
          "internalType": "bool",
          "name": "",
          "type": "bool"
        }
      ],
      "stateMutability": "pure",
      "type": "function",
      "constant": true
    },
    {
      "inputs": [
        {
          "internalType": "bytes32",
          "name": "_gameId",
          "type": "bytes32"
        },
        {
          "internalType": "string[][]",
          "name": "_board",
          "type": "string[][]"
        }
      ],
      "name": "checkBoard",
      "outputs": [
        {
          "internalType": "bool",
          "name": "",
          "type": "bool"
        }
      ],
      "stateMutability": "payable",
      "type": "function",
      "payable": true
    },
    {
      "inputs": [],
      "name": "notifyDelay",
      "outputs": [],
      "stateMutability": "nonpayable",
      "type": "function"
    }
  ],
  "bytecode": "0x608060405234801561001057600080fd5b5061568f80620000216000396000f3fe6080604052600436106100f75760003560e01c80638609cad11161008a578063cf9e4fb911610059578063cf9e4fb914610333578063e0e797ee14610363578063e4cc82a01461038c578063fbf5fea8146103c9576100f8565b80638609cad114610288578063aef9edfb146102a4578063b4df5138146102e1578063c7bad2b71461030a576100f8565b806368448120116100c657806368448120146102085780637eebaf06146102315780638339842214610248578063853036b51461025f576100f8565b806301fb893a1461011357806304e7f7181461015b5780634768d4ef1461018457806363fed9a4146101cb576100f8565b5b34801561010457600080fd5b506101116000801b6103f2565b005b34801561011f57600080fd5b5061013a60048036038101906101359190613c0f565b610493565b6040516101529c9b9a99989796959493929190613e98565b60405180910390f35b34801561016757600080fd5b50610182600480360381019061017d9190614197565b61093c565b005b34801561019057600080fd5b506101ab60048036038101906101a69190614216565b610cb4565b6040516101c29b9a9998979695949392919061426b565b60405180910390f35b3480156101d757600080fd5b506101f260048036038101906101ed9190613c0f565b610df3565b6040516101ff919061431d565b60405180910390f35b34801561021457600080fd5b5061022f600480360381019061022a91906143fb565b610e85565b005b34801561023d57600080fd5b5061024661119f565b005b34801561025457600080fd5b5061025d6111a1565b005b34801561026b57600080fd5b5061028660048036038101906102819190614470565b611470565b005b6102a2600480360381019061029d9190613c0f565b6103f2565b005b3480156102b057600080fd5b506102cb60048036038101906102c6919061469b565b6124d3565b6040516102d891906146e4565b60405180910390f35b3480156102ed57600080fd5b50610308600480360381019061030391906147fb565b6126af565b005b34801561031657600080fd5b50610331600480360381019061032c91906148c5565b612d5e565b005b61034d60048036038101906103489190614a06565b6130ac565b60405161035a91906146e4565b60405180910390f35b34801561036f57600080fd5b5061038a60048036038101906103859190614a62565b6132ca565b005b34801561039857600080fd5b506103b360048036038101906103ae9190613c0f565b61357f565b6040516103c09190614aa2565b60405180910390f35b3480156103d557600080fd5b506103f060048036038101906103eb9190614ac4565b613696565b005b60005b6000805490508160ff16101561048f578160008260ff168154811061041d5761041c614b04565b5b90600052602060002090600c0201600001540361047c5760008160ff168154811061044b5761044a614b04565b5b90600052602060002090600c020160050154670de0b6b3a7640000346104719190614b91565b1461047b57600080fd5b5b808061048790614bc2565b9150506103f5565b5050565b6000606080600080606080600080600060608060005b6000805490508160ff16101561092b578d60008260ff16815481106104d1576104d0614b04565b5b90600052602060002090600c020160000154036109185760008160ff16815481106104ff576104fe614b04565b5b90600052602060002090600c02016000015460008260ff168154811061052857610527614b04565b5b90600052602060002090600c02016001015460405160200161054a9190614c0c565b60405160208183030381529060405260008360ff16815481106105705761056f614b04565b5b90600052602060002090600c0201600201546040516020016105929190614c0c565b60405160208183030381529060405260008460ff16815481106105b8576105b7614b04565b5b90600052602060002090600c020160030160009054906101000a900473ffffffffffffffffffffffffffffffffffffffff1660008560ff168154811061060157610600614b04565b5b90600052602060002090600c020160040160009054906101000a900473ffffffffffffffffffffffffffffffffffffffff1660008660ff168154811061064a57610649614b04565b5b90600052602060002090600c02016005015460405160200161066c9190614c48565b60405160208183030381529060405260008760ff168154811061069257610691614b04565b5b90600052602060002090600c0201600601546040516020016106b49190614c48565b60405160208183030381529060405260008860ff16815481106106da576106d9614b04565b5b90600052602060002090600c020160070160009054906101000a900460ff1660008960ff16815481106107105761070f614b04565b5b90600052602060002090600c02016008015460008a60ff168154811061073957610738614b04565b5b90600052602060002090600c02016009015460008b60ff168154811061076257610761614b04565b5b90600052602060002090600c0201600a0160008c60ff168154811061078a57610789614b04565b5b90600052602060002090600c0201600b018180546107a790614c92565b80601f01602080910402602001604051908101604052809291908181526020018280546107d390614c92565b80156108205780601f106107f557610100808354040283529160200191610820565b820191906000526020600020905b81548152906001019060200180831161080357829003601f168201915b5050505050915080805480602002602001604051908101604052809291908181526020016000905b828210156108f457838290600052602060002001805461086790614c92565b80601f016020809104026020016040519081016040528092919081815260200182805461089390614c92565b80156108e05780601f106108b5576101008083540402835291602001916108e0565b820191906000526020600020905b8154815290600101906020018083116108c357829003601f168201915b505050505081526020019060010190610848565b5050505090509c509c509c509c509c509c509c509c509c509c509c509c505061092d565b808061092390614bc2565b9150506104a9565b505b91939597999b5091939597999b565b600060405180608001604052806042815260200161559460429139905060006040518060400160405280600381526020017f312d3100000000000000000000000000000000000000000000000000000000008152509050600060016109f96109d9846040518060400160405280600181526020017f2d0000000000000000000000000000000000000000000000000000000000000081525061388c565b6000815181106109ec576109eb614b04565b5b6020026020010151613a53565b610a039190614cc3565b905060006001610a6b610a4b856040518060400160405280600181526020017f2d0000000000000000000000000000000000000000000000000000000000000081525061388c565b600181518110610a5e57610a5d614b04565b5b6020026020010151613a53565b610a759190614cc3565b9050600081600284610a879190614cf7565b610a919190614d39565b90506000600282610aa29190614d6d565b14610b2457600086600081518110610abd57610abc614b04565b5b6020026020010151905086600181518110610adb57610ada614b04565b5b602002602001015187600081518110610af757610af6614b04565b5b60200260200101819052508087600181518110610b1757610b16614b04565b5b6020026020010181905250505b600086600081518110610b3a57610b39614b04565b5b602002602001015190506000600190505b8751811015610bdd5760008290506000898381518110610b6e57610b6d614b04565b5b6020026020010151905060008282604051602001610b8d929190614dda565b60405160208183030381529060405280519060200120905080604051602001610bb69190614e1f565b60405160208183030381529060405294505050508080610bd590614e3a565b915050610b4b565b50600081905086604051602001610bf49190614e82565b6040516020818303038152906040528051906020012082604051602001610c1b9190614e82565b6040516020818303038152906040528051906020012003610c72577f5a5836d0d8e0897e1db302b338eb659257b9a89ebd7ebf318c2ee55e5fd3778433604051610c659190614e99565b60405180910390a1610caa565b7f9709744f7c7359edb2e10790a4a8501b0bb5fcec380968177c7a3e91249d52d833604051610ca19190614e99565b60405180910390a15b5050505050505050565b60008181548110610cc457600080fd5b90600052602060002090600c02016000915090508060000154908060010154908060020154908060030160009054906101000a900473ffffffffffffffffffffffffffffffffffffffff16908060040160009054906101000a900473ffffffffffffffffffffffffffffffffffffffff16908060050154908060060154908060070160009054906101000a900460ff169080600801549080600901549080600a018054610d7090614c92565b80601f0160208091040260200160405190810160405280929190818152602001828054610d9c90614c92565b8015610de95780601f10610dbe57610100808354040283529160200191610de9565b820191906000526020600020905b815481529060010190602001808311610dcc57829003601f168201915b505050505090508b565b600080600090505b6000805490508160ff161015610e7e578260008260ff1681548110610e2357610e22614b04565b5b90600052602060002090600c02016000015403610e6b5760008160ff1681548110610e5157610e50614b04565b5b90600052602060002090600c020160050154915050610e80565b8080610e7690614bc2565b915050610dfb565b505b919050565b60007f44dd0d62c6c7740ddac5ee28c9cb8d9b56ce2184f15bae4b4e26352cc8818ba960001b905060006040518060400160405280600381526020017f312d310000000000000000000000000000000000000000000000000000000000815250905060006001610f4d610f2d846040518060400160405280600181526020017f2d0000000000000000000000000000000000000000000000000000000000000081525061388c565b600081518110610f4057610f3f614b04565b5b6020026020010151613a53565b610f579190614cc3565b905060006001610fbf610f9f856040518060400160405280600181526020017f2d0000000000000000000000000000000000000000000000000000000000000081525061388c565b600181518110610fb257610fb1614b04565b5b6020026020010151613a53565b610fc99190614cc3565b9050600081600284610fdb9190614cf7565b610fe59190614d39565b90506000600282610ff69190614d6d565b1461107a5760008660008151811061101157611010614b04565b5b602002602001015190508660018151811061102f5761102e614b04565b5b60200260200101518760008151811061104b5761104a614b04565b5b602002602001018181525050808760018151811061106c5761106b614b04565b5b602002602001018181525050505b6000866000815181106110905761108f614b04565b5b602002602001015190506000600190505b875181101561111457600082905060008983815181106110c4576110c3614b04565b5b60200260200101519050600082826040516020016110e3929190614eb4565b604051602081830303815290604052805190602001209050809450505050808061110c90614e3a565b9150506110a1565b50600081905086820361115d577f5a5836d0d8e0897e1db302b338eb659257b9a89ebd7ebf318c2ee55e5fd37784336040516111509190614e99565b60405180910390a1611195565b7f9709744f7c7359edb2e10790a4a8501b0bb5fcec380968177c7a3e91249d52d83360405161118c9190614e99565b60405180910390a15b5050505050505050565b565b60006040518060400160405280600481526020017f6369616f00000000000000000000000000000000000000000000000000000000815250905060006040518060400160405280600581526020017f6d6f6e646f000000000000000000000000000000000000000000000000000000815250905060006040518060400160405280600981526020017f6369616f6d6f6e646f000000000000000000000000000000000000000000000081525090506000808484604051602001611265929190614dda565b60405160208183030381529060405290506000858560405160200161128b929190614f1c565b60405160208183030381529060405290506000846040516020016112af9190614aa2565b604051602081830303815290604052905086866040516020016112d3929190614dda565b6040516020818303038152906040528051906020012093506000846040516020016112fe9190614e1f565b6040516020818303038152906040528051906020012090506000846040516020016113299190614e82565b6040516020818303038152906040528051906020012090506000846040516020016113549190614e82565b60405160208183030381529060405280519060200120905060008860405160200161137f9190614e82565b60405160208183030381529060405280519060200120905060006040518060800160405280604281526020016155d6604291399050600060405180608001604052806042815260200161561860429139905060008d8d6040516020016113e6929190614dda565b6040516020818303038152906040528051906020012090506000816040516020016114119190614e1f565b604051602081830303815290604052905060008c90507f9709744f7c7359edb2e10790a4a8501b0bb5fcec380968177c7a3e91249d52d8336040516114569190614e99565b60405180910390a150505050505050505050505050505050565b60008067ffffffffffffffff81111561148c5761148b613f81565b5b6040519080825280602002602001820160405280156114bf57816020015b60608152602001906001900390816114aa5790505b50905060006040518061018001604052807f290decd9548b62a8d60345a988386fc84ba6bc95484008f6362f93160ef3e56360001b8152602001600281526020016001815260200173178f83e62e51b08efaffc83c2080245d74d9732973ffffffffffffffffffffffffffffffffffffffff168152602001739889dfd1c101db6d13f19e207c2b8195d4f4a03973ffffffffffffffffffffffffffffffffffffffff16815260200160018152602001600281526020016001151581526020017fb2bb9cb255eaac58d9238122788ddcb76b8380e3945fe63bea077afc14366f6d60001b81526020017fbecf782b589e98afc6be94679a4055c320524da7dbe57f1eb482b4c81ab342f060001b81526020016040518060400160405280600381526020017f322d31000000000000000000000000000000000000000000000000000000000081525081526020018381525090806001815401808255809150506001900390600052602060002090600c020160009091909190915060008201518160000155602082015181600101556040820151816002015560608201518160030160006101000a81548173ffffffffffffffffffffffffffffffffffffffff021916908373ffffffffffffffffffffffffffffffffffffffff16021790555060808201518160040160006101000a81548173ffffffffffffffffffffffffffffffffffffffff021916908373ffffffffffffffffffffffffffffffffffffffff16021790555060a0820151816005015560c0820151816006015560e08201518160070160006101000a81548160ff0219169083151502179055506101008201518160080155610120820151816009015561014082015181600a01908161174491906150ec565b5061016082015181600b019080519060200190611762929190613aeb565b50505060005b6000805490508160ff1610156124cb578460008260ff16815481106117905761178f614b04565b5b90600052602060002090600c020160000154036124b85760003373ffffffffffffffffffffffffffffffffffffffff1660008360ff16815481106117d7576117d6614b04565b5b90600052602060002090600c020160030160009054906101000a900473ffffffffffffffffffffffffffffffffffffffff1673ffffffffffffffffffffffffffffffffffffffff16036118545760008260ff168154811061183b5761183a614b04565b5b90600052602060002090600c0201600801549050611880565b60008260ff168154811061186b5761186a614b04565b5b90600052602060002090600c02016009015490505b7f8e00f33d99a09497eef3bc03747536039692821e181c056082eec3a39972387460001b9050600060016119bc61199c60008660ff16815481106118c7576118c6614b04565b5b90600052602060002090600c0201600a0180546118e390614c92565b80601f016020809104026020016040519081016040528092919081815260200182805461190f90614c92565b801561195c5780601f106119315761010080835404028352916020019161195c565b820191906000526020600020905b81548152906001019060200180831161193f57829003601f168201915b50505050506040518060400160405280600181526020017f2d0000000000000000000000000000000000000000000000000000000000000081525061388c565b6000815181106119af576119ae614b04565b5b6020026020010151613a53565b6119c69190614cc3565b905060006001611ade611abe60008760ff16815481106119e9576119e8614b04565b5b90600052602060002090600c0201600a018054611a0590614c92565b80601f0160208091040260200160405190810160405280929190818152602001828054611a3190614c92565b8015611a7e5780601f10611a5357610100808354040283529160200191611a7e565b820191906000526020600020905b815481529060010190602001808311611a6157829003601f168201915b50505050506040518060400160405280600181526020017f2d0000000000000000000000000000000000000000000000000000000000000081525061388c565b600081518110611ad157611ad0614b04565b5b6020026020010151613a53565b611ae89190614cc3565b905060008160008660ff1681548110611b0457611b03614b04565b5b90600052602060002090600c02016001015484611b219190614cf7565b611b2b9190614d39565b90506000600282611b3c9190614d6d565b14611bc057600088600081518110611b5757611b56614b04565b5b6020026020010151905088600181518110611b7557611b74614b04565b5b602002602001015189600081518110611b9157611b90614b04565b5b6020026020010181815250508089600181518110611bb257611bb1614b04565b5b602002602001018181525050505b600088600081518110611bd657611bd5614b04565b5b602002602001015190506000600190505b8951811015611c8f576000604067ffffffffffffffff811115611c0d57611c0c613f81565b5b6040519080825280601f01601f191660200182016040528015611c3f5781602001600182028036833780820191505090505b509050600083905060008c8481518110611c5c57611c5b614b04565b5b60200260200101519050816020840152806040840152604060002094505050508080611c8790614e3a565b915050611be7565b5084810361247557600088611cd9576040518060400160405280600281526020017f2d30000000000000000000000000000000000000000000000000000000000000815250611d10565b6040518060400160405280600281526020017f2d310000000000000000000000000000000000000000000000000000000000008152505b905060008760ff1681548110611d2957611d28614b04565b5b90600052602060002090600c0201600b0160008860ff1681548110611d5157611d50614b04565b5b90600052602060002090600c0201600a0182604051602001611d74929190615241565b604051602081830303815290604052908060018154018082558091505060019003906000526020600020016000909190919091509081611db491906150ec565b5060008760ff1681548110611dcc57611dcb614b04565b5b90600052602060002090600c0201600b0160008860ff1681548110611df457611df3614b04565b5b90600052602060002090600c0201600a0182604051602001611e17929190615241565b604051602081830303815290604052908060018154018082558091505060019003906000526020600020016000909190919091509081611e5791906150ec565b5060008760ff1681548110611e6f57611e6e614b04565b5b90600052602060002090600c0201600b0160008860ff1681548110611e9757611e96614b04565b5b90600052602060002090600c0201600a0182604051602001611eba929190615241565b604051602081830303815290604052908060018154018082558091505060019003906000526020600020016000909190919091509081611efa91906150ec565b506121ac60008860ff1681548110611f1557611f14614b04565b5b90600052602060002090600c0201604051806101800160405290816000820154815260200160018201548152602001600282015481526020016003820160009054906101000a900473ffffffffffffffffffffffffffffffffffffffff1673ffffffffffffffffffffffffffffffffffffffff1673ffffffffffffffffffffffffffffffffffffffff1681526020016004820160009054906101000a900473ffffffffffffffffffffffffffffffffffffffff1673ffffffffffffffffffffffffffffffffffffffff1673ffffffffffffffffffffffffffffffffffffffff16815260200160058201548152602001600682015481526020016007820160009054906101000a900460ff161515151581526020016008820154815260200160098201548152602001600a8201805461204c90614c92565b80601f016020809104026020016040519081016040528092919081815260200182805461207890614c92565b80156120c55780601f1061209a576101008083540402835291602001916120c5565b820191906000526020600020905b8154815290600101906020018083116120a857829003601f168201915b50505050508152602001600b8201805480602002602001604051908101604052809291908181526020016000905b8282101561219f57838290600052602060002001805461211290614c92565b80601f016020809104026020016040519081016040528092919081815260200182805461213e90614c92565b801561218b5780601f106121605761010080835404028352916020019161218b565b820191906000526020600020905b81548152906001019060200180831161216e57829003601f168201915b5050505050815260200190600101906120f3565b50505050815250506124d3565b156121ed577fc7e0345890e3d3863c7f66518e8fe24252b162afe06faf9b20c50ac5d774fdfa336040516121e09190614e99565b60405180910390a16122e5565b7fbac0d2f1d5b86b0ca75625d37a148747faa00f4de41c5c586f79880e455c2dc53360405161221c9190614e99565b60405180910390a160008760ff168154811061223b5761223a614b04565b5b90600052602060002090600c020160070160009054906101000a900460ff166122a357600160008860ff168154811061227757612276614b04565b5b90600052602060002090600c020160070160006101000a81548160ff02191690831515021790556122e3565b6000808860ff16815481106122bb576122ba614b04565b5b90600052602060002090600c020160070160006101000a81548160ff02191690831515021790555b505b60008760ff16815481106122fc576122fb614b04565b5b90600052602060002090600c020160030160009054906101000a900473ffffffffffffffffffffffffffffffffffffffff1673ffffffffffffffffffffffffffffffffffffffff163373ffffffffffffffffffffffffffffffffffffffff16036123e6577f7b3bdc52098da181a16c06856d18bf7aa4934b17361c00f6600374dde6f1872a60008860ff168154811061239857612397614b04565b5b90600052602060002090600c020160040160009054906101000a900473ffffffffffffffffffffffffffffffffffffffff168a6040516123d9929190615265565b60405180910390a1612468565b7f7b3bdc52098da181a16c06856d18bf7aa4934b17361c00f6600374dde6f1872a60008860ff168154811061241e5761241d614b04565b5b90600052602060002090600c020160030160009054906101000a900473ffffffffffffffffffffffffffffffffffffffff168a60405161245f929190615265565b60405180910390a15b50505050505050506124ce565b7f9709744f7c7359edb2e10790a4a8501b0bb5fcec380968177c7a3e91249d52d8336040516124a49190614e99565b60405180910390a1505050505050506124ce565b80806124c390614bc2565b915050611768565b50505b505050565b600080600283604001516124e79190614cf7565b905060008360e00151156125c35760005b846101600151518110156125bd57846101600151518110156125a9576000612574866101600151838151811061253157612530614b04565b5b60200260200101516040518060400160405280600181526020017f2d0000000000000000000000000000000000000000000000000000000000000081525061388c565b905061259a8160028151811061258d5761258c614b04565b5b6020026020010151613a53565b836125a59190614d39565b9250505b6002816125b69190614d39565b90506124f8565b50612691565b6000600190505b8461016001515181101561268f578461016001515181101561267b576000612646866101600151838151811061260357612602614b04565b5b60200260200101516040518060400160405280600181526020017f2d0000000000000000000000000000000000000000000000000000000000000081525061388c565b905061266c8160028151811061265f5761265e614b04565b5b6020026020010151613a53565b836126779190614d39565b9250505b6002816126889190614d39565b90506125ca565b505b8181036126a3576001925050506126aa565b6000925050505b919050565b6000801b831461289a5760005b6000805490508160ff161015612898578360008260ff16815481106126e4576126e3614b04565b5b90600052602060002090600c0201600001540361288557600073ffffffffffffffffffffffffffffffffffffffff1660008260ff168154811061272a57612729614b04565b5b90600052602060002090600c020160040160009054906101000a900473ffffffffffffffffffffffffffffffffffffffff1673ffffffffffffffffffffffffffffffffffffffff1603612845573360008260ff168154811061278f5761278e614b04565b5b90600052602060002090600c020160040160006101000a81548173ffffffffffffffffffffffffffffffffffffffff021916908373ffffffffffffffffffffffffffffffffffffffff1602179055507f24e3120dee1a7172611f0ca41434f8041a1ed6c9f69a04417e48a62dc92979fc3360008360ff168154811061281757612816614b04565b5b90600052602060002090600c02016000015460405161283792919061528e565b60405180910390a150612d59565b7f24e3120dee1a7172611f0ca41434f8041a1ed6c9f69a04417e48a62dc92979fc3360006040516128779291906152ff565b60405180910390a150612d59565b808061289090614bc2565b9150506126bc565b505b8115612bad57600080805490506040516020016128b79190615328565b60405160208183030381529060405280519060200120905060008067ffffffffffffffff8111156128eb576128ea613f81565b5b60405190808252806020026020018201604052801561291e57816020015b60608152602001906001900390816129095790505b50905060006040518061018001604052808481526020018560018151811061294957612948614b04565b5b602002602001015160ff1681526020018560008151811061296d5761296c614b04565b5b602002602001015160ff1681526020013373ffffffffffffffffffffffffffffffffffffffff168152602001600073ffffffffffffffffffffffffffffffffffffffff1681526020017fffffffffffffffffffffffffffffffffffffffffffffffffffffffffffffffff8152602001600081526020016001151581526020016000801b81526020016000801b81526020016040518060200160405280600081525081526020018381525090806001815401808255809150506001900390600052602060002090600c020160009091909190915060008201518160000155602082015181600101556040820151816002015560608201518160030160006101000a81548173ffffffffffffffffffffffffffffffffffffffff021916908373ffffffffffffffffffffffffffffffffffffffff16021790555060808201518160040160006101000a81548173ffffffffffffffffffffffffffffffffffffffff021916908373ffffffffffffffffffffffffffffffffffffffff16021790555060a0820151816005015560c0820151816006015560e08201518160070160006101000a81548160ff0219169083151502179055506101008201518160080155610120820151816009015561014082015181600a019081612b4c91906150ec565b5061016082015181600b019080519060200190612b6a929190613aeb565b5050507f24e3120dee1a7172611f0ca41434f8041a1ed6c9f69a04417e48a62dc92979fc3383604051612b9e92919061528e565b60405180910390a15050612d59565b60005b6000805490508160ff161015612d1d57600073ffffffffffffffffffffffffffffffffffffffff1660008260ff1681548110612bef57612bee614b04565b5b90600052602060002090600c020160040160009054906101000a900473ffffffffffffffffffffffffffffffffffffffff1673ffffffffffffffffffffffffffffffffffffffff1614612d0a573360008260ff1681548110612c5457612c53614b04565b5b90600052602060002090600c020160040160006101000a81548173ffffffffffffffffffffffffffffffffffffffff021916908373ffffffffffffffffffffffffffffffffffffffff1602179055507f24e3120dee1a7172611f0ca41434f8041a1ed6c9f69a04417e48a62dc92979fc3360008360ff1681548110612cdc57612cdb614b04565b5b90600052602060002090600c020160000154604051612cfc92919061528e565b60405180910390a150612d59565b8080612d1590614bc2565b915050612bb0565b507f24e3120dee1a7172611f0ca41434f8041a1ed6c9f69a04417e48a62dc92979fc336000604051612d509291906152ff565b60405180910390a15b505050565b60005b6000805490508160ff1610156130a6578360008260ff1681548110612d8957612d88614b04565b5b90600052602060002090600c02016000015403613093573373ffffffffffffffffffffffffffffffffffffffff1660008260ff1681548110612dce57612dcd614b04565b5b90600052602060002090600c020160030160009054906101000a900473ffffffffffffffffffffffffffffffffffffffff1673ffffffffffffffffffffffffffffffffffffffff16148015612e55575060008160ff1681548110612e3557612e34614b04565b5b90600052602060002090600c020160070160009054906101000a900460ff165b15612f1a57828260008360ff1681548110612e7357612e72614b04565b5b90600052602060002090600c0201600a019182612e9192919061534e565b507f9896a41f3ec53837e18850fc683491a3edd592acbd543159a73aae26e3e64b2860008260ff1681548110612eca57612ec9614b04565b5b90600052602060002090600c020160040160009054906101000a900473ffffffffffffffffffffffffffffffffffffffff168484604051612f0d9392919061544b565b60405180910390a1613092565b3373ffffffffffffffffffffffffffffffffffffffff1660008260ff1681548110612f4857612f47614b04565b5b90600052602060002090600c020160030160009054906101000a900473ffffffffffffffffffffffffffffffffffffffff1673ffffffffffffffffffffffffffffffffffffffff16148015612fd0575060008160ff1681548110612faf57612fae614b04565b5b90600052602060002090600c020160070160009054906101000a900460ff16155b1561309157828260008360ff1681548110612fee57612fed614b04565b5b90600052602060002090600c0201600a01918261300c92919061534e565b507f9896a41f3ec53837e18850fc683491a3edd592acbd543159a73aae26e3e64b2860008260ff168154811061304557613044614b04565b5b90600052602060002090600c020160030160009054906101000a900473ffffffffffffffffffffffffffffffffffffffff1684846040516130889392919061544b565b60405180910390a15b5b5b808061309e90614bc2565b915050612d61565b50505050565b600080600160f81b905060005b6000805490508160ff1610156132c2578460008260ff16815481106130e1576130e0614b04565b5b90600052602060002090600c020160000154036132af576000805b60008360ff168154811061311357613112614b04565b5b90600052602060002090600c0201600101548110156132325760005b60008460ff168154811061314657613145614b04565b5b90600052602060002090600c02016001015481101561321e57847effffffffffffffffffffffffffffffffffffffffffffffffffffffffffffff191687838151811061319557613194614b04565b5b602002602001015182815181106131af576131ae614b04565b5b60200260200101516000815181106131ca576131c9614b04565b5b602001015160f81c60f81b7effffffffffffffffffffffffffffffffffffffffffffffffffffffffffffff19160361320b57828061320790614bc2565b9350505b808061321690614e3a565b91505061312f565b50808061322a90614e3a565b9150506130fc565b5060008260ff168154811061324a57613249614b04565b5b90600052602060002090600c0201600201548160ff16036132ad573373ffffffffffffffffffffffffffffffffffffffff166108fc479081150290604051600060405180830381858888f193505050501580156132ab573d6000803e3d6000fd5b505b505b80806132ba90614bc2565b9150506130b9565b505092915050565b60005b6000805490508160ff161015613579578260008260ff16815481106132f5576132f4614b04565b5b90600052602060002090600c02016000015403613566576000808260ff168154811061332457613323614b04565b5b90600052602060002090600c02016005015412156134f2578160008260ff168154811061335457613353614b04565b5b90600052602060002090600c0201600501819055503373ffffffffffffffffffffffffffffffffffffffff1660008260ff168154811061339757613396614b04565b5b90600052602060002090600c020160030160009054906101000a900473ffffffffffffffffffffffffffffffffffffffff1673ffffffffffffffffffffffffffffffffffffffff160361346a577f8baeb50b886fb168a371117c6cb88337a25606fe162d778425bd068ef9d25da560008260ff168154811061341c5761341b614b04565b5b90600052602060002090600c020160040160009054906101000a900473ffffffffffffffffffffffffffffffffffffffff168360405161345d92919061547d565b60405180910390a16134ec565b7f8baeb50b886fb168a371117c6cb88337a25606fe162d778425bd068ef9d25da560008260ff16815481106134a2576134a1614b04565b5b90600052602060002090600c020160040160009054906101000a900473ffffffffffffffffffffffffffffffffffffffff16836040516134e392919061547d565b60405180910390a15b5061357b565b8160008260ff168154811061350a57613509614b04565b5b90600052602060002090600c020160050154036135605760028261352e91906154a6565b60008260ff168154811061354557613544614b04565b5b90600052602060002090600c0201600601819055505061357b565b5061357b565b808061357190614bc2565b9150506132cd565b505b5050565b606060005b6000805490508160ff16101561368f578260008260ff16815481106135ac576135ab614b04565b5b90600052602060002090600c0201600001540361367c5760008160ff16815481106135da576135d9614b04565b5b90600052602060002090600c0201600a0180546135f690614c92565b80601f016020809104026020016040519081016040528092919081815260200182805461362290614c92565b801561366f5780601f106136445761010080835404028352916020019161366f565b820191906000526020600020905b81548152906001019060200180831161365257829003601f168201915b5050505050915050613691565b808061368790614bc2565b915050613584565b505b919050565b60005b6000805490508160ff161015613887578260008260ff16815481106136c1576136c0614b04565b5b90600052602060002090600c02016000015403613874573373ffffffffffffffffffffffffffffffffffffffff1660008260ff168154811061370657613705614b04565b5b90600052602060002090600c020160030160009054906101000a900473ffffffffffffffffffffffffffffffffffffffff1673ffffffffffffffffffffffffffffffffffffffff1603613785578160008260ff168154811061376b5761376a614b04565b5b90600052602060002090600c0201600801819055506137b3565b8160008260ff168154811061379d5761379c614b04565b5b90600052602060002090600c0201600901819055505b600160008260ff16815481106137cc576137cb614b04565b5b90600052602060002090600c020160070160006101000a81548160ff0219169083151502179055507fbac0d2f1d5b86b0ca75625d37a148747faa00f4de41c5c586f79880e455c2dc560008260ff168154811061382c5761382b614b04565b5b90600052602060002090600c020160030160009054906101000a900473ffffffffffffffffffffffffffffffffffffffff1660405161386b9190614e99565b60405180910390a15b808061387f90614bc2565b915050613699565b505050565b606060006040518060200160405280600081525090506000808590506000865167ffffffffffffffff8111156138c5576138c4613f81565b5b6040519080825280602002602001820160405280156138f857816020015b60608152602001906001900390816138e35790505b50905060005b8251811015613a26578660008151811061391b5761391a614b04565b5b602001015160f81c60f81b7effffffffffffffffffffffffffffffffffffffffffffffffffffffffffffff191683828151811061395b5761395a614b04565b5b602001015160f81c60f81b7effffffffffffffffffffffffffffffffffffffffffffffffffffffffffffff1916036139d157848285815181106139a1576139a0614b04565b5b602002602001018190525060405180602001604052806000815250945083806139c990614e3a565b945050613a13565b848882815181106139e5576139e4614b04565b5b602001015160f81c60f81b604051602001613a0192919061556b565b60405160208183030381529060405294505b8080613a1e90614e3a565b9150506138fe565b5083818481518110613a3b57613a3a614b04565b5b60200260200101819052508094505050505092915050565b6000808290506000805b8251811015613ae0576000838281518110613a7b57613a7a614b04565b5b602001015160f81c60f81b60f81c60ff16905060308110158015613aa0575060398111155b15613acc57603081613ab29190614cc3565b600a84613abf9190614cf7565b613ac99190614d39565b92505b508080613ad890614e3a565b915050613a5d565b508092505050919050565b828054828255906000526020600020908101928215613b33579160200282015b82811115613b32578251829081613b2291906150ec565b5091602001919060010190613b0b565b5b509050613b409190613b44565b5090565b5b80821115613b645760008181613b5b9190613b68565b50600101613b45565b5090565b508054613b7490614c92565b6000825580601f10613b865750613ba5565b601f016020900490600052602060002090810190613ba49190613ba8565b5b50565b5b80821115613bc1576000816000905550600101613ba9565b5090565b6000604051905090565b600080fd5b600080fd5b6000819050919050565b613bec81613bd9565b8114613bf757600080fd5b50565b600081359050613c0981613be3565b92915050565b600060208284031215613c2557613c24613bcf565b5b6000613c3384828501613bfa565b91505092915050565b613c4581613bd9565b82525050565b600081519050919050565b600082825260208201905092915050565b60005b83811015613c85578082015181840152602081019050613c6a565b60008484015250505050565b6000601f19601f8301169050919050565b6000613cad82613c4b565b613cb78185613c56565b9350613cc7818560208601613c67565b613cd081613c91565b840191505092915050565b600073ffffffffffffffffffffffffffffffffffffffff82169050919050565b6000613d0682613cdb565b9050919050565b613d1681613cfb565b82525050565b60008115159050919050565b613d3181613d1c565b82525050565b600081519050919050565b600082825260208201905092915050565b6000613d5e82613d37565b613d688185613d42565b9350613d78818560208601613c67565b613d8181613c91565b840191505092915050565b600081519050919050565b600082825260208201905092915050565b6000819050602082019050919050565b600082825260208201905092915050565b6000613dd482613d37565b613dde8185613db8565b9350613dee818560208601613c67565b613df781613c91565b840191505092915050565b6000613e0e8383613dc9565b905092915050565b6000602082019050919050565b6000613e2e82613d8c565b613e388185613d97565b935083602082028501613e4a85613da8565b8060005b85811015613e865784840389528151613e678582613e02565b9450613e7283613e16565b925060208a01995050600181019050613e4e565b50829750879550505050505092915050565b600061018082019050613eae600083018f613c3c565b8181036020830152613ec0818e613ca2565b90508181036040830152613ed4818d613ca2565b9050613ee3606083018c613d0d565b613ef0608083018b613d0d565b81810360a0830152613f02818a613ca2565b905081810360c0830152613f168189613ca2565b9050613f2560e0830188613d28565b613f33610100830187613c3c565b613f41610120830186613c3c565b818103610140830152613f548185613d53565b9050818103610160830152613f698184613e23565b90509d9c50505050505050505050505050565b600080fd5b7f4e487b7100000000000000000000000000000000000000000000000000000000600052604160045260246000fd5b613fb982613c91565b810181811067ffffffffffffffff82111715613fd857613fd7613f81565b5b80604052505050565b6000613feb613bc5565b9050613ff78282613fb0565b919050565b600067ffffffffffffffff82111561401757614016613f81565b5b602082029050602081019050919050565b600080fd5b600080fd5b600067ffffffffffffffff82111561404d5761404c613f81565b5b61405682613c91565b9050602081019050919050565b82818337600083830152505050565b600061408561408084614032565b613fe1565b9050828152602081018484840111156140a1576140a061402d565b5b6140ac848285614063565b509392505050565b600082601f8301126140c9576140c8613f7c565b5b81356140d9848260208601614072565b91505092915050565b60006140f56140f084613ffc565b613fe1565b9050808382526020820190506020840283018581111561411857614117614028565b5b835b8181101561415f57803567ffffffffffffffff81111561413d5761413c613f7c565b5b80860161414a89826140b4565b8552602085019450505060208101905061411a565b5050509392505050565b600082601f83011261417e5761417d613f7c565b5b813561418e8482602086016140e2565b91505092915050565b6000602082840312156141ad576141ac613bcf565b5b600082013567ffffffffffffffff8111156141cb576141ca613bd4565b5b6141d784828501614169565b91505092915050565b6000819050919050565b6141f3816141e0565b81146141fe57600080fd5b50565b600081359050614210816141ea565b92915050565b60006020828403121561422c5761422b613bcf565b5b600061423a84828501614201565b91505092915050565b61424c816141e0565b82525050565b6000819050919050565b61426581614252565b82525050565b600061016082019050614281600083018e613c3c565b61428e602083018d614243565b61429b604083018c614243565b6142a8606083018b613d0d565b6142b5608083018a613d0d565b6142c260a083018961425c565b6142cf60c083018861425c565b6142dc60e0830187613d28565b6142ea610100830186613c3c565b6142f8610120830185613c3c565b81810361014083015261430b8184613d53565b90509c9b505050505050505050505050565b6000602082019050614332600083018461425c565b92915050565b600067ffffffffffffffff82111561435357614352613f81565b5b602082029050602081019050919050565b600061437761437284614338565b613fe1565b9050808382526020820190506020840283018581111561439a57614399614028565b5b835b818110156143c357806143af8882613bfa565b84526020840193505060208101905061439c565b5050509392505050565b600082601f8301126143e2576143e1613f7c565b5b81356143f2848260208601614364565b91505092915050565b60006020828403121561441157614410613bcf565b5b600082013567ffffffffffffffff81111561442f5761442e613bd4565b5b61443b848285016143cd565b91505092915050565b61444d81613d1c565b811461445857600080fd5b50565b60008135905061446a81614444565b92915050565b60008060006060848603121561448957614488613bcf565b5b600061449786828701613bfa565b935050602084013567ffffffffffffffff8111156144b8576144b7613bd4565b5b6144c4868287016143cd565b92505060406144d58682870161445b565b9150509250925092565b600080fd5b600080fd5b6144f281613cfb565b81146144fd57600080fd5b50565b60008135905061450f816144e9565b92915050565b61451e81614252565b811461452957600080fd5b50565b60008135905061453b81614515565b92915050565b60006101808284031215614558576145576144df565b5b614563610180613fe1565b9050600061457384828501613bfa565b600083015250602061458784828501614201565b602083015250604061459b84828501614201565b60408301525060606145af84828501614500565b60608301525060806145c384828501614500565b60808301525060a06145d78482850161452c565b60a08301525060c06145eb8482850161452c565b60c08301525060e06145ff8482850161445b565b60e08301525061010061461484828501613bfa565b6101008301525061012061462a84828501613bfa565b6101208301525061014082013567ffffffffffffffff8111156146505761464f6144e4565b5b61465c848285016140b4565b6101408301525061016082013567ffffffffffffffff811115614682576146816144e4565b5b61468e84828501614169565b6101608301525092915050565b6000602082840312156146b1576146b0613bcf565b5b600082013567ffffffffffffffff8111156146cf576146ce613bd4565b5b6146db84828501614541565b91505092915050565b60006020820190506146f96000830184613d28565b92915050565b600067ffffffffffffffff82111561471a57614719613f81565b5b602082029050602081019050919050565b600060ff82169050919050565b6147418161472b565b811461474c57600080fd5b50565b60008135905061475e81614738565b92915050565b6000614777614772846146ff565b613fe1565b9050808382526020820190506020840283018581111561479a57614799614028565b5b835b818110156147c357806147af888261474f565b84526020840193505060208101905061479c565b5050509392505050565b600082601f8301126147e2576147e1613f7c565b5b81356147f2848260208601614764565b91505092915050565b60008060006060848603121561481457614813613bcf565b5b600061482286828701613bfa565b93505060206148338682870161445b565b925050604084013567ffffffffffffffff81111561485457614853613bd4565b5b614860868287016147cd565b9150509250925092565b600080fd5b60008083601f84011261488557614884613f7c565b5b8235905067ffffffffffffffff8111156148a2576148a161486a565b5b6020830191508360018202830111156148be576148bd614028565b5b9250929050565b6000806000604084860312156148de576148dd613bcf565b5b60006148ec86828701613bfa565b935050602084013567ffffffffffffffff81111561490d5761490c613bd4565b5b6149198682870161486f565b92509250509250925092565b600067ffffffffffffffff8211156149405761493f613f81565b5b602082029050602081019050919050565b600061496461495f84614925565b613fe1565b9050808382526020820190506020840283018581111561498757614986614028565b5b835b818110156149ce57803567ffffffffffffffff8111156149ac576149ab613f7c565b5b8086016149b98982614169565b85526020850194505050602081019050614989565b5050509392505050565b600082601f8301126149ed576149ec613f7c565b5b81356149fd848260208601614951565b91505092915050565b60008060408385031215614a1d57614a1c613bcf565b5b6000614a2b85828601613bfa565b925050602083013567ffffffffffffffff811115614a4c57614a4b613bd4565b5b614a58858286016149d8565b9150509250929050565b60008060408385031215614a7957614a78613bcf565b5b6000614a8785828601613bfa565b9250506020614a988582860161452c565b9150509250929050565b60006020820190508181036000830152614abc8184613d53565b905092915050565b60008060408385031215614adb57614ada613bcf565b5b6000614ae985828601613bfa565b9250506020614afa85828601613bfa565b9150509250929050565b7f4e487b7100000000000000000000000000000000000000000000000000000000600052603260045260246000fd5b7f4e487b7100000000000000000000000000000000000000000000000000000000600052601260045260246000fd5b7f4e487b7100000000000000000000000000000000000000000000000000000000600052601160045260246000fd5b6000614b9c826141e0565b9150614ba7836141e0565b925082614bb757614bb6614b33565b5b828204905092915050565b6000614bcd8261472b565b915060ff8203614be057614bdf614b62565b5b600182019050919050565b6000819050919050565b614c06614c01826141e0565b614beb565b82525050565b6000614c188284614bf5565b60208201915081905092915050565b6000819050919050565b614c42614c3d82614252565b614c27565b82525050565b6000614c548284614c31565b60208201915081905092915050565b7f4e487b7100000000000000000000000000000000000000000000000000000000600052602260045260246000fd5b60006002820490506001821680614caa57607f821691505b602082108103614cbd57614cbc614c63565b5b50919050565b6000614cce826141e0565b9150614cd9836141e0565b9250828203905081811115614cf157614cf0614b62565b5b92915050565b6000614d02826141e0565b9150614d0d836141e0565b9250828202614d1b816141e0565b91508282048414831517614d3257614d31614b62565b5b5092915050565b6000614d44826141e0565b9150614d4f836141e0565b9250828201905080821115614d6757614d66614b62565b5b92915050565b6000614d78826141e0565b9150614d83836141e0565b925082614d9357614d92614b33565b5b828206905092915050565b600081905092915050565b6000614db482613d37565b614dbe8185614d9e565b9350614dce818560208601613c67565b80840191505092915050565b6000614de68285614da9565b9150614df28284614da9565b91508190509392505050565b6000819050919050565b614e19614e1482613bd9565b614dfe565b82525050565b6000614e2b8284614e08565b60208201915081905092915050565b6000614e45826141e0565b91507fffffffffffffffffffffffffffffffffffffffffffffffffffffffffffffffff8203614e7757614e76614b62565b5b600182019050919050565b6000614e8e8284614da9565b915081905092915050565b6000602082019050614eae6000830184613d0d565b92915050565b6000614ec08285614e08565b602082019150614ed08284614e08565b6020820191508190509392505050565b600081905092915050565b6000614ef682613c4b565b614f008185614ee0565b9350614f10818560208601613c67565b80840191505092915050565b6000614f288285614eeb565b9150614f348284614eeb565b91508190509392505050565b60008190508160005260206000209050919050565b60006020601f8301049050919050565b600082821b905092915050565b600060088302614fa27fffffffffffffffffffffffffffffffffffffffffffffffffffffffffffffffff82614f65565b614fac8683614f65565b95508019841693508086168417925050509392505050565b6000819050919050565b6000614fe9614fe4614fdf846141e0565b614fc4565b6141e0565b9050919050565b6000819050919050565b61500383614fce565b61501761500f82614ff0565b848454614f72565b825550505050565b600090565b61502c61501f565b615037818484614ffa565b505050565b5b8181101561505b57615050600082615024565b60018101905061503d565b5050565b601f8211156150a05761507181614f40565b61507a84614f55565b81016020851015615089578190505b61509d61509585614f55565b83018261503c565b50505b505050565b600082821c905092915050565b60006150c3600019846008026150a5565b1980831691505092915050565b60006150dc83836150b2565b9150826002028217905092915050565b6150f582613d37565b67ffffffffffffffff81111561510e5761510d613f81565b5b6151188254614c92565b61512382828561505f565b600060209050601f8311600181146151565760008415615144578287015190505b61514e85826150d0565b8655506151b6565b601f19841661516486614f40565b60005b8281101561518c57848901518255600182019150602085019450602081019050615167565b868310156151a957848901516151a5601f8916826150b2565b8355505b6001600288020188555050505b505050505050565b600081546151cb81614c92565b6151d58186614d9e565b945060018216600081146151f0576001811461520557615238565b60ff1983168652811515820286019350615238565b61520e85614f40565b60005b8381101561523057815481890152600182019150602081019050615211565b838801955050505b50505092915050565b600061524d82856151be565b91506152598284614da9565b91508190509392505050565b600060408201905061527a6000830185613d0d565b6152876020830184613d28565b9392505050565b60006040820190506152a36000830185613d0d565b6152b06020830184613c3c565b9392505050565b6000819050919050565b60008160001b9050919050565b60006152e96152e46152df846152b7565b6152c1565b613bd9565b9050919050565b6152f9816152ce565b82525050565b60006040820190506153146000830185613d0d565b61532160208301846152f0565b9392505050565b600060208201905061533d6000830184614243565b92915050565b600082905092915050565b6153588383615343565b67ffffffffffffffff81111561537157615370613f81565b5b61537b8254614c92565b61538682828561505f565b6000601f8311600181146153b557600084156153a3578287013590505b6153ad85826150d0565b865550615415565b601f1984166153c386614f40565b60005b828110156153eb578489013582556001820191506020850194506020810190506153c6565b868310156154085784890135615404601f8916826150b2565b8355505b6001600288020188555050505b50505050505050565b600061542a8385613d42565b9350615437838584614063565b61544083613c91565b840190509392505050565b60006040820190506154606000830186613d0d565b818103602083015261547381848661541e565b9050949350505050565b60006040820190506154926000830185613d0d565b61549f602083018461425c565b9392505050565b60006154b182614252565b91506154bc83614252565b92508282026154ca81614252565b91507f8000000000000000000000000000000000000000000000000000000000000000841460008412161561550257615501614b62565b5b828205841483151761551757615516614b62565b5b5092915050565b60007fff0000000000000000000000000000000000000000000000000000000000000082169050919050565b6000819050919050565b6155656155608261551e565b61554a565b82525050565b60006155778285614eeb565b91506155838284615554565b600182019150819050939250505056fe307830646366316266313031396262363962393563353263356330663861626161633836303935626364623632303262633135376362353864316561393233643733307830353331313466633335623365373164616130336364323965363065393263356631383532346633373666336138623939306262383466353032323931663439307834653832346266346566313062656566343639373061666633336366353534373964383065343465613666663566356439623832656333376134306539346662a26469706673582212207ef41bf121a4111ca05170443191090bd2f9a29e2ab57a92491e4f5ff9bbee3b64736f6c63430008130033",
  "immutableReferences": {},
  "source": "// SPDX-License-Identifier: MIT \npragma solidity >=0.8.2 <0.9.0;\npragma abicoder v2;\npragma experimental ABIEncoderV2;\n\ncontract Game {\n\n    struct GameMatch{\n        bytes32 gameId;\n        uint tableSize;\n        uint ships;\n        address p1; // also the creator\n        address p2;\n        int registration; // -1: not registered, otherwise the amount \n        int reward;\n        bool turn; // if true --> p1 have to play otherwise p2 \n        bytes32 b1; // hash of the board to proof merkle tree\n        bytes32 b2;\n        string lastMove; // last move played in the game [1-2][2-4][1-1][2-2] --> first x then y\n        string[] moves;     // l'array avr quindi le caselle pari per il p1 e disapari per il p2 e li metterai le mosse fatte in chiaro\n                            // con anche il risultato della mossa tipo 1.1.0 (casella 1 1 mancato) 2.1.1 (casella 2 1 colpito)\n    }\n\n    GameMatch[] public matches;\n    event SendNewGameCreate(address player, bytes32 gameId);\n    event SendRequestAmount(address player, int amount);    //tell to the player to put the money to start play\n    event SendTurnAdvice(address player);   //tell to the player that is his/her turn\n    event SendMovesAdvice(address player, string move);  //tell to the player that have been shoot\n    event SendRequestBoard(address player);   //tell to the player that have won\n    event SendWrongMove(address player);    //tell to the player that is not a valid move\n    event SendVictory(address player);\n    event SendMoveResult(address player, bool hit);\n\n    function join(bytes32 _gameId, bool _isNew, uint8[] memory _info) public{\n        \n        // set player 2 in case of given game id\n        if(_gameId != 0){\n            for(uint8 i=0; i < matches.length; i++){\n                if(matches[i].gameId == _gameId){\n                    if(matches[i].p2 == address(0)){\n                        matches[i].p2 = msg.sender;\n                        emit SendNewGameCreate(msg.sender, matches[i].gameId);\n                        return;\n                    }\n                    else{\n                        emit SendNewGameCreate(msg.sender, 0);\n                        return;\n                    }\n                }\n            }\n        }\n\n        if(_isNew){\n            // otherwise create a new game\n            bytes32 newGameId = keccak256(abi.encode(matches.length));\n            string[] memory _moves = new string[](0);\n            matches.push(GameMatch(newGameId, _info[1], _info[0], msg.sender, address(0), -1, 0, true, 0, 0, \"\",  _moves));\n            emit SendNewGameCreate(msg.sender, newGameId);\n            return;\n        }\n\n        // set player 2 in random game if available\n        for(uint8 i=0; i<matches.length; i++){\n            if(matches[i].p2 != address(0)){\n                matches[i].p2=msg.sender;\n                emit SendNewGameCreate(msg.sender, matches[i].gameId);\n                return;\n            }\n        }\n\n        emit SendNewGameCreate(msg.sender, 0);\n    }\n\n    /**\n        The two part agree offline and the first who call this method\n        also set the reward.    \n     */\n    function setReward(bytes32 _gameId, int _registration) external{\n        for(uint8 i=0; i<matches.length; i++){\n            if(matches[i].gameId == _gameId){\n                if(matches[i].registration < 0){\n                    matches[i].registration=_registration;\n                    if(matches[i].p1==msg.sender)\n                        emit SendRequestAmount(matches[i].p2, _registration);\n                    else\n                        emit SendRequestAmount(matches[i].p2, _registration);\n                    return;\n                }\n                else{\n                    if(matches[i].registration == _registration){\n                        matches[i].reward=_registration*2;\n                        return;\n                    }\n                    else{\n                        return;\n                    }\n                }\n            }\n        }\n    }\n\n    function getInformations(bytes32 _gameId) external view returns(\n        bytes32, \n        bytes memory,\n        bytes memory,\n        address ,\n        address ,\n        bytes memory ,\n        bytes memory ,\n        bool , \n        bytes32 ,\n        bytes32 ,\n        string memory,\n        string[] memory\n    ){\n        for(uint8 i=0; i < matches.length; i++){\n            if(matches[i].gameId == _gameId){\n                return(matches[i].gameId, abi.encodePacked(matches[i].tableSize), abi.encodePacked(matches[i].ships), matches[i].p1, matches[i].p2, abi.encodePacked(matches[i].registration), abi.encodePacked(matches[i].reward), matches[i].turn, matches[i].b1, matches[i].b2, matches[i].lastMove, matches[i].moves);\n            }\n        }\n    }\n\n    function getReward(bytes32 _gameId) external view returns(int){\n        for(uint8 i=0; i < matches.length; i++){\n            if(matches[i].gameId == _gameId){\n                return matches[i].registration;\n            }\n        }\n    }\n\n    function pay(bytes32 _gameId) public payable{\n        for(uint8 i=0; i < matches.length; i++){\n            if(matches[i].gameId == _gameId){\n                require((msg.value/1000000000000000000) == uint(matches[i].registration));\n            }\n        }\n    }\n\n    function setBoard(bytes32 _gameId, bytes32 _hashedBoard) public{\n        for(uint8 i=0; i < matches.length; i++){\n            if(matches[i].gameId == _gameId){\n                if(matches[i].p1==msg.sender){\n                    matches[i].b1=_hashedBoard;\n                }\n                else{\n                    matches[i].b2=_hashedBoard;\n                }\n                matches[i].turn=true;\n                emit SendTurnAdvice(matches[i].p1);\n            }\n        }\n    }\n\n    function shoot(bytes32 _gameId, string calldata _coordinate) public{\n        // stores the coordination for the other player\n        for(uint8 i=0; i < matches.length; i++){\n            if(matches[i].gameId == _gameId){\n                if(matches[i].p1==msg.sender && matches[i].turn){\n                    matches[i].lastMove=_coordinate;\n                    emit SendMovesAdvice(matches[i].p2, _coordinate);\n                }\n                else if(matches[i].p1==msg.sender && !matches[i].turn){\n                    matches[i].lastMove=_coordinate;\n                    emit SendMovesAdvice(matches[i].p1, _coordinate);\n                }\n            }\n        }\n    }\n\n    /**\n        get the last move of the game\n        then compute the merkle tree as a proof \n     */\n    function getLastMoves(bytes32 _gameId) public view returns(string memory){\n        for(uint8 i=0; i < matches.length; i++){\n            if(matches[i].gameId == _gameId){\n                return matches[i].lastMove;\n            }\n        }\n    }\n\n    function checkMerkleProof(bytes32 _gameId, bytes32[] memory _sibilings, bool _hit) public {\n        \n        string[] memory _moves = new string[](0); \n        matches.push(GameMatch(0x290decd9548b62a8d60345a988386fc84ba6bc95484008f6362f93160ef3e563, 2, 1, 0x178F83E62E51b08EfaFfc83C2080245D74D97329, 0x9889dFD1C101db6D13f19E207c2B8195D4f4A039, 1, 2, true, 0xb2bb9cb255eaac58d9238122788ddcb76b8380e3945fe63bea077afc14366f6d, 0xbecf782b589e98afc6be94679a4055c320524da7dbe57f1eb482b4c81ab342f0, \"2-1\", _moves));\n\n        for(uint8 i=0; i < matches.length; i++){\n            if(matches[i].gameId == _gameId){\n                bytes32 _trueBoard;\n                if(matches[i].p1==msg.sender){\n                    _trueBoard=matches[i].b1;\n                }\n                else{\n                    _trueBoard=matches[i].b2;\n                }\n                _trueBoard=0x8E00F33D99A09497EEF3BC03747536039692821E181C056082EEC3A399723874;\n        \n                \n                // control if i have to switch the first or the second element of the sibilings array\n                // questo problema  sorto perch la merkle proof non viene applicata nel migliore dei modi\n                // infatti dovrei computare l'hash della foglia di cui voglio sapere la prova, ma \n                // in quel caso dovrei avere il valore randomico che compone l'hash della foglia.\n                // Ma cos facendo rovino la segretezza del nodo\n                uint row = stringToUint(splitString(matches[i].lastMove, \"-\")[0]) - 1;\n                uint col = stringToUint(splitString(matches[i].lastMove, \"-\")[0]) - 1;\n                uint toCheck = row*matches[i].tableSize + col;\n                \n                if(toCheck%2!=0){\n                    bytes32 _t = _sibilings[0];\n                    _sibilings[0] = _sibilings[1];\n                    _sibilings[1] = _t;\n                }\n\n                bytes32 _b=_sibilings[0];\n                for(uint j=1; j < _sibilings.length; j++){\n                    // compute the merkle proof\n                    \n                    bytes memory _temp = new bytes(64);\n                    bytes32 _b1=_b;\n                    bytes32 _b2=_sibilings[j];\n                    assembly {\n                        mstore(add(_temp, 32), _b1)\n                        mstore(add(_temp, 64), _b2)\n                        _b := keccak256(0x00, 0x40)\n                    }            \n                }\n\n                // confronta il risultato con _b se ok allora memorizza la mossa valida e return true\n\n                if(_b == _trueBoard){\n                //if(true){\n                    string memory _r=_hit?\"-1\":\"-0\";\n\n                    matches[i].moves.push(string(abi.encodePacked(matches[i].lastMove, _r)));\n                    matches[i].moves.push(string(abi.encodePacked(matches[i].lastMove, _r)));\n                    matches[i].moves.push(string(abi.encodePacked(matches[i].lastMove, _r)));\n\n                    // chiama la funzione checkWin e richiedi la board da controllare\n                    if(checkWin(matches[i])){\n                    //if(false){\n                        emit SendRequestBoard(msg.sender);\n                        \n                    }else{\n                        // altrimenti emetti l'evento cambia turno\n                        emit SendTurnAdvice(msg.sender);\n                        matches[i].turn ? matches[i].turn=false : matches[i].turn=true; //meglio riuscire a toglierla\n                    }\n\n                    if(msg.sender==matches[i].p1){\n                        emit SendMoveResult(matches[i].p2, _hit);\n                    }else{\n                        emit SendMoveResult(matches[i].p1, _hit);\n                    }\n                        \n                    return;\n                }\n                else{   \n                    emit SendWrongMove(msg.sender);             \n                    return;\n                }\n                \n            }\n        }\n    }\n\n    function bildMerkleProof(string[] memory _sibilings) public {        \n        \n        string memory _trueBoard=\"0x0dcf1bf1019bb69b95c52c5c0f8abaac86095bcdb6202bc157cb58d1ea923d73\";\n        string memory lastMove=\"1-1\";\n                \n        uint row = stringToUint(splitString(lastMove, \"-\")[0]) - 1;\n        uint col = stringToUint(splitString(lastMove, \"-\")[1]) - 1;\n        uint toCheck = row*2 + col;\n        \n        if(toCheck%2!=0){\n            string memory _t = _sibilings[0];\n            _sibilings[0] = _sibilings[1];\n            _sibilings[1] = _t;\n        }\n\n        string memory _b=_sibilings[0];\n        for(uint j=1; j < _sibilings.length; j++){\n            // compute the merkle proof            \n            //bytes memory _temp = new bytes(64);\n            string memory _b1=_b;\n            string memory _b2=_sibilings[j];\n            bytes32 hashed =keccak256(abi.encodePacked(_b1, _b2));          \n            _b=string(abi.encodePacked(hashed));\n        }\n\n        // confronta il risultato con _b se ok allora memorizza la mossa valida e return true\n        string memory result= _b;\n\n        if(keccak256(abi.encodePacked(_b))==keccak256(abi.encodePacked(_trueBoard)))\n            emit SendVictory(msg.sender);\n        else\n            emit SendWrongMove(msg.sender);             \n        return;\n    }\n\n    function bildMerkleProofBytes(bytes32[] memory _sibilings) public {        \n        \n        bytes32 _trueBoard=0x44dd0d62c6c7740ddac5ee28c9cb8d9b56ce2184f15bae4b4e26352cc8818ba9;\n        string memory lastMove=\"1-1\";\n                \n        uint row = stringToUint(splitString(lastMove, \"-\")[0]) - 1;\n        uint col = stringToUint(splitString(lastMove, \"-\")[1]) - 1;\n        uint toCheck = row*2 + col;\n        \n        if(toCheck%2!=0){\n            bytes32 _t = _sibilings[0];\n            _sibilings[0] = _sibilings[1];\n            _sibilings[1] = _t;\n        }\n\n        bytes32 _b=_sibilings[0];\n        for(uint j=1; j < _sibilings.length; j++){\n            // compute the merkle proof            \n            //bytes memory _temp = new bytes(64);\n            bytes32 _b1=_b;\n            bytes32 _b2=_sibilings[j];\n            bytes32 hashed =keccak256(abi.encodePacked(_b1, _b2));          \n            _b=hashed;\n        }\n\n        // confronta il risultato con _b se ok allora memorizza la mossa valida e return true\n        bytes32 result= _b;\n\n        if(_b==_trueBoard)\n            emit SendVictory(msg.sender);\n        else\n            emit SendWrongMove(msg.sender);             \n        return;\n    }\n\n    function checkKeccack() public {        \n        \n        string memory _b1=\"ciao\";\n        string memory _b2=\"mondo\";\n        string memory _b3=\"ciaomondo\";\n        bytes32 _b;\n        string memory concat= string(abi.encodePacked(_b1, _b2));\n        string memory concat2 = string(bytes.concat(bytes(_b1), bytes(_b2)));\n        bytes memory bites=abi.encode(_b3);\n        _b=keccak256(abi.encodePacked(_b1, _b2));\n        bytes32 _b1h=keccak256(abi.encodePacked(_b));\n        bytes32 _c=keccak256(abi.encodePacked(concat));\n        bytes32 _d=keccak256(abi.encodePacked(concat2));\n        bytes32 _e=keccak256(abi.encodePacked(_b3));\n\n        string memory _x1=\"0x053114fc35b3e71daa03cd29e60e92c5f18524f376f3a8b990bb84f502291f49\";\n        string memory _x2=\"0x4e824bf4ef10beef46970aff33cf55479d80e44ea6ff5f5d9b82ec37a40e94fb\";\n        //_b=keccak256(abi.encodePacked(_x1, _x2));\n\n        bytes32 hashed =keccak256(abi.encodePacked(_b1, _b2));    \n        string memory _bToString=string(abi.encodePacked(hashed));\n     \n        //string memory fuck=string(abi.encodePacked(keccak256(abi.encodePacked(_x1, _x2))));\n\n        // confronta il risultato con _b se ok allora memorizza la mossa valida e return true\n        bytes32 result= _b;\n          \n        emit SendWrongMove(msg.sender);             \n        return;\n    }\n\n    function checkWin(GameMatch memory g) public pure returns(bool){\n        uint _shipToSink=g.ships*2; //because all ships have fixed length of two\n        uint _shipSinked=0;\n        if(g.turn){\n            for (uint i=0; i<g.moves.length; i+=2){\n                if(i < g.moves.length){\n                    string[] memory _s = splitString(g.moves[i], \"-\");\n                    _shipSinked += stringToUint(_s[2]);\n                }\n            }\n        }else{\n            for(uint i = 1; i < g.moves.length; i+=2){\n                if(i < g.moves.length){\n                    string[] memory _s = splitString(g.moves[i], \"-\");\n                    _shipSinked += stringToUint(_s[2]);\n                }\n            }\n        }\n\n        if(_shipSinked==_shipToSink){\n            return true;\n        }else{\n            return false;\n        }\n    }\n\n    function checkBoard(bytes32 _gameId, string[][] memory _board) public payable returns(bool){\n        bytes1 _one = 0x01;        \n        for(uint8 i=0; i < matches.length; i++){\n            if(matches[i].gameId == _gameId){\n                //controllo sovrapposizioni navi\n                uint8 count=0;\n                for(uint q = 0; q < matches[i].tableSize; q++){\n                    for(uint k = 0; k < matches[i].tableSize; k++){\n                        if(bytes(_board[q][k])[0] == _one) //there is a ship\n                            count++;\n                    }\n                }\n\n                if(count == matches[i].ships){ //there aren't ship overlapped\n                    payable(msg.sender).transfer(address(this).balance);\n                }\n            }\n        }\n    }\n\n    function notifyDelay() public{\n        //wait for 5 blocks and if there isn't a reply\n        // pay the other player\n    }\n\n    fallback() external{\n        pay(0);\n    }\n\n\n    /**\n        Some utility functions for internal use only    \n     */\n    function splitString(string memory _s, string memory _separator) internal pure returns(string[] memory){\n        string memory _temp=\"\";\n        uint count=0;\n        bytes memory _sbytes=bytes(_s);\n        string[] memory _res = new string[](bytes(_s).length);\n        for(uint i=0; i < _sbytes.length; i++){\n            if(_sbytes[i]==bytes(_separator)[0]){\n                _res[count] = _temp;\n                _temp=\"\";\n                count++;\n            }\n            else{\n                _temp=string(bytes.concat(bytes(_temp), bytes(_s)[i]));\n            }\n        }\n        _res[count] = _temp;\n        return _res;\n    }\n\n    function stringToUint(string memory _str) internal pure returns (uint) {\n        bytes memory b = bytes(_str);\n        uint result = 0;\n        for (uint i = 0; i < b.length; i++) {\n            uint c = uint(uint8(b[i]));\n            if (c >= 48 && c <= 57) {\n                result = result * 10 + (c - 48);\n            }\n        }\n        return result;\n    }\n}",
  "sourcePath": "/home/davide/Documenti/magistrale/P2PBC/projects/battleship/contracts/battleship_old.sol",
  "compiler": {
    "name": "solc",
    "version": "0.8.19+commit.7dd6d404.Emscripten.clang"
  },
  "schemaVersion": "3.4.13",
  "updatedAt": "2023-06-06T15:05:46.554Z",
  "networkType": "ethereum",
  "devdoc": {
    "kind": "dev",
    "methods": {},
    "version": 1
  },
  "userdoc": {
    "kind": "user",
    "methods": {
      "getLastMoves(bytes32)": {
        "notice": "get the last move of the game then compute the merkle tree as a proof "
      },
      "setReward(bytes32,int256)": {
        "notice": "The two part agree offline and the first who call this method also set the reward.    "
      }
    },
    "version": 1
  }
}