{
  "contractName": "Game",
  "abi": [
    {
      "anonymous": false,
      "inputs": [
        {
          "indexed": false,
          "internalType": "address",
          "name": "player",
          "type": "address"
        }
      ],
      "name": "SendMovesAdvice",
      "type": "event"
    },
    {
      "anonymous": false,
      "inputs": [
        {
          "indexed": false,
          "internalType": "address",
          "name": "p1",
          "type": "address"
        },
        {
          "indexed": false,
          "internalType": "address",
          "name": "p2",
          "type": "address"
        }
      ],
      "name": "SendRequestAmount",
      "type": "event"
    },
    {
      "anonymous": false,
      "inputs": [
        {
          "indexed": false,
          "internalType": "address",
          "name": "player",
          "type": "address"
        }
      ],
      "name": "SendRequestBoard",
      "type": "event"
    },
    {
      "anonymous": false,
      "inputs": [
        {
          "indexed": false,
          "internalType": "address",
          "name": "player",
          "type": "address"
        }
      ],
      "name": "SendTurnAdvice",
      "type": "event"
    },
    {
      "anonymous": false,
      "inputs": [
        {
          "indexed": false,
          "internalType": "address",
          "name": "player",
          "type": "address"
        }
      ],
      "name": "SendWrongMove",
      "type": "event"
    },
    {
      "inputs": [
        {
          "internalType": "address",
          "name": "player",
          "type": "address"
        },
        {
          "internalType": "bytes32",
          "name": "_gameId",
          "type": "bytes32"
        }
      ],
      "name": "join",
      "outputs": [
        {
          "internalType": "bytes32",
          "name": "",
          "type": "bytes32"
        }
      ],
      "stateMutability": "nonpayable",
      "type": "function"
    },
    {
      "inputs": [
        {
          "internalType": "bytes32",
          "name": "_gameId",
          "type": "bytes32"
        },
        {
          "internalType": "int256",
          "name": "_amount",
          "type": "int256"
        }
      ],
      "name": "setReward",
      "outputs": [
        {
          "internalType": "bool",
          "name": "",
          "type": "bool"
        }
      ],
      "stateMutability": "nonpayable",
      "type": "function"
    },
    {
      "inputs": [
        {
          "internalType": "bytes32",
          "name": "_gameId",
          "type": "bytes32"
        }
      ],
      "name": "payGame",
      "outputs": [],
      "stateMutability": "payable",
      "type": "function",
      "payable": true
    },
    {
      "inputs": [
        {
          "internalType": "bytes32",
          "name": "_gameId",
          "type": "bytes32"
        },
        {
          "internalType": "bytes32",
          "name": "_hashedBoard",
          "type": "bytes32"
        }
      ],
      "name": "setBoard",
      "outputs": [],
      "stateMutability": "nonpayable",
      "type": "function"
    },
    {
      "inputs": [
        {
          "internalType": "bytes32",
          "name": "_gameId",
          "type": "bytes32"
        },
        {
          "internalType": "string",
          "name": "_coordinate",
          "type": "string"
        }
      ],
      "name": "shoot",
      "outputs": [],
      "stateMutability": "nonpayable",
      "type": "function"
    },
    {
      "inputs": [
        {
          "internalType": "bytes32",
          "name": "_gameId",
          "type": "bytes32"
        }
      ],
      "name": "getLastMoves",
      "outputs": [
        {
          "internalType": "string",
          "name": "",
          "type": "string"
        }
      ],
      "stateMutability": "view",
      "type": "function",
      "constant": true
    },
    {
      "inputs": [
        {
          "internalType": "bytes32",
          "name": "_gameId",
          "type": "bytes32"
        },
        {
          "internalType": "bytes32[]",
          "name": "_sibilings",
          "type": "bytes32[]"
        }
      ],
      "name": "checkMerkleProof",
      "outputs": [
        {
          "internalType": "bool",
          "name": "",
          "type": "bool"
        }
      ],
      "stateMutability": "nonpayable",
      "type": "function"
    },
    {
      "inputs": [
        {
          "internalType": "bytes32",
          "name": "_gameId",
          "type": "bytes32"
        },
        {
          "internalType": "string[][]",
          "name": "_board",
          "type": "string[][]"
        }
      ],
      "name": "checkBoard",
      "outputs": [
        {
          "internalType": "bool",
          "name": "",
          "type": "bool"
        }
      ],
      "stateMutability": "payable",
      "type": "function",
      "payable": true
    },
    {
      "inputs": [],
      "name": "notifyDelay",
      "outputs": [],
      "stateMutability": "nonpayable",
      "type": "function"
    }
  ],
  "bytecode": "0x608060405234801561001057600080fd5b50612c74806100206000396000f3fe6080604052600436106100865760003560e01c8063cf9e4fb911610059578063cf9e4fb914610124578063e0e797ee14610154578063e4cc82a014610191578063fbf5fea8146101ce578063fe6d266c146101f757610086565b80634b3d815c1461008b5780637eebaf06146100a75780639507c260146100be578063c7bad2b7146100fb575b600080fd5b6100a560048036038101906100a09190611e11565b610234565b005b3480156100b357600080fd5b506100bc6102c2565b005b3480156100ca57600080fd5b506100e560048036038101906100e09190611ea3565b6102c4565b6040516100f29190611f1e565b60405180910390f35b34801561010757600080fd5b50610122600480360381019061011d9190611f8f565b6109a6565b005b61013e600480360381019061013991906122f2565b610bb9565b60405161014b9190611f1e565b60405180910390f35b34801561016057600080fd5b5061017b60048036038101906101769190612384565b610dda565b6040516101889190611f1e565b60405180910390f35b34801561019d57600080fd5b506101b860048036038101906101b39190611e11565b610f1f565b6040516101c59190612443565b60405180910390f35b3480156101da57600080fd5b506101f560048036038101906101f09190612465565b611036565b005b34801561020357600080fd5b5061021e60048036038101906102199190612503565b61122c565b60405161022b9190612552565b60405180910390f35b60005b6000805490508160ff1610156102be578160008260ff168154811061025f5761025e61256d565b5b90600052602060002090600c020160000154036102ab5760008160ff168154811061028d5761028c61256d565b5b90600052602060002090600c02016005015434146102aa57600080fd5b5b80806102b6906125d8565b915050610237565b5050565b565b600080600090505b6000805490508160ff16101561099d578460008260ff16815481106102f4576102f361256d565b5b90600052602060002090600c0201600001540361098a5760003373ffffffffffffffffffffffffffffffffffffffff1660008360ff168154811061033b5761033a61256d565b5b90600052602060002090600c020160030160009054906101000a900473ffffffffffffffffffffffffffffffffffffffff1673ffffffffffffffffffffffffffffffffffffffff16036103b85760008260ff168154811061039f5761039e61256d565b5b90600052602060002090600c02016008015490506103e4565b60008260ff16815481106103cf576103ce61256d565b5b90600052602060002090600c02016009015490505b600080600090505b86869050811015610492576000604067ffffffffffffffff81111561041457610413612000565b5b6040519080825280601f01601f1916602001820160405280156104465781602001600182028036833780820191505090505b509050600088888760ff168181106104615761046061256d565b5b905060200201359050836020830152806040830152604060002093505050808061048a9061260b565b9150506103ec565b508181036109475760008360ff16815481106104b1576104b061256d565b5b90600052602060002090600c0201600b0160018160018154018082558091505003906000526020600020505061080260008460ff16815481106104f7576104f661256d565b5b90600052602060002090600c02016040518061018001604052908160008201548152602001600182015481526020016002820180548060200260200160405190810160405280929190818152602001828054801561059a57602002820191906000526020600020906000905b82829054906101000a900460ff1660ff16815260200190600101906020826000010492830192600103820291508084116105635790505b505050505081526020016003820160009054906101000a900473ffffffffffffffffffffffffffffffffffffffff1673ffffffffffffffffffffffffffffffffffffffff1673ffffffffffffffffffffffffffffffffffffffff1681526020016004820160009054906101000a900473ffffffffffffffffffffffffffffffffffffffff1673ffffffffffffffffffffffffffffffffffffffff1673ffffffffffffffffffffffffffffffffffffffff16815260200160058201548152602001600682015481526020016007820160009054906101000a900460ff161515151581526020016008820154815260200160098201548152602001600a820180546106a290612682565b80601f01602080910402602001604051908101604052809291908181526020018280546106ce90612682565b801561071b5780601f106106f05761010080835404028352916020019161071b565b820191906000526020600020905b8154815290600101906020018083116106fe57829003601f168201915b50505050508152602001600b8201805480602002602001604051908101604052809291908181526020016000905b828210156107f557838290600052602060002001805461076890612682565b80601f016020809104026020016040519081016040528092919081815260200182805461079490612682565b80156107e15780601f106107b6576101008083540402835291602001916107e1565b820191906000526020600020905b8154815290600101906020018083116107c457829003601f168201915b505050505081526020019060010190610749565b5050505081525050611818565b15610843577fc7e0345890e3d3863c7f66518e8fe24252b162afe06faf9b20c50ac5d774fdfa3360405161083691906126c2565b60405180910390a161093b565b7fbac0d2f1d5b86b0ca75625d37a148747faa00f4de41c5c586f79880e455c2dc53360405161087291906126c2565b60405180910390a160008360ff16815481106108915761089061256d565b5b90600052602060002090600c020160070160009054906101000a900460ff166108f957600160008460ff16815481106108cd576108cc61256d565b5b90600052602060002090600c020160070160006101000a81548160ff0219169083151502179055610939565b6000808460ff16815481106109115761091061256d565b5b90600052602060002090600c020160070160006101000a81548160ff02191690831515021790555b505b6001935050505061099f565b7f9709744f7c7359edb2e10790a4a8501b0bb5fcec380968177c7a3e91249d52d83360405161097691906126c2565b60405180910390a16000935050505061099f565b8080610995906125d8565b9150506102cc565b505b9392505050565b60005b6000805490508160ff161015610bb3578360008260ff16815481106109d1576109d061256d565b5b90600052602060002090600c02016000015403610ba057828260008360ff1681548110610a0157610a0061256d565b5b90600052602060002090600c0201600a019182610a1f929190612894565b503373ffffffffffffffffffffffffffffffffffffffff1660008260ff1681548110610a4e57610a4d61256d565b5b90600052602060002090600c020160030160009054906101000a900473ffffffffffffffffffffffffffffffffffffffff1673ffffffffffffffffffffffffffffffffffffffff1603610b1f577fa42dd9e1d9175b98ede6b33b1bc3f78cd3f694b7213da993c11516d22751a66d60008260ff1681548110610ad357610ad261256d565b5b90600052602060002090600c020160030160009054906101000a900473ffffffffffffffffffffffffffffffffffffffff16604051610b1291906126c2565b60405180910390a1610b9f565b7fa42dd9e1d9175b98ede6b33b1bc3f78cd3f694b7213da993c11516d22751a66d60008260ff1681548110610b5757610b5661256d565b5b90600052602060002090600c020160040160009054906101000a900473ffffffffffffffffffffffffffffffffffffffff16604051610b9691906126c2565b60405180910390a15b5b8080610bab906125d8565b9150506109a9565b50505050565b600080600160f81b905060005b6000805490508160ff161015610dd2578460008260ff1681548110610bee57610bed61256d565b5b90600052602060002090600c02016000015403610dbf576000805b60008360ff1681548110610c2057610c1f61256d565b5b90600052602060002090600c020160010154811015610d3f5760005b60008460ff1681548110610c5357610c5261256d565b5b90600052602060002090600c020160010154811015610d2b57847effffffffffffffffffffffffffffffffffffffffffffffffffffffffffffff1916878381518110610ca257610ca161256d565b5b60200260200101518281518110610cbc57610cbb61256d565b5b6020026020010151600081518110610cd757610cd661256d565b5b602001015160f81c60f81b7effffffffffffffffffffffffffffffffffffffffffffffffffffffffffffff191603610d18578280610d14906125d8565b9350505b8080610d239061260b565b915050610c3c565b508080610d379061260b565b915050610c09565b5060008260ff1681548110610d5757610d5661256d565b5b90600052602060002090600c0201600201805490508160ff1603610dbd573373ffffffffffffffffffffffffffffffffffffffff166108fc479081150290604051600060405180830381858888f19350505050158015610dbb573d6000803e3d6000fd5b505b505b8080610dca906125d8565b915050610bc6565b505092915050565b600080600090505b6000805490508160ff161015610f17578360008260ff1681548110610e0a57610e0961256d565b5b90600052602060002090600c02016000015403610f04576000808260ff1681548110610e3957610e3861256d565b5b90600052602060002090600c0201600501541215610e88578260008260ff1681548110610e6957610e6861256d565b5b90600052602060002090600c0201600501819055506001915050610f19565b8260008260ff1681548110610ea057610e9f61256d565b5b90600052602060002090600c02016005015403610efa57600283610ec49190612964565b60008260ff1681548110610edb57610eda61256d565b5b90600052602060002090600c0201600601819055506001915050610f19565b6000915050610f19565b8080610f0f906125d8565b915050610de2565b505b92915050565b606060005b6000805490508160ff16101561102f578260008260ff1681548110610f4c57610f4b61256d565b5b90600052602060002090600c0201600001540361101c5760008160ff1681548110610f7a57610f7961256d565b5b90600052602060002090600c0201600a018054610f9690612682565b80601f0160208091040260200160405190810160405280929190818152602001828054610fc290612682565b801561100f5780601f10610fe45761010080835404028352916020019161100f565b820191906000526020600020905b815481529060010190602001808311610ff257829003601f168201915b5050505050915050611031565b8080611027906125d8565b915050610f24565b505b919050565b60005b6000805490508160ff161015611227578260008260ff16815481106110615761106061256d565b5b90600052602060002090600c02016000015403611214573373ffffffffffffffffffffffffffffffffffffffff1660008260ff16815481106110a6576110a561256d565b5b90600052602060002090600c020160030160009054906101000a900473ffffffffffffffffffffffffffffffffffffffff1673ffffffffffffffffffffffffffffffffffffffff1603611125578160008260ff168154811061110b5761110a61256d565b5b90600052602060002090600c020160080181905550611153565b8160008260ff168154811061113d5761113c61256d565b5b90600052602060002090600c0201600901819055505b600160008260ff168154811061116c5761116b61256d565b5b90600052602060002090600c020160070160006101000a81548160ff0219169083151502179055507fbac0d2f1d5b86b0ca75625d37a148747faa00f4de41c5c586f79880e455c2dc560008260ff16815481106111cc576111cb61256d565b5b90600052602060002090600c020160030160009054906101000a900473ffffffffffffffffffffffffffffffffffffffff1660405161120b91906126c2565b60405180910390a15b808061121f906125d8565b915050611039565b505050565b6000808290506000602060ff16036113ab5760005b6000805490508160ff1610156113a9578360008260ff16815481106112695761126861256d565b5b90600052602060002090600c0201600001540361139657600073ffffffffffffffffffffffffffffffffffffffff1660008260ff16815481106112af576112ae61256d565b5b90600052602060002090600c020160040160009054906101000a900473ffffffffffffffffffffffffffffffffffffffff1673ffffffffffffffffffffffffffffffffffffffff1603611395578460008260ff16815481106113145761131361256d565b5b90600052602060002090600c020160040160006101000a81548173ffffffffffffffffffffffffffffffffffffffff021916908373ffffffffffffffffffffffffffffffffffffffff16021790555060008160ff168154811061137a5761137961256d565b5b90600052602060002090600c02016000015492505050611812565b5b80806113a1906125d8565b915050611241565b505b60005b6000805490508160ff1610156114e657600073ffffffffffffffffffffffffffffffffffffffff1660008260ff16815481106113ed576113ec61256d565b5b90600052602060002090600c020160040160009054906101000a900473ffffffffffffffffffffffffffffffffffffffff1673ffffffffffffffffffffffffffffffffffffffff16146114d3578460008260ff16815481106114525761145161256d565b5b90600052602060002090600c020160040160006101000a81548173ffffffffffffffffffffffffffffffffffffffff021916908373ffffffffffffffffffffffffffffffffffffffff16021790555060008160ff16815481106114b8576114b761256d565b5b90600052602060002090600c02016000015492505050611812565b80806114de906125d8565b9150506113ae565b50600080805490506040516020016114fe91906129eb565b6040516020818303038152906040528051906020012090506000600167ffffffffffffffff81111561153357611532612000565b5b6040519080825280602002602001820160405280156115615781602001602082028036833780820191505090505b50905060008067ffffffffffffffff8111156115805761157f612000565b5b6040519080825280602002602001820160405280156115b357816020015b606081526020019060019003908161159e5790505b5090506002826000815181106115cc576115cb61256d565b5b602002602001019060ff16908160ff16815250506000604051806101800160405280858152602001600281526020018481526020018973ffffffffffffffffffffffffffffffffffffffff168152602001600073ffffffffffffffffffffffffffffffffffffffff1681526020017fffffffffffffffffffffffffffffffffffffffffffffffffffffffffffffffff8152602001600081526020016001151581526020016000801b81526020016000801b815260200160405180602001604052806000815250815260200183815250905060008190806001815401808255809150506001900390600052602060002090600c0201600090919091909150600082015181600001556020820151816001015560408201518160020190805190602001906116f9929190611c46565b5060608201518160030160006101000a81548173ffffffffffffffffffffffffffffffffffffffff021916908373ffffffffffffffffffffffffffffffffffffffff16021790555060808201518160040160006101000a81548173ffffffffffffffffffffffffffffffffffffffff021916908373ffffffffffffffffffffffffffffffffffffffff16021790555060a0820151816005015560c0820151816006015560e08201518160070160006101000a81548160ff0219169083151502179055506101008201518160080155610120820151816009015561014082015181600a0190816117e89190612a06565b5061016082015181600b019080519060200190611806929190611ced565b50505083955050505050505b92915050565b6000806000905060005b83604001515181101561187157836040015181815181106118465761184561256d565b5b602002602001015160ff168261185c9190612ad8565b915080806118699061260b565b915050611822565b5060008360e001511561193c5760005b846101600151518110156119365760006118ef86610160015183815181106118ac576118ab61256d565b5b60200260200101516040518060400160405280600181526020017f2e00000000000000000000000000000000000000000000000000000000000000815250611a18565b9050611915816002815181106119085761190761256d565b5b6020026020010151611bae565b836119209190612ad8565b9250506002816119309190612ad8565b50611881565b506119fa565b6000600190505b846101600151518110156119f85760006119b1866101600151838151811061196e5761196d61256d565b5b60200260200101516040518060400160405280600181526020017f2e00000000000000000000000000000000000000000000000000000000000000815250611a18565b90506119d7816002815181106119ca576119c961256d565b5b6020026020010151611bae565b836119e29190612ad8565b9250506002816119f29190612ad8565b50611943565b505b818103611a0c57600192505050611a13565b6000925050505b919050565b606060006040518060200160405280600081525090506000808590506000865167ffffffffffffffff811115611a5157611a50612000565b5b604051908082528060200260200182016040528015611a8457816020015b6060815260200190600190039081611a6f5790505b50905060005b8251811015611ba05786600081518110611aa757611aa661256d565b5b602001015160f81c60f81b7effffffffffffffffffffffffffffffffffffffffffffffffffffffffffffff1916838281518110611ae757611ae661256d565b5b602001015160f81c60f81b7effffffffffffffffffffffffffffffffffffffffffffffffffffffffffffff191603611b4b5784828581518110611b2d57611b2c61256d565b5b60200260200101819052508380611b439061260b565b945050611b8d565b84888281518110611b5f57611b5e61256d565b5b602001015160f81c60f81b604051602001611b7b929190612ba0565b60405160208183030381529060405294505b8080611b989061260b565b915050611a8a565b508094505050505092915050565b6000808290506000805b8251811015611c3b576000838281518110611bd657611bd561256d565b5b602001015160f81c60f81b60f81c60ff16905060308110158015611bfb575060398111155b15611c2757603081611c0d9190612bc8565b600a84611c1a9190612bfc565b611c249190612ad8565b92505b508080611c339061260b565b915050611bb8565b508092505050919050565b82805482825590600052602060002090601f01602090048101928215611cdc5791602002820160005b83821115611cad57835183826101000a81548160ff021916908360ff1602179055509260200192600101602081600001049283019260010302611c6f565b8015611cda5782816101000a81549060ff0219169055600101602081600001049283019260010302611cad565b505b509050611ce99190611d46565b5090565b828054828255906000526020600020908101928215611d35579160200282015b82811115611d34578251829081611d249190612a06565b5091602001919060010190611d0d565b5b509050611d429190611d63565b5090565b5b80821115611d5f576000816000905550600101611d47565b5090565b5b80821115611d835760008181611d7a9190611d87565b50600101611d64565b5090565b508054611d9390612682565b6000825580601f10611da55750611dc4565b601f016020900490600052602060002090810190611dc39190611d46565b5b50565b6000604051905090565b600080fd5b600080fd5b6000819050919050565b611dee81611ddb565b8114611df957600080fd5b50565b600081359050611e0b81611de5565b92915050565b600060208284031215611e2757611e26611dd1565b5b6000611e3584828501611dfc565b91505092915050565b600080fd5b600080fd5b600080fd5b60008083601f840112611e6357611e62611e3e565b5b8235905067ffffffffffffffff811115611e8057611e7f611e43565b5b602083019150836020820283011115611e9c57611e9b611e48565b5b9250929050565b600080600060408486031215611ebc57611ebb611dd1565b5b6000611eca86828701611dfc565b935050602084013567ffffffffffffffff811115611eeb57611eea611dd6565b5b611ef786828701611e4d565b92509250509250925092565b60008115159050919050565b611f1881611f03565b82525050565b6000602082019050611f336000830184611f0f565b92915050565b60008083601f840112611f4f57611f4e611e3e565b5b8235905067ffffffffffffffff811115611f6c57611f6b611e43565b5b602083019150836001820283011115611f8857611f87611e48565b5b9250929050565b600080600060408486031215611fa857611fa7611dd1565b5b6000611fb686828701611dfc565b935050602084013567ffffffffffffffff811115611fd757611fd6611dd6565b5b611fe386828701611f39565b92509250509250925092565b6000601f19601f8301169050919050565b7f4e487b7100000000000000000000000000000000000000000000000000000000600052604160045260246000fd5b61203882611fef565b810181811067ffffffffffffffff8211171561205757612056612000565b5b80604052505050565b600061206a611dc7565b9050612076828261202f565b919050565b600067ffffffffffffffff82111561209657612095612000565b5b602082029050602081019050919050565b600067ffffffffffffffff8211156120c2576120c1612000565b5b602082029050602081019050919050565b600080fd5b600067ffffffffffffffff8211156120f3576120f2612000565b5b6120fc82611fef565b9050602081019050919050565b82818337600083830152505050565b600061212b612126846120d8565b612060565b905082815260208101848484011115612147576121466120d3565b5b612152848285612109565b509392505050565b600082601f83011261216f5761216e611e3e565b5b813561217f848260208601612118565b91505092915050565b600061219b612196846120a7565b612060565b905080838252602082019050602084028301858111156121be576121bd611e48565b5b835b8181101561220557803567ffffffffffffffff8111156121e3576121e2611e3e565b5b8086016121f0898261215a565b855260208501945050506020810190506121c0565b5050509392505050565b600082601f83011261222457612223611e3e565b5b8135612234848260208601612188565b91505092915050565b600061225061224b8461207b565b612060565b9050808382526020820190506020840283018581111561227357612272611e48565b5b835b818110156122ba57803567ffffffffffffffff81111561229857612297611e3e565b5b8086016122a5898261220f565b85526020850194505050602081019050612275565b5050509392505050565b600082601f8301126122d9576122d8611e3e565b5b81356122e984826020860161223d565b91505092915050565b6000806040838503121561230957612308611dd1565b5b600061231785828601611dfc565b925050602083013567ffffffffffffffff81111561233857612337611dd6565b5b612344858286016122c4565b9150509250929050565b6000819050919050565b6123618161234e565b811461236c57600080fd5b50565b60008135905061237e81612358565b92915050565b6000806040838503121561239b5761239a611dd1565b5b60006123a985828601611dfc565b92505060206123ba8582860161236f565b9150509250929050565b600081519050919050565b600082825260208201905092915050565b60005b838110156123fe5780820151818401526020810190506123e3565b60008484015250505050565b6000612415826123c4565b61241f81856123cf565b935061242f8185602086016123e0565b61243881611fef565b840191505092915050565b6000602082019050818103600083015261245d818461240a565b905092915050565b6000806040838503121561247c5761247b611dd1565b5b600061248a85828601611dfc565b925050602061249b85828601611dfc565b9150509250929050565b600073ffffffffffffffffffffffffffffffffffffffff82169050919050565b60006124d0826124a5565b9050919050565b6124e0816124c5565b81146124eb57600080fd5b50565b6000813590506124fd816124d7565b92915050565b6000806040838503121561251a57612519611dd1565b5b6000612528858286016124ee565b925050602061253985828601611dfc565b9150509250929050565b61254c81611ddb565b82525050565b60006020820190506125676000830184612543565b92915050565b7f4e487b7100000000000000000000000000000000000000000000000000000000600052603260045260246000fd5b7f4e487b7100000000000000000000000000000000000000000000000000000000600052601160045260246000fd5b600060ff82169050919050565b60006125e3826125cb565b915060ff82036125f6576125f561259c565b5b600182019050919050565b6000819050919050565b600061261682612601565b91507fffffffffffffffffffffffffffffffffffffffffffffffffffffffffffffffff82036126485761264761259c565b5b600182019050919050565b7f4e487b7100000000000000000000000000000000000000000000000000000000600052602260045260246000fd5b6000600282049050600182168061269a57607f821691505b6020821081036126ad576126ac612653565b5b50919050565b6126bc816124c5565b82525050565b60006020820190506126d760008301846126b3565b92915050565b600082905092915050565b60008190508160005260206000209050919050565b60006020601f8301049050919050565b600082821b905092915050565b60006008830261274a7fffffffffffffffffffffffffffffffffffffffffffffffffffffffffffffffff8261270d565b612754868361270d565b95508019841693508086168417925050509392505050565b6000819050919050565b600061279161278c61278784612601565b61276c565b612601565b9050919050565b6000819050919050565b6127ab83612776565b6127bf6127b782612798565b84845461271a565b825550505050565b600090565b6127d46127c7565b6127df8184846127a2565b505050565b5b81811015612803576127f86000826127cc565b6001810190506127e5565b5050565b601f82111561284857612819816126e8565b612822846126fd565b81016020851015612831578190505b61284561283d856126fd565b8301826127e4565b50505b505050565b600082821c905092915050565b600061286b6000198460080261284d565b1980831691505092915050565b6000612884838361285a565b9150826002028217905092915050565b61289e83836126dd565b67ffffffffffffffff8111156128b7576128b6612000565b5b6128c18254612682565b6128cc828285612807565b6000601f8311600181146128fb57600084156128e9578287013590505b6128f38582612878565b86555061295b565b601f198416612909866126e8565b60005b828110156129315784890135825560018201915060208501945060208101905061290c565b8683101561294e578489013561294a601f89168261285a565b8355505b6001600288020188555050505b50505050505050565b600061296f8261234e565b915061297a8361234e565b92508282026129888161234e565b91507f800000000000000000000000000000000000000000000000000000000000000084146000841216156129c0576129bf61259c565b5b82820584148315176129d5576129d461259c565b5b5092915050565b6129e581612601565b82525050565b6000602082019050612a0060008301846129dc565b92915050565b612a0f826123c4565b67ffffffffffffffff811115612a2857612a27612000565b5b612a328254612682565b612a3d828285612807565b600060209050601f831160018114612a705760008415612a5e578287015190505b612a688582612878565b865550612ad0565b601f198416612a7e866126e8565b60005b82811015612aa657848901518255600182019150602085019450602081019050612a81565b86831015612ac35784890151612abf601f89168261285a565b8355505b6001600288020188555050505b505050505050565b6000612ae382612601565b9150612aee83612601565b9250828201905080821115612b0657612b0561259c565b5b92915050565b600081519050919050565b600081905092915050565b6000612b2d82612b0c565b612b378185612b17565b9350612b478185602086016123e0565b80840191505092915050565b60007fff0000000000000000000000000000000000000000000000000000000000000082169050919050565b6000819050919050565b612b9a612b9582612b53565b612b7f565b82525050565b6000612bac8285612b22565b9150612bb88284612b89565b6001820191508190509392505050565b6000612bd382612601565b9150612bde83612601565b9250828203905081811115612bf657612bf561259c565b5b92915050565b6000612c0782612601565b9150612c1283612601565b9250828202612c2081612601565b91508282048414831517612c3757612c3661259c565b5b509291505056fea26469706673582212207f24b5519fb1c8476ccc34babc683bb8ab74e21f7950bf01e1fb37e5cd61a18564736f6c63430008130033",
  "immutableReferences": {},
  "source": "// SPDX-License-Identifier: MIT \npragma solidity >=0.8.2 <0.9.0;\npragma abicoder v2;\n\ncontract Game {\n\n    struct GameMatch{\n        bytes32 gameId;\n        uint tableSize;\n        uint8[] ships;\n        address p1; // also the creator\n        address p2;\n        int registration; // -1: not registered, otherwise the amount \n        int reward;\n        bool turn; // if true --> p1 have to play otherwise p2 \n        bytes32 b1; // hash of the board to proof merkle tree\n        bytes32 b2;\n        string lastMove; // last move played in the game [1.2][2.4][1.1][2.2] --> first x then y\n        string[] moves;     // l'array avr quindi le caselle pari per il p1 e disapari per il p2 e li metterai le mosse fatte in chiaro\n                            // con anche il risultato della mossa tipo 1.1.0 (casella 1 1 mancato) 2.1.1 (casella 2 1 colpito)\n    }\n\n    GameMatch[] matches;\n    event SendRequestAmount(address p1, address p2);    //tell to the player to put the money to start play\n    event SendTurnAdvice(address player);   //tell to the player that is his/her turn\n    event SendMovesAdvice(address player);  //tell to the player that have been shoot\n    event SendRequestBoard(address player);   //tell to the player that have won\n    event SendWrongMove(address player);    //tell to the player that is not a valid move\n\n    function join(address player, bytes32 _gameId) external returns(bytes32){\n        \n        // set player 2 in case of given game id\n        bytes32 _gameIdTest = _gameId;\n        if(_gameIdTest.length == 0){\n            for(uint8 i=0; i<matches.length; i++){\n                if(matches[i].gameId == _gameId){\n                    if(matches[i].p2 == address(0)){\n                        matches[i].p2 = player;\n                        return matches[i].gameId;\n                    }\n                }\n            }\n        }\n\n        // set player 2 in random game if available\n        for(uint8 i=0; i<matches.length; i++){\n            if(matches[i].p2 != address(0)){\n                matches[i].p2=player;\n                return matches[i].gameId;\n            }\n        }\n\n        // otherwise create a new game\n        bytes32 newGameId = keccak256(abi.encode(matches.length));\n        uint8[] memory _ships= new uint8[](1);\n        string[] memory _moves = new string[](0);\n        _ships[0]=2;\n        GameMatch memory newGame = GameMatch(newGameId, 2, _ships, player, address(0), -1, 0, true, 0, 0, \"\",  _moves);\n        matches.push(newGame);\n        return newGameId;\n    }\n\n    /**\n        The two part agree offline and the first who call this method\n        also set the reward.    \n     */\n    function setReward(bytes32 _gameId, int _amount) external returns(bool){\n        for(uint8 i=0; i<matches.length; i++){\n            if(matches[i].gameId == _gameId){\n                if(matches[i].registration < 0){\n                    matches[i].registration=_amount;\n                    return true;\n                }\n                else{\n                    if(matches[i].registration == _amount){\n                        matches[i].reward=_amount*2;\n                        return true;\n                    }\n                    else{\n                        return false;\n                    }\n                }\n            }\n        }\n    }\n\n    function payGame(bytes32 _gameId) public payable{\n        for(uint8 i=0; i < matches.length; i++){\n            if(matches[i].gameId == _gameId){\n                require(msg.value == uint(matches[i].registration));\n            }\n        }\n    }\n\n    function setBoard(bytes32 _gameId, bytes32 _hashedBoard) public{\n        for(uint8 i=0; i < matches.length; i++){\n            if(matches[i].gameId == _gameId){\n                if(matches[i].p1==msg.sender){\n                    matches[i].b1=_hashedBoard;\n                }\n                else{\n                    matches[i].b2=_hashedBoard;\n                }\n                matches[i].turn=true;\n                emit SendTurnAdvice(matches[i].p1);\n            }\n        }\n    }\n\n    function shoot(bytes32 _gameId, string calldata _coordinate) public{\n        // stores the coordination for the other player\n        for(uint8 i=0; i < matches.length; i++){\n            if(matches[i].gameId == _gameId){\n                matches[i].lastMove=_coordinate;\n                if(matches[i].p1==msg.sender){\n                    emit SendMovesAdvice(matches[i].p1);\n                }\n                else{\n                    emit SendMovesAdvice(matches[i].p2);\n                }\n            }\n        }\n    }\n\n    /**\n        get the last move of the game\n        then compute the merkle tree as a proof \n     */\n    function getLastMoves(bytes32 _gameId) public view returns(string memory){\n        for(uint8 i=0; i < matches.length; i++){\n            if(matches[i].gameId == _gameId){\n                return matches[i].lastMove;\n            }\n        }\n    }\n\n    function checkMerkleProof(bytes32 _gameId, bytes32[] calldata _sibilings) public returns(bool){\n        \n        for(uint8 i=0; i < matches.length; i++){\n            if(matches[i].gameId == _gameId){\n                bytes32 _trueBoard;\n                if(matches[i].p1==msg.sender){\n                    _trueBoard=matches[i].b1;\n                }\n                else{\n                    _trueBoard=matches[i].b2;\n                }\n                \n                bytes32 _b; //=keccak256(_firstNode); wait for the reply of teacher\n                for(uint j=0; j < _sibilings.length; j++){\n                    // compute the merkle proof\n                    // there is an issue and it's reported in the PDF\n                    bytes memory _temp = new bytes(64);\n                    bytes32 _b1=_sibilings[i];\n                    assembly {\n                        mstore(add(_temp, 32), _b)\n                        mstore(add(_temp, 64), _b1)\n                        _b := keccak256(0x00, 0x40)\n                    }            \n                }\n\n                // confronta il risultato con _b se ok allora memorizza la mossa valida e return true\n\n                if(_b == _trueBoard){\n\n                    matches[i].moves.push();\n                    // chiama la funzione checkWin e se true emetti evento vittoria\n                    if(checkWin(matches[i])){\n                        emit SendRequestBoard(msg.sender);\n                    }else{\n                        // altrimenti emetti l'evento cambia turno\n                        emit SendTurnAdvice(msg.sender);\n                        matches[i].turn ? matches[i].turn=false : matches[i].turn=true;\n                    }\n                        \n                    return true;\n                }\n                else{   \n                    emit SendWrongMove(msg.sender);             \n                    return false;\n                }\n                \n            }\n        }\n    }\n\n    function checkWin(GameMatch memory g) internal pure returns(bool){\n        uint _shipToSink=0;\n        for(uint i=0; i < g.ships.length; i++){\n            _shipToSink+=g.ships[i];\n        }\n        uint _shipSinked=0;\n        if(g.turn){\n            for (uint i=0; i<g.moves.length; i+2){\n                string[] memory _s = splitString(g.moves[i], \".\");\n                _shipSinked += stringToUint(_s[2]);\n            }\n        }else{\n            for(uint i = 1; i < g.moves.length; i+2){\n                string[] memory _s = splitString(g.moves[i], \".\");\n                _shipSinked += stringToUint(_s[2]);\n            }\n        }\n\n        if(_shipSinked==_shipToSink){\n            return true;\n        }else{\n            return false;\n        }\n    }\n\n    function checkBoard(bytes32 _gameId, string[][] memory _board) public payable returns(bool){\n        bytes1 _one = 0x01;        \n        for(uint8 i=0; i < matches.length; i++){\n            if(matches[i].gameId == _gameId){\n                //controllo sovrapposizioni navi\n                uint8 count=0;\n                for(uint q = 0; q < matches[i].tableSize; q++){\n                    for(uint k = 0; k < matches[i].tableSize; k++){\n                        if(bytes(_board[q][k])[0] == _one) //there is a ship\n                            count++;\n                    }\n                }\n\n                if(count == matches[i].ships.length){ //there aren't ship overlapped\n                    payable(msg.sender).transfer(address(this).balance);\n                }\n            }\n        }\n    }\n\n    function notifyDelay() public{\n        //wait for 5 blocks and if there isn't a reply\n        // pay the other player\n    }\n\n\n    /**\n        Some utility functions for internal use only    \n     */\n    function splitString(string memory _s, string memory _separator) internal pure returns(string[] memory){\n        string memory _temp=\"\";\n        uint count=0;\n        bytes memory _sbytes=bytes(_s);\n        string[] memory _res = new string[](bytes(_s).length);\n        for(uint i=0; i < _sbytes.length; i++){\n            if(_sbytes[i]==bytes(_separator)[0]){\n                _res[count] = _temp;\n                count++;\n            }\n            else{\n                _temp=string(bytes.concat(bytes(_temp), bytes(_s)[i]));\n            }\n        }\n        return _res;\n    }\n\n    function stringToUint(string memory _str) internal pure returns (uint) {\n        bytes memory b = bytes(_str);\n        uint result = 0;\n        for (uint i = 0; i < b.length; i++) {\n            uint c = uint(uint8(b[i]));\n            if (c >= 48 && c <= 57) {\n                result = result * 10 + (c - 48);\n            }\n        }\n        return result;\n    }\n}",
  "sourcePath": "/home/davide/Documenti/magistrale/P2PBC/projects/battleship/contracts/Game.sol",
  "compiler": {
    "name": "solc",
    "version": "0.8.19+commit.7dd6d404.Emscripten.clang"
  },
  "schemaVersion": "3.4.13",
  "updatedAt": "2023-05-20T17:02:19.719Z",
  "networkType": "ethereum",
  "devdoc": {
    "kind": "dev",
    "methods": {},
    "version": 1
  },
  "userdoc": {
    "kind": "user",
    "methods": {
      "getLastMoves(bytes32)": {
        "notice": "get the last move of the game then compute the merkle tree as a proof "
      },
      "setReward(bytes32,int256)": {
        "notice": "The two part agree offline and the first who call this method also set the reward.    "
      }
    },
    "version": 1
  }
}