{
  "contractName": "Game",
  "abi": [
    {
      "anonymous": false,
      "inputs": [
        {
          "indexed": false,
          "internalType": "address",
          "name": "player",
          "type": "address"
        },
        {
          "indexed": false,
          "internalType": "bool",
          "name": "hit",
          "type": "bool"
        }
      ],
      "name": "SendMoveResult",
      "type": "event"
    },
    {
      "anonymous": false,
      "inputs": [
        {
          "indexed": false,
          "internalType": "address",
          "name": "player",
          "type": "address"
        },
        {
          "indexed": false,
          "internalType": "string",
          "name": "move",
          "type": "string"
        }
      ],
      "name": "SendMovesAdvice",
      "type": "event"
    },
    {
      "anonymous": false,
      "inputs": [
        {
          "indexed": false,
          "internalType": "address",
          "name": "player",
          "type": "address"
        },
        {
          "indexed": false,
          "internalType": "bytes32",
          "name": "gameId",
          "type": "bytes32"
        }
      ],
      "name": "SendNewGameCreate",
      "type": "event"
    },
    {
      "anonymous": false,
      "inputs": [
        {
          "indexed": false,
          "internalType": "address",
          "name": "player",
          "type": "address"
        },
        {
          "indexed": false,
          "internalType": "int256",
          "name": "amount",
          "type": "int256"
        }
      ],
      "name": "SendRequestAmount",
      "type": "event"
    },
    {
      "anonymous": false,
      "inputs": [
        {
          "indexed": false,
          "internalType": "address",
          "name": "player",
          "type": "address"
        }
      ],
      "name": "SendRequestBoard",
      "type": "event"
    },
    {
      "anonymous": false,
      "inputs": [
        {
          "indexed": false,
          "internalType": "address",
          "name": "player",
          "type": "address"
        }
      ],
      "name": "SendTurnAdvice",
      "type": "event"
    },
    {
      "anonymous": false,
      "inputs": [
        {
          "indexed": false,
          "internalType": "address",
          "name": "player",
          "type": "address"
        }
      ],
      "name": "SendVictory",
      "type": "event"
    },
    {
      "anonymous": false,
      "inputs": [
        {
          "indexed": false,
          "internalType": "address",
          "name": "player",
          "type": "address"
        }
      ],
      "name": "SendWrongMove",
      "type": "event"
    },
    {
      "stateMutability": "nonpayable",
      "type": "fallback"
    },
    {
      "inputs": [
        {
          "internalType": "uint256",
          "name": "",
          "type": "uint256"
        }
      ],
      "name": "matches",
      "outputs": [
        {
          "internalType": "bytes32",
          "name": "gameId",
          "type": "bytes32"
        },
        {
          "internalType": "uint256",
          "name": "tableSize",
          "type": "uint256"
        },
        {
          "internalType": "uint256",
          "name": "ships",
          "type": "uint256"
        },
        {
          "internalType": "address",
          "name": "p1",
          "type": "address"
        },
        {
          "internalType": "address",
          "name": "p2",
          "type": "address"
        },
        {
          "internalType": "int256",
          "name": "registration",
          "type": "int256"
        },
        {
          "internalType": "int256",
          "name": "reward",
          "type": "int256"
        },
        {
          "internalType": "bool",
          "name": "turn",
          "type": "bool"
        },
        {
          "internalType": "bytes32",
          "name": "b1",
          "type": "bytes32"
        },
        {
          "internalType": "bytes32",
          "name": "b2",
          "type": "bytes32"
        },
        {
          "internalType": "string",
          "name": "lastMove",
          "type": "string"
        }
      ],
      "stateMutability": "view",
      "type": "function",
      "constant": true
    },
    {
      "inputs": [
        {
          "internalType": "bytes32",
          "name": "_gameId",
          "type": "bytes32"
        },
        {
          "internalType": "bool",
          "name": "_isNew",
          "type": "bool"
        },
        {
          "internalType": "uint8[]",
          "name": "_info",
          "type": "uint8[]"
        }
      ],
      "name": "join",
      "outputs": [],
      "stateMutability": "nonpayable",
      "type": "function"
    },
    {
      "inputs": [
        {
          "internalType": "bytes32",
          "name": "_gameId",
          "type": "bytes32"
        },
        {
          "internalType": "int256",
          "name": "_registration",
          "type": "int256"
        }
      ],
      "name": "setReward",
      "outputs": [],
      "stateMutability": "nonpayable",
      "type": "function"
    },
    {
      "inputs": [
        {
          "internalType": "bytes32",
          "name": "_gameId",
          "type": "bytes32"
        }
      ],
      "name": "getInformations",
      "outputs": [
        {
          "internalType": "bytes32",
          "name": "",
          "type": "bytes32"
        },
        {
          "internalType": "bytes",
          "name": "",
          "type": "bytes"
        },
        {
          "internalType": "bytes",
          "name": "",
          "type": "bytes"
        },
        {
          "internalType": "address",
          "name": "",
          "type": "address"
        },
        {
          "internalType": "address",
          "name": "",
          "type": "address"
        },
        {
          "internalType": "bytes",
          "name": "",
          "type": "bytes"
        },
        {
          "internalType": "bytes",
          "name": "",
          "type": "bytes"
        },
        {
          "internalType": "bool",
          "name": "",
          "type": "bool"
        },
        {
          "internalType": "bytes32",
          "name": "",
          "type": "bytes32"
        },
        {
          "internalType": "bytes32",
          "name": "",
          "type": "bytes32"
        },
        {
          "internalType": "string",
          "name": "",
          "type": "string"
        },
        {
          "internalType": "string[]",
          "name": "",
          "type": "string[]"
        }
      ],
      "stateMutability": "view",
      "type": "function",
      "constant": true
    },
    {
      "inputs": [
        {
          "internalType": "bytes32",
          "name": "_gameId",
          "type": "bytes32"
        }
      ],
      "name": "getReward",
      "outputs": [
        {
          "internalType": "int256",
          "name": "",
          "type": "int256"
        }
      ],
      "stateMutability": "view",
      "type": "function",
      "constant": true
    },
    {
      "inputs": [
        {
          "internalType": "bytes32",
          "name": "_gameId",
          "type": "bytes32"
        }
      ],
      "name": "pay",
      "outputs": [],
      "stateMutability": "payable",
      "type": "function",
      "payable": true
    },
    {
      "inputs": [
        {
          "internalType": "bytes32",
          "name": "_gameId",
          "type": "bytes32"
        },
        {
          "internalType": "bytes32",
          "name": "_hashedBoard",
          "type": "bytes32"
        }
      ],
      "name": "setBoard",
      "outputs": [],
      "stateMutability": "nonpayable",
      "type": "function"
    },
    {
      "inputs": [
        {
          "internalType": "bytes32",
          "name": "_gameId",
          "type": "bytes32"
        },
        {
          "internalType": "string",
          "name": "_coordinate",
          "type": "string"
        }
      ],
      "name": "shoot",
      "outputs": [],
      "stateMutability": "nonpayable",
      "type": "function"
    },
    {
      "inputs": [
        {
          "internalType": "bytes32",
          "name": "_gameId",
          "type": "bytes32"
        }
      ],
      "name": "getLastMoves",
      "outputs": [
        {
          "internalType": "string",
          "name": "",
          "type": "string"
        }
      ],
      "stateMutability": "view",
      "type": "function",
      "constant": true
    },
    {
      "inputs": [
        {
          "internalType": "bytes32",
          "name": "_gameId",
          "type": "bytes32"
        },
        {
          "internalType": "bytes32[]",
          "name": "_sibilings",
          "type": "bytes32[]"
        },
        {
          "internalType": "bool",
          "name": "_hit",
          "type": "bool"
        }
      ],
      "name": "checkMerkleProof",
      "outputs": [],
      "stateMutability": "nonpayable",
      "type": "function"
    },
    {
      "inputs": [
        {
          "internalType": "bytes32",
          "name": "_gameId",
          "type": "bytes32"
        },
        {
          "internalType": "string[][]",
          "name": "_board",
          "type": "string[][]"
        }
      ],
      "name": "checkBoard",
      "outputs": [
        {
          "internalType": "bool",
          "name": "",
          "type": "bool"
        }
      ],
      "stateMutability": "payable",
      "type": "function",
      "payable": true
    },
    {
      "inputs": [],
      "name": "notifyDelay",
      "outputs": [],
      "stateMutability": "nonpayable",
      "type": "function"
    }
  ],
  "bytecode": "0x608060405234801561001057600080fd5b5061412a806100206000396000f3fe6080604052600436106100ab5760003560e01c8063b4df513811610064578063b4df5138146101ef578063c7bad2b714610218578063cf9e4fb914610241578063e0e797ee14610271578063e4cc82a01461029a578063fbf5fea8146102d7576100ac565b806301fb893a146100c75780634768d4ef1461010f57806363fed9a4146101565780637eebaf0614610193578063853036b5146101aa5780638609cad1146101d3576100ac565b5b3480156100b857600080fd5b506100c56000801b610300565b005b3480156100d357600080fd5b506100ee60048036038101906100e99190612b50565b6103a1565b6040516101069c9b9a99989796959493929190612dd9565b60405180910390f35b34801561011b57600080fd5b5061013660048036038101906101319190612ef3565b61084a565b60405161014d9b9a99989796959493929190612f48565b60405180910390f35b34801561016257600080fd5b5061017d60048036038101906101789190612b50565b610989565b60405161018a9190612ffa565b60405180910390f35b34801561019f57600080fd5b506101a8610a1b565b005b3480156101b657600080fd5b506101d160048036038101906101cc9190613189565b610a1d565b005b6101ed60048036038101906101e89190612b50565b610300565b005b3480156101fb57600080fd5b50610216600480360381019061021191906132f4565b611549565b005b34801561022457600080fd5b5061023f600480360381019061023a91906133be565b611c47565b005b61025b60048036038101906102569190613695565b611e62565b60405161026891906136f1565b60405180910390f35b34801561027d57600080fd5b5061029860048036038101906102939190613738565b612080565b005b3480156102a657600080fd5b506102c160048036038101906102bc9190612b50565b612335565b6040516102ce9190613778565b60405180910390f35b3480156102e357600080fd5b506102fe60048036038101906102f9919061379a565b61244c565b005b60005b6000805490508160ff16101561039d578160008260ff168154811061032b5761032a6137da565b5b90600052602060002090600c0201600001540361038a5760008160ff1681548110610359576103586137da565b5b90600052602060002090600c020160050154670de0b6b3a76400003461037f9190613867565b1461038957600080fd5b5b808061039590613898565b915050610303565b5050565b6000606080600080606080600080600060608060005b6000805490508160ff161015610839578d60008260ff16815481106103df576103de6137da565b5b90600052602060002090600c020160000154036108265760008160ff168154811061040d5761040c6137da565b5b90600052602060002090600c02016000015460008260ff1681548110610436576104356137da565b5b90600052602060002090600c02016001015460405160200161045891906138e2565b60405160208183030381529060405260008360ff168154811061047e5761047d6137da565b5b90600052602060002090600c0201600201546040516020016104a091906138e2565b60405160208183030381529060405260008460ff16815481106104c6576104c56137da565b5b90600052602060002090600c020160030160009054906101000a900473ffffffffffffffffffffffffffffffffffffffff1660008560ff168154811061050f5761050e6137da565b5b90600052602060002090600c020160040160009054906101000a900473ffffffffffffffffffffffffffffffffffffffff1660008660ff1681548110610558576105576137da565b5b90600052602060002090600c02016005015460405160200161057a919061391e565b60405160208183030381529060405260008760ff16815481106105a05761059f6137da565b5b90600052602060002090600c0201600601546040516020016105c2919061391e565b60405160208183030381529060405260008860ff16815481106105e8576105e76137da565b5b90600052602060002090600c020160070160009054906101000a900460ff1660008960ff168154811061061e5761061d6137da565b5b90600052602060002090600c02016008015460008a60ff1681548110610647576106466137da565b5b90600052602060002090600c02016009015460008b60ff16815481106106705761066f6137da565b5b90600052602060002090600c0201600a0160008c60ff1681548110610698576106976137da565b5b90600052602060002090600c0201600b018180546106b590613968565b80601f01602080910402602001604051908101604052809291908181526020018280546106e190613968565b801561072e5780601f106107035761010080835404028352916020019161072e565b820191906000526020600020905b81548152906001019060200180831161071157829003601f168201915b5050505050915080805480602002602001604051908101604052809291908181526020016000905b8282101561080257838290600052602060002001805461077590613968565b80601f01602080910402602001604051908101604052809291908181526020018280546107a190613968565b80156107ee5780601f106107c3576101008083540402835291602001916107ee565b820191906000526020600020905b8154815290600101906020018083116107d157829003601f168201915b505050505081526020019060010190610756565b5050505090509c509c509c509c509c509c509c509c509c509c509c509c505061083b565b808061083190613898565b9150506103b7565b505b91939597999b5091939597999b565b6000818154811061085a57600080fd5b90600052602060002090600c02016000915090508060000154908060010154908060020154908060030160009054906101000a900473ffffffffffffffffffffffffffffffffffffffff16908060040160009054906101000a900473ffffffffffffffffffffffffffffffffffffffff16908060050154908060060154908060070160009054906101000a900460ff169080600801549080600901549080600a01805461090690613968565b80601f016020809104026020016040519081016040528092919081815260200182805461093290613968565b801561097f5780601f106109545761010080835404028352916020019161097f565b820191906000526020600020905b81548152906001019060200180831161096257829003601f168201915b505050505090508b565b600080600090505b6000805490508160ff161015610a14578260008260ff16815481106109b9576109b86137da565b5b90600052602060002090600c02016000015403610a015760008160ff16815481106109e7576109e66137da565b5b90600052602060002090600c020160050154915050610a16565b8080610a0c90613898565b915050610991565b505b919050565b565b60005b6000805490508160ff161015611542578360008260ff1681548110610a4857610a476137da565b5b90600052602060002090600c0201600001540361152f5760003373ffffffffffffffffffffffffffffffffffffffff1660008360ff1681548110610a8f57610a8e6137da565b5b90600052602060002090600c020160030160009054906101000a900473ffffffffffffffffffffffffffffffffffffffff1673ffffffffffffffffffffffffffffffffffffffff1603610b0c5760008260ff1681548110610af357610af26137da565b5b90600052602060002090600c0201600801549050610b38565b60008260ff1681548110610b2357610b226137da565b5b90600052602060002090600c02016009015490505b6000806001610c4f610c2f60008760ff1681548110610b5a57610b596137da565b5b90600052602060002090600c0201600a018054610b7690613968565b80601f0160208091040260200160405190810160405280929190818152602001828054610ba290613968565b8015610bef5780601f10610bc457610100808354040283529160200191610bef565b820191906000526020600020905b815481529060010190602001808311610bd257829003601f168201915b50505050506040518060400160405280600181526020017f2d00000000000000000000000000000000000000000000000000000000000000815250612642565b600081518110610c4257610c416137da565b5b60200260200101516127d8565b610c599190613999565b905060006001610d71610d5160008860ff1681548110610c7c57610c7b6137da565b5b90600052602060002090600c0201600a018054610c9890613968565b80601f0160208091040260200160405190810160405280929190818152602001828054610cc490613968565b8015610d115780601f10610ce657610100808354040283529160200191610d11565b820191906000526020600020905b815481529060010190602001808311610cf457829003601f168201915b50505050506040518060400160405280600181526020017f2d00000000000000000000000000000000000000000000000000000000000000815250612642565b600081518110610d6457610d636137da565b5b60200260200101516127d8565b610d7b9190613999565b905060008160008760ff1681548110610d9757610d966137da565b5b90600052602060002090600c02016001015484610db491906139cd565b610dbe9190613a0f565b90506000600282610dcf9190613a43565b14610e5357600088600081518110610dea57610de96137da565b5b6020026020010151905088600181518110610e0857610e076137da565b5b602002602001015189600081518110610e2457610e236137da565b5b6020026020010181815250508089600181518110610e4557610e446137da565b5b602002602001018181525050505b60005b8851811015610f2a576000604067ffffffffffffffff811115610e7c57610e7b61301a565b5b6040519080825280601f01601f191660200182016040528015610eae5781602001600182028036833780820191505090505b50905060008a8960ff1681518110610ec957610ec86137da565b5b6020026020010151905060008b60018b610ee39190613a74565b60ff1681518110610ef757610ef66137da565b5b6020026020010151905081602084015280604084015260406000209750505050600281610f249190613a0f565b50610e56565b508484036114ed5760008660ff1681548110610f4957610f486137da565b5b90600052602060002090600c0201600b0160018160018154018082558091505003906000526020600020505061122660008760ff1681548110610f8f57610f8e6137da565b5b90600052602060002090600c0201604051806101800160405290816000820154815260200160018201548152602001600282015481526020016003820160009054906101000a900473ffffffffffffffffffffffffffffffffffffffff1673ffffffffffffffffffffffffffffffffffffffff1673ffffffffffffffffffffffffffffffffffffffff1681526020016004820160009054906101000a900473ffffffffffffffffffffffffffffffffffffffff1673ffffffffffffffffffffffffffffffffffffffff1673ffffffffffffffffffffffffffffffffffffffff16815260200160058201548152602001600682015481526020016007820160009054906101000a900460ff161515151581526020016008820154815260200160098201548152602001600a820180546110c690613968565b80601f01602080910402602001604051908101604052809291908181526020018280546110f290613968565b801561113f5780601f106111145761010080835404028352916020019161113f565b820191906000526020600020905b81548152906001019060200180831161112257829003601f168201915b50505050508152602001600b8201805480602002602001604051908101604052809291908181526020016000905b8282101561121957838290600052602060002001805461118c90613968565b80601f01602080910402602001604051908101604052809291908181526020018280546111b890613968565b80156112055780601f106111da57610100808354040283529160200191611205565b820191906000526020600020905b8154815290600101906020018083116111e857829003601f168201915b50505050508152602001906001019061116d565b5050505081525050612870565b15611267577fc7e0345890e3d3863c7f66518e8fe24252b162afe06faf9b20c50ac5d774fdfa3360405161125a9190613aa9565b60405180910390a161135f565b7fbac0d2f1d5b86b0ca75625d37a148747faa00f4de41c5c586f79880e455c2dc5336040516112969190613aa9565b60405180910390a160008660ff16815481106112b5576112b46137da565b5b90600052602060002090600c020160070160009054906101000a900460ff1661131d57600160008760ff16815481106112f1576112f06137da565b5b90600052602060002090600c020160070160006101000a81548160ff021916908315150217905561135d565b6000808760ff1681548110611335576113346137da565b5b90600052602060002090600c020160070160006101000a81548160ff02191690831515021790555b505b60008660ff1681548110611376576113756137da565b5b90600052602060002090600c020160030160009054906101000a900473ffffffffffffffffffffffffffffffffffffffff1673ffffffffffffffffffffffffffffffffffffffff163373ffffffffffffffffffffffffffffffffffffffff1603611460577f7b3bdc52098da181a16c06856d18bf7aa4934b17361c00f6600374dde6f1872a60008760ff1681548110611412576114116137da565b5b90600052602060002090600c020160040160009054906101000a900473ffffffffffffffffffffffffffffffffffffffff1688604051611453929190613ac4565b60405180910390a16114e2565b7f7b3bdc52098da181a16c06856d18bf7aa4934b17361c00f6600374dde6f1872a60008760ff1681548110611498576114976137da565b5b90600052602060002090600c020160030160009054906101000a900473ffffffffffffffffffffffffffffffffffffffff16886040516114d9929190613ac4565b60405180910390a15b505050505050611544565b7f9709744f7c7359edb2e10790a4a8501b0bb5fcec380968177c7a3e91249d52d83360405161151c9190613aa9565b60405180910390a1505050505050611544565b808061153a90613898565b915050610a20565b505b505050565b6000801b83146117345760005b6000805490508160ff161015611732578360008260ff168154811061157e5761157d6137da565b5b90600052602060002090600c0201600001540361171f57600073ffffffffffffffffffffffffffffffffffffffff1660008260ff16815481106115c4576115c36137da565b5b90600052602060002090600c020160040160009054906101000a900473ffffffffffffffffffffffffffffffffffffffff1673ffffffffffffffffffffffffffffffffffffffff16036116df573360008260ff1681548110611629576116286137da565b5b90600052602060002090600c020160040160006101000a81548173ffffffffffffffffffffffffffffffffffffffff021916908373ffffffffffffffffffffffffffffffffffffffff1602179055507f24e3120dee1a7172611f0ca41434f8041a1ed6c9f69a04417e48a62dc92979fc3360008360ff16815481106116b1576116b06137da565b5b90600052602060002090600c0201600001546040516116d1929190613aed565b60405180910390a150611c42565b7f24e3120dee1a7172611f0ca41434f8041a1ed6c9f69a04417e48a62dc92979fc336000604051611711929190613b5e565b60405180910390a150611c42565b808061172a90613898565b915050611556565b505b8115611a9657600080805490506040516020016117519190613b87565b6040516020818303038152906040528051906020012090506000600167ffffffffffffffff8111156117865761178561301a565b5b6040519080825280602002602001820160405280156117b45781602001602082028036833780820191505090505b50905060008067ffffffffffffffff8111156117d3576117d261301a565b5b60405190808252806020026020018201604052801561180657816020015b60608152602001906001900390816117f15790505b509050600060405180610180016040528085815260200186600181518110611831576118306137da565b5b602002602001015160ff16815260200186600081518110611855576118546137da565b5b602002602001015160ff1681526020013373ffffffffffffffffffffffffffffffffffffffff168152602001600073ffffffffffffffffffffffffffffffffffffffff1681526020017fffffffffffffffffffffffffffffffffffffffffffffffffffffffffffffffff8152602001600081526020016001151581526020016000801b81526020016000801b81526020016040518060200160405280600081525081526020018381525090806001815401808255809150506001900390600052602060002090600c020160009091909190915060008201518160000155602082015181600101556040820151816002015560608201518160030160006101000a81548173ffffffffffffffffffffffffffffffffffffffff021916908373ffffffffffffffffffffffffffffffffffffffff16021790555060808201518160040160006101000a81548173ffffffffffffffffffffffffffffffffffffffff021916908373ffffffffffffffffffffffffffffffffffffffff16021790555060a0820151816005015560c0820151816006015560e08201518160070160006101000a81548160ff0219169083151502179055506101008201518160080155610120820151816009015561014082015181600a019081611a349190613d4e565b5061016082015181600b019080519060200190611a52929190612a2c565b5050507f24e3120dee1a7172611f0ca41434f8041a1ed6c9f69a04417e48a62dc92979fc3384604051611a86929190613aed565b60405180910390a1505050611c42565b60005b6000805490508160ff161015611c0657600073ffffffffffffffffffffffffffffffffffffffff1660008260ff1681548110611ad857611ad76137da565b5b90600052602060002090600c020160040160009054906101000a900473ffffffffffffffffffffffffffffffffffffffff1673ffffffffffffffffffffffffffffffffffffffff1614611bf3573360008260ff1681548110611b3d57611b3c6137da565b5b90600052602060002090600c020160040160006101000a81548173ffffffffffffffffffffffffffffffffffffffff021916908373ffffffffffffffffffffffffffffffffffffffff1602179055507f24e3120dee1a7172611f0ca41434f8041a1ed6c9f69a04417e48a62dc92979fc3360008360ff1681548110611bc557611bc46137da565b5b90600052602060002090600c020160000154604051611be5929190613aed565b60405180910390a150611c42565b8080611bfe90613898565b915050611a99565b507f24e3120dee1a7172611f0ca41434f8041a1ed6c9f69a04417e48a62dc92979fc336000604051611c39929190613b5e565b60405180910390a15b505050565b60005b6000805490508160ff161015611e5c578360008260ff1681548110611c7257611c716137da565b5b90600052602060002090600c02016000015403611e4957828260008360ff1681548110611ca257611ca16137da565b5b90600052602060002090600c0201600a019182611cc0929190613e2b565b503373ffffffffffffffffffffffffffffffffffffffff1660008260ff1681548110611cef57611cee6137da565b5b90600052602060002090600c020160030160009054906101000a900473ffffffffffffffffffffffffffffffffffffffff1673ffffffffffffffffffffffffffffffffffffffff1603611dc4577f9896a41f3ec53837e18850fc683491a3edd592acbd543159a73aae26e3e64b2860008260ff1681548110611d7457611d736137da565b5b90600052602060002090600c020160040160009054906101000a900473ffffffffffffffffffffffffffffffffffffffff168484604051611db793929190613f28565b60405180910390a1611e48565b7f9896a41f3ec53837e18850fc683491a3edd592acbd543159a73aae26e3e64b2860008260ff1681548110611dfc57611dfb6137da565b5b90600052602060002090600c020160030160009054906101000a900473ffffffffffffffffffffffffffffffffffffffff168484604051611e3f93929190613f28565b60405180910390a15b5b8080611e5490613898565b915050611c4a565b50505050565b600080600160f81b905060005b6000805490508160ff161015612078578460008260ff1681548110611e9757611e966137da565b5b90600052602060002090600c02016000015403612065576000805b60008360ff1681548110611ec957611ec86137da565b5b90600052602060002090600c020160010154811015611fe85760005b60008460ff1681548110611efc57611efb6137da565b5b90600052602060002090600c020160010154811015611fd457847effffffffffffffffffffffffffffffffffffffffffffffffffffffffffffff1916878381518110611f4b57611f4a6137da565b5b60200260200101518281518110611f6557611f646137da565b5b6020026020010151600081518110611f8057611f7f6137da565b5b602001015160f81c60f81b7effffffffffffffffffffffffffffffffffffffffffffffffffffffffffffff191603611fc1578280611fbd90613898565b9350505b8080611fcc90613f5a565b915050611ee5565b508080611fe090613f5a565b915050611eb2565b5060008260ff168154811061200057611fff6137da565b5b90600052602060002090600c0201600201548160ff1603612063573373ffffffffffffffffffffffffffffffffffffffff166108fc479081150290604051600060405180830381858888f19350505050158015612061573d6000803e3d6000fd5b505b505b808061207090613898565b915050611e6f565b505092915050565b60005b6000805490508160ff16101561232f578260008260ff16815481106120ab576120aa6137da565b5b90600052602060002090600c0201600001540361231c576000808260ff16815481106120da576120d96137da565b5b90600052602060002090600c02016005015412156122a8578160008260ff168154811061210a576121096137da565b5b90600052602060002090600c0201600501819055503373ffffffffffffffffffffffffffffffffffffffff1660008260ff168154811061214d5761214c6137da565b5b90600052602060002090600c020160030160009054906101000a900473ffffffffffffffffffffffffffffffffffffffff1673ffffffffffffffffffffffffffffffffffffffff1603612220577f8baeb50b886fb168a371117c6cb88337a25606fe162d778425bd068ef9d25da560008260ff16815481106121d2576121d16137da565b5b90600052602060002090600c020160040160009054906101000a900473ffffffffffffffffffffffffffffffffffffffff1683604051612213929190613fa2565b60405180910390a16122a2565b7f8baeb50b886fb168a371117c6cb88337a25606fe162d778425bd068ef9d25da560008260ff1681548110612258576122576137da565b5b90600052602060002090600c020160040160009054906101000a900473ffffffffffffffffffffffffffffffffffffffff1683604051612299929190613fa2565b60405180910390a15b50612331565b8160008260ff16815481106122c0576122bf6137da565b5b90600052602060002090600c02016005015403612316576002826122e49190613fcb565b60008260ff16815481106122fb576122fa6137da565b5b90600052602060002090600c02016006018190555050612331565b50612331565b808061232790613898565b915050612083565b505b5050565b606060005b6000805490508160ff161015612445578260008260ff1681548110612362576123616137da565b5b90600052602060002090600c020160000154036124325760008160ff16815481106123905761238f6137da565b5b90600052602060002090600c0201600a0180546123ac90613968565b80601f01602080910402602001604051908101604052809291908181526020018280546123d890613968565b80156124255780601f106123fa57610100808354040283529160200191612425565b820191906000526020600020905b81548152906001019060200180831161240857829003601f168201915b5050505050915050612447565b808061243d90613898565b91505061233a565b505b919050565b60005b6000805490508160ff16101561263d578260008260ff1681548110612477576124766137da565b5b90600052602060002090600c0201600001540361262a573373ffffffffffffffffffffffffffffffffffffffff1660008260ff16815481106124bc576124bb6137da565b5b90600052602060002090600c020160030160009054906101000a900473ffffffffffffffffffffffffffffffffffffffff1673ffffffffffffffffffffffffffffffffffffffff160361253b578160008260ff1681548110612521576125206137da565b5b90600052602060002090600c020160080181905550612569565b8160008260ff1681548110612553576125526137da565b5b90600052602060002090600c0201600901819055505b600160008260ff1681548110612582576125816137da565b5b90600052602060002090600c020160070160006101000a81548160ff0219169083151502179055507fbac0d2f1d5b86b0ca75625d37a148747faa00f4de41c5c586f79880e455c2dc560008260ff16815481106125e2576125e16137da565b5b90600052602060002090600c020160030160009054906101000a900473ffffffffffffffffffffffffffffffffffffffff166040516126219190613aa9565b60405180910390a15b808061263590613898565b91505061244f565b505050565b606060006040518060200160405280600081525090506000808590506000865167ffffffffffffffff81111561267b5761267a61301a565b5b6040519080825280602002602001820160405280156126ae57816020015b60608152602001906001900390816126995790505b50905060005b82518110156127ca57866000815181106126d1576126d06137da565b5b602001015160f81c60f81b7effffffffffffffffffffffffffffffffffffffffffffffffffffffffffffff1916838281518110612711576127106137da565b5b602001015160f81c60f81b7effffffffffffffffffffffffffffffffffffffffffffffffffffffffffffff1916036127755784828581518110612757576127566137da565b5b6020026020010181905250838061276d90613f5a565b9450506127b7565b84888281518110612789576127886137da565b5b602001015160f81c60f81b6040516020016127a59291906140cc565b60405160208183030381529060405294505b80806127c290613f5a565b9150506126b4565b508094505050505092915050565b6000808290506000805b8251811015612865576000838281518110612800576127ff6137da565b5b602001015160f81c60f81b60f81c60ff16905060308110158015612825575060398111155b15612851576030816128379190613999565b600a8461284491906139cd565b61284e9190613a0f565b92505b50808061285d90613f5a565b9150506127e2565b508092505050919050565b6000806002836040015161288491906139cd565b905060008360e00151156129505760005b8461016001515181101561294a57600061290386610160015183815181106128c0576128bf6137da565b5b60200260200101516040518060400160405280600181526020017f2e00000000000000000000000000000000000000000000000000000000000000815250612642565b90506129298160028151811061291c5761291b6137da565b5b60200260200101516127d8565b836129349190613a0f565b9250506002816129449190613a0f565b50612895565b50612a0e565b6000600190505b84610160015151811015612a0c5760006129c58661016001518381518110612982576129816137da565b5b60200260200101516040518060400160405280600181526020017f2e00000000000000000000000000000000000000000000000000000000000000815250612642565b90506129eb816002815181106129de576129dd6137da565b5b60200260200101516127d8565b836129f69190613a0f565b925050600281612a069190613a0f565b50612957565b505b818103612a2057600192505050612a27565b6000925050505b919050565b828054828255906000526020600020908101928215612a74579160200282015b82811115612a73578251829081612a639190613d4e565b5091602001919060010190612a4c565b5b509050612a819190612a85565b5090565b5b80821115612aa55760008181612a9c9190612aa9565b50600101612a86565b5090565b508054612ab590613968565b6000825580601f10612ac75750612ae6565b601f016020900490600052602060002090810190612ae59190612ae9565b5b50565b5b80821115612b02576000816000905550600101612aea565b5090565b6000604051905090565b600080fd5b600080fd5b6000819050919050565b612b2d81612b1a565b8114612b3857600080fd5b50565b600081359050612b4a81612b24565b92915050565b600060208284031215612b6657612b65612b10565b5b6000612b7484828501612b3b565b91505092915050565b612b8681612b1a565b82525050565b600081519050919050565b600082825260208201905092915050565b60005b83811015612bc6578082015181840152602081019050612bab565b60008484015250505050565b6000601f19601f8301169050919050565b6000612bee82612b8c565b612bf88185612b97565b9350612c08818560208601612ba8565b612c1181612bd2565b840191505092915050565b600073ffffffffffffffffffffffffffffffffffffffff82169050919050565b6000612c4782612c1c565b9050919050565b612c5781612c3c565b82525050565b60008115159050919050565b612c7281612c5d565b82525050565b600081519050919050565b600082825260208201905092915050565b6000612c9f82612c78565b612ca98185612c83565b9350612cb9818560208601612ba8565b612cc281612bd2565b840191505092915050565b600081519050919050565b600082825260208201905092915050565b6000819050602082019050919050565b600082825260208201905092915050565b6000612d1582612c78565b612d1f8185612cf9565b9350612d2f818560208601612ba8565b612d3881612bd2565b840191505092915050565b6000612d4f8383612d0a565b905092915050565b6000602082019050919050565b6000612d6f82612ccd565b612d798185612cd8565b935083602082028501612d8b85612ce9565b8060005b85811015612dc75784840389528151612da88582612d43565b9450612db383612d57565b925060208a01995050600181019050612d8f565b50829750879550505050505092915050565b600061018082019050612def600083018f612b7d565b8181036020830152612e01818e612be3565b90508181036040830152612e15818d612be3565b9050612e24606083018c612c4e565b612e31608083018b612c4e565b81810360a0830152612e43818a612be3565b905081810360c0830152612e578189612be3565b9050612e6660e0830188612c69565b612e74610100830187612b7d565b612e82610120830186612b7d565b818103610140830152612e958185612c94565b9050818103610160830152612eaa8184612d64565b90509d9c50505050505050505050505050565b6000819050919050565b612ed081612ebd565b8114612edb57600080fd5b50565b600081359050612eed81612ec7565b92915050565b600060208284031215612f0957612f08612b10565b5b6000612f1784828501612ede565b91505092915050565b612f2981612ebd565b82525050565b6000819050919050565b612f4281612f2f565b82525050565b600061016082019050612f5e600083018e612b7d565b612f6b602083018d612f20565b612f78604083018c612f20565b612f85606083018b612c4e565b612f92608083018a612c4e565b612f9f60a0830189612f39565b612fac60c0830188612f39565b612fb960e0830187612c69565b612fc7610100830186612b7d565b612fd5610120830185612b7d565b818103610140830152612fe88184612c94565b90509c9b505050505050505050505050565b600060208201905061300f6000830184612f39565b92915050565b600080fd5b7f4e487b7100000000000000000000000000000000000000000000000000000000600052604160045260246000fd5b61305282612bd2565b810181811067ffffffffffffffff821117156130715761307061301a565b5b80604052505050565b6000613084612b06565b90506130908282613049565b919050565b600067ffffffffffffffff8211156130b0576130af61301a565b5b602082029050602081019050919050565b600080fd5b60006130d96130d484613095565b61307a565b905080838252602082019050602084028301858111156130fc576130fb6130c1565b5b835b8181101561312557806131118882612b3b565b8452602084019350506020810190506130fe565b5050509392505050565b600082601f83011261314457613143613015565b5b81356131548482602086016130c6565b91505092915050565b61316681612c5d565b811461317157600080fd5b50565b6000813590506131838161315d565b92915050565b6000806000606084860312156131a2576131a1612b10565b5b60006131b086828701612b3b565b935050602084013567ffffffffffffffff8111156131d1576131d0612b15565b5b6131dd8682870161312f565b92505060406131ee86828701613174565b9150509250925092565b600067ffffffffffffffff8211156132135761321261301a565b5b602082029050602081019050919050565b600060ff82169050919050565b61323a81613224565b811461324557600080fd5b50565b60008135905061325781613231565b92915050565b600061327061326b846131f8565b61307a565b90508083825260208201905060208402830185811115613293576132926130c1565b5b835b818110156132bc57806132a88882613248565b845260208401935050602081019050613295565b5050509392505050565b600082601f8301126132db576132da613015565b5b81356132eb84826020860161325d565b91505092915050565b60008060006060848603121561330d5761330c612b10565b5b600061331b86828701612b3b565b935050602061332c86828701613174565b925050604084013567ffffffffffffffff81111561334d5761334c612b15565b5b613359868287016132c6565b9150509250925092565b600080fd5b60008083601f84011261337e5761337d613015565b5b8235905067ffffffffffffffff81111561339b5761339a613363565b5b6020830191508360018202830111156133b7576133b66130c1565b5b9250929050565b6000806000604084860312156133d7576133d6612b10565b5b60006133e586828701612b3b565b935050602084013567ffffffffffffffff81111561340657613405612b15565b5b61341286828701613368565b92509250509250925092565b600067ffffffffffffffff8211156134395761343861301a565b5b602082029050602081019050919050565b600067ffffffffffffffff8211156134655761346461301a565b5b602082029050602081019050919050565b600080fd5b600067ffffffffffffffff8211156134965761349561301a565b5b61349f82612bd2565b9050602081019050919050565b82818337600083830152505050565b60006134ce6134c98461347b565b61307a565b9050828152602081018484840111156134ea576134e9613476565b5b6134f58482856134ac565b509392505050565b600082601f83011261351257613511613015565b5b81356135228482602086016134bb565b91505092915050565b600061353e6135398461344a565b61307a565b90508083825260208201905060208402830185811115613561576135606130c1565b5b835b818110156135a857803567ffffffffffffffff81111561358657613585613015565b5b80860161359389826134fd565b85526020850194505050602081019050613563565b5050509392505050565b600082601f8301126135c7576135c6613015565b5b81356135d784826020860161352b565b91505092915050565b60006135f36135ee8461341e565b61307a565b90508083825260208201905060208402830185811115613616576136156130c1565b5b835b8181101561365d57803567ffffffffffffffff81111561363b5761363a613015565b5b80860161364889826135b2565b85526020850194505050602081019050613618565b5050509392505050565b600082601f83011261367c5761367b613015565b5b813561368c8482602086016135e0565b91505092915050565b600080604083850312156136ac576136ab612b10565b5b60006136ba85828601612b3b565b925050602083013567ffffffffffffffff8111156136db576136da612b15565b5b6136e785828601613667565b9150509250929050565b60006020820190506137066000830184612c69565b92915050565b61371581612f2f565b811461372057600080fd5b50565b6000813590506137328161370c565b92915050565b6000806040838503121561374f5761374e612b10565b5b600061375d85828601612b3b565b925050602061376e85828601613723565b9150509250929050565b600060208201905081810360008301526137928184612c94565b905092915050565b600080604083850312156137b1576137b0612b10565b5b60006137bf85828601612b3b565b92505060206137d085828601612b3b565b9150509250929050565b7f4e487b7100000000000000000000000000000000000000000000000000000000600052603260045260246000fd5b7f4e487b7100000000000000000000000000000000000000000000000000000000600052601260045260246000fd5b7f4e487b7100000000000000000000000000000000000000000000000000000000600052601160045260246000fd5b600061387282612ebd565b915061387d83612ebd565b92508261388d5761388c613809565b5b828204905092915050565b60006138a382613224565b915060ff82036138b6576138b5613838565b5b600182019050919050565b6000819050919050565b6138dc6138d782612ebd565b6138c1565b82525050565b60006138ee82846138cb565b60208201915081905092915050565b6000819050919050565b61391861391382612f2f565b6138fd565b82525050565b600061392a8284613907565b60208201915081905092915050565b7f4e487b7100000000000000000000000000000000000000000000000000000000600052602260045260246000fd5b6000600282049050600182168061398057607f821691505b60208210810361399357613992613939565b5b50919050565b60006139a482612ebd565b91506139af83612ebd565b92508282039050818111156139c7576139c6613838565b5b92915050565b60006139d882612ebd565b91506139e383612ebd565b92508282026139f181612ebd565b91508282048414831517613a0857613a07613838565b5b5092915050565b6000613a1a82612ebd565b9150613a2583612ebd565b9250828201905080821115613a3d57613a3c613838565b5b92915050565b6000613a4e82612ebd565b9150613a5983612ebd565b925082613a6957613a68613809565b5b828206905092915050565b6000613a7f82613224565b9150613a8a83613224565b9250828201905060ff811115613aa357613aa2613838565b5b92915050565b6000602082019050613abe6000830184612c4e565b92915050565b6000604082019050613ad96000830185612c4e565b613ae66020830184612c69565b9392505050565b6000604082019050613b026000830185612c4e565b613b0f6020830184612b7d565b9392505050565b6000819050919050565b60008160001b9050919050565b6000613b48613b43613b3e84613b16565b613b20565b612b1a565b9050919050565b613b5881613b2d565b82525050565b6000604082019050613b736000830185612c4e565b613b806020830184613b4f565b9392505050565b6000602082019050613b9c6000830184612f20565b92915050565b60008190508160005260206000209050919050565b60006020601f8301049050919050565b600082821b905092915050565b600060088302613c047fffffffffffffffffffffffffffffffffffffffffffffffffffffffffffffffff82613bc7565b613c0e8683613bc7565b95508019841693508086168417925050509392505050565b6000819050919050565b6000613c4b613c46613c4184612ebd565b613c26565b612ebd565b9050919050565b6000819050919050565b613c6583613c30565b613c79613c7182613c52565b848454613bd4565b825550505050565b600090565b613c8e613c81565b613c99818484613c5c565b505050565b5b81811015613cbd57613cb2600082613c86565b600181019050613c9f565b5050565b601f821115613d0257613cd381613ba2565b613cdc84613bb7565b81016020851015613ceb578190505b613cff613cf785613bb7565b830182613c9e565b50505b505050565b600082821c905092915050565b6000613d2560001984600802613d07565b1980831691505092915050565b6000613d3e8383613d14565b9150826002028217905092915050565b613d5782612c78565b67ffffffffffffffff811115613d7057613d6f61301a565b5b613d7a8254613968565b613d85828285613cc1565b600060209050601f831160018114613db85760008415613da6578287015190505b613db08582613d32565b865550613e18565b601f198416613dc686613ba2565b60005b82811015613dee57848901518255600182019150602085019450602081019050613dc9565b86831015613e0b5784890151613e07601f891682613d14565b8355505b6001600288020188555050505b505050505050565b600082905092915050565b613e358383613e20565b67ffffffffffffffff811115613e4e57613e4d61301a565b5b613e588254613968565b613e63828285613cc1565b6000601f831160018114613e925760008415613e80578287013590505b613e8a8582613d32565b865550613ef2565b601f198416613ea086613ba2565b60005b82811015613ec857848901358255600182019150602085019450602081019050613ea3565b86831015613ee55784890135613ee1601f891682613d14565b8355505b6001600288020188555050505b50505050505050565b6000613f078385612c83565b9350613f148385846134ac565b613f1d83612bd2565b840190509392505050565b6000604082019050613f3d6000830186612c4e565b8181036020830152613f50818486613efb565b9050949350505050565b6000613f6582612ebd565b91507fffffffffffffffffffffffffffffffffffffffffffffffffffffffffffffffff8203613f9757613f96613838565b5b600182019050919050565b6000604082019050613fb76000830185612c4e565b613fc46020830184612f39565b9392505050565b6000613fd682612f2f565b9150613fe183612f2f565b9250828202613fef81612f2f565b91507f8000000000000000000000000000000000000000000000000000000000000000841460008412161561402757614026613838565b5b828205841483151761403c5761403b613838565b5b5092915050565b600081905092915050565b600061405982612b8c565b6140638185614043565b9350614073818560208601612ba8565b80840191505092915050565b60007fff0000000000000000000000000000000000000000000000000000000000000082169050919050565b6000819050919050565b6140c66140c18261407f565b6140ab565b82525050565b60006140d8828561404e565b91506140e482846140b5565b600182019150819050939250505056fea26469706673582212203134eaefccbbde8b94183045c8dcf79e7ce9311000dc66f26d3bf92ca0681ba264736f6c63430008130033",
  "immutableReferences": {},
  "source": "// SPDX-License-Identifier: MIT \npragma solidity >=0.8.2 <0.9.0;\npragma abicoder v2;\npragma experimental ABIEncoderV2;\n\ncontract Game {\n\n    struct GameMatch{\n        bytes32 gameId;\n        uint tableSize;\n        uint ships;\n        address p1; // also the creator\n        address p2;\n        int registration; // -1: not registered, otherwise the amount \n        int reward;\n        bool turn; // if true --> p1 have to play otherwise p2 \n        bytes32 b1; // hash of the board to proof merkle tree\n        bytes32 b2;\n        string lastMove; // last move played in the game [1-2][2-4][1-1][2-2] --> first x then y\n        string[] moves;     // l'array avr quindi le caselle pari per il p1 e disapari per il p2 e li metterai le mosse fatte in chiaro\n                            // con anche il risultato della mossa tipo 1.1.0 (casella 1 1 mancato) 2.1.1 (casella 2 1 colpito)\n    }\n\n    GameMatch[] public matches;\n    event SendNewGameCreate(address player, bytes32 gameId);\n    event SendRequestAmount(address player, int amount);    //tell to the player to put the money to start play\n    event SendTurnAdvice(address player);   //tell to the player that is his/her turn\n    event SendMovesAdvice(address player, string move);  //tell to the player that have been shoot\n    event SendRequestBoard(address player);   //tell to the player that have won\n    event SendWrongMove(address player);    //tell to the player that is not a valid move\n    event SendVictory(address player);\n    event SendMoveResult(address player, bool hit);\n\n    function join(bytes32 _gameId, bool _isNew, uint8[] memory _info) public{\n        \n        // set player 2 in case of given game id\n        if(_gameId != 0){\n            for(uint8 i=0; i < matches.length; i++){\n                if(matches[i].gameId == _gameId){\n                    if(matches[i].p2 == address(0)){\n                        matches[i].p2 = msg.sender;\n                        emit SendNewGameCreate(msg.sender, matches[i].gameId);\n                        return;\n                    }\n                    else{\n                        emit SendNewGameCreate(msg.sender, 0);\n                        return;\n                    }\n                }\n            }\n        }\n\n        if(_isNew){\n            // otherwise create a new game\n            bytes32 newGameId = keccak256(abi.encode(matches.length));\n            uint8[] memory _ships= new uint8[](1);\n            string[] memory _moves = new string[](0);\n            matches.push(GameMatch(newGameId, _info[1], _info[0], msg.sender, address(0), -1, 0, true, 0, 0, \"\",  _moves));\n            emit SendNewGameCreate(msg.sender, newGameId);\n            return;\n        }\n\n        // set player 2 in random game if available\n        for(uint8 i=0; i<matches.length; i++){\n            if(matches[i].p2 != address(0)){\n                matches[i].p2=msg.sender;\n                emit SendNewGameCreate(msg.sender, matches[i].gameId);\n                return;\n            }\n        }\n\n        emit SendNewGameCreate(msg.sender, 0);\n    }\n\n    /**\n        The two part agree offline and the first who call this method\n        also set the reward.    \n     */\n    function setReward(bytes32 _gameId, int _registration) external{\n        for(uint8 i=0; i<matches.length; i++){\n            if(matches[i].gameId == _gameId){\n                if(matches[i].registration < 0){\n                    matches[i].registration=_registration;\n                    if(matches[i].p1==msg.sender)\n                        emit SendRequestAmount(matches[i].p2, _registration);\n                    else\n                        emit SendRequestAmount(matches[i].p2, _registration);\n                    return;\n                }\n                else{\n                    if(matches[i].registration == _registration){\n                        matches[i].reward=_registration*2;\n                        return;\n                    }\n                    else{\n                        return;\n                    }\n                }\n            }\n        }\n    }\n\n    function getInformations(bytes32 _gameId) external view returns(\n        bytes32, \n        bytes memory,\n        bytes memory,\n        address ,\n        address ,\n        bytes memory ,\n        bytes memory ,\n        bool , \n        bytes32 ,\n        bytes32 ,\n        string memory,\n        string[] memory\n    ){\n        for(uint8 i=0; i < matches.length; i++){\n            if(matches[i].gameId == _gameId){\n                return(matches[i].gameId, abi.encodePacked(matches[i].tableSize), abi.encodePacked(matches[i].ships), matches[i].p1, matches[i].p2, abi.encodePacked(matches[i].registration), abi.encodePacked(matches[i].reward), matches[i].turn, matches[i].b1, matches[i].b2, matches[i].lastMove, matches[i].moves);\n            }\n        }\n    }\n\n    function getReward(bytes32 _gameId) external view returns(int){\n        for(uint8 i=0; i < matches.length; i++){\n            if(matches[i].gameId == _gameId){\n                return matches[i].registration;\n            }\n        }\n    }\n\n    function pay(bytes32 _gameId) public payable{\n        for(uint8 i=0; i < matches.length; i++){\n            if(matches[i].gameId == _gameId){\n                require((msg.value/1000000000000000000) == uint(matches[i].registration));\n            }\n        }\n    }\n\n    function setBoard(bytes32 _gameId, bytes32 _hashedBoard) public{\n        for(uint8 i=0; i < matches.length; i++){\n            if(matches[i].gameId == _gameId){\n                if(matches[i].p1==msg.sender){\n                    matches[i].b1=_hashedBoard;\n                }\n                else{\n                    matches[i].b2=_hashedBoard;\n                }\n                matches[i].turn=true;\n                emit SendTurnAdvice(matches[i].p1);\n            }\n        }\n    }\n\n    function shoot(bytes32 _gameId, string calldata _coordinate) public{\n        // stores the coordination for the other player\n        for(uint8 i=0; i < matches.length; i++){\n            if(matches[i].gameId == _gameId){\n                matches[i].lastMove=_coordinate;\n                if(matches[i].p1==msg.sender){\n                    emit SendMovesAdvice(matches[i].p2, _coordinate);\n                }\n                else{\n                    emit SendMovesAdvice(matches[i].p1, _coordinate);\n                }\n            }\n        }\n    }\n\n    /**\n        get the last move of the game\n        then compute the merkle tree as a proof \n     */\n    function getLastMoves(bytes32 _gameId) public view returns(string memory){\n        for(uint8 i=0; i < matches.length; i++){\n            if(matches[i].gameId == _gameId){\n                return matches[i].lastMove;\n            }\n        }\n    }\n\n    function checkMerkleProof(bytes32 _gameId, bytes32[] memory _sibilings, bool _hit) public {\n        \n        for(uint8 i=0; i < matches.length; i++){\n            if(matches[i].gameId == _gameId){\n                bytes32 _trueBoard;\n                if(matches[i].p1==msg.sender){\n                    _trueBoard=matches[i].b1;\n                }\n                else{\n                    _trueBoard=matches[i].b2;\n                }\n        \n                bytes32 _b;\n                // control if i have to switch the first or the second element of the sibilings array\n                // questo problema  sorto perch la merkle proof non viene applicata nel migliore dei modi\n                // infatti dovrei computare l'hash della foglia di cui voglio sapere la prova, ma \n                // in quel caso dovrei avere il valore randomico che compone l'hash della foglia.\n                // Ma cos facendo rovino la segretezza del nodo\n                uint row = stringToUint(splitString(matches[i].lastMove, \"-\")[0]) - 1;\n                uint col = stringToUint(splitString(matches[i].lastMove, \"-\")[0]) - 1;\n                uint toCheck = row*matches[i].tableSize + col;\n                \n                if(toCheck%2!=0){\n                    bytes32 _t = _sibilings[0];\n                    _sibilings[0] = _sibilings[1];\n                    _sibilings[1] = _t;\n                }\n\n\n                for(uint j=0; j < _sibilings.length; j+2){\n                    // compute the merkle proof\n                    \n                    bytes memory _temp = new bytes(64);\n                    bytes32 _b1=_sibilings[i];\n                    bytes32 _b2=_sibilings[i+1];\n                    assembly {\n                        mstore(add(_temp, 32), _b1)\n                        mstore(add(_temp, 64), _b2)\n                        _b := keccak256(0x00, 0x40)\n                    }            \n                }\n\n                // confronta il risultato con _b se ok allora memorizza la mossa valida e return true\n\n                if(_b == _trueBoard){\n\n                    matches[i].moves.push();\n                    // chiama la funzione checkWin e richiedi la board da controllare\n                    if(checkWin(matches[i])){\n                        emit SendRequestBoard(msg.sender);\n                        \n                    }else{\n                        // altrimenti emetti l'evento cambia turno\n                        emit SendTurnAdvice(msg.sender);\n                        matches[i].turn ? matches[i].turn=false : matches[i].turn=true; //meglio riuscire a toglierla\n                    }\n\n                    if(msg.sender==matches[i].p1){\n                        emit SendMoveResult(matches[i].p2, _hit);\n                    }else{\n                        emit SendMoveResult(matches[i].p1, _hit);\n                    }\n                        \n                    return;\n                }\n                else{   \n                    emit SendWrongMove(msg.sender);             \n                    return;\n                }\n                \n            }\n        }\n    }\n\n    function checkWin(GameMatch memory g) internal pure returns(bool){\n        uint _shipToSink=g.ships*2;\n        uint _shipSinked=0;\n        if(g.turn){\n            for (uint i=0; i<g.moves.length; i+2){\n                string[] memory _s = splitString(g.moves[i], \".\");\n                _shipSinked += stringToUint(_s[2]);\n            }\n        }else{\n            for(uint i = 1; i < g.moves.length; i+2){\n                string[] memory _s = splitString(g.moves[i], \".\");\n                _shipSinked += stringToUint(_s[2]);\n            }\n        }\n\n        if(_shipSinked==_shipToSink){\n            return true;\n        }else{\n            return false;\n        }\n    }\n\n    function checkBoard(bytes32 _gameId, string[][] memory _board) public payable returns(bool){\n        bytes1 _one = 0x01;        \n        for(uint8 i=0; i < matches.length; i++){\n            if(matches[i].gameId == _gameId){\n                //controllo sovrapposizioni navi\n                uint8 count=0;\n                for(uint q = 0; q < matches[i].tableSize; q++){\n                    for(uint k = 0; k < matches[i].tableSize; k++){\n                        if(bytes(_board[q][k])[0] == _one) //there is a ship\n                            count++;\n                    }\n                }\n\n                if(count == matches[i].ships){ //there aren't ship overlapped\n                    payable(msg.sender).transfer(address(this).balance);\n                }\n            }\n        }\n    }\n\n    function notifyDelay() public{\n        //wait for 5 blocks and if there isn't a reply\n        // pay the other player\n    }\n\n    fallback() external{\n        pay(0);\n    }\n\n\n    /**\n        Some utility functions for internal use only    \n     */\n    function splitString(string memory _s, string memory _separator) internal pure returns(string[] memory){\n        string memory _temp=\"\";\n        uint count=0;\n        bytes memory _sbytes=bytes(_s);\n        string[] memory _res = new string[](bytes(_s).length);\n        for(uint i=0; i < _sbytes.length; i++){\n            if(_sbytes[i]==bytes(_separator)[0]){\n                _res[count] = _temp;\n                count++;\n            }\n            else{\n                _temp=string(bytes.concat(bytes(_temp), bytes(_s)[i]));\n            }\n        }\n        return _res;\n    }\n\n    function stringToUint(string memory _str) internal pure returns (uint) {\n        bytes memory b = bytes(_str);\n        uint result = 0;\n        for (uint i = 0; i < b.length; i++) {\n            uint c = uint(uint8(b[i]));\n            if (c >= 48 && c <= 57) {\n                result = result * 10 + (c - 48);\n            }\n        }\n        return result;\n    }\n}",
  "sourcePath": "/home/davide/Documenti/magistrale/P2PBC/projects/battleship/contracts/Game.sol",
  "compiler": {
    "name": "solc",
    "version": "0.8.19+commit.7dd6d404.Emscripten.clang"
  },
  "schemaVersion": "3.4.13",
  "updatedAt": "2023-05-30T15:20:25.106Z",
  "networkType": "ethereum",
  "devdoc": {
    "kind": "dev",
    "methods": {},
    "version": 1
  },
  "userdoc": {
    "kind": "user",
    "methods": {
      "getLastMoves(bytes32)": {
        "notice": "get the last move of the game then compute the merkle tree as a proof "
      },
      "setReward(bytes32,int256)": {
        "notice": "The two part agree offline and the first who call this method also set the reward.    "
      }
    },
    "version": 1
  }
}