{
  "contractName": "Game",
  "abi": [
    {
      "anonymous": false,
      "inputs": [
        {
          "indexed": false,
          "internalType": "address",
          "name": "player",
          "type": "address"
        }
      ],
      "name": "SendMovesAdvice",
      "type": "event"
    },
    {
      "anonymous": false,
      "inputs": [
        {
          "indexed": false,
          "internalType": "address",
          "name": "p1",
          "type": "address"
        },
        {
          "indexed": false,
          "internalType": "address",
          "name": "p2",
          "type": "address"
        }
      ],
      "name": "SendRequestAmount",
      "type": "event"
    },
    {
      "anonymous": false,
      "inputs": [
        {
          "indexed": false,
          "internalType": "address",
          "name": "player",
          "type": "address"
        }
      ],
      "name": "SendRequestBoard",
      "type": "event"
    },
    {
      "anonymous": false,
      "inputs": [
        {
          "indexed": false,
          "internalType": "address",
          "name": "player",
          "type": "address"
        }
      ],
      "name": "SendTurnAdvice",
      "type": "event"
    },
    {
      "anonymous": false,
      "inputs": [
        {
          "indexed": false,
          "internalType": "address",
          "name": "player",
          "type": "address"
        }
      ],
      "name": "SendWrongMove",
      "type": "event"
    },
    {
      "inputs": [
        {
          "internalType": "bytes32",
          "name": "_gameId",
          "type": "bytes32"
        },
        {
          "internalType": "bool",
          "name": "_isNew",
          "type": "bool"
        },
        {
          "internalType": "uint8[2]",
          "name": "_info",
          "type": "uint8[2]"
        }
      ],
      "name": "join",
      "outputs": [
        {
          "internalType": "bytes32",
          "name": "",
          "type": "bytes32"
        }
      ],
      "stateMutability": "nonpayable",
      "type": "function"
    },
    {
      "inputs": [
        {
          "internalType": "bytes32",
          "name": "_gameId",
          "type": "bytes32"
        },
        {
          "internalType": "int256",
          "name": "_amount",
          "type": "int256"
        }
      ],
      "name": "setReward",
      "outputs": [
        {
          "internalType": "bool",
          "name": "",
          "type": "bool"
        }
      ],
      "stateMutability": "nonpayable",
      "type": "function"
    },
    {
      "inputs": [
        {
          "internalType": "bytes32",
          "name": "_gameId",
          "type": "bytes32"
        }
      ],
      "name": "payGame",
      "outputs": [],
      "stateMutability": "payable",
      "type": "function",
      "payable": true
    },
    {
      "inputs": [
        {
          "internalType": "bytes32",
          "name": "_gameId",
          "type": "bytes32"
        },
        {
          "internalType": "bytes32",
          "name": "_hashedBoard",
          "type": "bytes32"
        }
      ],
      "name": "setBoard",
      "outputs": [],
      "stateMutability": "nonpayable",
      "type": "function"
    },
    {
      "inputs": [
        {
          "internalType": "bytes32",
          "name": "_gameId",
          "type": "bytes32"
        },
        {
          "internalType": "string",
          "name": "_coordinate",
          "type": "string"
        }
      ],
      "name": "shoot",
      "outputs": [],
      "stateMutability": "nonpayable",
      "type": "function"
    },
    {
      "inputs": [
        {
          "internalType": "bytes32",
          "name": "_gameId",
          "type": "bytes32"
        }
      ],
      "name": "getLastMoves",
      "outputs": [
        {
          "internalType": "string",
          "name": "",
          "type": "string"
        }
      ],
      "stateMutability": "view",
      "type": "function",
      "constant": true
    },
    {
      "inputs": [
        {
          "internalType": "bytes32",
          "name": "_gameId",
          "type": "bytes32"
        },
        {
          "internalType": "bytes32[]",
          "name": "_sibilings",
          "type": "bytes32[]"
        }
      ],
      "name": "checkMerkleProof",
      "outputs": [
        {
          "internalType": "bool",
          "name": "",
          "type": "bool"
        }
      ],
      "stateMutability": "nonpayable",
      "type": "function"
    },
    {
      "inputs": [
        {
          "internalType": "bytes32",
          "name": "_gameId",
          "type": "bytes32"
        },
        {
          "internalType": "string[][]",
          "name": "_board",
          "type": "string[][]"
        }
      ],
      "name": "checkBoard",
      "outputs": [
        {
          "internalType": "bool",
          "name": "",
          "type": "bool"
        }
      ],
      "stateMutability": "payable",
      "type": "function",
      "payable": true
    },
    {
      "inputs": [],
      "name": "notifyDelay",
      "outputs": [],
      "stateMutability": "nonpayable",
      "type": "function"
    }
  ],
  "bytecode": "0x608060405234801561001057600080fd5b50612db4806100206000396000f3fe6080604052600436106100865760003560e01c8063c7bad2b711610059578063c7bad2b714610138578063cf9e4fb914610161578063e0e797ee14610191578063e4cc82a0146101ce578063fbf5fea81461020b57610086565b80634b3d815c1461008b5780637eebaf06146100a75780639507c260146100be578063a0fd8fc1146100fb575b600080fd5b6100a560048036038101906100a09190611e61565b610234565b005b3480156100b357600080fd5b506100bc6102c2565b005b3480156100ca57600080fd5b506100e560048036038101906100e09190611ef3565b6102c4565b6040516100f29190611f6e565b60405180910390f35b34801561010757600080fd5b50610122600480360381019061011d919061212b565b6109a6565b60405161012f919061218d565b60405180910390f35b34801561014457600080fd5b5061015f600480360381019061015a91906121fe565b610fe2565b005b61017b600480360381019061017691906124d5565b6111f5565b6040516101889190611f6e565b60405180910390f35b34801561019d57600080fd5b506101b860048036038101906101b39190612567565b611416565b6040516101c59190611f6e565b60405180910390f35b3480156101da57600080fd5b506101f560048036038101906101f09190611e61565b61155b565b6040516102029190612626565b60405180910390f35b34801561021757600080fd5b50610232600480360381019061022d9190612648565b611672565b005b60005b6000805490508160ff1610156102be578160008260ff168154811061025f5761025e612688565b5b90600052602060002090600c020160000154036102ab5760008160ff168154811061028d5761028c612688565b5b90600052602060002090600c02016005015434146102aa57600080fd5b5b80806102b6906126e6565b915050610237565b5050565b565b600080600090505b6000805490508160ff16101561099d578460008260ff16815481106102f4576102f3612688565b5b90600052602060002090600c0201600001540361098a5760003373ffffffffffffffffffffffffffffffffffffffff1660008360ff168154811061033b5761033a612688565b5b90600052602060002090600c020160030160009054906101000a900473ffffffffffffffffffffffffffffffffffffffff1673ffffffffffffffffffffffffffffffffffffffff16036103b85760008260ff168154811061039f5761039e612688565b5b90600052602060002090600c02016008015490506103e4565b60008260ff16815481106103cf576103ce612688565b5b90600052602060002090600c02016009015490505b600080600090505b86869050811015610492576000604067ffffffffffffffff81111561041457610413611fc6565b5b6040519080825280601f01601f1916602001820160405280156104465781602001600182028036833780820191505090505b509050600088888760ff1681811061046157610460612688565b5b905060200201359050836020830152806040830152604060002093505050808061048a90612719565b9150506103ec565b508181036109475760008360ff16815481106104b1576104b0612688565b5b90600052602060002090600c0201600b0160018160018154018082558091505003906000526020600020505061080260008460ff16815481106104f7576104f6612688565b5b90600052602060002090600c02016040518061018001604052908160008201548152602001600182015481526020016002820180548060200260200160405190810160405280929190818152602001828054801561059a57602002820191906000526020600020906000905b82829054906101000a900460ff1660ff16815260200190600101906020826000010492830192600103820291508084116105635790505b505050505081526020016003820160009054906101000a900473ffffffffffffffffffffffffffffffffffffffff1673ffffffffffffffffffffffffffffffffffffffff1673ffffffffffffffffffffffffffffffffffffffff1681526020016004820160009054906101000a900473ffffffffffffffffffffffffffffffffffffffff1673ffffffffffffffffffffffffffffffffffffffff1673ffffffffffffffffffffffffffffffffffffffff16815260200160058201548152602001600682015481526020016007820160009054906101000a900460ff161515151581526020016008820154815260200160098201548152602001600a820180546106a290612790565b80601f01602080910402602001604051908101604052809291908181526020018280546106ce90612790565b801561071b5780601f106106f05761010080835404028352916020019161071b565b820191906000526020600020905b8154815290600101906020018083116106fe57829003601f168201915b50505050508152602001600b8201805480602002602001604051908101604052809291908181526020016000905b828210156107f557838290600052602060002001805461076890612790565b80601f016020809104026020016040519081016040528092919081815260200182805461079490612790565b80156107e15780601f106107b6576101008083540402835291602001916107e1565b820191906000526020600020905b8154815290600101906020018083116107c457829003601f168201915b505050505081526020019060010190610749565b5050505081525050611868565b15610843577fc7e0345890e3d3863c7f66518e8fe24252b162afe06faf9b20c50ac5d774fdfa336040516108369190612802565b60405180910390a161093b565b7fbac0d2f1d5b86b0ca75625d37a148747faa00f4de41c5c586f79880e455c2dc5336040516108729190612802565b60405180910390a160008360ff168154811061089157610890612688565b5b90600052602060002090600c020160070160009054906101000a900460ff166108f957600160008460ff16815481106108cd576108cc612688565b5b90600052602060002090600c020160070160006101000a81548160ff0219169083151502179055610939565b6000808460ff168154811061091157610910612688565b5b90600052602060002090600c020160070160006101000a81548160ff02191690831515021790555b505b6001935050505061099f565b7f9709744f7c7359edb2e10790a4a8501b0bb5fcec380968177c7a3e91249d52d8336040516109769190612802565b60405180910390a16000935050505061099f565b8080610995906126e6565b9150506102cc565b505b9392505050565b6000808490506000602060ff1603610b315760005b6000805490508160ff161015610b2f578560008260ff16815481106109e3576109e2612688565b5b90600052602060002090600c02016000015403610b1c57600073ffffffffffffffffffffffffffffffffffffffff1660008260ff1681548110610a2957610a28612688565b5b90600052602060002090600c020160040160009054906101000a900473ffffffffffffffffffffffffffffffffffffffff1673ffffffffffffffffffffffffffffffffffffffff1603610b0f573360008260ff1681548110610a8e57610a8d612688565b5b90600052602060002090600c020160040160006101000a81548173ffffffffffffffffffffffffffffffffffffffff021916908373ffffffffffffffffffffffffffffffffffffffff16021790555060008160ff1681548110610af457610af3612688565b5b90600052602060002090600c02016000015492505050610fdb565b6000801b92505050610fdb565b8080610b27906126e6565b9150506109bb565b505b60005b6000805490508160ff161015610c6c57600073ffffffffffffffffffffffffffffffffffffffff1660008260ff1681548110610b7357610b72612688565b5b90600052602060002090600c020160040160009054906101000a900473ffffffffffffffffffffffffffffffffffffffff1673ffffffffffffffffffffffffffffffffffffffff1614610c59573360008260ff1681548110610bd857610bd7612688565b5b90600052602060002090600c020160040160006101000a81548173ffffffffffffffffffffffffffffffffffffffff021916908373ffffffffffffffffffffffffffffffffffffffff16021790555060008160ff1681548110610c3e57610c3d612688565b5b90600052602060002090600c02016000015492505050610fdb565b8080610c64906126e6565b915050610b34565b508315610fd35760008080549050604051602001610c8a919061282c565b6040516020818303038152906040528051906020012090506000600167ffffffffffffffff811115610cbf57610cbe611fc6565b5b604051908082528060200260200182016040528015610ced5781602001602082028036833780820191505090505b50905060008067ffffffffffffffff811115610d0c57610d0b611fc6565b5b604051908082528060200260200182016040528015610d3f57816020015b6060815260200190600190039081610d2a5790505b50905085600060028110610d5657610d55612688565b5b602002015182600081518110610d6f57610d6e612688565b5b602002602001019060ff16908160ff1681525050600060405180610180016040528085815260200188600160028110610dab57610daa612688565b5b602002015160ff1681526020018481526020013373ffffffffffffffffffffffffffffffffffffffff168152602001600073ffffffffffffffffffffffffffffffffffffffff1681526020017fffffffffffffffffffffffffffffffffffffffffffffffffffffffffffffffff8152602001600081526020016001151581526020016000801b81526020016000801b815260200160405180602001604052806000815250815260200183815250905060008190806001815401808255809150506001900390600052602060002090600c020160009091909190915060008201518160000155602082015181600101556040820151816002019080519060200190610eb6929190611c96565b5060608201518160030160006101000a81548173ffffffffffffffffffffffffffffffffffffffff021916908373ffffffffffffffffffffffffffffffffffffffff16021790555060808201518160040160006101000a81548173ffffffffffffffffffffffffffffffffffffffff021916908373ffffffffffffffffffffffffffffffffffffffff16021790555060a0820151816005015560c0820151816006015560e08201518160070160006101000a81548160ff0219169083151502179055506101008201518160080155610120820151816009015561014082015181600a019081610fa591906129f3565b5061016082015181600b019080519060200190610fc3929190611d3d565b5050508395505050505050610fdb565b6000801b9150505b9392505050565b60005b6000805490508160ff1610156111ef578360008260ff168154811061100d5761100c612688565b5b90600052602060002090600c020160000154036111dc57828260008360ff168154811061103d5761103c612688565b5b90600052602060002090600c0201600a01918261105b929190612ad0565b503373ffffffffffffffffffffffffffffffffffffffff1660008260ff168154811061108a57611089612688565b5b90600052602060002090600c020160030160009054906101000a900473ffffffffffffffffffffffffffffffffffffffff1673ffffffffffffffffffffffffffffffffffffffff160361115b577fa42dd9e1d9175b98ede6b33b1bc3f78cd3f694b7213da993c11516d22751a66d60008260ff168154811061110f5761110e612688565b5b90600052602060002090600c020160030160009054906101000a900473ffffffffffffffffffffffffffffffffffffffff1660405161114e9190612802565b60405180910390a16111db565b7fa42dd9e1d9175b98ede6b33b1bc3f78cd3f694b7213da993c11516d22751a66d60008260ff168154811061119357611192612688565b5b90600052602060002090600c020160040160009054906101000a900473ffffffffffffffffffffffffffffffffffffffff166040516111d29190612802565b60405180910390a15b5b80806111e7906126e6565b915050610fe5565b50505050565b600080600160f81b905060005b6000805490508160ff16101561140e578460008260ff168154811061122a57611229612688565b5b90600052602060002090600c020160000154036113fb576000805b60008360ff168154811061125c5761125b612688565b5b90600052602060002090600c02016001015481101561137b5760005b60008460ff168154811061128f5761128e612688565b5b90600052602060002090600c02016001015481101561136757847effffffffffffffffffffffffffffffffffffffffffffffffffffffffffffff19168783815181106112de576112dd612688565b5b602002602001015182815181106112f8576112f7612688565b5b602002602001015160008151811061131357611312612688565b5b602001015160f81c60f81b7effffffffffffffffffffffffffffffffffffffffffffffffffffffffffffff191603611354578280611350906126e6565b9350505b808061135f90612719565b915050611278565b50808061137390612719565b915050611245565b5060008260ff168154811061139357611392612688565b5b90600052602060002090600c0201600201805490508160ff16036113f9573373ffffffffffffffffffffffffffffffffffffffff166108fc479081150290604051600060405180830381858888f193505050501580156113f7573d6000803e3d6000fd5b505b505b8080611406906126e6565b915050611202565b505092915050565b600080600090505b6000805490508160ff161015611553578360008260ff168154811061144657611445612688565b5b90600052602060002090600c02016000015403611540576000808260ff168154811061147557611474612688565b5b90600052602060002090600c02016005015412156114c4578260008260ff16815481106114a5576114a4612688565b5b90600052602060002090600c0201600501819055506001915050611555565b8260008260ff16815481106114dc576114db612688565b5b90600052602060002090600c02016005015403611536576002836115009190612ba0565b60008260ff168154811061151757611516612688565b5b90600052602060002090600c0201600601819055506001915050611555565b6000915050611555565b808061154b906126e6565b91505061141e565b505b92915050565b606060005b6000805490508160ff16101561166b578260008260ff168154811061158857611587612688565b5b90600052602060002090600c020160000154036116585760008160ff16815481106115b6576115b5612688565b5b90600052602060002090600c0201600a0180546115d290612790565b80601f01602080910402602001604051908101604052809291908181526020018280546115fe90612790565b801561164b5780601f106116205761010080835404028352916020019161164b565b820191906000526020600020905b81548152906001019060200180831161162e57829003601f168201915b505050505091505061166d565b8080611663906126e6565b915050611560565b505b919050565b60005b6000805490508160ff161015611863578260008260ff168154811061169d5761169c612688565b5b90600052602060002090600c02016000015403611850573373ffffffffffffffffffffffffffffffffffffffff1660008260ff16815481106116e2576116e1612688565b5b90600052602060002090600c020160030160009054906101000a900473ffffffffffffffffffffffffffffffffffffffff1673ffffffffffffffffffffffffffffffffffffffff1603611761578160008260ff168154811061174757611746612688565b5b90600052602060002090600c02016008018190555061178f565b8160008260ff168154811061177957611778612688565b5b90600052602060002090600c0201600901819055505b600160008260ff16815481106117a8576117a7612688565b5b90600052602060002090600c020160070160006101000a81548160ff0219169083151502179055507fbac0d2f1d5b86b0ca75625d37a148747faa00f4de41c5c586f79880e455c2dc560008260ff168154811061180857611807612688565b5b90600052602060002090600c020160030160009054906101000a900473ffffffffffffffffffffffffffffffffffffffff166040516118479190612802565b60405180910390a15b808061185b906126e6565b915050611675565b505050565b6000806000905060005b8360400151518110156118c1578360400151818151811061189657611895612688565b5b602002602001015160ff16826118ac9190612c18565b915080806118b990612719565b915050611872565b5060008360e001511561198c5760005b8461016001515181101561198657600061193f86610160015183815181106118fc576118fb612688565b5b60200260200101516040518060400160405280600181526020017f2e00000000000000000000000000000000000000000000000000000000000000815250611a68565b90506119658160028151811061195857611957612688565b5b6020026020010151611bfe565b836119709190612c18565b9250506002816119809190612c18565b506118d1565b50611a4a565b6000600190505b84610160015151811015611a48576000611a0186610160015183815181106119be576119bd612688565b5b60200260200101516040518060400160405280600181526020017f2e00000000000000000000000000000000000000000000000000000000000000815250611a68565b9050611a2781600281518110611a1a57611a19612688565b5b6020026020010151611bfe565b83611a329190612c18565b925050600281611a429190612c18565b50611993565b505b818103611a5c57600192505050611a63565b6000925050505b919050565b606060006040518060200160405280600081525090506000808590506000865167ffffffffffffffff811115611aa157611aa0611fc6565b5b604051908082528060200260200182016040528015611ad457816020015b6060815260200190600190039081611abf5790505b50905060005b8251811015611bf05786600081518110611af757611af6612688565b5b602001015160f81c60f81b7effffffffffffffffffffffffffffffffffffffffffffffffffffffffffffff1916838281518110611b3757611b36612688565b5b602001015160f81c60f81b7effffffffffffffffffffffffffffffffffffffffffffffffffffffffffffff191603611b9b5784828581518110611b7d57611b7c612688565b5b60200260200101819052508380611b9390612719565b945050611bdd565b84888281518110611baf57611bae612688565b5b602001015160f81c60f81b604051602001611bcb929190612ce0565b60405160208183030381529060405294505b8080611be890612719565b915050611ada565b508094505050505092915050565b6000808290506000805b8251811015611c8b576000838281518110611c2657611c25612688565b5b602001015160f81c60f81b60f81c60ff16905060308110158015611c4b575060398111155b15611c7757603081611c5d9190612d08565b600a84611c6a9190612d3c565b611c749190612c18565b92505b508080611c8390612719565b915050611c08565b508092505050919050565b82805482825590600052602060002090601f01602090048101928215611d2c5791602002820160005b83821115611cfd57835183826101000a81548160ff021916908360ff1602179055509260200192600101602081600001049283019260010302611cbf565b8015611d2a5782816101000a81549060ff0219169055600101602081600001049283019260010302611cfd565b505b509050611d399190611d96565b5090565b828054828255906000526020600020908101928215611d85579160200282015b82811115611d84578251829081611d7491906129f3565b5091602001919060010190611d5d565b5b509050611d929190611db3565b5090565b5b80821115611daf576000816000905550600101611d97565b5090565b5b80821115611dd35760008181611dca9190611dd7565b50600101611db4565b5090565b508054611de390612790565b6000825580601f10611df55750611e14565b601f016020900490600052602060002090810190611e139190611d96565b5b50565b6000604051905090565b600080fd5b600080fd5b6000819050919050565b611e3e81611e2b565b8114611e4957600080fd5b50565b600081359050611e5b81611e35565b92915050565b600060208284031215611e7757611e76611e21565b5b6000611e8584828501611e4c565b91505092915050565b600080fd5b600080fd5b600080fd5b60008083601f840112611eb357611eb2611e8e565b5b8235905067ffffffffffffffff811115611ed057611ecf611e93565b5b602083019150836020820283011115611eec57611eeb611e98565b5b9250929050565b600080600060408486031215611f0c57611f0b611e21565b5b6000611f1a86828701611e4c565b935050602084013567ffffffffffffffff811115611f3b57611f3a611e26565b5b611f4786828701611e9d565b92509250509250925092565b60008115159050919050565b611f6881611f53565b82525050565b6000602082019050611f836000830184611f5f565b92915050565b611f9281611f53565b8114611f9d57600080fd5b50565b600081359050611faf81611f89565b92915050565b6000601f19601f8301169050919050565b7f4e487b7100000000000000000000000000000000000000000000000000000000600052604160045260246000fd5b611ffe82611fb5565b810181811067ffffffffffffffff8211171561201d5761201c611fc6565b5b80604052505050565b6000612030611e17565b905061203c8282611ff5565b919050565b600067ffffffffffffffff82111561205c5761205b611fc6565b5b602082029050919050565b600060ff82169050919050565b61207d81612067565b811461208857600080fd5b50565b60008135905061209a81612074565b92915050565b60006120b36120ae84612041565b612026565b905080602084028301858111156120cd576120cc611e98565b5b835b818110156120f657806120e2888261208b565b8452602084019350506020810190506120cf565b5050509392505050565b600082601f83011261211557612114611e8e565b5b60026121228482856120a0565b91505092915050565b60008060006080848603121561214457612143611e21565b5b600061215286828701611e4c565b935050602061216386828701611fa0565b925050604061217486828701612100565b9150509250925092565b61218781611e2b565b82525050565b60006020820190506121a2600083018461217e565b92915050565b60008083601f8401126121be576121bd611e8e565b5b8235905067ffffffffffffffff8111156121db576121da611e93565b5b6020830191508360018202830111156121f7576121f6611e98565b5b9250929050565b60008060006040848603121561221757612216611e21565b5b600061222586828701611e4c565b935050602084013567ffffffffffffffff81111561224657612245611e26565b5b612252868287016121a8565b92509250509250925092565b600067ffffffffffffffff82111561227957612278611fc6565b5b602082029050602081019050919050565b600067ffffffffffffffff8211156122a5576122a4611fc6565b5b602082029050602081019050919050565b600080fd5b600067ffffffffffffffff8211156122d6576122d5611fc6565b5b6122df82611fb5565b9050602081019050919050565b82818337600083830152505050565b600061230e612309846122bb565b612026565b90508281526020810184848401111561232a576123296122b6565b5b6123358482856122ec565b509392505050565b600082601f83011261235257612351611e8e565b5b81356123628482602086016122fb565b91505092915050565b600061237e6123798461228a565b612026565b905080838252602082019050602084028301858111156123a1576123a0611e98565b5b835b818110156123e857803567ffffffffffffffff8111156123c6576123c5611e8e565b5b8086016123d3898261233d565b855260208501945050506020810190506123a3565b5050509392505050565b600082601f83011261240757612406611e8e565b5b813561241784826020860161236b565b91505092915050565b600061243361242e8461225e565b612026565b9050808382526020820190506020840283018581111561245657612455611e98565b5b835b8181101561249d57803567ffffffffffffffff81111561247b5761247a611e8e565b5b80860161248889826123f2565b85526020850194505050602081019050612458565b5050509392505050565b600082601f8301126124bc576124bb611e8e565b5b81356124cc848260208601612420565b91505092915050565b600080604083850312156124ec576124eb611e21565b5b60006124fa85828601611e4c565b925050602083013567ffffffffffffffff81111561251b5761251a611e26565b5b612527858286016124a7565b9150509250929050565b6000819050919050565b61254481612531565b811461254f57600080fd5b50565b6000813590506125618161253b565b92915050565b6000806040838503121561257e5761257d611e21565b5b600061258c85828601611e4c565b925050602061259d85828601612552565b9150509250929050565b600081519050919050565b600082825260208201905092915050565b60005b838110156125e15780820151818401526020810190506125c6565b60008484015250505050565b60006125f8826125a7565b61260281856125b2565b93506126128185602086016125c3565b61261b81611fb5565b840191505092915050565b6000602082019050818103600083015261264081846125ed565b905092915050565b6000806040838503121561265f5761265e611e21565b5b600061266d85828601611e4c565b925050602061267e85828601611e4c565b9150509250929050565b7f4e487b7100000000000000000000000000000000000000000000000000000000600052603260045260246000fd5b7f4e487b7100000000000000000000000000000000000000000000000000000000600052601160045260246000fd5b60006126f182612067565b915060ff8203612704576127036126b7565b5b600182019050919050565b6000819050919050565b60006127248261270f565b91507fffffffffffffffffffffffffffffffffffffffffffffffffffffffffffffffff8203612756576127556126b7565b5b600182019050919050565b7f4e487b7100000000000000000000000000000000000000000000000000000000600052602260045260246000fd5b600060028204905060018216806127a857607f821691505b6020821081036127bb576127ba612761565b5b50919050565b600073ffffffffffffffffffffffffffffffffffffffff82169050919050565b60006127ec826127c1565b9050919050565b6127fc816127e1565b82525050565b600060208201905061281760008301846127f3565b92915050565b6128268161270f565b82525050565b6000602082019050612841600083018461281d565b92915050565b60008190508160005260206000209050919050565b60006020601f8301049050919050565b600082821b905092915050565b6000600883026128a97fffffffffffffffffffffffffffffffffffffffffffffffffffffffffffffffff8261286c565b6128b3868361286c565b95508019841693508086168417925050509392505050565b6000819050919050565b60006128f06128eb6128e68461270f565b6128cb565b61270f565b9050919050565b6000819050919050565b61290a836128d5565b61291e612916826128f7565b848454612879565b825550505050565b600090565b612933612926565b61293e818484612901565b505050565b5b818110156129625761295760008261292b565b600181019050612944565b5050565b601f8211156129a75761297881612847565b6129818461285c565b81016020851015612990578190505b6129a461299c8561285c565b830182612943565b50505b505050565b600082821c905092915050565b60006129ca600019846008026129ac565b1980831691505092915050565b60006129e383836129b9565b9150826002028217905092915050565b6129fc826125a7565b67ffffffffffffffff811115612a1557612a14611fc6565b5b612a1f8254612790565b612a2a828285612966565b600060209050601f831160018114612a5d5760008415612a4b578287015190505b612a5585826129d7565b865550612abd565b601f198416612a6b86612847565b60005b82811015612a9357848901518255600182019150602085019450602081019050612a6e565b86831015612ab05784890151612aac601f8916826129b9565b8355505b6001600288020188555050505b505050505050565b600082905092915050565b612ada8383612ac5565b67ffffffffffffffff811115612af357612af2611fc6565b5b612afd8254612790565b612b08828285612966565b6000601f831160018114612b375760008415612b25578287013590505b612b2f85826129d7565b865550612b97565b601f198416612b4586612847565b60005b82811015612b6d57848901358255600182019150602085019450602081019050612b48565b86831015612b8a5784890135612b86601f8916826129b9565b8355505b6001600288020188555050505b50505050505050565b6000612bab82612531565b9150612bb683612531565b9250828202612bc481612531565b91507f80000000000000000000000000000000000000000000000000000000000000008414600084121615612bfc57612bfb6126b7565b5b8282058414831517612c1157612c106126b7565b5b5092915050565b6000612c238261270f565b9150612c2e8361270f565b9250828201905080821115612c4657612c456126b7565b5b92915050565b600081519050919050565b600081905092915050565b6000612c6d82612c4c565b612c778185612c57565b9350612c878185602086016125c3565b80840191505092915050565b60007fff0000000000000000000000000000000000000000000000000000000000000082169050919050565b6000819050919050565b612cda612cd582612c93565b612cbf565b82525050565b6000612cec8285612c62565b9150612cf88284612cc9565b6001820191508190509392505050565b6000612d138261270f565b9150612d1e8361270f565b9250828203905081811115612d3657612d356126b7565b5b92915050565b6000612d478261270f565b9150612d528361270f565b9250828202612d608161270f565b91508282048414831517612d7757612d766126b7565b5b509291505056fea2646970667358221220edfcd0f4d8a4879a925982a797cfef67b8ec4efd0fb06ac6f14f7edc4e3910ae64736f6c63430008130033",
  "immutableReferences": {},
  "source": "// SPDX-License-Identifier: MIT \npragma solidity >=0.8.2 <0.9.0;\npragma abicoder v2;\n\ncontract Game {\n\n    struct GameMatch{\n        bytes32 gameId;\n        uint tableSize;\n        uint8[] ships;\n        address p1; // also the creator\n        address p2;\n        int registration; // -1: not registered, otherwise the amount \n        int reward;\n        bool turn; // if true --> p1 have to play otherwise p2 \n        bytes32 b1; // hash of the board to proof merkle tree\n        bytes32 b2;\n        string lastMove; // last move played in the game [1.2][2.4][1.1][2.2] --> first x then y\n        string[] moves;     // l'array avr quindi le caselle pari per il p1 e disapari per il p2 e li metterai le mosse fatte in chiaro\n                            // con anche il risultato della mossa tipo 1.1.0 (casella 1 1 mancato) 2.1.1 (casella 2 1 colpito)\n    }\n\n    GameMatch[] matches;\n    event SendRequestAmount(address p1, address p2);    //tell to the player to put the money to start play\n    event SendTurnAdvice(address player);   //tell to the player that is his/her turn\n    event SendMovesAdvice(address player);  //tell to the player that have been shoot\n    event SendRequestBoard(address player);   //tell to the player that have won\n    event SendWrongMove(address player);    //tell to the player that is not a valid move\n\n    function join(bytes32 _gameId, bool _isNew, uint8[2] memory _info) external returns(bytes32){\n        \n        // set player 2 in case of given game id\n        bytes32 _gameIdTest = _gameId;\n        if(_gameIdTest.length == 0){\n            for(uint8 i=0; i<matches.length; i++){\n                if(matches[i].gameId == _gameId){\n                    if(matches[i].p2 == address(0)){\n                        matches[i].p2 = msg.sender;\n                        return matches[i].gameId;\n                    }\n                    else\n                        return 0;\n                }\n            }\n        }\n\n        // set player 2 in random game if available\n        for(uint8 i=0; i<matches.length; i++){\n            if(matches[i].p2 != address(0)){\n                matches[i].p2=msg.sender;\n                return matches[i].gameId;\n            }\n        }\n\n        if(_isNew){\n            // otherwise create a new game\n            bytes32 newGameId = keccak256(abi.encode(matches.length));\n            uint8[] memory _ships= new uint8[](1);\n            string[] memory _moves = new string[](0);\n            _ships[0]=_info[0];\n            GameMatch memory newGame = GameMatch(newGameId, _info[1], _ships, msg.sender, address(0), -1, 0, true, 0, 0, \"\",  _moves);\n            matches.push(newGame);\n            return newGameId;\n        }else\n            return 0;\n    }\n\n    /**\n        The two part agree offline and the first who call this method\n        also set the reward.    \n     */\n    function setReward(bytes32 _gameId, int _amount) external returns(bool){\n        for(uint8 i=0; i<matches.length; i++){\n            if(matches[i].gameId == _gameId){\n                if(matches[i].registration < 0){\n                    matches[i].registration=_amount;\n                    return true;\n                }\n                else{\n                    if(matches[i].registration == _amount){\n                        matches[i].reward=_amount*2;\n                        return true;\n                    }\n                    else{\n                        return false;\n                    }\n                }\n            }\n        }\n    }\n\n    function payGame(bytes32 _gameId) public payable{\n        for(uint8 i=0; i < matches.length; i++){\n            if(matches[i].gameId == _gameId){\n                require(msg.value == uint(matches[i].registration));\n            }\n        }\n    }\n\n    function setBoard(bytes32 _gameId, bytes32 _hashedBoard) public{\n        for(uint8 i=0; i < matches.length; i++){\n            if(matches[i].gameId == _gameId){\n                if(matches[i].p1==msg.sender){\n                    matches[i].b1=_hashedBoard;\n                }\n                else{\n                    matches[i].b2=_hashedBoard;\n                }\n                matches[i].turn=true;\n                emit SendTurnAdvice(matches[i].p1);\n            }\n        }\n    }\n\n    function shoot(bytes32 _gameId, string calldata _coordinate) public{\n        // stores the coordination for the other player\n        for(uint8 i=0; i < matches.length; i++){\n            if(matches[i].gameId == _gameId){\n                matches[i].lastMove=_coordinate;\n                if(matches[i].p1==msg.sender){\n                    emit SendMovesAdvice(matches[i].p1);\n                }\n                else{\n                    emit SendMovesAdvice(matches[i].p2);\n                }\n            }\n        }\n    }\n\n    /**\n        get the last move of the game\n        then compute the merkle tree as a proof \n     */\n    function getLastMoves(bytes32 _gameId) public view returns(string memory){\n        for(uint8 i=0; i < matches.length; i++){\n            if(matches[i].gameId == _gameId){\n                return matches[i].lastMove;\n            }\n        }\n    }\n\n    function checkMerkleProof(bytes32 _gameId, bytes32[] calldata _sibilings) public returns(bool){\n        \n        for(uint8 i=0; i < matches.length; i++){\n            if(matches[i].gameId == _gameId){\n                bytes32 _trueBoard;\n                if(matches[i].p1==msg.sender){\n                    _trueBoard=matches[i].b1;\n                }\n                else{\n                    _trueBoard=matches[i].b2;\n                }\n                \n                bytes32 _b; //=keccak256(_firstNode); wait for the reply of teacher\n                for(uint j=0; j < _sibilings.length; j++){\n                    // compute the merkle proof\n                    // there is an issue and it's reported in the PDF\n                    bytes memory _temp = new bytes(64);\n                    bytes32 _b1=_sibilings[i];\n                    assembly {\n                        mstore(add(_temp, 32), _b)\n                        mstore(add(_temp, 64), _b1)\n                        _b := keccak256(0x00, 0x40)\n                    }            \n                }\n\n                // confronta il risultato con _b se ok allora memorizza la mossa valida e return true\n\n                if(_b == _trueBoard){\n\n                    matches[i].moves.push();\n                    // chiama la funzione checkWin e se true emetti evento vittoria\n                    if(checkWin(matches[i])){\n                        emit SendRequestBoard(msg.sender);\n                    }else{\n                        // altrimenti emetti l'evento cambia turno\n                        emit SendTurnAdvice(msg.sender);\n                        matches[i].turn ? matches[i].turn=false : matches[i].turn=true;\n                    }\n                        \n                    return true;\n                }\n                else{   \n                    emit SendWrongMove(msg.sender);             \n                    return false;\n                }\n                \n            }\n        }\n    }\n\n    function checkWin(GameMatch memory g) internal pure returns(bool){\n        uint _shipToSink=0;\n        for(uint i=0; i < g.ships.length; i++){\n            _shipToSink+=g.ships[i];\n        }\n        uint _shipSinked=0;\n        if(g.turn){\n            for (uint i=0; i<g.moves.length; i+2){\n                string[] memory _s = splitString(g.moves[i], \".\");\n                _shipSinked += stringToUint(_s[2]);\n            }\n        }else{\n            for(uint i = 1; i < g.moves.length; i+2){\n                string[] memory _s = splitString(g.moves[i], \".\");\n                _shipSinked += stringToUint(_s[2]);\n            }\n        }\n\n        if(_shipSinked==_shipToSink){\n            return true;\n        }else{\n            return false;\n        }\n    }\n\n    function checkBoard(bytes32 _gameId, string[][] memory _board) public payable returns(bool){\n        bytes1 _one = 0x01;        \n        for(uint8 i=0; i < matches.length; i++){\n            if(matches[i].gameId == _gameId){\n                //controllo sovrapposizioni navi\n                uint8 count=0;\n                for(uint q = 0; q < matches[i].tableSize; q++){\n                    for(uint k = 0; k < matches[i].tableSize; k++){\n                        if(bytes(_board[q][k])[0] == _one) //there is a ship\n                            count++;\n                    }\n                }\n\n                if(count == matches[i].ships.length){ //there aren't ship overlapped\n                    payable(msg.sender).transfer(address(this).balance);\n                }\n            }\n        }\n    }\n\n    function notifyDelay() public{\n        //wait for 5 blocks and if there isn't a reply\n        // pay the other player\n    }\n\n\n    /**\n        Some utility functions for internal use only    \n     */\n    function splitString(string memory _s, string memory _separator) internal pure returns(string[] memory){\n        string memory _temp=\"\";\n        uint count=0;\n        bytes memory _sbytes=bytes(_s);\n        string[] memory _res = new string[](bytes(_s).length);\n        for(uint i=0; i < _sbytes.length; i++){\n            if(_sbytes[i]==bytes(_separator)[0]){\n                _res[count] = _temp;\n                count++;\n            }\n            else{\n                _temp=string(bytes.concat(bytes(_temp), bytes(_s)[i]));\n            }\n        }\n        return _res;\n    }\n\n    function stringToUint(string memory _str) internal pure returns (uint) {\n        bytes memory b = bytes(_str);\n        uint result = 0;\n        for (uint i = 0; i < b.length; i++) {\n            uint c = uint(uint8(b[i]));\n            if (c >= 48 && c <= 57) {\n                result = result * 10 + (c - 48);\n            }\n        }\n        return result;\n    }\n}",
  "sourcePath": "/home/davide/Documenti/magistrale/P2PBC/projects/battleship/contracts/Game.sol",
  "compiler": {
    "name": "solc",
    "version": "0.8.19+commit.7dd6d404.Emscripten.clang"
  },
  "schemaVersion": "3.4.13",
  "updatedAt": "2023-05-23T08:00:34.636Z",
  "networkType": "ethereum",
  "devdoc": {
    "kind": "dev",
    "methods": {},
    "version": 1
  },
  "userdoc": {
    "kind": "user",
    "methods": {
      "getLastMoves(bytes32)": {
        "notice": "get the last move of the game then compute the merkle tree as a proof "
      },
      "setReward(bytes32,int256)": {
        "notice": "The two part agree offline and the first who call this method also set the reward.    "
      }
    },
    "version": 1
  }
}