{
  "contractName": "Game",
  "abi": [
    {
      "anonymous": false,
      "inputs": [
        {
          "indexed": false,
          "internalType": "address",
          "name": "cheater",
          "type": "address"
        },
        {
          "indexed": false,
          "internalType": "address",
          "name": "receiver",
          "type": "address"
        },
        {
          "indexed": false,
          "internalType": "bytes32",
          "name": "gameId",
          "type": "bytes32"
        }
      ],
      "name": "SendCheatPayment",
      "type": "event"
    },
    {
      "anonymous": false,
      "inputs": [
        {
          "indexed": false,
          "internalType": "address",
          "name": "p1",
          "type": "address"
        },
        {
          "indexed": false,
          "internalType": "address",
          "name": "p2",
          "type": "address"
        },
        {
          "indexed": false,
          "internalType": "bytes32",
          "name": "gameId",
          "type": "bytes32"
        }
      ],
      "name": "SendGameStart",
      "type": "event"
    },
    {
      "anonymous": false,
      "inputs": [
        {
          "indexed": false,
          "internalType": "address",
          "name": "player",
          "type": "address"
        },
        {
          "indexed": false,
          "internalType": "bool",
          "name": "hit",
          "type": "bool"
        },
        {
          "indexed": false,
          "internalType": "string",
          "name": "coordinate",
          "type": "string"
        },
        {
          "indexed": false,
          "internalType": "bytes32",
          "name": "gameId",
          "type": "bytes32"
        }
      ],
      "name": "SendMoveResult",
      "type": "event"
    },
    {
      "anonymous": false,
      "inputs": [
        {
          "indexed": false,
          "internalType": "address",
          "name": "player",
          "type": "address"
        },
        {
          "indexed": false,
          "internalType": "string",
          "name": "move",
          "type": "string"
        },
        {
          "indexed": false,
          "internalType": "bytes32",
          "name": "gameId",
          "type": "bytes32"
        }
      ],
      "name": "SendMovesAdvice",
      "type": "event"
    },
    {
      "anonymous": false,
      "inputs": [
        {
          "indexed": false,
          "internalType": "address",
          "name": "player",
          "type": "address"
        },
        {
          "indexed": false,
          "internalType": "bytes32",
          "name": "gameId",
          "type": "bytes32"
        },
        {
          "indexed": false,
          "internalType": "uint256",
          "name": "ships",
          "type": "uint256"
        },
        {
          "indexed": false,
          "internalType": "uint256",
          "name": "tableSize",
          "type": "uint256"
        }
      ],
      "name": "SendNewGameCreate",
      "type": "event"
    },
    {
      "anonymous": false,
      "inputs": [
        {
          "indexed": false,
          "internalType": "address",
          "name": "player",
          "type": "address"
        },
        {
          "indexed": false,
          "internalType": "int256",
          "name": "amount",
          "type": "int256"
        },
        {
          "indexed": false,
          "internalType": "bytes32",
          "name": "gameId",
          "type": "bytes32"
        }
      ],
      "name": "SendRequestAmount",
      "type": "event"
    },
    {
      "anonymous": false,
      "inputs": [
        {
          "indexed": false,
          "internalType": "address",
          "name": "player",
          "type": "address"
        },
        {
          "indexed": false,
          "internalType": "bytes32",
          "name": "gameId",
          "type": "bytes32"
        }
      ],
      "name": "SendRequestBoard",
      "type": "event"
    },
    {
      "anonymous": false,
      "inputs": [
        {
          "indexed": false,
          "internalType": "address",
          "name": "player",
          "type": "address"
        },
        {
          "indexed": false,
          "internalType": "bytes32",
          "name": "gameId",
          "type": "bytes32"
        }
      ],
      "name": "SendStopReport",
      "type": "event"
    },
    {
      "anonymous": false,
      "inputs": [
        {
          "indexed": false,
          "internalType": "address",
          "name": "play",
          "type": "address"
        },
        {
          "indexed": false,
          "internalType": "address",
          "name": "wait",
          "type": "address"
        },
        {
          "indexed": false,
          "internalType": "bytes32",
          "name": "gameId",
          "type": "bytes32"
        }
      ],
      "name": "SendTurnAdvice",
      "type": "event"
    },
    {
      "anonymous": false,
      "inputs": [
        {
          "indexed": false,
          "internalType": "address",
          "name": "winner",
          "type": "address"
        },
        {
          "indexed": false,
          "internalType": "address",
          "name": "loser",
          "type": "address"
        },
        {
          "indexed": false,
          "internalType": "bytes32",
          "name": "gameId",
          "type": "bytes32"
        }
      ],
      "name": "SendVictory",
      "type": "event"
    },
    {
      "anonymous": false,
      "inputs": [
        {
          "indexed": false,
          "internalType": "address",
          "name": "player",
          "type": "address"
        },
        {
          "indexed": false,
          "internalType": "bytes32",
          "name": "gameId",
          "type": "bytes32"
        }
      ],
      "name": "SendWrongMove",
      "type": "event"
    },
    {
      "stateMutability": "nonpayable",
      "type": "fallback"
    },
    {
      "inputs": [
        {
          "internalType": "uint256",
          "name": "",
          "type": "uint256"
        }
      ],
      "name": "matches",
      "outputs": [
        {
          "internalType": "bytes32",
          "name": "gameId",
          "type": "bytes32"
        },
        {
          "internalType": "uint256",
          "name": "tableSize",
          "type": "uint256"
        },
        {
          "internalType": "uint256",
          "name": "ships",
          "type": "uint256"
        },
        {
          "internalType": "address",
          "name": "p1",
          "type": "address"
        },
        {
          "internalType": "address",
          "name": "p2",
          "type": "address"
        },
        {
          "internalType": "int256",
          "name": "registration",
          "type": "int256"
        },
        {
          "internalType": "int256",
          "name": "reward",
          "type": "int256"
        },
        {
          "internalType": "bool",
          "name": "turn",
          "type": "bool"
        },
        {
          "internalType": "bytes32",
          "name": "b1",
          "type": "bytes32"
        },
        {
          "internalType": "bytes32",
          "name": "b2",
          "type": "bytes32"
        },
        {
          "internalType": "string",
          "name": "lastMove",
          "type": "string"
        },
        {
          "internalType": "uint256",
          "name": "lastBlockPlayed",
          "type": "uint256"
        }
      ],
      "stateMutability": "view",
      "type": "function",
      "constant": true
    },
    {
      "inputs": [
        {
          "internalType": "bytes32",
          "name": "_gameId",
          "type": "bytes32"
        },
        {
          "internalType": "bool",
          "name": "_isNew",
          "type": "bool"
        },
        {
          "internalType": "uint8[]",
          "name": "_info",
          "type": "uint8[]"
        }
      ],
      "name": "join",
      "outputs": [],
      "stateMutability": "nonpayable",
      "type": "function"
    },
    {
      "inputs": [
        {
          "internalType": "bytes32",
          "name": "_gameId",
          "type": "bytes32"
        },
        {
          "internalType": "int256",
          "name": "_registration",
          "type": "int256"
        }
      ],
      "name": "setReward",
      "outputs": [],
      "stateMutability": "nonpayable",
      "type": "function"
    },
    {
      "inputs": [
        {
          "internalType": "bytes32",
          "name": "_gameId",
          "type": "bytes32"
        }
      ],
      "name": "getInformations",
      "outputs": [
        {
          "internalType": "bytes32",
          "name": "",
          "type": "bytes32"
        },
        {
          "internalType": "bytes",
          "name": "",
          "type": "bytes"
        },
        {
          "internalType": "bytes",
          "name": "",
          "type": "bytes"
        },
        {
          "internalType": "address",
          "name": "",
          "type": "address"
        },
        {
          "internalType": "address",
          "name": "",
          "type": "address"
        },
        {
          "internalType": "bytes",
          "name": "",
          "type": "bytes"
        },
        {
          "internalType": "bytes",
          "name": "",
          "type": "bytes"
        },
        {
          "internalType": "bool",
          "name": "",
          "type": "bool"
        },
        {
          "internalType": "bytes32",
          "name": "",
          "type": "bytes32"
        },
        {
          "internalType": "bytes32",
          "name": "",
          "type": "bytes32"
        },
        {
          "internalType": "string",
          "name": "",
          "type": "string"
        },
        {
          "internalType": "string[]",
          "name": "",
          "type": "string[]"
        }
      ],
      "stateMutability": "view",
      "type": "function",
      "constant": true
    },
    {
      "inputs": [
        {
          "internalType": "bytes32",
          "name": "_gameId",
          "type": "bytes32"
        }
      ],
      "name": "getReward",
      "outputs": [
        {
          "internalType": "int256",
          "name": "result",
          "type": "int256"
        }
      ],
      "stateMutability": "view",
      "type": "function",
      "constant": true
    },
    {
      "inputs": [
        {
          "internalType": "bytes32",
          "name": "_gameId",
          "type": "bytes32"
        }
      ],
      "name": "pay",
      "outputs": [],
      "stateMutability": "payable",
      "type": "function",
      "payable": true
    },
    {
      "inputs": [
        {
          "internalType": "bytes32",
          "name": "_gameId",
          "type": "bytes32"
        },
        {
          "internalType": "bytes32",
          "name": "_hashedBoard",
          "type": "bytes32"
        }
      ],
      "name": "setBoard",
      "outputs": [],
      "stateMutability": "nonpayable",
      "type": "function"
    },
    {
      "inputs": [
        {
          "internalType": "bytes32",
          "name": "_gameId",
          "type": "bytes32"
        },
        {
          "internalType": "string",
          "name": "_coordinate",
          "type": "string"
        }
      ],
      "name": "shoot",
      "outputs": [],
      "stateMutability": "nonpayable",
      "type": "function"
    },
    {
      "inputs": [
        {
          "internalType": "bytes32",
          "name": "_gameId",
          "type": "bytes32"
        }
      ],
      "name": "getLastMoves",
      "outputs": [
        {
          "internalType": "string",
          "name": "result",
          "type": "string"
        }
      ],
      "stateMutability": "view",
      "type": "function",
      "constant": true
    },
    {
      "inputs": [
        {
          "internalType": "bytes32",
          "name": "_gameId",
          "type": "bytes32"
        },
        {
          "internalType": "bytes32[]",
          "name": "_sibilings",
          "type": "bytes32[]"
        },
        {
          "internalType": "bool",
          "name": "_hit",
          "type": "bool"
        },
        {
          "internalType": "uint256",
          "name": "_leafIndex",
          "type": "uint256"
        }
      ],
      "name": "checkMerkleProof",
      "outputs": [],
      "stateMutability": "nonpayable",
      "type": "function"
    },
    {
      "inputs": [
        {
          "internalType": "bytes32",
          "name": "_gameId",
          "type": "bytes32"
        },
        {
          "internalType": "uint256[]",
          "name": "_board",
          "type": "uint256[]"
        }
      ],
      "name": "checkBoard",
      "outputs": [],
      "stateMutability": "payable",
      "type": "function",
      "payable": true
    },
    {
      "inputs": [
        {
          "internalType": "bytes32",
          "name": "_gameId",
          "type": "bytes32"
        }
      ],
      "name": "notifyDelay",
      "outputs": [],
      "stateMutability": "nonpayable",
      "type": "function"
    },
    {
      "inputs": [],
      "name": "dummyFunction",
      "outputs": [],
      "stateMutability": "nonpayable",
      "type": "function"
    }
  ],
  "bytecode": "0x608060405234801561001057600080fd5b50615353806100206000396000f3fe6080604052600436106100c65760003560e01c80638609cad11161007f578063d679430211610059578063d679430214610279578063e0e797ee146102a2578063e4cc82a0146102cb578063fbf5fea814610308576100c7565b80638609cad11461020b578063b4df513814610227578063c7bad2b714610250576100c7565b806301fb893a146100e2578063106df9871461012a5780634768d4ef146101465780634da6a8541461018e57806363fed9a4146101b75780637ec9d81f146101f4576100c7565b5b3480156100d357600080fd5b506100e06000801b610331565b005b3480156100ee57600080fd5b5061010960048036038101906101049190613afb565b6103d2565b6040516101219c9b9a99989796959493929190613d84565b60405180910390f35b610144600480360381019061013f9190613fe6565b61087b565b005b34801561015257600080fd5b5061016d60048036038101906101689190614042565b610ca3565b6040516101859c9b9a99989796959493929190614097565b60405180910390f35b34801561019a57600080fd5b506101b560048036038101906101b09190614247565b610de8565b005b3480156101c357600080fd5b506101de60048036038101906101d99190613afb565b6119ce565b6040516101eb91906142ca565b60405180910390f35b34801561020057600080fd5b50610209611a5a565b005b61022560048036038101906102209190613afb565b610331565b005b34801561023357600080fd5b5061024e600480360381019061024991906143e1565b611a5c565b005b34801561025c57600080fd5b50610277600480360381019061027291906144ab565b6122f6565b005b34801561028557600080fd5b506102a0600480360381019061029b9190613afb565b612698565b005b3480156102ae57600080fd5b506102c960048036038101906102c49190614537565b612df3565b005b3480156102d757600080fd5b506102f260048036038101906102ed9190613afb565b613178565b6040516102ff9190614577565b60405180910390f35b34801561031457600080fd5b5061032f600480360381019061032a9190614599565b613289565b005b60005b6000805490508160ff1610156103ce578160008260ff168154811061035c5761035b6145d9565b5b90600052602060002090600d020160000154036103bb5760008160ff168154811061038a576103896145d9565b5b90600052602060002090600d020160050154670de0b6b3a7640000346103b09190614666565b146103ba57600080fd5b5b80806103c690614697565b915050610334565b5050565b6000606080600080606080600080600060608060005b6000805490508160ff16101561086a578d60008260ff16815481106104105761040f6145d9565b5b90600052602060002090600d020160000154036108575760008160ff168154811061043e5761043d6145d9565b5b90600052602060002090600d02016000015460008260ff1681548110610467576104666145d9565b5b90600052602060002090600d02016001015460405160200161048991906146e1565b60405160208183030381529060405260008360ff16815481106104af576104ae6145d9565b5b90600052602060002090600d0201600201546040516020016104d191906146e1565b60405160208183030381529060405260008460ff16815481106104f7576104f66145d9565b5b90600052602060002090600d020160030160009054906101000a900473ffffffffffffffffffffffffffffffffffffffff1660008560ff16815481106105405761053f6145d9565b5b90600052602060002090600d020160040160009054906101000a900473ffffffffffffffffffffffffffffffffffffffff1660008660ff1681548110610589576105886145d9565b5b90600052602060002090600d0201600501546040516020016105ab919061471d565b60405160208183030381529060405260008760ff16815481106105d1576105d06145d9565b5b90600052602060002090600d0201600601546040516020016105f3919061471d565b60405160208183030381529060405260008860ff1681548110610619576106186145d9565b5b90600052602060002090600d020160070160009054906101000a900460ff1660008960ff168154811061064f5761064e6145d9565b5b90600052602060002090600d02016008015460008a60ff1681548110610678576106776145d9565b5b90600052602060002090600d02016009015460008b60ff16815481106106a1576106a06145d9565b5b90600052602060002090600d0201600a0160008c60ff16815481106106c9576106c86145d9565b5b90600052602060002090600d0201600b018180546106e690614767565b80601f016020809104026020016040519081016040528092919081815260200182805461071290614767565b801561075f5780601f106107345761010080835404028352916020019161075f565b820191906000526020600020905b81548152906001019060200180831161074257829003601f168201915b5050505050915080805480602002602001604051908101604052809291908181526020016000905b828210156108335783829060005260206000200180546107a690614767565b80601f01602080910402602001604051908101604052809291908181526020018280546107d290614767565b801561081f5780601f106107f45761010080835404028352916020019161081f565b820191906000526020600020905b81548152906001019060200180831161080257829003601f168201915b505050505081526020019060010190610787565b5050505090509c509c509c509c509c509c509c509c509c509c509c509c505061086c565b808061086290614697565b9150506103e8565b505b91939597999b5091939597999b565b60005b6000805490508160ff161015610c9e578260008260ff16815481106108a6576108a56145d9565b5b90600052602060002090600d02016000015403610c8b576000805b600260008460ff16815481106108da576108d96145d9565b5b90600052602060002090600d0201600101546108f691906148cb565b811015610941576001848281518110610912576109116145d9565b5b60200260200101510361092e57818061092a90614697565b9250505b808061093990614916565b9150506108c1565b50600260008360ff168154811061095b5761095a6145d9565b5b90600052602060002090600d020160020154610977919061495e565b8160ff1603610c89576000670de0b6b3a764000060008460ff16815481106109a2576109a16145d9565b5b90600052602060002090600d0201600601546109be919061495e565b90506000808460ff16815481106109d8576109d76145d9565b5b90600052602060002090600d0201600601819055503373ffffffffffffffffffffffffffffffffffffffff166108fc829081150290604051600060405180830381858888f19350505050158015610a33573d6000803e3d6000fd5b5060008360ff1681548110610a4b57610a4a6145d9565b5b90600052602060002090600d020160030160009054906101000a900473ffffffffffffffffffffffffffffffffffffffff1673ffffffffffffffffffffffffffffffffffffffff163373ffffffffffffffffffffffffffffffffffffffff1603610b5f577ff2dde43962fdbcd6f2cfcd65c6ef200b90c7c7f410f926232edffd5e4c97431c3360008560ff1681548110610ae857610ae76145d9565b5b90600052602060002090600d020160040160009054906101000a900473ffffffffffffffffffffffffffffffffffffffff1660008660ff1681548110610b3157610b306145d9565b5b90600052602060002090600d020160000154604051610b52939291906149a0565b60405180910390a1610c87565b60008360ff1681548110610b7657610b756145d9565b5b90600052602060002090600d020160040160009054906101000a900473ffffffffffffffffffffffffffffffffffffffff1673ffffffffffffffffffffffffffffffffffffffff163373ffffffffffffffffffffffffffffffffffffffff1603610c86577ff2dde43962fdbcd6f2cfcd65c6ef200b90c7c7f410f926232edffd5e4c97431c60008460ff1681548110610c1257610c116145d9565b5b90600052602060002090600d020160040160009054906101000a900473ffffffffffffffffffffffffffffffffffffffff163360008660ff1681548110610c5c57610c5b6145d9565b5b90600052602060002090600d020160000154604051610c7d939291906149a0565b60405180910390a15b5b505b505b8080610c9690614697565b91505061087e565b505050565b60008181548110610cb357600080fd5b90600052602060002090600d02016000915090508060000154908060010154908060020154908060030160009054906101000a900473ffffffffffffffffffffffffffffffffffffffff16908060040160009054906101000a900473ffffffffffffffffffffffffffffffffffffffff16908060050154908060060154908060070160009054906101000a900460ff169080600801549080600901549080600a018054610d5f90614767565b80601f0160208091040260200160405190810160405280929190818152602001828054610d8b90614767565b8015610dd85780601f10610dad57610100808354040283529160200191610dd8565b820191906000526020600020905b815481529060010190602001808311610dbb57829003601f168201915b50505050509080600c015490508c565b60005b6000805490508160ff1610156119c6578460008260ff1681548110610e1357610e126145d9565b5b90600052602060002090600d020160000154036119b35760003373ffffffffffffffffffffffffffffffffffffffff1660008360ff1681548110610e5a57610e596145d9565b5b90600052602060002090600d020160030160009054906101000a900473ffffffffffffffffffffffffffffffffffffffff1673ffffffffffffffffffffffffffffffffffffffff1603610ed75760008260ff1681548110610ebe57610ebd6145d9565b5b90600052602060002090600d0201600801549050610f7f565b3373ffffffffffffffffffffffffffffffffffffffff1660008360ff1681548110610f0557610f046145d9565b5b90600052602060002090600d020160040160009054906101000a900473ffffffffffffffffffffffffffffffffffffffff1673ffffffffffffffffffffffffffffffffffffffff1603610f7e5760008260ff1681548110610f6957610f686145d9565b5b90600052602060002090600d02016009015490505b5b600085600081518110610f9557610f946145d9565b5b602002602001015190506000600190505b86518110156110675760008290506000888381518110610fc957610fc86145d9565b5b602002602001015190506000600288610fe291906149d7565b03611017578181604051602001610ffa929190614a29565b604051602081830303815290604052805190602001209350611043565b808260405160200161102a929190614a29565b6040516020818303038152906040528051906020012093505b6002876110509190614666565b96505050808061105f90614916565b915050610fa6565b5081810361194a576000856110b1576040518060400160405280600281526020017f2d300000000000000000000000000000000000000000000000000000000000008152506110e8565b6040518060400160405280600281526020017f2d310000000000000000000000000000000000000000000000000000000000008152505b905060008460ff1681548110611101576111006145d9565b5b90600052602060002090600d0201600b0160008560ff1681548110611129576111286145d9565b5b90600052602060002090600d0201600a018260405160200161114c929190614b29565b60405160208183030381529060405290806001815401808255809150506001900390600052602060002001600090919091909150908161118c9190614ce4565b504360008560ff16815481106111a5576111a46145d9565b5b90600052602060002090600d0201600c01819055506000808560ff16815481106111d2576111d16145d9565b5b90600052602060002090600d020160030160009054906101000a900473ffffffffffffffffffffffffffffffffffffffff1673ffffffffffffffffffffffffffffffffffffffff163373ffffffffffffffffffffffffffffffffffffffff160361135a5760008560ff168154811061124d5761124c6145d9565b5b90600052602060002090600d020160040160009054906101000a900473ffffffffffffffffffffffffffffffffffffffff1690507fe56e85d9e65963d058594c7c024dd147565390017c3a7c7ed59f018f3d6c8c1b60008660ff16815481106112b9576112b86145d9565b5b90600052602060002090600d020160040160009054906101000a900473ffffffffffffffffffffffffffffffffffffffff168860008860ff1681548110611303576113026145d9565b5b90600052602060002090600d0201600a0160008960ff168154811061132b5761132a6145d9565b5b90600052602060002090600d02016000015460405161134d9493929190614e3a565b60405180910390a16114f6565b3373ffffffffffffffffffffffffffffffffffffffff1660008660ff1681548110611388576113876145d9565b5b90600052602060002090600d020160040160009054906101000a900473ffffffffffffffffffffffffffffffffffffffff1673ffffffffffffffffffffffffffffffffffffffff16036114f55760008560ff16815481106113ec576113eb6145d9565b5b90600052602060002090600d020160030160009054906101000a900473ffffffffffffffffffffffffffffffffffffffff1690507fe56e85d9e65963d058594c7c024dd147565390017c3a7c7ed59f018f3d6c8c1b60008660ff1681548110611458576114576145d9565b5b90600052602060002090600d020160030160009054906101000a900473ffffffffffffffffffffffffffffffffffffffff168860008860ff16815481106114a2576114a16145d9565b5b90600052602060002090600d0201600a0160008960ff16815481106114ca576114c96145d9565b5b90600052602060002090600d0201600001546040516114ec9493929190614e3a565b60405180910390a15b5b6117b160008660ff16815481106115105761150f6145d9565b5b90600052602060002090600d0201604051806101a00160405290816000820154815260200160018201548152602001600282015481526020016003820160009054906101000a900473ffffffffffffffffffffffffffffffffffffffff1673ffffffffffffffffffffffffffffffffffffffff1673ffffffffffffffffffffffffffffffffffffffff1681526020016004820160009054906101000a900473ffffffffffffffffffffffffffffffffffffffff1673ffffffffffffffffffffffffffffffffffffffff1673ffffffffffffffffffffffffffffffffffffffff16815260200160058201548152602001600682015481526020016007820160009054906101000a900460ff161515151581526020016008820154815260200160098201548152602001600a8201805461164790614767565b80601f016020809104026020016040519081016040528092919081815260200182805461167390614767565b80156116c05780601f10611695576101008083540402835291602001916116c0565b820191906000526020600020905b8154815290600101906020018083116116a357829003601f168201915b50505050508152602001600b8201805480602002602001604051908101604052809291908181526020016000905b8282101561179a57838290600052602060002001805461170d90614767565b80601f016020809104026020016040519081016040528092919081815260200182805461173990614767565b80156117865780601f1061175b57610100808354040283529160200191611786565b820191906000526020600020905b81548152906001019060200180831161176957829003601f168201915b5050505050815260200190600101906116ee565b505050508152602001600c8201548152505061359c565b1561181c577f23d12210c92e428791c20906d2f9b230a2f2625329d7083e888c71da9817e9ea8160008760ff16815481106117ef576117ee6145d9565b5b90600052602060002090600d02016000015460405161180f929190614e86565b60405180910390a1611940565b60008560ff1681548110611833576118326145d9565b5b90600052602060002090600d020160070160009054906101000a900460ff1661189b57600160008660ff168154811061186f5761186e6145d9565b5b90600052602060002090600d020160070160006101000a81548160ff02191690831515021790556118db565b6000808660ff16815481106118b3576118b26145d9565b5b90600052602060002090600d020160070160006101000a81548160ff02191690831515021790555b507f35b818715483cbf3751f7caa7b6bb0152712f497266c3d6e033594a7c312e27e338260008860ff1681548110611916576119156145d9565b5b90600052602060002090600d020160000154604051611937939291906149a0565b60405180910390a15b50505050506119c8565b7f634cadcfa5260014bc7ab3e8b7886ed9eff26612fc19c9e42d110360385e3cfa3360008560ff1681548110611983576119826145d9565b5b90600052602060002090600d0201600001546040516119a3929190614e86565b60405180910390a15050506119c8565b80806119be90614697565b915050610deb565b505b50505050565b600080600090505b6000805490508160ff161015611a54578260008260ff16815481106119fe576119fd6145d9565b5b90600052602060002090600d02016000015403611a415760008160ff1681548110611a2c57611a2b6145d9565b5b90600052602060002090600d02016005015491505b8080611a4c90614697565b9150506119d6565b50919050565b565b6000801b8314611d175760005b6000805490508160ff161015611d15578360008260ff1681548110611a9157611a906145d9565b5b90600052602060002090600d02016000015403611d0257600073ffffffffffffffffffffffffffffffffffffffff1660008260ff1681548110611ad757611ad66145d9565b5b90600052602060002090600d020160040160009054906101000a900473ffffffffffffffffffffffffffffffffffffffff1673ffffffffffffffffffffffffffffffffffffffff16148015611ba057503373ffffffffffffffffffffffffffffffffffffffff1660008260ff1681548110611b5557611b546145d9565b5b90600052602060002090600d020160030160009054906101000a900473ffffffffffffffffffffffffffffffffffffffff1673ffffffffffffffffffffffffffffffffffffffff1614155b15611cbd573360008260ff1681548110611bbd57611bbc6145d9565b5b90600052602060002090600d020160040160006101000a81548173ffffffffffffffffffffffffffffffffffffffff021916908373ffffffffffffffffffffffffffffffffffffffff1602179055507fb950ede75237b74ff70b420cdd4071b08ca4b2a9f8a266ddcd8c408b58577e133360008360ff1681548110611c4557611c446145d9565b5b90600052602060002090600d020160030160009054906101000a900473ffffffffffffffffffffffffffffffffffffffff1660008460ff1681548110611c8e57611c8d6145d9565b5b90600052602060002090600d020160000154604051611caf939291906149a0565b60405180910390a1506122f1565b7f3baf3f8e2dd70ad22e86a9d44c0df0d7b3d08b1febe5cbb35803f1b02d89471b336000806000604051611cf49493929190614f28565b60405180910390a1506122f1565b8080611d0d90614697565b915050611a69565b505b81156120755760008080549050604051602001611d349190614f6d565b60405160208183030381529060405280519060200120905060008067ffffffffffffffff811115611d6857611d67613e6d565b5b604051908082528060200260200182016040528015611d9b57816020015b6060815260200190600190039081611d865790505b5090506000604051806101a0016040528084815260200185600181518110611dc657611dc56145d9565b5b602002602001015160ff16815260200185600081518110611dea57611de96145d9565b5b602002602001015160ff1681526020013373ffffffffffffffffffffffffffffffffffffffff168152602001600073ffffffffffffffffffffffffffffffffffffffff1681526020017fffffffffffffffffffffffffffffffffffffffffffffffffffffffffffffffff8152602001600081526020016001151581526020016000801b81526020016000801b81526020016040518060200160405280600081525081526020018381526020014381525090806001815401808255809150506001900390600052602060002090600d020160009091909190915060008201518160000155602082015181600101556040820151816002015560608201518160030160006101000a81548173ffffffffffffffffffffffffffffffffffffffff021916908373ffffffffffffffffffffffffffffffffffffffff16021790555060808201518160040160006101000a81548173ffffffffffffffffffffffffffffffffffffffff021916908373ffffffffffffffffffffffffffffffffffffffff16021790555060a0820151816005015560c0820151816006015560e08201518160070160006101000a81548160ff0219169083151502179055506101008201518160080155610120820151816009015561014082015181600a019081611fcf9190614ce4565b5061016082015181600b019080519060200190611fed9291906139d7565b5061018082015181600c015550507f3baf3f8e2dd70ad22e86a9d44c0df0d7b3d08b1febe5cbb35803f1b02d89471b338385600081518110612032576120316145d9565b5b60200260200101518660018151811061204e5761204d6145d9565b5b60200260200101516040516120669493929190614fb9565b60405180910390a150506122f1565b60005b6000805490508160ff1610156122b057600073ffffffffffffffffffffffffffffffffffffffff1660008260ff16815481106120b7576120b66145d9565b5b90600052602060002090600d020160040160009054906101000a900473ffffffffffffffffffffffffffffffffffffffff1673ffffffffffffffffffffffffffffffffffffffff1614801561218057503373ffffffffffffffffffffffffffffffffffffffff1660008260ff1681548110612135576121346145d9565b5b90600052602060002090600d020160030160009054906101000a900473ffffffffffffffffffffffffffffffffffffffff1673ffffffffffffffffffffffffffffffffffffffff1614155b1561229d573360008260ff168154811061219d5761219c6145d9565b5b90600052602060002090600d020160040160006101000a81548173ffffffffffffffffffffffffffffffffffffffff021916908373ffffffffffffffffffffffffffffffffffffffff1602179055507fb950ede75237b74ff70b420cdd4071b08ca4b2a9f8a266ddcd8c408b58577e133360008360ff1681548110612225576122246145d9565b5b90600052602060002090600d020160030160009054906101000a900473ffffffffffffffffffffffffffffffffffffffff1660008460ff168154811061226e5761226d6145d9565b5b90600052602060002090600d02016000015460405161228f939291906149a0565b60405180910390a1506122f1565b80806122a890614697565b915050612078565b507f3baf3f8e2dd70ad22e86a9d44c0df0d7b3d08b1febe5cbb35803f1b02d89471b3360008060006040516122e89493929190614f28565b60405180910390a15b505050565b60005b6000805490508160ff161015612692578360008260ff1681548110612321576123206145d9565b5b90600052602060002090600d0201600001540361267f573373ffffffffffffffffffffffffffffffffffffffff1660008260ff1681548110612366576123656145d9565b5b90600052602060002090600d020160030160009054906101000a900473ffffffffffffffffffffffffffffffffffffffff1673ffffffffffffffffffffffffffffffffffffffff161480156123ed575060008160ff16815481106123cd576123cc6145d9565b5b90600052602060002090600d020160070160009054906101000a900460ff165b156124dc57828260008360ff168154811061240b5761240a6145d9565b5b90600052602060002090600d0201600a019182612429929190615009565b507f03ca51ee25c32dc88496a54d517b9239e2812fa82498a1bb76407967dccf543460008260ff1681548110612462576124616145d9565b5b90600052602060002090600d020160040160009054906101000a900473ffffffffffffffffffffffffffffffffffffffff16848460008560ff16815481106124ad576124ac6145d9565b5b90600052602060002090600d0201600001546040516124cf9493929190615115565b60405180910390a161267e565b3373ffffffffffffffffffffffffffffffffffffffff1660008260ff168154811061250a576125096145d9565b5b90600052602060002090600d020160040160009054906101000a900473ffffffffffffffffffffffffffffffffffffffff1673ffffffffffffffffffffffffffffffffffffffff16148015612592575060008160ff1681548110612571576125706145d9565b5b90600052602060002090600d020160070160009054906101000a900460ff16155b1561267d57828260008360ff16815481106125b0576125af6145d9565b5b90600052602060002090600d0201600a0191826125ce929190615009565b507f03ca51ee25c32dc88496a54d517b9239e2812fa82498a1bb76407967dccf543460008260ff1681548110612607576126066145d9565b5b90600052602060002090600d020160030160009054906101000a900473ffffffffffffffffffffffffffffffffffffffff16848460008560ff1681548110612652576126516145d9565b5b90600052602060002090600d0201600001546040516126749493929190615115565b60405180910390a15b5b5b808061268a90614697565b9150506122f9565b50505050565b60005b6000805490508160ff161015612dee578160008260ff16815481106126c3576126c26145d9565b5b90600052602060002090600d02016000015403612ddb5760008160ff16815481106126f1576126f06145d9565b5b90600052602060002090600d020160030160009054906101000a900473ffffffffffffffffffffffffffffffffffffffff1673ffffffffffffffffffffffffffffffffffffffff163373ffffffffffffffffffffffffffffffffffffffff160361279a5760008160ff168154811061276c5761276b6145d9565b5b90600052602060002090600d020160070160009054906101000a900460ff161561279557600080fd5b612856565b60008160ff16815481106127b1576127b06145d9565b5b90600052602060002090600d020160040160009054906101000a900473ffffffffffffffffffffffffffffffffffffffff1673ffffffffffffffffffffffffffffffffffffffff163373ffffffffffffffffffffffffffffffffffffffff16036128555760008160ff168154811061282c5761282b6145d9565b5b90600052602060002090600d020160070160009054906101000a900460ff1661285457600080fd5b5b5b600560008260ff168154811061286f5761286e6145d9565b5b90600052602060002090600d0201600c015461288b9190615155565b4310612d745760008160ff16815481106128a8576128a76145d9565b5b90600052602060002090600d020160030160009054906101000a900473ffffffffffffffffffffffffffffffffffffffff1673ffffffffffffffffffffffffffffffffffffffff163373ffffffffffffffffffffffffffffffffffffffff1603612b02577fb5d33b7d3fde251247342c341bfcf29a1ba0c958819d37dd956b2bf1e40e131660008260ff1681548110612944576129436145d9565b5b90600052602060002090600d020160040160009054906101000a900473ffffffffffffffffffffffffffffffffffffffff1660008360ff168154811061298d5761298c6145d9565b5b90600052602060002090600d020160030160009054906101000a900473ffffffffffffffffffffffffffffffffffffffff1660008460ff16815481106129d6576129d56145d9565b5b90600052602060002090600d0201600001546040516129f7939291906149a0565b60405180910390a16000670de0b6b3a764000060008360ff1681548110612a2157612a206145d9565b5b90600052602060002090600d020160060154612a3d919061495e565b90506000808360ff1681548110612a5757612a566145d9565b5b90600052602060002090600d02016006018190555060008260ff1681548110612a8357612a826145d9565b5b90600052602060002090600d020160030160009054906101000a900473ffffffffffffffffffffffffffffffffffffffff1673ffffffffffffffffffffffffffffffffffffffff166108fc829081150290604051600060405180830381858888f19350505050158015612afa573d6000803e3d6000fd5b505050612df0565b60008160ff1681548110612b1957612b186145d9565b5b90600052602060002090600d020160040160009054906101000a900473ffffffffffffffffffffffffffffffffffffffff1673ffffffffffffffffffffffffffffffffffffffff163373ffffffffffffffffffffffffffffffffffffffff1603612d73577fb5d33b7d3fde251247342c341bfcf29a1ba0c958819d37dd956b2bf1e40e131660008260ff1681548110612bb557612bb46145d9565b5b90600052602060002090600d020160030160009054906101000a900473ffffffffffffffffffffffffffffffffffffffff1660008360ff1681548110612bfe57612bfd6145d9565b5b90600052602060002090600d020160040160009054906101000a900473ffffffffffffffffffffffffffffffffffffffff1660008460ff1681548110612c4757612c466145d9565b5b90600052602060002090600d020160000154604051612c68939291906149a0565b60405180910390a16000670de0b6b3a764000060008360ff1681548110612c9257612c916145d9565b5b90600052602060002090600d020160060154612cae919061495e565b90506000808360ff1681548110612cc857612cc76145d9565b5b90600052602060002090600d02016006018190555060008260ff1681548110612cf457612cf36145d9565b5b90600052602060002090600d020160040160009054906101000a900473ffffffffffffffffffffffffffffffffffffffff1673ffffffffffffffffffffffffffffffffffffffff166108fc829081150290604051600060405180830381858888f19350505050158015612d6b573d6000803e3d6000fd5b505050612df0565b5b7f31c75d681c5097d590858bec0022e6952d72423cdc4bd3625c73d475ab2c9f193360008360ff1681548110612dad57612dac6145d9565b5b90600052602060002090600d020160000154604051612dcd929190614e86565b60405180910390a150612df0565b8080612de690614697565b91505061269b565b505b50565b60005b6000805490508160ff161015613172578260008260ff1681548110612e1e57612e1d6145d9565b5b90600052602060002090600d0201600001540361315f576000808260ff1681548110612e4d57612e4c6145d9565b5b90600052602060002090600d02016005015412156130eb578160008260ff1681548110612e7d57612e7c6145d9565b5b90600052602060002090600d0201600501819055503373ffffffffffffffffffffffffffffffffffffffff1660008260ff1681548110612ec057612ebf6145d9565b5b90600052602060002090600d020160030160009054906101000a900473ffffffffffffffffffffffffffffffffffffffff1673ffffffffffffffffffffffffffffffffffffffff1603612fbd577f3957c7b2933548c8f7a78d5bd3ebda287b403a848513835e06d5f47dcfbdcb2660008260ff1681548110612f4557612f446145d9565b5b90600052602060002090600d020160040160009054906101000a900473ffffffffffffffffffffffffffffffffffffffff168360008460ff1681548110612f8f57612f8e6145d9565b5b90600052602060002090600d020160000154604051612fb093929190615189565b60405180910390a16130e5565b3373ffffffffffffffffffffffffffffffffffffffff1660008260ff1681548110612feb57612fea6145d9565b5b90600052602060002090600d020160040160009054906101000a900473ffffffffffffffffffffffffffffffffffffffff1673ffffffffffffffffffffffffffffffffffffffff16036130e4577f3957c7b2933548c8f7a78d5bd3ebda287b403a848513835e06d5f47dcfbdcb2660008260ff16815481106130705761306f6145d9565b5b90600052602060002090600d020160030160009054906101000a900473ffffffffffffffffffffffffffffffffffffffff168360008460ff16815481106130ba576130b96145d9565b5b90600052602060002090600d0201600001546040516130db93929190615189565b60405180910390a15b5b50613174565b8160008260ff1681548110613103576131026145d9565b5b90600052602060002090600d020160050154036131595760028261312791906151c0565b60008260ff168154811061313e5761313d6145d9565b5b90600052602060002090600d02016006018190555050613174565b50613174565b808061316a90614697565b915050612df6565b505b5050565b606060005b6000805490508160ff161015613283578260008260ff16815481106131a5576131a46145d9565b5b90600052602060002090600d020160000154036132705760008160ff16815481106131d3576131d26145d9565b5b90600052602060002090600d0201600a0180546131ef90614767565b80601f016020809104026020016040519081016040528092919081815260200182805461321b90614767565b80156132685780601f1061323d57610100808354040283529160200191613268565b820191906000526020600020905b81548152906001019060200180831161324b57829003601f168201915b505050505091505b808061327b90614697565b91505061317d565b50919050565b60005b6000805490508160ff161015613597578260008260ff16815481106132b4576132b36145d9565b5b90600052602060002090600d02016000015403613584573373ffffffffffffffffffffffffffffffffffffffff1660008260ff16815481106132f9576132f86145d9565b5b90600052602060002090600d020160030160009054906101000a900473ffffffffffffffffffffffffffffffffffffffff1673ffffffffffffffffffffffffffffffffffffffff1603613378578160008260ff168154811061335e5761335d6145d9565b5b90600052602060002090600d020160080181905550613422565b3373ffffffffffffffffffffffffffffffffffffffff1660008260ff16815481106133a6576133a56145d9565b5b90600052602060002090600d020160040160009054906101000a900473ffffffffffffffffffffffffffffffffffffffff1673ffffffffffffffffffffffffffffffffffffffff1603613421578160008260ff168154811061340b5761340a6145d9565b5b90600052602060002090600d0201600901819055505b5b600160008260ff168154811061343b5761343a6145d9565b5b90600052602060002090600d020160070160006101000a81548160ff0219169083151502179055504360008260ff168154811061347b5761347a6145d9565b5b90600052602060002090600d0201600c01819055507f35b818715483cbf3751f7caa7b6bb0152712f497266c3d6e033594a7c312e27e60008260ff16815481106134c8576134c76145d9565b5b90600052602060002090600d020160030160009054906101000a900473ffffffffffffffffffffffffffffffffffffffff1660008360ff1681548110613511576135106145d9565b5b90600052602060002090600d020160040160009054906101000a900473ffffffffffffffffffffffffffffffffffffffff1660008460ff168154811061355a576135596145d9565b5b90600052602060002090600d02016000015460405161357b939291906149a0565b60405180910390a15b808061358f90614697565b91505061328c565b505050565b600080600283604001516135b0919061495e565b905060008360e001511561368c5760005b84610160015151811015613686578461016001515181101561367257600061363d86610160015183815181106135fa576135f96145d9565b5b60200260200101516040518060400160405280600181526020017f2d00000000000000000000000000000000000000000000000000000000000000815250613778565b905061366381600281518110613656576136556145d9565b5b602002602001015161393f565b8361366e9190615155565b9250505b60028161367f9190615155565b90506135c1565b5061375a565b6000600190505b84610160015151811015613758578461016001515181101561374457600061370f86610160015183815181106136cc576136cb6145d9565b5b60200260200101516040518060400160405280600181526020017f2d00000000000000000000000000000000000000000000000000000000000000815250613778565b905061373581600281518110613728576137276145d9565b5b602002602001015161393f565b836137409190615155565b9250505b6002816137519190615155565b9050613693565b505b81810361376c57600192505050613773565b6000925050505b919050565b606060006040518060200160405280600081525090506000808590506000865167ffffffffffffffff8111156137b1576137b0613e6d565b5b6040519080825280602002602001820160405280156137e457816020015b60608152602001906001900390816137cf5790505b50905060005b82518110156139125786600081518110613807576138066145d9565b5b602001015160f81c60f81b7effffffffffffffffffffffffffffffffffffffffffffffffffffffffffffff1916838281518110613847576138466145d9565b5b602001015160f81c60f81b7effffffffffffffffffffffffffffffffffffffffffffffffffffffffffffff1916036138bd578482858151811061388d5761388c6145d9565b5b602002602001018190525060405180602001604052806000815250945083806138b590614916565b9450506138ff565b848882815181106138d1576138d06145d9565b5b602001015160f81c60f81b6040516020016138ed9291906152c1565b60405160208183030381529060405294505b808061390a90614916565b9150506137ea565b5083818481518110613927576139266145d9565b5b60200260200101819052508094505050505092915050565b6000808290506000805b82518110156139cc576000838281518110613967576139666145d9565b5b602001015160f81c60f81b60f81c60ff1690506030811015801561398c575060398111155b156139b85760308161399e91906152e9565b600a846139ab919061495e565b6139b59190615155565b92505b5080806139c490614916565b915050613949565b508092505050919050565b828054828255906000526020600020908101928215613a1f579160200282015b82811115613a1e578251829081613a0e9190614ce4565b50916020019190600101906139f7565b5b509050613a2c9190613a30565b5090565b5b80821115613a505760008181613a479190613a54565b50600101613a31565b5090565b508054613a6090614767565b6000825580601f10613a725750613a91565b601f016020900490600052602060002090810190613a909190613a94565b5b50565b5b80821115613aad576000816000905550600101613a95565b5090565b6000604051905090565b600080fd5b600080fd5b6000819050919050565b613ad881613ac5565b8114613ae357600080fd5b50565b600081359050613af581613acf565b92915050565b600060208284031215613b1157613b10613abb565b5b6000613b1f84828501613ae6565b91505092915050565b613b3181613ac5565b82525050565b600081519050919050565b600082825260208201905092915050565b60005b83811015613b71578082015181840152602081019050613b56565b60008484015250505050565b6000601f19601f8301169050919050565b6000613b9982613b37565b613ba38185613b42565b9350613bb3818560208601613b53565b613bbc81613b7d565b840191505092915050565b600073ffffffffffffffffffffffffffffffffffffffff82169050919050565b6000613bf282613bc7565b9050919050565b613c0281613be7565b82525050565b60008115159050919050565b613c1d81613c08565b82525050565b600081519050919050565b600082825260208201905092915050565b6000613c4a82613c23565b613c548185613c2e565b9350613c64818560208601613b53565b613c6d81613b7d565b840191505092915050565b600081519050919050565b600082825260208201905092915050565b6000819050602082019050919050565b600082825260208201905092915050565b6000613cc082613c23565b613cca8185613ca4565b9350613cda818560208601613b53565b613ce381613b7d565b840191505092915050565b6000613cfa8383613cb5565b905092915050565b6000602082019050919050565b6000613d1a82613c78565b613d248185613c83565b935083602082028501613d3685613c94565b8060005b85811015613d725784840389528151613d538582613cee565b9450613d5e83613d02565b925060208a01995050600181019050613d3a565b50829750879550505050505092915050565b600061018082019050613d9a600083018f613b28565b8181036020830152613dac818e613b8e565b90508181036040830152613dc0818d613b8e565b9050613dcf606083018c613bf9565b613ddc608083018b613bf9565b81810360a0830152613dee818a613b8e565b905081810360c0830152613e028189613b8e565b9050613e1160e0830188613c14565b613e1f610100830187613b28565b613e2d610120830186613b28565b818103610140830152613e408185613c3f565b9050818103610160830152613e558184613d0f565b90509d9c50505050505050505050505050565b600080fd5b7f4e487b7100000000000000000000000000000000000000000000000000000000600052604160045260246000fd5b613ea582613b7d565b810181811067ffffffffffffffff82111715613ec457613ec3613e6d565b5b80604052505050565b6000613ed7613ab1565b9050613ee38282613e9c565b919050565b600067ffffffffffffffff821115613f0357613f02613e6d565b5b602082029050602081019050919050565b600080fd5b6000819050919050565b613f2c81613f19565b8114613f3757600080fd5b50565b600081359050613f4981613f23565b92915050565b6000613f62613f5d84613ee8565b613ecd565b90508083825260208201905060208402830185811115613f8557613f84613f14565b5b835b81811015613fae5780613f9a8882613f3a565b845260208401935050602081019050613f87565b5050509392505050565b600082601f830112613fcd57613fcc613e68565b5b8135613fdd848260208601613f4f565b91505092915050565b60008060408385031215613ffd57613ffc613abb565b5b600061400b85828601613ae6565b925050602083013567ffffffffffffffff81111561402c5761402b613ac0565b5b61403885828601613fb8565b9150509250929050565b60006020828403121561405857614057613abb565b5b600061406684828501613f3a565b91505092915050565b61407881613f19565b82525050565b6000819050919050565b6140918161407e565b82525050565b6000610180820190506140ad600083018f613b28565b6140ba602083018e61406f565b6140c7604083018d61406f565b6140d4606083018c613bf9565b6140e1608083018b613bf9565b6140ee60a083018a614088565b6140fb60c0830189614088565b61410860e0830188613c14565b614116610100830187613b28565b614124610120830186613b28565b8181036101408301526141378185613c3f565b905061414761016083018461406f565b9d9c50505050505050505050505050565b600067ffffffffffffffff82111561417357614172613e6d565b5b602082029050602081019050919050565b600061419761419284614158565b613ecd565b905080838252602082019050602084028301858111156141ba576141b9613f14565b5b835b818110156141e357806141cf8882613ae6565b8452602084019350506020810190506141bc565b5050509392505050565b600082601f83011261420257614201613e68565b5b8135614212848260208601614184565b91505092915050565b61422481613c08565b811461422f57600080fd5b50565b6000813590506142418161421b565b92915050565b6000806000806080858703121561426157614260613abb565b5b600061426f87828801613ae6565b945050602085013567ffffffffffffffff8111156142905761428f613ac0565b5b61429c878288016141ed565b93505060406142ad87828801614232565b92505060606142be87828801613f3a565b91505092959194509250565b60006020820190506142df6000830184614088565b92915050565b600067ffffffffffffffff821115614300576142ff613e6d565b5b602082029050602081019050919050565b600060ff82169050919050565b61432781614311565b811461433257600080fd5b50565b6000813590506143448161431e565b92915050565b600061435d614358846142e5565b613ecd565b905080838252602082019050602084028301858111156143805761437f613f14565b5b835b818110156143a957806143958882614335565b845260208401935050602081019050614382565b5050509392505050565b600082601f8301126143c8576143c7613e68565b5b81356143d884826020860161434a565b91505092915050565b6000806000606084860312156143fa576143f9613abb565b5b600061440886828701613ae6565b935050602061441986828701614232565b925050604084013567ffffffffffffffff81111561443a57614439613ac0565b5b614446868287016143b3565b9150509250925092565b600080fd5b60008083601f84011261446b5761446a613e68565b5b8235905067ffffffffffffffff81111561448857614487614450565b5b6020830191508360018202830111156144a4576144a3613f14565b5b9250929050565b6000806000604084860312156144c4576144c3613abb565b5b60006144d286828701613ae6565b935050602084013567ffffffffffffffff8111156144f3576144f2613ac0565b5b6144ff86828701614455565b92509250509250925092565b6145148161407e565b811461451f57600080fd5b50565b6000813590506145318161450b565b92915050565b6000806040838503121561454e5761454d613abb565b5b600061455c85828601613ae6565b925050602061456d85828601614522565b9150509250929050565b600060208201905081810360008301526145918184613c3f565b905092915050565b600080604083850312156145b0576145af613abb565b5b60006145be85828601613ae6565b92505060206145cf85828601613ae6565b9150509250929050565b7f4e487b7100000000000000000000000000000000000000000000000000000000600052603260045260246000fd5b7f4e487b7100000000000000000000000000000000000000000000000000000000600052601260045260246000fd5b7f4e487b7100000000000000000000000000000000000000000000000000000000600052601160045260246000fd5b600061467182613f19565b915061467c83613f19565b92508261468c5761468b614608565b5b828204905092915050565b60006146a282614311565b915060ff82036146b5576146b4614637565b5b600182019050919050565b6000819050919050565b6146db6146d682613f19565b6146c0565b82525050565b60006146ed82846146ca565b60208201915081905092915050565b6000819050919050565b6147176147128261407e565b6146fc565b82525050565b60006147298284614706565b60208201915081905092915050565b7f4e487b7100000000000000000000000000000000000000000000000000000000600052602260045260246000fd5b6000600282049050600182168061477f57607f821691505b60208210810361479257614791614738565b5b50919050565b60008160011c9050919050565b6000808291508390505b60018511156147ef578086048111156147cb576147ca614637565b5b60018516156147da5780820291505b80810290506147e885614798565b94506147af565b94509492505050565b60008261480857600190506148c4565b8161481657600090506148c4565b816001811461482c576002811461483657614865565b60019150506148c4565b60ff84111561484857614847614637565b5b8360020a91508482111561485f5761485e614637565b5b506148c4565b5060208310610133831016604e8410600b841016171561489a5782820a90508381111561489557614894614637565b5b6148c4565b6148a784848460016147a5565b925090508184048111156148be576148bd614637565b5b81810290505b9392505050565b60006148d682613f19565b91506148e183614311565b925061490e7fffffffffffffffffffffffffffffffffffffffffffffffffffffffffffffffff84846147f8565b905092915050565b600061492182613f19565b91507fffffffffffffffffffffffffffffffffffffffffffffffffffffffffffffffff820361495357614952614637565b5b600182019050919050565b600061496982613f19565b915061497483613f19565b925082820261498281613f19565b9150828204841483151761499957614998614637565b5b5092915050565b60006060820190506149b56000830186613bf9565b6149c26020830185613bf9565b6149cf6040830184613b28565b949350505050565b60006149e282613f19565b91506149ed83613f19565b9250826149fd576149fc614608565b5b828206905092915050565b6000819050919050565b614a23614a1e82613ac5565b614a08565b82525050565b6000614a358285614a12565b602082019150614a458284614a12565b6020820191508190509392505050565b600081905092915050565b60008190508160005260206000209050919050565b60008154614a8281614767565b614a8c8186614a55565b94506001821660008114614aa75760018114614abc57614aef565b60ff1983168652811515820286019350614aef565b614ac585614a60565b60005b83811015614ae757815481890152600182019150602081019050614ac8565b838801955050505b50505092915050565b6000614b0382613c23565b614b0d8185614a55565b9350614b1d818560208601613b53565b80840191505092915050565b6000614b358285614a75565b9150614b418284614af8565b91508190509392505050565b60006020601f8301049050919050565b600082821b905092915050565b600060088302614b9a7fffffffffffffffffffffffffffffffffffffffffffffffffffffffffffffffff82614b5d565b614ba48683614b5d565b95508019841693508086168417925050509392505050565b6000819050919050565b6000614be1614bdc614bd784613f19565b614bbc565b613f19565b9050919050565b6000819050919050565b614bfb83614bc6565b614c0f614c0782614be8565b848454614b6a565b825550505050565b600090565b614c24614c17565b614c2f818484614bf2565b505050565b5b81811015614c5357614c48600082614c1c565b600181019050614c35565b5050565b601f821115614c9857614c6981614a60565b614c7284614b4d565b81016020851015614c81578190505b614c95614c8d85614b4d565b830182614c34565b50505b505050565b600082821c905092915050565b6000614cbb60001984600802614c9d565b1980831691505092915050565b6000614cd48383614caa565b9150826002028217905092915050565b614ced82613c23565b67ffffffffffffffff811115614d0657614d05613e6d565b5b614d108254614767565b614d1b828285614c57565b600060209050601f831160018114614d4e5760008415614d3c578287015190505b614d468582614cc8565b865550614dae565b601f198416614d5c86614a60565b60005b82811015614d8457848901518255600182019150602085019450602081019050614d5f565b86831015614da15784890151614d9d601f891682614caa565b8355505b6001600288020188555050505b505050505050565b60008154614dc381614767565b614dcd8186613c2e565b94506001821660008114614de85760018114614dfe57614e31565b60ff198316865281151560200286019350614e31565b614e0785614a60565b60005b83811015614e2957815481890152600182019150602081019050614e0a565b808801955050505b50505092915050565b6000608082019050614e4f6000830187613bf9565b614e5c6020830186613c14565b8181036040830152614e6e8185614db6565b9050614e7d6060830184613b28565b95945050505050565b6000604082019050614e9b6000830185613bf9565b614ea86020830184613b28565b9392505050565b6000819050919050565b60008160001b9050919050565b6000614ee1614edc614ed784614eaf565b614eb9565b613ac5565b9050919050565b614ef181614ec6565b82525050565b6000614f12614f0d614f0884614eaf565b614bbc565b613f19565b9050919050565b614f2281614ef7565b82525050565b6000608082019050614f3d6000830187613bf9565b614f4a6020830186614ee8565b614f576040830185614f19565b614f646060830184614f19565b95945050505050565b6000602082019050614f82600083018461406f565b92915050565b6000614fa3614f9e614f9984614311565b614bbc565b613f19565b9050919050565b614fb381614f88565b82525050565b6000608082019050614fce6000830187613bf9565b614fdb6020830186613b28565b614fe86040830185614faa565b614ff56060830184614faa565b95945050505050565b600082905092915050565b6150138383614ffe565b67ffffffffffffffff81111561502c5761502b613e6d565b5b6150368254614767565b615041828285614c57565b6000601f831160018114615070576000841561505e578287013590505b6150688582614cc8565b8655506150d0565b601f19841661507e86614a60565b60005b828110156150a657848901358255600182019150602085019450602081019050615081565b868310156150c357848901356150bf601f891682614caa565b8355505b6001600288020188555050505b50505050505050565b82818337600083830152505050565b60006150f48385613c2e565b93506151018385846150d9565b61510a83613b7d565b840190509392505050565b600060608201905061512a6000830187613bf9565b818103602083015261513d8185876150e8565b905061514c6040830184613b28565b95945050505050565b600061516082613f19565b915061516b83613f19565b925082820190508082111561518357615182614637565b5b92915050565b600060608201905061519e6000830186613bf9565b6151ab6020830185614088565b6151b86040830184613b28565b949350505050565b60006151cb8261407e565b91506151d68361407e565b92508282026151e48161407e565b91507f8000000000000000000000000000000000000000000000000000000000000000841460008412161561521c5761521b614637565b5b828205841483151761523157615230614637565b5b5092915050565b600081905092915050565b600061524e82613b37565b6152588185615238565b9350615268818560208601613b53565b80840191505092915050565b60007fff0000000000000000000000000000000000000000000000000000000000000082169050919050565b6000819050919050565b6152bb6152b682615274565b6152a0565b82525050565b60006152cd8285615243565b91506152d982846152aa565b6001820191508190509392505050565b60006152f482613f19565b91506152ff83613f19565b925082820390508181111561531757615316614637565b5b9291505056fea264697066735822122002e07f392ff1433c11e624e56528821799c8b9fd9d2373bc97c04b832d6c74b164736f6c63430008130033",
  "immutableReferences": {},
  "source": "// SPDX-License-Identifier: MIT \npragma solidity >=0.8.2 <0.9.0;\npragma abicoder v2;\npragma experimental ABIEncoderV2;\n\ncontract Game {\n\n    struct GameMatch{\n        bytes32 gameId;\n        uint tableSize;\n        uint ships;\n        address p1; // also the creator\n        address p2;\n        int registration; // -1: not registered, otherwise the amount \n        int reward;\n        bool turn; // if true --> p1 have to play otherwise p2 \n        bytes32 b1; // hash of the board to proof merkle tree\n        bytes32 b2;\n        string lastMove; // last move played in the game [1-2][2-4][1-1][2-2] --> first x then y\n        string[] moves;     // l'array avr quindi le caselle pari per il p1 e disapari per il p2 e li metterai le mosse fatte in chiaro\n                            // con anche il risultato della mossa tipo 1.1.0 (casella 1 1 mancato) 2.1.1 (casella 2 1 colpito)\n        uint lastBlockPlayed;\n    }\n\n    GameMatch[] public matches;\n    event SendNewGameCreate(address player, bytes32 gameId, uint ships, uint tableSize);\n    event SendGameStart(address p1, address p2, bytes32 gameId);\n    event SendRequestAmount(address player, int amount, bytes32 gameId);    //tell to the player to put the money to start play\n    event SendTurnAdvice(address play, address wait, bytes32 gameId);   //tell to the player that is his/her turn\n    event SendMovesAdvice(address player, string move, bytes32 gameId);  //tell to the player that have been shoot\n    event SendRequestBoard(address player, bytes32 gameId);   //tell to the player that have won\n    event SendWrongMove(address player, bytes32 gameId);    //tell to the player that is not a valid move\n    event SendVictory(address winner, address loser, bytes32 gameId);\n    event SendMoveResult(address player, bool hit, string coordinate, bytes32 gameId);\n    event SendCheatPayment(address cheater, address receiver, bytes32 gameId);\n    event SendStopReport(address player, bytes32 gameId);\n     \n\n    function join(bytes32 _gameId, bool _isNew, uint8[] memory _info) public{\n        \n        // set player 2 in case of given game id\n        if(_gameId != 0){\n            for(uint8 i=0; i < matches.length; i++){\n                if(matches[i].gameId == _gameId){\n                    if(matches[i].p2 == address(0) && matches[i].p1 != msg.sender){\n                        matches[i].p2 = msg.sender;\n                        emit SendGameStart(msg.sender, matches[i].p1, matches[i].gameId);\n                        return;\n                    }\n                    else{\n                        emit SendNewGameCreate(msg.sender, 0, 0, 0);\n                        return;\n                    }\n                }\n            }\n        }\n\n        if(_isNew){\n            // otherwise create a new game\n            bytes32 newGameId = keccak256(abi.encode(matches.length));\n            string[] memory _moves = new string[](0);\n            matches.push(GameMatch(newGameId, _info[1], _info[0], msg.sender, address(0), -1, 0, true, 0, 0, \"\",  _moves, block.number));\n            emit SendNewGameCreate(msg.sender, newGameId, _info[0], _info[1]);\n            return;\n        }\n\n        // set player 2 in random game if available\n        for(uint8 i=0; i<matches.length; i++){\n            if(matches[i].p2 == address(0) && matches[i].p1 != msg.sender){\n                matches[i].p2=msg.sender;\n                emit SendGameStart(msg.sender, matches[i].p1, matches[i].gameId);\n                return;\n            }\n        }\n\n        emit SendNewGameCreate(msg.sender, 0, 0, 0);\n    }\n\n    /**\n        The two part agree offline and the first who call this method\n        also set the reward.    \n     */\n    function setReward(bytes32 _gameId, int _registration) external{\n        for(uint8 i=0; i<matches.length; i++){\n            if(matches[i].gameId == _gameId){\n                if(matches[i].registration < 0){\n                    matches[i].registration=_registration;\n                    if(matches[i].p1==msg.sender)\n                        emit SendRequestAmount(matches[i].p2, _registration, matches[i].gameId);\n                    else if(matches[i].p2==msg.sender)\n                        emit SendRequestAmount(matches[i].p1, _registration, matches[i].gameId);\n                    return;\n                }\n                else{\n                    if(matches[i].registration == _registration){\n                        matches[i].reward=_registration*2;\n                        return;\n                    }\n                    else{\n                        return;\n                    }\n                }\n            }\n        }\n    }\n\n    function getInformations(bytes32 _gameId) external view returns(\n        bytes32, \n        bytes memory,\n        bytes memory,\n        address ,\n        address ,\n        bytes memory ,\n        bytes memory ,\n        bool , \n        bytes32 ,\n        bytes32 ,\n        string memory,\n        string[] memory\n    ){\n        for(uint8 i=0; i < matches.length; i++){\n            if(matches[i].gameId == _gameId){\n                return(matches[i].gameId, abi.encodePacked(matches[i].tableSize), abi.encodePacked(matches[i].ships), matches[i].p1, matches[i].p2, abi.encodePacked(matches[i].registration), abi.encodePacked(matches[i].reward), matches[i].turn, matches[i].b1, matches[i].b2, matches[i].lastMove, matches[i].moves);\n            }\n        }\n    }\n\n    function getReward(bytes32 _gameId) external view returns(int result){\n        for(uint8 i=0; i < matches.length; i++){\n            if(matches[i].gameId == _gameId){\n                result = matches[i].registration;\n            }\n        }\n    }\n\n    function pay(bytes32 _gameId) public payable{\n        for(uint8 i=0; i < matches.length; i++){\n            if(matches[i].gameId == _gameId){\n                require((msg.value/1 ether) == uint(matches[i].registration));\n            }\n        }\n    }\n\n    function setBoard(bytes32 _gameId, bytes32 _hashedBoard) public{\n        for(uint8 i=0; i < matches.length; i++){\n            if(matches[i].gameId == _gameId){\n                if(matches[i].p1==msg.sender){\n                    matches[i].b1=_hashedBoard;\n                }\n                else if(matches[i].p2==msg.sender){\n                    matches[i].b2=_hashedBoard;\n                }\n                matches[i].turn=true;\n                matches[i].lastBlockPlayed=block.number;\n                emit SendTurnAdvice(matches[i].p1, matches[i].p2, matches[i].gameId);\n            }\n        }\n    }\n\n    function shoot(bytes32 _gameId, string calldata _coordinate) public{\n        // stores the coordination for the other player\n        for(uint8 i=0; i < matches.length; i++){\n            if(matches[i].gameId == _gameId){\n                if(matches[i].p1==msg.sender && matches[i].turn){\n                    matches[i].lastMove=_coordinate;\n                    emit SendMovesAdvice(matches[i].p2, _coordinate, matches[i].gameId);\n                }\n                else if(matches[i].p2==msg.sender && !matches[i].turn){\n                    matches[i].lastMove=_coordinate;\n                    emit SendMovesAdvice(matches[i].p1, _coordinate, matches[i].gameId);\n                }\n            }\n        }\n    }\n\n    /**\n        get the last move of the game\n        then compute the merkle tree as a proof \n     */\n    function getLastMoves(bytes32 _gameId) public view returns(string memory result){\n        for(uint8 i=0; i < matches.length; i++){\n            if(matches[i].gameId == _gameId){\n                result = matches[i].lastMove;\n            }\n        }\n    }\n\n    function checkMerkleProof(bytes32 _gameId, bytes32[] memory _sibilings, bool _hit, uint256 _leafIndex) public {\n        for(uint8 i=0; i < matches.length; i++){\n            if(matches[i].gameId == _gameId){\n                bytes32 _trueBoard;\n                if(matches[i].p1==msg.sender){\n                    _trueBoard=matches[i].b1;\n                }\n                else if(matches[i].p2==msg.sender){\n                    _trueBoard=matches[i].b2;\n                }        \n                \n                // compute the merkle proof\n                bytes32 _b=_sibilings[0];\n                for(uint j=1; j < _sibilings.length; j++){\n                    bytes32 _b1=_b;\n                    bytes32 _b2=_sibilings[j];\n                    if(_leafIndex% 2 == 0)\n                        _b=keccak256(abi.encodePacked(_b1, _b2));\n                    else\n                        _b=keccak256(abi.encodePacked(_b2, _b1));\n\n                    _leafIndex = _leafIndex / 2;\n                }\n\n                // compare the result with _b if equal store the valid move in array and emit the move result event \n                if(_b == _trueBoard){\n                    string memory _r=_hit?\"-1\":\"-0\";\n                    matches[i].moves.push(string(abi.encodePacked(matches[i].lastMove, _r)));\n                    matches[i].lastBlockPlayed = block.number;\n                    \n                    address _wait;\n                    if(msg.sender==matches[i].p1){\n                        _wait= matches[i].p2;\n                        emit SendMoveResult(matches[i].p2, _hit, matches[i].lastMove, matches[i].gameId);\n                    }else if(matches[i].p2==msg.sender){\n                        _wait = matches[i].p1;\n                        emit SendMoveResult(matches[i].p1, _hit, matches[i].lastMove, matches[i].gameId);\n                    }\n\n                    // call check win function if return true then request to the winner player his board\n                    if(checkWin(matches[i])){\n                        emit SendRequestBoard(_wait, matches[i].gameId);\n                        \n                    }else{\n                        // otherwise emit the change turn event\n                        matches[i].turn ? matches[i].turn=false : matches[i].turn=true; \n                        emit SendTurnAdvice(msg.sender, _wait, matches[i].gameId);\n                    }                        \n                    return;\n                }\n                else{   \n                    // something goes wrong and emit the wrong move event\n                    emit SendWrongMove(msg.sender, matches[i].gameId);             \n                    return;\n                }                \n            }\n        }\n    }\n\n    function checkWin(GameMatch memory g) internal pure returns(bool){\n        uint _shipToSink=g.ships*2; //because all ships have fixed length of two\n        uint _shipSinked=0;\n        if(g.turn){\n            for (uint i=0; i<g.moves.length; i+=2){\n                if(i < g.moves.length){\n                    string[] memory _s = splitString(g.moves[i], \"-\");\n                    _shipSinked += stringToUint(_s[2]);\n                }\n            }\n        }else{\n            for(uint i = 1; i < g.moves.length; i+=2){\n                if(i < g.moves.length){\n                    string[] memory _s = splitString(g.moves[i], \"-\");\n                    _shipSinked += stringToUint(_s[2]);\n                }\n            }\n        }\n\n        if(_shipSinked==_shipToSink){\n            return true;\n        }else{\n            return false;\n        }\n    }\n\n    function checkBoard(bytes32 _gameId, uint256[] memory _board) public payable{        \n        for(uint8 i=0; i < matches.length; i++){\n            if(matches[i].gameId == _gameId){\n                //controllo sovrapposizioni navi\n                uint8 count=0;\n                for(uint q = 0; q < matches[i].tableSize**2; q++){\n                    if(_board[q] == 1) //there is a ship\n                        count++;\n                }\n\n                if(count == matches[i].ships*2){ //there aren't ship overlapped\n                    uint _toSend= uint(matches[i].reward) * 1 ether;\n                    matches[i].reward = 0;\n                    payable(msg.sender).transfer(_toSend);\n                    if(msg.sender == matches[i].p1)\n                        emit SendVictory(msg.sender, matches[i].p2, matches[i].gameId);\n                    else if(msg.sender == matches[i].p2)\n                        emit SendVictory(matches[i].p2, msg.sender, matches[i].gameId);\n                }\n            }\n        }\n    }\n\n    function notifyDelay(bytes32 _gameId) public{\n        // wait for 5 blocks and if there isn't a reply\n        // pay the other player\n        for(uint8 i=0; i < matches.length; i++){\n            if(matches[i].gameId == _gameId){\n                // the one who complain it isn't its turn \n                if(msg.sender==matches[i].p1)\n                    require(!matches[i].turn);\n                else if(msg.sender == matches[i].p2)\n                    require(matches[i].turn);\n\n                if(block.number >= (matches[i].lastBlockPlayed+5)){\n                    if(msg.sender==matches[i].p1){\n                        emit SendCheatPayment(matches[i].p2, matches[i].p1, matches[i].gameId);\n                        uint _toSend= uint(matches[i].reward) * 1 ether;\n                        matches[i].reward = 0;\n                        payable(matches[i].p1).transfer(_toSend);\n                        return;\n                    }else if(msg.sender == matches[i].p2){\n                        emit SendCheatPayment(matches[i].p1, matches[i].p2, matches[i].gameId);\n                        uint _toSend= uint(matches[i].reward) * 1 ether;\n                        matches[i].reward = 0;\n                        payable(matches[i].p2).transfer(_toSend);\n                        return;\n                    }\n                }\n                emit SendStopReport(msg.sender, matches[i].gameId);\n                return;\n            }\n        }\n    }\n\n    function dummyFunction() public{\n        // dummy function to progress in block numbers                \n    }\n\n    fallback() external{\n        pay(0);\n    }\n\n\n    /**\n        Some utility functions for internal use only    \n     */\n    function splitString(string memory _s, string memory _separator) internal pure returns(string[] memory){\n        string memory _temp=\"\";\n        uint count=0;\n        bytes memory _sbytes=bytes(_s);\n        string[] memory _res = new string[](bytes(_s).length);\n        for(uint i=0; i < _sbytes.length; i++){\n            if(_sbytes[i]==bytes(_separator)[0]){\n                _res[count] = _temp;\n                _temp=\"\";\n                count++;\n            }\n            else{\n                _temp=string(bytes.concat(bytes(_temp), bytes(_s)[i]));\n            }\n        }\n        _res[count] = _temp;\n        return _res;\n    }\n\n    function stringToUint(string memory _str) internal pure returns (uint) {\n        bytes memory b = bytes(_str);\n        uint result = 0;\n        for (uint i = 0; i < b.length; i++) {\n            uint c = uint(uint8(b[i]));\n            if (c >= 48 && c <= 57) {\n                result = result * 10 + (c - 48);\n            }\n        }\n        return result;\n    }\n}",
  "sourcePath": "/home/davide/Documenti/magistrale/P2PBC/projects/battleship/contracts/Game.sol",
  "compiler": {
    "name": "solc",
    "version": "0.8.19+commit.7dd6d404.Emscripten.clang"
  },
  "schemaVersion": "3.4.13",
  "updatedAt": "2023-06-22T09:43:23.866Z",
  "networkType": "ethereum",
  "devdoc": {
    "kind": "dev",
    "methods": {},
    "version": 1
  },
  "userdoc": {
    "kind": "user",
    "methods": {
      "getLastMoves(bytes32)": {
        "notice": "get the last move of the game then compute the merkle tree as a proof "
      },
      "setReward(bytes32,int256)": {
        "notice": "The two part agree offline and the first who call this method also set the reward.    "
      }
    },
    "version": 1
  }
}