{
  "contractName": "Game",
  "abi": [
    {
      "anonymous": false,
      "inputs": [
        {
          "indexed": false,
          "internalType": "address",
          "name": "cheater",
          "type": "address"
        },
        {
          "indexed": false,
          "internalType": "address",
          "name": "receiver",
          "type": "address"
        },
        {
          "indexed": false,
          "internalType": "bytes32",
          "name": "gameId",
          "type": "bytes32"
        }
      ],
      "name": "SendCheatPayment",
      "type": "event"
    },
    {
      "anonymous": false,
      "inputs": [
        {
          "indexed": false,
          "internalType": "address",
          "name": "player",
          "type": "address"
        },
        {
          "indexed": false,
          "internalType": "bool",
          "name": "hit",
          "type": "bool"
        },
        {
          "indexed": false,
          "internalType": "string",
          "name": "coordinate",
          "type": "string"
        },
        {
          "indexed": false,
          "internalType": "bytes32",
          "name": "gameId",
          "type": "bytes32"
        }
      ],
      "name": "SendMoveResult",
      "type": "event"
    },
    {
      "anonymous": false,
      "inputs": [
        {
          "indexed": false,
          "internalType": "address",
          "name": "player",
          "type": "address"
        },
        {
          "indexed": false,
          "internalType": "string",
          "name": "move",
          "type": "string"
        },
        {
          "indexed": false,
          "internalType": "bytes32",
          "name": "gameId",
          "type": "bytes32"
        }
      ],
      "name": "SendMovesAdvice",
      "type": "event"
    },
    {
      "anonymous": false,
      "inputs": [
        {
          "indexed": false,
          "internalType": "address",
          "name": "player",
          "type": "address"
        },
        {
          "indexed": false,
          "internalType": "bytes32",
          "name": "gameId",
          "type": "bytes32"
        },
        {
          "indexed": false,
          "internalType": "uint256",
          "name": "ships",
          "type": "uint256"
        },
        {
          "indexed": false,
          "internalType": "uint256",
          "name": "tableSize",
          "type": "uint256"
        }
      ],
      "name": "SendNewGameCreate",
      "type": "event"
    },
    {
      "anonymous": false,
      "inputs": [
        {
          "indexed": false,
          "internalType": "address",
          "name": "player",
          "type": "address"
        },
        {
          "indexed": false,
          "internalType": "int256",
          "name": "amount",
          "type": "int256"
        },
        {
          "indexed": false,
          "internalType": "bytes32",
          "name": "gameId",
          "type": "bytes32"
        }
      ],
      "name": "SendRequestAmount",
      "type": "event"
    },
    {
      "anonymous": false,
      "inputs": [
        {
          "indexed": false,
          "internalType": "address",
          "name": "player",
          "type": "address"
        },
        {
          "indexed": false,
          "internalType": "bytes32",
          "name": "gameId",
          "type": "bytes32"
        }
      ],
      "name": "SendRequestBoard",
      "type": "event"
    },
    {
      "anonymous": false,
      "inputs": [
        {
          "indexed": false,
          "internalType": "address",
          "name": "player",
          "type": "address"
        },
        {
          "indexed": false,
          "internalType": "bytes32",
          "name": "gameId",
          "type": "bytes32"
        }
      ],
      "name": "SendStopReport",
      "type": "event"
    },
    {
      "anonymous": false,
      "inputs": [
        {
          "indexed": false,
          "internalType": "address",
          "name": "play",
          "type": "address"
        },
        {
          "indexed": false,
          "internalType": "address",
          "name": "wait",
          "type": "address"
        },
        {
          "indexed": false,
          "internalType": "bytes32",
          "name": "gameId",
          "type": "bytes32"
        }
      ],
      "name": "SendTurnAdvice",
      "type": "event"
    },
    {
      "anonymous": false,
      "inputs": [
        {
          "indexed": false,
          "internalType": "address",
          "name": "winner",
          "type": "address"
        },
        {
          "indexed": false,
          "internalType": "address",
          "name": "loser",
          "type": "address"
        },
        {
          "indexed": false,
          "internalType": "bytes32",
          "name": "gameId",
          "type": "bytes32"
        }
      ],
      "name": "SendVictory",
      "type": "event"
    },
    {
      "anonymous": false,
      "inputs": [
        {
          "indexed": false,
          "internalType": "address",
          "name": "player",
          "type": "address"
        },
        {
          "indexed": false,
          "internalType": "bytes32",
          "name": "gameId",
          "type": "bytes32"
        }
      ],
      "name": "SendWrongMove",
      "type": "event"
    },
    {
      "stateMutability": "nonpayable",
      "type": "fallback"
    },
    {
      "inputs": [
        {
          "internalType": "uint256",
          "name": "",
          "type": "uint256"
        }
      ],
      "name": "matches",
      "outputs": [
        {
          "internalType": "bytes32",
          "name": "gameId",
          "type": "bytes32"
        },
        {
          "internalType": "uint256",
          "name": "tableSize",
          "type": "uint256"
        },
        {
          "internalType": "uint256",
          "name": "ships",
          "type": "uint256"
        },
        {
          "internalType": "address",
          "name": "p1",
          "type": "address"
        },
        {
          "internalType": "address",
          "name": "p2",
          "type": "address"
        },
        {
          "internalType": "int256",
          "name": "registration",
          "type": "int256"
        },
        {
          "internalType": "int256",
          "name": "reward",
          "type": "int256"
        },
        {
          "internalType": "bool",
          "name": "turn",
          "type": "bool"
        },
        {
          "internalType": "bytes32",
          "name": "b1",
          "type": "bytes32"
        },
        {
          "internalType": "bytes32",
          "name": "b2",
          "type": "bytes32"
        },
        {
          "internalType": "string",
          "name": "lastMove",
          "type": "string"
        },
        {
          "internalType": "uint256",
          "name": "lastBlockPlayed",
          "type": "uint256"
        }
      ],
      "stateMutability": "view",
      "type": "function",
      "constant": true
    },
    {
      "inputs": [
        {
          "internalType": "bytes32",
          "name": "_gameId",
          "type": "bytes32"
        },
        {
          "internalType": "bool",
          "name": "_isNew",
          "type": "bool"
        },
        {
          "internalType": "uint8[]",
          "name": "_info",
          "type": "uint8[]"
        }
      ],
      "name": "join",
      "outputs": [],
      "stateMutability": "nonpayable",
      "type": "function"
    },
    {
      "inputs": [
        {
          "internalType": "bytes32",
          "name": "_gameId",
          "type": "bytes32"
        },
        {
          "internalType": "int256",
          "name": "_registration",
          "type": "int256"
        }
      ],
      "name": "setReward",
      "outputs": [],
      "stateMutability": "nonpayable",
      "type": "function"
    },
    {
      "inputs": [
        {
          "internalType": "bytes32",
          "name": "_gameId",
          "type": "bytes32"
        }
      ],
      "name": "getInformations",
      "outputs": [
        {
          "internalType": "bytes32",
          "name": "",
          "type": "bytes32"
        },
        {
          "internalType": "bytes",
          "name": "",
          "type": "bytes"
        },
        {
          "internalType": "bytes",
          "name": "",
          "type": "bytes"
        },
        {
          "internalType": "address",
          "name": "",
          "type": "address"
        },
        {
          "internalType": "address",
          "name": "",
          "type": "address"
        },
        {
          "internalType": "bytes",
          "name": "",
          "type": "bytes"
        },
        {
          "internalType": "bytes",
          "name": "",
          "type": "bytes"
        },
        {
          "internalType": "bool",
          "name": "",
          "type": "bool"
        },
        {
          "internalType": "bytes32",
          "name": "",
          "type": "bytes32"
        },
        {
          "internalType": "bytes32",
          "name": "",
          "type": "bytes32"
        },
        {
          "internalType": "string",
          "name": "",
          "type": "string"
        },
        {
          "internalType": "string[]",
          "name": "",
          "type": "string[]"
        }
      ],
      "stateMutability": "view",
      "type": "function",
      "constant": true
    },
    {
      "inputs": [
        {
          "internalType": "bytes32",
          "name": "_gameId",
          "type": "bytes32"
        }
      ],
      "name": "getReward",
      "outputs": [
        {
          "internalType": "int256",
          "name": "",
          "type": "int256"
        }
      ],
      "stateMutability": "view",
      "type": "function",
      "constant": true
    },
    {
      "inputs": [
        {
          "internalType": "bytes32",
          "name": "_gameId",
          "type": "bytes32"
        }
      ],
      "name": "pay",
      "outputs": [],
      "stateMutability": "payable",
      "type": "function",
      "payable": true
    },
    {
      "inputs": [
        {
          "internalType": "bytes32",
          "name": "_gameId",
          "type": "bytes32"
        },
        {
          "internalType": "bytes32",
          "name": "_hashedBoard",
          "type": "bytes32"
        }
      ],
      "name": "setBoard",
      "outputs": [],
      "stateMutability": "nonpayable",
      "type": "function"
    },
    {
      "inputs": [
        {
          "internalType": "bytes32",
          "name": "_gameId",
          "type": "bytes32"
        },
        {
          "internalType": "string",
          "name": "_coordinate",
          "type": "string"
        }
      ],
      "name": "shoot",
      "outputs": [],
      "stateMutability": "nonpayable",
      "type": "function"
    },
    {
      "inputs": [
        {
          "internalType": "bytes32",
          "name": "_gameId",
          "type": "bytes32"
        }
      ],
      "name": "getLastMoves",
      "outputs": [
        {
          "internalType": "string",
          "name": "",
          "type": "string"
        }
      ],
      "stateMutability": "view",
      "type": "function",
      "constant": true
    },
    {
      "inputs": [
        {
          "internalType": "bytes32",
          "name": "_gameId",
          "type": "bytes32"
        },
        {
          "internalType": "bytes32[]",
          "name": "_sibilings",
          "type": "bytes32[]"
        },
        {
          "internalType": "bool",
          "name": "_hit",
          "type": "bool"
        },
        {
          "internalType": "uint256",
          "name": "_leafIndex",
          "type": "uint256"
        }
      ],
      "name": "checkMerkleProof",
      "outputs": [],
      "stateMutability": "nonpayable",
      "type": "function"
    },
    {
      "inputs": [
        {
          "internalType": "bytes32",
          "name": "_gameId",
          "type": "bytes32"
        },
        {
          "internalType": "uint256[]",
          "name": "_board",
          "type": "uint256[]"
        }
      ],
      "name": "checkBoard",
      "outputs": [
        {
          "internalType": "bool",
          "name": "",
          "type": "bool"
        }
      ],
      "stateMutability": "payable",
      "type": "function",
      "payable": true
    },
    {
      "inputs": [
        {
          "internalType": "bytes32",
          "name": "_gameId",
          "type": "bytes32"
        }
      ],
      "name": "notifyDelay",
      "outputs": [],
      "stateMutability": "nonpayable",
      "type": "function"
    },
    {
      "inputs": [],
      "name": "dummyFunction",
      "outputs": [],
      "stateMutability": "nonpayable",
      "type": "function"
    }
  ],
  "bytecode": "0x608060405234801561001057600080fd5b50614f36806100206000396000f3fe6080604052600436106100c65760003560e01c80638609cad11161007f578063d679430211610059578063d67943021461028d578063e0e797ee146102b6578063e4cc82a0146102df578063fbf5fea81461031c576100c7565b80638609cad11461021f578063b4df51381461023b578063c7bad2b714610264576100c7565b806301fb893a146100e2578063106df9871461012a5780634768d4ef1461015a5780634da6a854146101a257806363fed9a4146101cb5780637ec9d81f14610208576100c7565b5b3480156100d357600080fd5b506100e06000801b610345565b005b3480156100ee57600080fd5b506101096004803603810190610104919061367e565b6103e6565b6040516101219c9b9a99989796959493929190613907565b60405180910390f35b610144600480360381019061013f9190613b69565b61088f565b6040516101519190613bc5565b60405180910390f35b34801561016657600080fd5b50610181600480360381019061017c9190613be0565b610bd4565b6040516101999c9b9a99989796959493929190613c35565b60405180910390f35b3480156101ae57600080fd5b506101c960048036038101906101c49190613de5565b610d19565b005b3480156101d757600080fd5b506101f260048036038101906101ed919061367e565b611807565b6040516101ff9190613e68565b60405180910390f35b34801561021457600080fd5b5061021d611899565b005b6102396004803603810190610234919061367e565b610345565b005b34801561024757600080fd5b50610262600480360381019061025d9190613f7f565b61189b565b005b34801561027057600080fd5b5061028b60048036038101906102869190614049565b612047565b005b34801561029957600080fd5b506102b460048036038101906102af919061367e565b6123e9565b005b3480156102c257600080fd5b506102dd60048036038101906102d891906140d5565b612a68565b005b3480156102eb57600080fd5b506103066004803603810190610301919061367e565b612d71565b6040516103139190614115565b60405180910390f35b34801561032857600080fd5b50610343600480360381019061033e9190614137565b612e88565b005b60005b6000805490508160ff1610156103e2578160008260ff16815481106103705761036f614177565b5b90600052602060002090600d020160000154036103cf5760008160ff168154811061039e5761039d614177565b5b90600052602060002090600d020160050154670de0b6b3a7640000346103c49190614204565b146103ce57600080fd5b5b80806103da90614235565b915050610348565b5050565b6000606080600080606080600080600060608060005b6000805490508160ff16101561087e578d60008260ff168154811061042457610423614177565b5b90600052602060002090600d0201600001540361086b5760008160ff168154811061045257610451614177565b5b90600052602060002090600d02016000015460008260ff168154811061047b5761047a614177565b5b90600052602060002090600d02016001015460405160200161049d919061427f565b60405160208183030381529060405260008360ff16815481106104c3576104c2614177565b5b90600052602060002090600d0201600201546040516020016104e5919061427f565b60405160208183030381529060405260008460ff168154811061050b5761050a614177565b5b90600052602060002090600d020160030160009054906101000a900473ffffffffffffffffffffffffffffffffffffffff1660008560ff168154811061055457610553614177565b5b90600052602060002090600d020160040160009054906101000a900473ffffffffffffffffffffffffffffffffffffffff1660008660ff168154811061059d5761059c614177565b5b90600052602060002090600d0201600501546040516020016105bf91906142bb565b60405160208183030381529060405260008760ff16815481106105e5576105e4614177565b5b90600052602060002090600d02016006015460405160200161060791906142bb565b60405160208183030381529060405260008860ff168154811061062d5761062c614177565b5b90600052602060002090600d020160070160009054906101000a900460ff1660008960ff168154811061066357610662614177565b5b90600052602060002090600d02016008015460008a60ff168154811061068c5761068b614177565b5b90600052602060002090600d02016009015460008b60ff16815481106106b5576106b4614177565b5b90600052602060002090600d0201600a0160008c60ff16815481106106dd576106dc614177565b5b90600052602060002090600d0201600b018180546106fa90614305565b80601f016020809104026020016040519081016040528092919081815260200182805461072690614305565b80156107735780601f1061074857610100808354040283529160200191610773565b820191906000526020600020905b81548152906001019060200180831161075657829003601f168201915b5050505050915080805480602002602001604051908101604052809291908181526020016000905b828210156108475783829060005260206000200180546107ba90614305565b80601f01602080910402602001604051908101604052809291908181526020018280546107e690614305565b80156108335780601f1061080857610100808354040283529160200191610833565b820191906000526020600020905b81548152906001019060200180831161081657829003601f168201915b50505050508152602001906001019061079b565b5050505090509c509c509c509c509c509c509c509c509c509c509c509c5050610880565b808061087690614235565b9150506103fc565b505b91939597999b5091939597999b565b600080600090505b6000805490508160ff161015610bcd578360008260ff16815481106108bf576108be614177565b5b90600052602060002090600d02016000015403610bba576000805b600260008460ff16815481106108f3576108f2614177565b5b90600052602060002090600d02016001015461090f9190614469565b81101561095a57600185828151811061092b5761092a614177565b5b60200260200101510361094757818061094390614235565b9250505b8080610952906144b4565b9150506108da565b50600260008360ff168154811061097457610973614177565b5b90600052602060002090600d02016002015461099091906144fc565b8160ff1603610bb8573373ffffffffffffffffffffffffffffffffffffffff166108fc479081150290604051600060405180830381858888f193505050501580156109df573d6000803e3d6000fd5b5060008260ff16815481106109f7576109f6614177565b5b90600052602060002090600d020160030160009054906101000a900473ffffffffffffffffffffffffffffffffffffffff1673ffffffffffffffffffffffffffffffffffffffff163373ffffffffffffffffffffffffffffffffffffffff1603610b0b577ff2dde43962fdbcd6f2cfcd65c6ef200b90c7c7f410f926232edffd5e4c97431c3360008460ff1681548110610a9457610a93614177565b5b90600052602060002090600d020160040160009054906101000a900473ffffffffffffffffffffffffffffffffffffffff1660008560ff1681548110610add57610adc614177565b5b90600052602060002090600d020160000154604051610afe9392919061453e565b60405180910390a1610bb7565b7ff2dde43962fdbcd6f2cfcd65c6ef200b90c7c7f410f926232edffd5e4c97431c60008360ff1681548110610b4357610b42614177565b5b90600052602060002090600d020160040160009054906101000a900473ffffffffffffffffffffffffffffffffffffffff163360008560ff1681548110610b8d57610b8c614177565b5b90600052602060002090600d020160000154604051610bae9392919061453e565b60405180910390a15b5b505b8080610bc590614235565b915050610897565b5092915050565b60008181548110610be457600080fd5b90600052602060002090600d02016000915090508060000154908060010154908060020154908060030160009054906101000a900473ffffffffffffffffffffffffffffffffffffffff16908060040160009054906101000a900473ffffffffffffffffffffffffffffffffffffffff16908060050154908060060154908060070160009054906101000a900460ff169080600801549080600901549080600a018054610c9090614305565b80601f0160208091040260200160405190810160405280929190818152602001828054610cbc90614305565b8015610d095780601f10610cde57610100808354040283529160200191610d09565b820191906000526020600020905b815481529060010190602001808311610cec57829003601f168201915b50505050509080600c015490508c565b60005b6000805490508160ff1610156117ff578460008260ff1681548110610d4457610d43614177565b5b90600052602060002090600d020160000154036117ec5760003373ffffffffffffffffffffffffffffffffffffffff1660008360ff1681548110610d8b57610d8a614177565b5b90600052602060002090600d020160030160009054906101000a900473ffffffffffffffffffffffffffffffffffffffff1673ffffffffffffffffffffffffffffffffffffffff1603610e085760008260ff1681548110610def57610dee614177565b5b90600052602060002090600d0201600801549050610e34565b60008260ff1681548110610e1f57610e1e614177565b5b90600052602060002090600d02016009015490505b600085600081518110610e4a57610e49614177565b5b602002602001015190506000600190505b8651811015610f1c5760008290506000888381518110610e7e57610e7d614177565b5b602002602001015190506000600288610e979190614575565b03610ecc578181604051602001610eaf9291906145c7565b604051602081830303815290604052805190602001209350610ef8565b8082604051602001610edf9291906145c7565b6040516020818303038152906040528051906020012093505b600287610f059190614204565b965050508080610f14906144b4565b915050610e5b565b5081810361178357600085610f66576040518060400160405280600281526020017f2d30000000000000000000000000000000000000000000000000000000000000815250610f9d565b6040518060400160405280600281526020017f2d310000000000000000000000000000000000000000000000000000000000008152505b905060008460ff1681548110610fb657610fb5614177565b5b90600052602060002090600d0201600b0160008560ff1681548110610fde57610fdd614177565b5b90600052602060002090600d0201600a01826040516020016110019291906146c7565b6040516020818303038152906040529080600181540180825580915050600190039060005260206000200160009091909190915090816110419190614882565b504360008560ff168154811061105a57611059614177565b5b90600052602060002090600d0201600c01819055506000808560ff168154811061108757611086614177565b5b90600052602060002090600d020160030160009054906101000a900473ffffffffffffffffffffffffffffffffffffffff1673ffffffffffffffffffffffffffffffffffffffff163373ffffffffffffffffffffffffffffffffffffffff160361120f5760008560ff168154811061110257611101614177565b5b90600052602060002090600d020160040160009054906101000a900473ffffffffffffffffffffffffffffffffffffffff1690507fe56e85d9e65963d058594c7c024dd147565390017c3a7c7ed59f018f3d6c8c1b60008660ff168154811061116e5761116d614177565b5b90600052602060002090600d020160040160009054906101000a900473ffffffffffffffffffffffffffffffffffffffff168860008860ff16815481106111b8576111b7614177565b5b90600052602060002090600d0201600a0160008960ff16815481106111e0576111df614177565b5b90600052602060002090600d02016000015460405161120294939291906149d8565b60405180910390a161132f565b60008560ff168154811061122657611225614177565b5b90600052602060002090600d020160030160009054906101000a900473ffffffffffffffffffffffffffffffffffffffff1690507fe56e85d9e65963d058594c7c024dd147565390017c3a7c7ed59f018f3d6c8c1b60008660ff168154811061129257611291614177565b5b90600052602060002090600d020160030160009054906101000a900473ffffffffffffffffffffffffffffffffffffffff168860008860ff16815481106112dc576112db614177565b5b90600052602060002090600d0201600a0160008960ff168154811061130457611303614177565b5b90600052602060002090600d02016000015460405161132694939291906149d8565b60405180910390a15b6115ea60008660ff168154811061134957611348614177565b5b90600052602060002090600d0201604051806101a00160405290816000820154815260200160018201548152602001600282015481526020016003820160009054906101000a900473ffffffffffffffffffffffffffffffffffffffff1673ffffffffffffffffffffffffffffffffffffffff1673ffffffffffffffffffffffffffffffffffffffff1681526020016004820160009054906101000a900473ffffffffffffffffffffffffffffffffffffffff1673ffffffffffffffffffffffffffffffffffffffff1673ffffffffffffffffffffffffffffffffffffffff16815260200160058201548152602001600682015481526020016007820160009054906101000a900460ff161515151581526020016008820154815260200160098201548152602001600a8201805461148090614305565b80601f01602080910402602001604051908101604052809291908181526020018280546114ac90614305565b80156114f95780601f106114ce576101008083540402835291602001916114f9565b820191906000526020600020905b8154815290600101906020018083116114dc57829003601f168201915b50505050508152602001600b8201805480602002602001604051908101604052809291908181526020016000905b828210156115d357838290600052602060002001805461154690614305565b80601f016020809104026020016040519081016040528092919081815260200182805461157290614305565b80156115bf5780601f10611594576101008083540402835291602001916115bf565b820191906000526020600020905b8154815290600101906020018083116115a257829003601f168201915b505050505081526020019060010190611527565b505050508152602001600c8201548152505061311f565b15611655577f23d12210c92e428791c20906d2f9b230a2f2625329d7083e888c71da9817e9ea8160008760ff168154811061162857611627614177565b5b90600052602060002090600d020160000154604051611648929190614a24565b60405180910390a1611779565b7f35b818715483cbf3751f7caa7b6bb0152712f497266c3d6e033594a7c312e27e338260008860ff168154811061168f5761168e614177565b5b90600052602060002090600d0201600001546040516116b09392919061453e565b60405180910390a160008560ff16815481106116cf576116ce614177565b5b90600052602060002090600d020160070160009054906101000a900460ff1661173757600160008660ff168154811061170b5761170a614177565b5b90600052602060002090600d020160070160006101000a81548160ff0219169083151502179055611777565b6000808660ff168154811061174f5761174e614177565b5b90600052602060002090600d020160070160006101000a81548160ff02191690831515021790555b505b5050505050611801565b7f634cadcfa5260014bc7ab3e8b7886ed9eff26612fc19c9e42d110360385e3cfa3360008560ff16815481106117bc576117bb614177565b5b90600052602060002090600d0201600001546040516117dc929190614a24565b60405180910390a1505050611801565b80806117f790614235565b915050610d1c565b505b50505050565b600080600090505b6000805490508160ff161015611892578260008260ff168154811061183757611836614177565b5b90600052602060002090600d0201600001540361187f5760008160ff168154811061186557611864614177565b5b90600052602060002090600d020160050154915050611894565b808061188a90614235565b91505061180f565b505b919050565b565b6000801b8314611adf5760005b6000805490508160ff161015611add578360008260ff16815481106118d0576118cf614177565b5b90600052602060002090600d02016000015403611aca57600073ffffffffffffffffffffffffffffffffffffffff1660008260ff168154811061191657611915614177565b5b90600052602060002090600d020160040160009054906101000a900473ffffffffffffffffffffffffffffffffffffffff1673ffffffffffffffffffffffffffffffffffffffff1603611a85573360008260ff168154811061197b5761197a614177565b5b90600052602060002090600d020160040160006101000a81548173ffffffffffffffffffffffffffffffffffffffff021916908373ffffffffffffffffffffffffffffffffffffffff1602179055507f3baf3f8e2dd70ad22e86a9d44c0df0d7b3d08b1febe5cbb35803f1b02d89471b3360008360ff1681548110611a0357611a02614177565b5b90600052602060002090600d02016000015460008460ff1681548110611a2c57611a2b614177565b5b90600052602060002090600d02016002015460008560ff1681548110611a5557611a54614177565b5b90600052602060002090600d020160010154604051611a779493929190614a4d565b60405180910390a150612042565b7f3baf3f8e2dd70ad22e86a9d44c0df0d7b3d08b1febe5cbb35803f1b02d89471b336000806000604051611abc9493929190614b0b565b60405180910390a150612042565b8080611ad590614235565b9150506118a8565b505b8115611e3d5760008080549050604051602001611afc9190614b50565b60405160208183030381529060405280519060200120905060008067ffffffffffffffff811115611b3057611b2f6139f0565b5b604051908082528060200260200182016040528015611b6357816020015b6060815260200190600190039081611b4e5790505b5090506000604051806101a0016040528084815260200185600181518110611b8e57611b8d614177565b5b602002602001015160ff16815260200185600081518110611bb257611bb1614177565b5b602002602001015160ff1681526020013373ffffffffffffffffffffffffffffffffffffffff168152602001600073ffffffffffffffffffffffffffffffffffffffff1681526020017fffffffffffffffffffffffffffffffffffffffffffffffffffffffffffffffff8152602001600081526020016001151581526020016000801b81526020016000801b81526020016040518060200160405280600081525081526020018381526020014381525090806001815401808255809150506001900390600052602060002090600d020160009091909190915060008201518160000155602082015181600101556040820151816002015560608201518160030160006101000a81548173ffffffffffffffffffffffffffffffffffffffff021916908373ffffffffffffffffffffffffffffffffffffffff16021790555060808201518160040160006101000a81548173ffffffffffffffffffffffffffffffffffffffff021916908373ffffffffffffffffffffffffffffffffffffffff16021790555060a0820151816005015560c0820151816006015560e08201518160070160006101000a81548160ff0219169083151502179055506101008201518160080155610120820151816009015561014082015181600a019081611d979190614882565b5061016082015181600b019080519060200190611db592919061355a565b5061018082015181600c015550507f3baf3f8e2dd70ad22e86a9d44c0df0d7b3d08b1febe5cbb35803f1b02d89471b338385600081518110611dfa57611df9614177565b5b602002602001015186600181518110611e1657611e15614177565b5b6020026020010151604051611e2e9493929190614b9c565b60405180910390a15050612042565b60005b6000805490508160ff16101561200157600073ffffffffffffffffffffffffffffffffffffffff1660008260ff1681548110611e7f57611e7e614177565b5b90600052602060002090600d020160040160009054906101000a900473ffffffffffffffffffffffffffffffffffffffff1673ffffffffffffffffffffffffffffffffffffffff1614611fee573360008260ff1681548110611ee457611ee3614177565b5b90600052602060002090600d020160040160006101000a81548173ffffffffffffffffffffffffffffffffffffffff021916908373ffffffffffffffffffffffffffffffffffffffff1602179055507f3baf3f8e2dd70ad22e86a9d44c0df0d7b3d08b1febe5cbb35803f1b02d89471b3360008360ff1681548110611f6c57611f6b614177565b5b90600052602060002090600d02016000015460008460ff1681548110611f9557611f94614177565b5b90600052602060002090600d02016002015460008560ff1681548110611fbe57611fbd614177565b5b90600052602060002090600d020160010154604051611fe09493929190614a4d565b60405180910390a150612042565b8080611ff990614235565b915050611e40565b507f3baf3f8e2dd70ad22e86a9d44c0df0d7b3d08b1febe5cbb35803f1b02d89471b3360008060006040516120399493929190614b0b565b60405180910390a15b505050565b60005b6000805490508160ff1610156123e3578360008260ff168154811061207257612071614177565b5b90600052602060002090600d020160000154036123d0573373ffffffffffffffffffffffffffffffffffffffff1660008260ff16815481106120b7576120b6614177565b5b90600052602060002090600d020160030160009054906101000a900473ffffffffffffffffffffffffffffffffffffffff1673ffffffffffffffffffffffffffffffffffffffff1614801561213e575060008160ff168154811061211e5761211d614177565b5b90600052602060002090600d020160070160009054906101000a900460ff165b1561222d57828260008360ff168154811061215c5761215b614177565b5b90600052602060002090600d0201600a01918261217a929190614bec565b507f03ca51ee25c32dc88496a54d517b9239e2812fa82498a1bb76407967dccf543460008260ff16815481106121b3576121b2614177565b5b90600052602060002090600d020160040160009054906101000a900473ffffffffffffffffffffffffffffffffffffffff16848460008560ff16815481106121fe576121fd614177565b5b90600052602060002090600d0201600001546040516122209493929190614cf8565b60405180910390a16123cf565b3373ffffffffffffffffffffffffffffffffffffffff1660008260ff168154811061225b5761225a614177565b5b90600052602060002090600d020160040160009054906101000a900473ffffffffffffffffffffffffffffffffffffffff1673ffffffffffffffffffffffffffffffffffffffff161480156122e3575060008160ff16815481106122c2576122c1614177565b5b90600052602060002090600d020160070160009054906101000a900460ff16155b156123ce57828260008360ff168154811061230157612300614177565b5b90600052602060002090600d0201600a01918261231f929190614bec565b507f03ca51ee25c32dc88496a54d517b9239e2812fa82498a1bb76407967dccf543460008260ff168154811061235857612357614177565b5b90600052602060002090600d020160030160009054906101000a900473ffffffffffffffffffffffffffffffffffffffff16848460008560ff16815481106123a3576123a2614177565b5b90600052602060002090600d0201600001546040516123c59493929190614cf8565b60405180910390a15b5b5b80806123db90614235565b91505061204a565b50505050565b60005b6000805490508160ff161015612a63578160008260ff168154811061241457612413614177565b5b90600052602060002090600d02016000015403612a505760008160ff168154811061244257612441614177565b5b90600052602060002090600d020160030160009054906101000a900473ffffffffffffffffffffffffffffffffffffffff1673ffffffffffffffffffffffffffffffffffffffff163373ffffffffffffffffffffffffffffffffffffffff16036124eb5760008160ff16815481106124bd576124bc614177565b5b90600052602060002090600d020160070160009054906101000a900460ff16156124e657600080fd5b6125a7565b60008160ff168154811061250257612501614177565b5b90600052602060002090600d020160040160009054906101000a900473ffffffffffffffffffffffffffffffffffffffff1673ffffffffffffffffffffffffffffffffffffffff163373ffffffffffffffffffffffffffffffffffffffff16036125a65760008160ff168154811061257d5761257c614177565b5b90600052602060002090600d020160070160009054906101000a900460ff166125a557600080fd5b5b5b600560008260ff16815481106125c0576125bf614177565b5b90600052602060002090600d0201600c01546125dc9190614d38565b43106129e95760008160ff16815481106125f9576125f8614177565b5b90600052602060002090600d020160030160009054906101000a900473ffffffffffffffffffffffffffffffffffffffff1673ffffffffffffffffffffffffffffffffffffffff163373ffffffffffffffffffffffffffffffffffffffff16036127e55760008160ff168154811061267457612673614177565b5b90600052602060002090600d020160030160009054906101000a900473ffffffffffffffffffffffffffffffffffffffff1673ffffffffffffffffffffffffffffffffffffffff166108fc479081150290604051600060405180830381858888f193505050501580156126eb573d6000803e3d6000fd5b507fb5d33b7d3fde251247342c341bfcf29a1ba0c958819d37dd956b2bf1e40e131660008260ff168154811061272457612723614177565b5b90600052602060002090600d020160040160009054906101000a900473ffffffffffffffffffffffffffffffffffffffff1660008360ff168154811061276d5761276c614177565b5b90600052602060002090600d020160030160009054906101000a900473ffffffffffffffffffffffffffffffffffffffff1660008460ff16815481106127b6576127b5614177565b5b90600052602060002090600d0201600001546040516127d79392919061453e565b60405180910390a150612a65565b60008160ff16815481106127fc576127fb614177565b5b90600052602060002090600d020160040160009054906101000a900473ffffffffffffffffffffffffffffffffffffffff1673ffffffffffffffffffffffffffffffffffffffff163373ffffffffffffffffffffffffffffffffffffffff16036129e85760008160ff168154811061287757612876614177565b5b90600052602060002090600d020160040160009054906101000a900473ffffffffffffffffffffffffffffffffffffffff1673ffffffffffffffffffffffffffffffffffffffff166108fc479081150290604051600060405180830381858888f193505050501580156128ee573d6000803e3d6000fd5b507fb5d33b7d3fde251247342c341bfcf29a1ba0c958819d37dd956b2bf1e40e131660008260ff168154811061292757612926614177565b5b90600052602060002090600d020160030160009054906101000a900473ffffffffffffffffffffffffffffffffffffffff1660008360ff16815481106129705761296f614177565b5b90600052602060002090600d020160040160009054906101000a900473ffffffffffffffffffffffffffffffffffffffff1660008460ff16815481106129b9576129b8614177565b5b90600052602060002090600d0201600001546040516129da9392919061453e565b60405180910390a150612a65565b5b7f31c75d681c5097d590858bec0022e6952d72423cdc4bd3625c73d475ab2c9f193360008360ff1681548110612a2257612a21614177565b5b90600052602060002090600d020160000154604051612a42929190614a24565b60405180910390a150612a65565b8080612a5b90614235565b9150506123ec565b505b50565b60005b6000805490508160ff161015612d6b578260008260ff1681548110612a9357612a92614177565b5b90600052602060002090600d02016000015403612d58576000808260ff1681548110612ac257612ac1614177565b5b90600052602060002090600d0201600501541215612ce4578160008260ff1681548110612af257612af1614177565b5b90600052602060002090600d0201600501819055503373ffffffffffffffffffffffffffffffffffffffff1660008260ff1681548110612b3557612b34614177565b5b90600052602060002090600d020160030160009054906101000a900473ffffffffffffffffffffffffffffffffffffffff1673ffffffffffffffffffffffffffffffffffffffff1603612c32577f3957c7b2933548c8f7a78d5bd3ebda287b403a848513835e06d5f47dcfbdcb2660008260ff1681548110612bba57612bb9614177565b5b90600052602060002090600d020160040160009054906101000a900473ffffffffffffffffffffffffffffffffffffffff168360008460ff1681548110612c0457612c03614177565b5b90600052602060002090600d020160000154604051612c2593929190614d6c565b60405180910390a1612cde565b7f3957c7b2933548c8f7a78d5bd3ebda287b403a848513835e06d5f47dcfbdcb2660008260ff1681548110612c6a57612c69614177565b5b90600052602060002090600d020160040160009054906101000a900473ffffffffffffffffffffffffffffffffffffffff168360008460ff1681548110612cb457612cb3614177565b5b90600052602060002090600d020160000154604051612cd593929190614d6c565b60405180910390a15b50612d6d565b8160008260ff1681548110612cfc57612cfb614177565b5b90600052602060002090600d02016005015403612d5257600282612d209190614da3565b60008260ff1681548110612d3757612d36614177565b5b90600052602060002090600d02016006018190555050612d6d565b50612d6d565b8080612d6390614235565b915050612a6b565b505b5050565b606060005b6000805490508160ff161015612e81578260008260ff1681548110612d9e57612d9d614177565b5b90600052602060002090600d02016000015403612e6e5760008160ff1681548110612dcc57612dcb614177565b5b90600052602060002090600d0201600a018054612de890614305565b80601f0160208091040260200160405190810160405280929190818152602001828054612e1490614305565b8015612e615780601f10612e3657610100808354040283529160200191612e61565b820191906000526020600020905b815481529060010190602001808311612e4457829003601f168201915b5050505050915050612e83565b8080612e7990614235565b915050612d76565b505b919050565b60005b6000805490508160ff16101561311a578260008260ff1681548110612eb357612eb2614177565b5b90600052602060002090600d02016000015403613107573373ffffffffffffffffffffffffffffffffffffffff1660008260ff1681548110612ef857612ef7614177565b5b90600052602060002090600d020160030160009054906101000a900473ffffffffffffffffffffffffffffffffffffffff1673ffffffffffffffffffffffffffffffffffffffff1603612f77578160008260ff1681548110612f5d57612f5c614177565b5b90600052602060002090600d020160080181905550612fa5565b8160008260ff1681548110612f8f57612f8e614177565b5b90600052602060002090600d0201600901819055505b600160008260ff1681548110612fbe57612fbd614177565b5b90600052602060002090600d020160070160006101000a81548160ff0219169083151502179055504360008260ff1681548110612ffe57612ffd614177565b5b90600052602060002090600d0201600c01819055507f35b818715483cbf3751f7caa7b6bb0152712f497266c3d6e033594a7c312e27e60008260ff168154811061304b5761304a614177565b5b90600052602060002090600d020160030160009054906101000a900473ffffffffffffffffffffffffffffffffffffffff1660008360ff168154811061309457613093614177565b5b90600052602060002090600d020160040160009054906101000a900473ffffffffffffffffffffffffffffffffffffffff1660008460ff16815481106130dd576130dc614177565b5b90600052602060002090600d0201600001546040516130fe9392919061453e565b60405180910390a15b808061311290614235565b915050612e8b565b505050565b6000806002836040015161313391906144fc565b905060008360e001511561320f5760005b8461016001515181101561320957846101600151518110156131f55760006131c0866101600151838151811061317d5761317c614177565b5b60200260200101516040518060400160405280600181526020017f2d000000000000000000000000000000000000000000000000000000000000008152506132fb565b90506131e6816002815181106131d9576131d8614177565b5b60200260200101516134c2565b836131f19190614d38565b9250505b6002816132029190614d38565b9050613144565b506132dd565b6000600190505b846101600151518110156132db57846101600151518110156132c7576000613292866101600151838151811061324f5761324e614177565b5b60200260200101516040518060400160405280600181526020017f2d000000000000000000000000000000000000000000000000000000000000008152506132fb565b90506132b8816002815181106132ab576132aa614177565b5b60200260200101516134c2565b836132c39190614d38565b9250505b6002816132d49190614d38565b9050613216565b505b8181036132ef576001925050506132f6565b6000925050505b919050565b606060006040518060200160405280600081525090506000808590506000865167ffffffffffffffff811115613334576133336139f0565b5b60405190808252806020026020018201604052801561336757816020015b60608152602001906001900390816133525790505b50905060005b8251811015613495578660008151811061338a57613389614177565b5b602001015160f81c60f81b7effffffffffffffffffffffffffffffffffffffffffffffffffffffffffffff19168382815181106133ca576133c9614177565b5b602001015160f81c60f81b7effffffffffffffffffffffffffffffffffffffffffffffffffffffffffffff19160361344057848285815181106134105761340f614177565b5b60200260200101819052506040518060200160405280600081525094508380613438906144b4565b945050613482565b8488828151811061345457613453614177565b5b602001015160f81c60f81b604051602001613470929190614ea4565b60405160208183030381529060405294505b808061348d906144b4565b91505061336d565b50838184815181106134aa576134a9614177565b5b60200260200101819052508094505050505092915050565b6000808290506000805b825181101561354f5760008382815181106134ea576134e9614177565b5b602001015160f81c60f81b60f81c60ff1690506030811015801561350f575060398111155b1561353b576030816135219190614ecc565b600a8461352e91906144fc565b6135389190614d38565b92505b508080613547906144b4565b9150506134cc565b508092505050919050565b8280548282559060005260206000209081019282156135a2579160200282015b828111156135a15782518290816135919190614882565b509160200191906001019061357a565b5b5090506135af91906135b3565b5090565b5b808211156135d357600081816135ca91906135d7565b506001016135b4565b5090565b5080546135e390614305565b6000825580601f106135f55750613614565b601f0160209004906000526020600020908101906136139190613617565b5b50565b5b80821115613630576000816000905550600101613618565b5090565b6000604051905090565b600080fd5b600080fd5b6000819050919050565b61365b81613648565b811461366657600080fd5b50565b60008135905061367881613652565b92915050565b6000602082840312156136945761369361363e565b5b60006136a284828501613669565b91505092915050565b6136b481613648565b82525050565b600081519050919050565b600082825260208201905092915050565b60005b838110156136f45780820151818401526020810190506136d9565b60008484015250505050565b6000601f19601f8301169050919050565b600061371c826136ba565b61372681856136c5565b93506137368185602086016136d6565b61373f81613700565b840191505092915050565b600073ffffffffffffffffffffffffffffffffffffffff82169050919050565b60006137758261374a565b9050919050565b6137858161376a565b82525050565b60008115159050919050565b6137a08161378b565b82525050565b600081519050919050565b600082825260208201905092915050565b60006137cd826137a6565b6137d781856137b1565b93506137e78185602086016136d6565b6137f081613700565b840191505092915050565b600081519050919050565b600082825260208201905092915050565b6000819050602082019050919050565b600082825260208201905092915050565b6000613843826137a6565b61384d8185613827565b935061385d8185602086016136d6565b61386681613700565b840191505092915050565b600061387d8383613838565b905092915050565b6000602082019050919050565b600061389d826137fb565b6138a78185613806565b9350836020820285016138b985613817565b8060005b858110156138f557848403895281516138d68582613871565b94506138e183613885565b925060208a019950506001810190506138bd565b50829750879550505050505092915050565b60006101808201905061391d600083018f6136ab565b818103602083015261392f818e613711565b90508181036040830152613943818d613711565b9050613952606083018c61377c565b61395f608083018b61377c565b81810360a0830152613971818a613711565b905081810360c08301526139858189613711565b905061399460e0830188613797565b6139a26101008301876136ab565b6139b06101208301866136ab565b8181036101408301526139c381856137c2565b90508181036101608301526139d88184613892565b90509d9c50505050505050505050505050565b600080fd5b7f4e487b7100000000000000000000000000000000000000000000000000000000600052604160045260246000fd5b613a2882613700565b810181811067ffffffffffffffff82111715613a4757613a466139f0565b5b80604052505050565b6000613a5a613634565b9050613a668282613a1f565b919050565b600067ffffffffffffffff821115613a8657613a856139f0565b5b602082029050602081019050919050565b600080fd5b6000819050919050565b613aaf81613a9c565b8114613aba57600080fd5b50565b600081359050613acc81613aa6565b92915050565b6000613ae5613ae084613a6b565b613a50565b90508083825260208201905060208402830185811115613b0857613b07613a97565b5b835b81811015613b315780613b1d8882613abd565b845260208401935050602081019050613b0a565b5050509392505050565b600082601f830112613b5057613b4f6139eb565b5b8135613b60848260208601613ad2565b91505092915050565b60008060408385031215613b8057613b7f61363e565b5b6000613b8e85828601613669565b925050602083013567ffffffffffffffff811115613baf57613bae613643565b5b613bbb85828601613b3b565b9150509250929050565b6000602082019050613bda6000830184613797565b92915050565b600060208284031215613bf657613bf561363e565b5b6000613c0484828501613abd565b91505092915050565b613c1681613a9c565b82525050565b6000819050919050565b613c2f81613c1c565b82525050565b600061018082019050613c4b600083018f6136ab565b613c58602083018e613c0d565b613c65604083018d613c0d565b613c72606083018c61377c565b613c7f608083018b61377c565b613c8c60a083018a613c26565b613c9960c0830189613c26565b613ca660e0830188613797565b613cb46101008301876136ab565b613cc26101208301866136ab565b818103610140830152613cd581856137c2565b9050613ce5610160830184613c0d565b9d9c50505050505050505050505050565b600067ffffffffffffffff821115613d1157613d106139f0565b5b602082029050602081019050919050565b6000613d35613d3084613cf6565b613a50565b90508083825260208201905060208402830185811115613d5857613d57613a97565b5b835b81811015613d815780613d6d8882613669565b845260208401935050602081019050613d5a565b5050509392505050565b600082601f830112613da057613d9f6139eb565b5b8135613db0848260208601613d22565b91505092915050565b613dc28161378b565b8114613dcd57600080fd5b50565b600081359050613ddf81613db9565b92915050565b60008060008060808587031215613dff57613dfe61363e565b5b6000613e0d87828801613669565b945050602085013567ffffffffffffffff811115613e2e57613e2d613643565b5b613e3a87828801613d8b565b9350506040613e4b87828801613dd0565b9250506060613e5c87828801613abd565b91505092959194509250565b6000602082019050613e7d6000830184613c26565b92915050565b600067ffffffffffffffff821115613e9e57613e9d6139f0565b5b602082029050602081019050919050565b600060ff82169050919050565b613ec581613eaf565b8114613ed057600080fd5b50565b600081359050613ee281613ebc565b92915050565b6000613efb613ef684613e83565b613a50565b90508083825260208201905060208402830185811115613f1e57613f1d613a97565b5b835b81811015613f475780613f338882613ed3565b845260208401935050602081019050613f20565b5050509392505050565b600082601f830112613f6657613f656139eb565b5b8135613f76848260208601613ee8565b91505092915050565b600080600060608486031215613f9857613f9761363e565b5b6000613fa686828701613669565b9350506020613fb786828701613dd0565b925050604084013567ffffffffffffffff811115613fd857613fd7613643565b5b613fe486828701613f51565b9150509250925092565b600080fd5b60008083601f840112614009576140086139eb565b5b8235905067ffffffffffffffff81111561402657614025613fee565b5b60208301915083600182028301111561404257614041613a97565b5b9250929050565b6000806000604084860312156140625761406161363e565b5b600061407086828701613669565b935050602084013567ffffffffffffffff81111561409157614090613643565b5b61409d86828701613ff3565b92509250509250925092565b6140b281613c1c565b81146140bd57600080fd5b50565b6000813590506140cf816140a9565b92915050565b600080604083850312156140ec576140eb61363e565b5b60006140fa85828601613669565b925050602061410b858286016140c0565b9150509250929050565b6000602082019050818103600083015261412f81846137c2565b905092915050565b6000806040838503121561414e5761414d61363e565b5b600061415c85828601613669565b925050602061416d85828601613669565b9150509250929050565b7f4e487b7100000000000000000000000000000000000000000000000000000000600052603260045260246000fd5b7f4e487b7100000000000000000000000000000000000000000000000000000000600052601260045260246000fd5b7f4e487b7100000000000000000000000000000000000000000000000000000000600052601160045260246000fd5b600061420f82613a9c565b915061421a83613a9c565b92508261422a576142296141a6565b5b828204905092915050565b600061424082613eaf565b915060ff8203614253576142526141d5565b5b600182019050919050565b6000819050919050565b61427961427482613a9c565b61425e565b82525050565b600061428b8284614268565b60208201915081905092915050565b6000819050919050565b6142b56142b082613c1c565b61429a565b82525050565b60006142c782846142a4565b60208201915081905092915050565b7f4e487b7100000000000000000000000000000000000000000000000000000000600052602260045260246000fd5b6000600282049050600182168061431d57607f821691505b6020821081036143305761432f6142d6565b5b50919050565b60008160011c9050919050565b6000808291508390505b600185111561438d57808604811115614369576143686141d5565b5b60018516156143785780820291505b808102905061438685614336565b945061434d565b94509492505050565b6000826143a65760019050614462565b816143b45760009050614462565b81600181146143ca57600281146143d457614403565b6001915050614462565b60ff8411156143e6576143e56141d5565b5b8360020a9150848211156143fd576143fc6141d5565b5b50614462565b5060208310610133831016604e8410600b84101617156144385782820a905083811115614433576144326141d5565b5b614462565b6144458484846001614343565b9250905081840481111561445c5761445b6141d5565b5b81810290505b9392505050565b600061447482613a9c565b915061447f83613eaf565b92506144ac7fffffffffffffffffffffffffffffffffffffffffffffffffffffffffffffffff8484614396565b905092915050565b60006144bf82613a9c565b91507fffffffffffffffffffffffffffffffffffffffffffffffffffffffffffffffff82036144f1576144f06141d5565b5b600182019050919050565b600061450782613a9c565b915061451283613a9c565b925082820261452081613a9c565b91508282048414831517614537576145366141d5565b5b5092915050565b6000606082019050614553600083018661377c565b614560602083018561377c565b61456d60408301846136ab565b949350505050565b600061458082613a9c565b915061458b83613a9c565b92508261459b5761459a6141a6565b5b828206905092915050565b6000819050919050565b6145c16145bc82613648565b6145a6565b82525050565b60006145d382856145b0565b6020820191506145e382846145b0565b6020820191508190509392505050565b600081905092915050565b60008190508160005260206000209050919050565b6000815461462081614305565b61462a81866145f3565b94506001821660008114614645576001811461465a5761468d565b60ff198316865281151582028601935061468d565b614663856145fe565b60005b8381101561468557815481890152600182019150602081019050614666565b838801955050505b50505092915050565b60006146a1826137a6565b6146ab81856145f3565b93506146bb8185602086016136d6565b80840191505092915050565b60006146d38285614613565b91506146df8284614696565b91508190509392505050565b60006020601f8301049050919050565b600082821b905092915050565b6000600883026147387fffffffffffffffffffffffffffffffffffffffffffffffffffffffffffffffff826146fb565b61474286836146fb565b95508019841693508086168417925050509392505050565b6000819050919050565b600061477f61477a61477584613a9c565b61475a565b613a9c565b9050919050565b6000819050919050565b61479983614764565b6147ad6147a582614786565b848454614708565b825550505050565b600090565b6147c26147b5565b6147cd818484614790565b505050565b5b818110156147f1576147e66000826147ba565b6001810190506147d3565b5050565b601f82111561483657614807816145fe565b614810846146eb565b8101602085101561481f578190505b61483361482b856146eb565b8301826147d2565b50505b505050565b600082821c905092915050565b60006148596000198460080261483b565b1980831691505092915050565b60006148728383614848565b9150826002028217905092915050565b61488b826137a6565b67ffffffffffffffff8111156148a4576148a36139f0565b5b6148ae8254614305565b6148b98282856147f5565b600060209050601f8311600181146148ec57600084156148da578287015190505b6148e48582614866565b86555061494c565b601f1984166148fa866145fe565b60005b82811015614922578489015182556001820191506020850194506020810190506148fd565b8683101561493f578489015161493b601f891682614848565b8355505b6001600288020188555050505b505050505050565b6000815461496181614305565b61496b81866137b1565b94506001821660008114614986576001811461499c576149cf565b60ff1983168652811515602002860193506149cf565b6149a5856145fe565b60005b838110156149c7578154818901526001820191506020810190506149a8565b808801955050505b50505092915050565b60006080820190506149ed600083018761377c565b6149fa6020830186613797565b8181036040830152614a0c8185614954565b9050614a1b60608301846136ab565b95945050505050565b6000604082019050614a39600083018561377c565b614a4660208301846136ab565b9392505050565b6000608082019050614a62600083018761377c565b614a6f60208301866136ab565b614a7c6040830185613c0d565b614a896060830184613c0d565b95945050505050565b6000819050919050565b60008160001b9050919050565b6000614ac4614abf614aba84614a92565b614a9c565b613648565b9050919050565b614ad481614aa9565b82525050565b6000614af5614af0614aeb84614a92565b61475a565b613a9c565b9050919050565b614b0581614ada565b82525050565b6000608082019050614b20600083018761377c565b614b2d6020830186614acb565b614b3a6040830185614afc565b614b476060830184614afc565b95945050505050565b6000602082019050614b656000830184613c0d565b92915050565b6000614b86614b81614b7c84613eaf565b61475a565b613a9c565b9050919050565b614b9681614b6b565b82525050565b6000608082019050614bb1600083018761377c565b614bbe60208301866136ab565b614bcb6040830185614b8d565b614bd86060830184614b8d565b95945050505050565b600082905092915050565b614bf68383614be1565b67ffffffffffffffff811115614c0f57614c0e6139f0565b5b614c198254614305565b614c248282856147f5565b6000601f831160018114614c535760008415614c41578287013590505b614c4b8582614866565b865550614cb3565b601f198416614c61866145fe565b60005b82811015614c8957848901358255600182019150602085019450602081019050614c64565b86831015614ca65784890135614ca2601f891682614848565b8355505b6001600288020188555050505b50505050505050565b82818337600083830152505050565b6000614cd783856137b1565b9350614ce4838584614cbc565b614ced83613700565b840190509392505050565b6000606082019050614d0d600083018761377c565b8181036020830152614d20818587614ccb565b9050614d2f60408301846136ab565b95945050505050565b6000614d4382613a9c565b9150614d4e83613a9c565b9250828201905080821115614d6657614d656141d5565b5b92915050565b6000606082019050614d81600083018661377c565b614d8e6020830185613c26565b614d9b60408301846136ab565b949350505050565b6000614dae82613c1c565b9150614db983613c1c565b9250828202614dc781613c1c565b91507f80000000000000000000000000000000000000000000000000000000000000008414600084121615614dff57614dfe6141d5565b5b8282058414831517614e1457614e136141d5565b5b5092915050565b600081905092915050565b6000614e31826136ba565b614e3b8185614e1b565b9350614e4b8185602086016136d6565b80840191505092915050565b60007fff0000000000000000000000000000000000000000000000000000000000000082169050919050565b6000819050919050565b614e9e614e9982614e57565b614e83565b82525050565b6000614eb08285614e26565b9150614ebc8284614e8d565b6001820191508190509392505050565b6000614ed782613a9c565b9150614ee283613a9c565b9250828203905081811115614efa57614ef96141d5565b5b9291505056fea2646970667358221220f194102072180e73f87c37ec03baa4a0e41325d2b7a53e9a63c947f39e98943764736f6c63430008130033",
  "immutableReferences": {},
  "source": "// SPDX-License-Identifier: MIT \npragma solidity >=0.8.2 <0.9.0;\npragma abicoder v2;\npragma experimental ABIEncoderV2;\n\ncontract Game {\n\n    struct GameMatch{\n        bytes32 gameId;\n        uint tableSize;\n        uint ships;\n        address p1; // also the creator\n        address p2;\n        int registration; // -1: not registered, otherwise the amount \n        int reward;\n        bool turn; // if true --> p1 have to play otherwise p2 \n        bytes32 b1; // hash of the board to proof merkle tree\n        bytes32 b2;\n        string lastMove; // last move played in the game [1-2][2-4][1-1][2-2] --> first x then y\n        string[] moves;     // l'array avr quindi le caselle pari per il p1 e disapari per il p2 e li metterai le mosse fatte in chiaro\n                            // con anche il risultato della mossa tipo 1.1.0 (casella 1 1 mancato) 2.1.1 (casella 2 1 colpito)\n        uint lastBlockPlayed;\n    }\n\n    GameMatch[] public matches;\n    event SendNewGameCreate(address player, bytes32 gameId, uint ships, uint tableSize);\n    event SendRequestAmount(address player, int amount, bytes32 gameId);    //tell to the player to put the money to start play\n    event SendTurnAdvice(address play, address wait, bytes32 gameId);   //tell to the player that is his/her turn\n    event SendMovesAdvice(address player, string move, bytes32 gameId);  //tell to the player that have been shoot\n    event SendRequestBoard(address player, bytes32 gameId);   //tell to the player that have won\n    event SendWrongMove(address player, bytes32 gameId);    //tell to the player that is not a valid move\n    event SendVictory(address winner, address loser, bytes32 gameId);\n    event SendMoveResult(address player, bool hit, string coordinate, bytes32 gameId);\n    event SendCheatPayment(address cheater, address receiver, bytes32 gameId);\n    event SendStopReport(address player, bytes32 gameId);\n     \n\n    function join(bytes32 _gameId, bool _isNew, uint8[] memory _info) public{\n        \n        // set player 2 in case of given game id\n        if(_gameId != 0){\n            for(uint8 i=0; i < matches.length; i++){\n                if(matches[i].gameId == _gameId){\n                    if(matches[i].p2 == address(0)){\n                        matches[i].p2 = msg.sender;\n                        emit SendNewGameCreate(msg.sender, matches[i].gameId, matches[i].ships, matches[i].tableSize);\n                        return;\n                    }\n                    else{\n                        emit SendNewGameCreate(msg.sender, 0, 0, 0);\n                        return;\n                    }\n                }\n            }\n        }\n\n        if(_isNew){\n            // otherwise create a new game\n            bytes32 newGameId = keccak256(abi.encode(matches.length));\n            string[] memory _moves = new string[](0);\n            matches.push(GameMatch(newGameId, _info[1], _info[0], msg.sender, address(0), -1, 0, true, 0, 0, \"\",  _moves, block.number));\n            emit SendNewGameCreate(msg.sender, newGameId, _info[0], _info[1]);\n            return;\n        }\n\n        // set player 2 in random game if available\n        for(uint8 i=0; i<matches.length; i++){\n            if(matches[i].p2 != address(0)){\n                matches[i].p2=msg.sender;\n                emit SendNewGameCreate(msg.sender, matches[i].gameId, matches[i].ships, matches[i].tableSize);\n                return;\n            }\n        }\n\n        emit SendNewGameCreate(msg.sender, 0, 0, 0);\n    }\n\n    /**\n        The two part agree offline and the first who call this method\n        also set the reward.    \n     */\n    function setReward(bytes32 _gameId, int _registration) external{\n        for(uint8 i=0; i<matches.length; i++){\n            if(matches[i].gameId == _gameId){\n                if(matches[i].registration < 0){\n                    matches[i].registration=_registration;\n                    if(matches[i].p1==msg.sender)\n                        emit SendRequestAmount(matches[i].p2, _registration, matches[i].gameId);\n                    else\n                        emit SendRequestAmount(matches[i].p2, _registration, matches[i].gameId);\n                    return;\n                }\n                else{\n                    if(matches[i].registration == _registration){\n                        matches[i].reward=_registration*2;\n                        return;\n                    }\n                    else{\n                        return;\n                    }\n                }\n            }\n        }\n    }\n\n    function getInformations(bytes32 _gameId) external view returns(\n        bytes32, \n        bytes memory,\n        bytes memory,\n        address ,\n        address ,\n        bytes memory ,\n        bytes memory ,\n        bool , \n        bytes32 ,\n        bytes32 ,\n        string memory,\n        string[] memory\n    ){\n        for(uint8 i=0; i < matches.length; i++){\n            if(matches[i].gameId == _gameId){\n                return(matches[i].gameId, abi.encodePacked(matches[i].tableSize), abi.encodePacked(matches[i].ships), matches[i].p1, matches[i].p2, abi.encodePacked(matches[i].registration), abi.encodePacked(matches[i].reward), matches[i].turn, matches[i].b1, matches[i].b2, matches[i].lastMove, matches[i].moves);\n            }\n        }\n    }\n\n    function getReward(bytes32 _gameId) external view returns(int){\n        for(uint8 i=0; i < matches.length; i++){\n            if(matches[i].gameId == _gameId){\n                return matches[i].registration;\n            }\n        }\n    }\n\n    function pay(bytes32 _gameId) public payable{\n        for(uint8 i=0; i < matches.length; i++){\n            if(matches[i].gameId == _gameId){\n                require((msg.value/1000000000000000000) == uint(matches[i].registration));\n            }\n        }\n    }\n\n    function setBoard(bytes32 _gameId, bytes32 _hashedBoard) public{\n        for(uint8 i=0; i < matches.length; i++){\n            if(matches[i].gameId == _gameId){\n                if(matches[i].p1==msg.sender){\n                    matches[i].b1=_hashedBoard;\n                }\n                else{\n                    matches[i].b2=_hashedBoard;\n                }\n                matches[i].turn=true;\n                matches[i].lastBlockPlayed=block.number;\n                emit SendTurnAdvice(matches[i].p1, matches[i].p2, matches[i].gameId);\n            }\n        }\n    }\n\n    function shoot(bytes32 _gameId, string calldata _coordinate) public{\n        // stores the coordination for the other player\n        for(uint8 i=0; i < matches.length; i++){\n            if(matches[i].gameId == _gameId){\n                if(matches[i].p1==msg.sender && matches[i].turn){\n                    matches[i].lastMove=_coordinate;\n                    emit SendMovesAdvice(matches[i].p2, _coordinate, matches[i].gameId);\n                }\n                else if(matches[i].p2==msg.sender && !matches[i].turn){\n                    matches[i].lastMove=_coordinate;\n                    emit SendMovesAdvice(matches[i].p1, _coordinate, matches[i].gameId);\n                }\n            }\n        }\n    }\n\n    /**\n        get the last move of the game\n        then compute the merkle tree as a proof \n     */\n    function getLastMoves(bytes32 _gameId) public view returns(string memory){\n        for(uint8 i=0; i < matches.length; i++){\n            if(matches[i].gameId == _gameId){\n                return matches[i].lastMove;\n            }\n        }\n    }\n\n    function checkMerkleProof(bytes32 _gameId, bytes32[] memory _sibilings, bool _hit, uint256 _leafIndex) public {\n        \n        for(uint8 i=0; i < matches.length; i++){\n            if(matches[i].gameId == _gameId){\n                bytes32 _trueBoard;\n                if(matches[i].p1==msg.sender){\n                    _trueBoard=matches[i].b1;\n                }\n                else{\n                    _trueBoard=matches[i].b2;\n                }        \n                \n                bytes32 _b=_sibilings[0];\n                for(uint j=1; j < _sibilings.length; j++){\n                    // compute the merkle proof\n                    bytes32 _b1=_b;\n                    bytes32 _b2=_sibilings[j];\n                    if(_leafIndex% 2 == 0)\n                        _b=keccak256(abi.encodePacked(_b1, _b2));\n                    else\n                        _b=keccak256(abi.encodePacked(_b2, _b1));\n\n                    _leafIndex = _leafIndex / 2;\n                }\n\n                // confronta il risultato con _b se ok allora memorizza la mossa valida e return true\n\n                if(_b == _trueBoard){\n                    // register the valid move\n                    string memory _r=_hit?\"-1\":\"-0\";\n                    matches[i].moves.push(string(abi.encodePacked(matches[i].lastMove, _r)));\n                    matches[i].lastBlockPlayed = block.number;\n                    address _wait;\n                    if(msg.sender==matches[i].p1){\n                        _wait=matches[i].p2;\n                        emit SendMoveResult(matches[i].p2, _hit, matches[i].lastMove, matches[i].gameId);\n                    }else{\n                        _wait =matches[i].p1;\n                        emit SendMoveResult(matches[i].p1, _hit, matches[i].lastMove, matches[i].gameId);\n                    }\n\n                    // chiama la funzione checkWin e richiedi la board da controllare all'altro giocatore\n                    if(checkWin(matches[i])){\n                        emit SendRequestBoard(_wait, matches[i].gameId);\n                        \n                    }else{\n                        // altrimenti emetti l'evento cambia turno\n                        emit SendTurnAdvice(msg.sender, _wait, matches[i].gameId);\n                        matches[i].turn ? matches[i].turn=false : matches[i].turn=true; \n                    }                        \n                    return;\n                }\n                else{   \n                    emit SendWrongMove(msg.sender, matches[i].gameId);             \n                    return;\n                }                \n            }\n        }\n    }\n\n    function checkWin(GameMatch memory g) internal pure returns(bool){\n        uint _shipToSink=g.ships*2; //because all ships have fixed length of two\n        uint _shipSinked=0;\n        if(g.turn){\n            for (uint i=0; i<g.moves.length; i+=2){\n                if(i < g.moves.length){\n                    string[] memory _s = splitString(g.moves[i], \"-\");\n                    _shipSinked += stringToUint(_s[2]);\n                }\n            }\n        }else{\n            for(uint i = 1; i < g.moves.length; i+=2){\n                if(i < g.moves.length){\n                    string[] memory _s = splitString(g.moves[i], \"-\");\n                    _shipSinked += stringToUint(_s[2]);\n                }\n            }\n        }\n\n        if(_shipSinked==_shipToSink){\n            return true;\n        }else{\n            return false;\n        }\n    }\n\n    function checkBoard(bytes32 _gameId, uint256[] memory _board) public payable returns(bool){        \n        for(uint8 i=0; i < matches.length; i++){\n            if(matches[i].gameId == _gameId){\n                //controllo sovrapposizioni navi\n                uint8 count=0;\n                for(uint q = 0; q < matches[i].tableSize**2; q++){\n                    if(_board[q] == 1) //there is a ship\n                        count++;\n                }\n\n                if(count == matches[i].ships*2){ //there aren't ship overlapped\n                    payable(msg.sender).transfer(address(this).balance);\n                    if(msg.sender == matches[i].p1)\n                        emit SendVictory(msg.sender, matches[i].p2, matches[i].gameId);\n                    else\n                        emit SendVictory(matches[i].p2, msg.sender, matches[i].gameId);\n                }\n            }\n        }\n    }\n\n    function notifyDelay(bytes32 _gameId) public{\n        // wait for 5 blocks and if there isn't a reply\n        // pay the other player\n        for(uint8 i=0; i < matches.length; i++){\n            if(matches[i].gameId == _gameId){\n                // the one who complain it isn't its turn \n                if(msg.sender==matches[i].p1)\n                    require(!matches[i].turn);\n                else if(msg.sender == matches[i].p2)\n                    require(matches[i].turn);\n\n                if(block.number >= (matches[i].lastBlockPlayed+5)){\n                    if(msg.sender==matches[i].p1){\n                        payable(matches[i].p1).transfer(address(this).balance);\n                        emit SendCheatPayment(matches[i].p2, matches[i].p1, matches[i].gameId);\n                        return;\n                    }else if(msg.sender == matches[i].p2){\n                        payable(matches[i].p2).transfer(address(this).balance);\n                        emit SendCheatPayment(matches[i].p1, matches[i].p2, matches[i].gameId);\n                        return;\n                    }\n                }\n                emit SendStopReport(msg.sender, matches[i].gameId);\n                return;\n            }\n        }\n    }\n\n    function dummyFunction() public{\n        // dummy function to progress in block numbers                \n    }\n\n    fallback() external{\n        pay(0);\n    }\n\n\n    /**\n        Some utility functions for internal use only    \n     */\n    function splitString(string memory _s, string memory _separator) internal pure returns(string[] memory){\n        string memory _temp=\"\";\n        uint count=0;\n        bytes memory _sbytes=bytes(_s);\n        string[] memory _res = new string[](bytes(_s).length);\n        for(uint i=0; i < _sbytes.length; i++){\n            if(_sbytes[i]==bytes(_separator)[0]){\n                _res[count] = _temp;\n                _temp=\"\";\n                count++;\n            }\n            else{\n                _temp=string(bytes.concat(bytes(_temp), bytes(_s)[i]));\n            }\n        }\n        _res[count] = _temp;\n        return _res;\n    }\n\n    function stringToUint(string memory _str) internal pure returns (uint) {\n        bytes memory b = bytes(_str);\n        uint result = 0;\n        for (uint i = 0; i < b.length; i++) {\n            uint c = uint(uint8(b[i]));\n            if (c >= 48 && c <= 57) {\n                result = result * 10 + (c - 48);\n            }\n        }\n        return result;\n    }\n}",
  "sourcePath": "/home/davide/Documenti/magistrale/P2PBC/projects/battleship/contracts/Game.sol",
  "compiler": {
    "name": "solc",
    "version": "0.8.19+commit.7dd6d404.Emscripten.clang"
  },
  "schemaVersion": "3.4.13",
  "updatedAt": "2023-06-15T13:53:02.376Z",
  "networkType": "ethereum",
  "devdoc": {
    "kind": "dev",
    "methods": {},
    "version": 1
  },
  "userdoc": {
    "kind": "user",
    "methods": {
      "getLastMoves(bytes32)": {
        "notice": "get the last move of the game then compute the merkle tree as a proof "
      },
      "setReward(bytes32,int256)": {
        "notice": "The two part agree offline and the first who call this method also set the reward.    "
      }
    },
    "version": 1
  }
}