{
  "contractName": "Game",
  "abi": [
    {
      "anonymous": false,
      "inputs": [
        {
          "indexed": false,
          "internalType": "address",
          "name": "player",
          "type": "address"
        },
        {
          "indexed": false,
          "internalType": "bool",
          "name": "hit",
          "type": "bool"
        },
        {
          "indexed": false,
          "internalType": "string",
          "name": "coordinate",
          "type": "string"
        }
      ],
      "name": "SendMoveResult",
      "type": "event"
    },
    {
      "anonymous": false,
      "inputs": [
        {
          "indexed": false,
          "internalType": "address",
          "name": "player",
          "type": "address"
        },
        {
          "indexed": false,
          "internalType": "string",
          "name": "move",
          "type": "string"
        }
      ],
      "name": "SendMovesAdvice",
      "type": "event"
    },
    {
      "anonymous": false,
      "inputs": [
        {
          "indexed": false,
          "internalType": "address",
          "name": "player",
          "type": "address"
        },
        {
          "indexed": false,
          "internalType": "bytes32",
          "name": "gameId",
          "type": "bytes32"
        },
        {
          "indexed": false,
          "internalType": "uint256",
          "name": "ships",
          "type": "uint256"
        },
        {
          "indexed": false,
          "internalType": "uint256",
          "name": "tableSize",
          "type": "uint256"
        }
      ],
      "name": "SendNewGameCreate",
      "type": "event"
    },
    {
      "anonymous": false,
      "inputs": [
        {
          "indexed": false,
          "internalType": "address",
          "name": "player",
          "type": "address"
        },
        {
          "indexed": false,
          "internalType": "int256",
          "name": "amount",
          "type": "int256"
        }
      ],
      "name": "SendRequestAmount",
      "type": "event"
    },
    {
      "anonymous": false,
      "inputs": [
        {
          "indexed": false,
          "internalType": "address",
          "name": "player",
          "type": "address"
        }
      ],
      "name": "SendRequestBoard",
      "type": "event"
    },
    {
      "anonymous": false,
      "inputs": [
        {
          "indexed": false,
          "internalType": "address",
          "name": "play",
          "type": "address"
        },
        {
          "indexed": false,
          "internalType": "address",
          "name": "wait",
          "type": "address"
        }
      ],
      "name": "SendTurnAdvice",
      "type": "event"
    },
    {
      "anonymous": false,
      "inputs": [
        {
          "indexed": false,
          "internalType": "address",
          "name": "winner",
          "type": "address"
        },
        {
          "indexed": false,
          "internalType": "address",
          "name": "loser",
          "type": "address"
        }
      ],
      "name": "SendVictory",
      "type": "event"
    },
    {
      "anonymous": false,
      "inputs": [
        {
          "indexed": false,
          "internalType": "address",
          "name": "player",
          "type": "address"
        }
      ],
      "name": "SendWrongMove",
      "type": "event"
    },
    {
      "stateMutability": "nonpayable",
      "type": "fallback"
    },
    {
      "inputs": [
        {
          "internalType": "uint256",
          "name": "",
          "type": "uint256"
        }
      ],
      "name": "matches",
      "outputs": [
        {
          "internalType": "bytes32",
          "name": "gameId",
          "type": "bytes32"
        },
        {
          "internalType": "uint256",
          "name": "tableSize",
          "type": "uint256"
        },
        {
          "internalType": "uint256",
          "name": "ships",
          "type": "uint256"
        },
        {
          "internalType": "address",
          "name": "p1",
          "type": "address"
        },
        {
          "internalType": "address",
          "name": "p2",
          "type": "address"
        },
        {
          "internalType": "int256",
          "name": "registration",
          "type": "int256"
        },
        {
          "internalType": "int256",
          "name": "reward",
          "type": "int256"
        },
        {
          "internalType": "bool",
          "name": "turn",
          "type": "bool"
        },
        {
          "internalType": "bytes32",
          "name": "b1",
          "type": "bytes32"
        },
        {
          "internalType": "bytes32",
          "name": "b2",
          "type": "bytes32"
        },
        {
          "internalType": "string",
          "name": "lastMove",
          "type": "string"
        }
      ],
      "stateMutability": "view",
      "type": "function",
      "constant": true
    },
    {
      "inputs": [
        {
          "internalType": "bytes32",
          "name": "_gameId",
          "type": "bytes32"
        },
        {
          "internalType": "bool",
          "name": "_isNew",
          "type": "bool"
        },
        {
          "internalType": "uint8[]",
          "name": "_info",
          "type": "uint8[]"
        }
      ],
      "name": "join",
      "outputs": [],
      "stateMutability": "nonpayable",
      "type": "function"
    },
    {
      "inputs": [
        {
          "internalType": "bytes32",
          "name": "_gameId",
          "type": "bytes32"
        },
        {
          "internalType": "int256",
          "name": "_registration",
          "type": "int256"
        }
      ],
      "name": "setReward",
      "outputs": [],
      "stateMutability": "nonpayable",
      "type": "function"
    },
    {
      "inputs": [
        {
          "internalType": "bytes32",
          "name": "_gameId",
          "type": "bytes32"
        }
      ],
      "name": "getInformations",
      "outputs": [
        {
          "internalType": "bytes32",
          "name": "",
          "type": "bytes32"
        },
        {
          "internalType": "bytes",
          "name": "",
          "type": "bytes"
        },
        {
          "internalType": "bytes",
          "name": "",
          "type": "bytes"
        },
        {
          "internalType": "address",
          "name": "",
          "type": "address"
        },
        {
          "internalType": "address",
          "name": "",
          "type": "address"
        },
        {
          "internalType": "bytes",
          "name": "",
          "type": "bytes"
        },
        {
          "internalType": "bytes",
          "name": "",
          "type": "bytes"
        },
        {
          "internalType": "bool",
          "name": "",
          "type": "bool"
        },
        {
          "internalType": "bytes32",
          "name": "",
          "type": "bytes32"
        },
        {
          "internalType": "bytes32",
          "name": "",
          "type": "bytes32"
        },
        {
          "internalType": "string",
          "name": "",
          "type": "string"
        },
        {
          "internalType": "string[]",
          "name": "",
          "type": "string[]"
        }
      ],
      "stateMutability": "view",
      "type": "function",
      "constant": true
    },
    {
      "inputs": [
        {
          "internalType": "bytes32",
          "name": "_gameId",
          "type": "bytes32"
        }
      ],
      "name": "getReward",
      "outputs": [
        {
          "internalType": "int256",
          "name": "",
          "type": "int256"
        }
      ],
      "stateMutability": "view",
      "type": "function",
      "constant": true
    },
    {
      "inputs": [
        {
          "internalType": "bytes32",
          "name": "_gameId",
          "type": "bytes32"
        }
      ],
      "name": "pay",
      "outputs": [],
      "stateMutability": "payable",
      "type": "function",
      "payable": true
    },
    {
      "inputs": [
        {
          "internalType": "bytes32",
          "name": "_gameId",
          "type": "bytes32"
        },
        {
          "internalType": "bytes32",
          "name": "_hashedBoard",
          "type": "bytes32"
        }
      ],
      "name": "setBoard",
      "outputs": [],
      "stateMutability": "nonpayable",
      "type": "function"
    },
    {
      "inputs": [
        {
          "internalType": "bytes32",
          "name": "_gameId",
          "type": "bytes32"
        },
        {
          "internalType": "string",
          "name": "_coordinate",
          "type": "string"
        }
      ],
      "name": "shoot",
      "outputs": [],
      "stateMutability": "nonpayable",
      "type": "function"
    },
    {
      "inputs": [
        {
          "internalType": "bytes32",
          "name": "_gameId",
          "type": "bytes32"
        }
      ],
      "name": "getLastMoves",
      "outputs": [
        {
          "internalType": "string",
          "name": "",
          "type": "string"
        }
      ],
      "stateMutability": "view",
      "type": "function",
      "constant": true
    },
    {
      "inputs": [
        {
          "internalType": "bytes32",
          "name": "_gameId",
          "type": "bytes32"
        },
        {
          "internalType": "bytes32[]",
          "name": "_sibilings",
          "type": "bytes32[]"
        },
        {
          "internalType": "bool",
          "name": "_hit",
          "type": "bool"
        },
        {
          "internalType": "uint256",
          "name": "_leafIndex",
          "type": "uint256"
        }
      ],
      "name": "checkMerkleProof",
      "outputs": [],
      "stateMutability": "nonpayable",
      "type": "function"
    },
    {
      "inputs": [
        {
          "internalType": "bytes32",
          "name": "_gameId",
          "type": "bytes32"
        },
        {
          "internalType": "int256[][]",
          "name": "_board",
          "type": "int256[][]"
        }
      ],
      "name": "checkBoard",
      "outputs": [
        {
          "internalType": "bool",
          "name": "",
          "type": "bool"
        }
      ],
      "stateMutability": "payable",
      "type": "function",
      "payable": true
    },
    {
      "inputs": [],
      "name": "notifyDelay",
      "outputs": [],
      "stateMutability": "nonpayable",
      "type": "function"
    }
  ],
  "bytecode": "0x608060405234801561001057600080fd5b50614556806100206000396000f3fe6080604052600436106100ab5760003560e01c80638609cad1116100645780638609cad114610203578063b4df51381461021f578063c7bad2b714610248578063e0e797ee14610271578063e4cc82a01461029a578063fbf5fea8146102d7576100ac565b806301fb893a146100c757806328687f101461010f5780634768d4ef1461013f5780634da6a8541461018657806363fed9a4146101af5780637eebaf06146101ec576100ac565b5b3480156100b857600080fd5b506100c56000801b610300565b005b3480156100d357600080fd5b506100ee60048036038101906100e99190612d90565b6103a1565b6040516101069c9b9a99989796959493929190613019565b60405180910390f35b6101296004803603810190610124919061335c565b61084a565b60405161013691906133b8565b60405180910390f35b34801561014b57600080fd5b5061016660048036038101906101619190613409565b610b84565b60405161017d9b9a99989796959493929190613454565b60405180910390f35b34801561019257600080fd5b506101ad60048036038101906101a891906135f5565b610cc3565b005b3480156101bb57600080fd5b506101d660048036038101906101d19190612d90565b6116a8565b6040516101e39190613678565b60405180910390f35b3480156101f857600080fd5b5061020161173a565b005b61021d60048036038101906102189190612d90565b610300565b005b34801561022b57600080fd5b506102466004803603810190610241919061378f565b61173c565b005b34801561025457600080fd5b5061026f600480360381019061026a9190613859565b611ed7565b005b34801561027d57600080fd5b50610298600480360381019061029391906138b9565b612225565b005b3480156102a657600080fd5b506102c160048036038101906102bc9190612d90565b6124da565b6040516102ce91906138f9565b60405180910390f35b3480156102e357600080fd5b506102fe60048036038101906102f9919061391b565b6125f1565b005b60005b6000805490508160ff16101561039d578160008260ff168154811061032b5761032a61395b565b5b90600052602060002090600c0201600001540361038a5760008160ff16815481106103595761035861395b565b5b90600052602060002090600c020160050154670de0b6b3a76400003461037f91906139e8565b1461038957600080fd5b5b808061039590613a19565b915050610303565b5050565b6000606080600080606080600080600060608060005b6000805490508160ff161015610839578d60008260ff16815481106103df576103de61395b565b5b90600052602060002090600c020160000154036108265760008160ff168154811061040d5761040c61395b565b5b90600052602060002090600c02016000015460008260ff16815481106104365761043561395b565b5b90600052602060002090600c0201600101546040516020016104589190613a63565b60405160208183030381529060405260008360ff168154811061047e5761047d61395b565b5b90600052602060002090600c0201600201546040516020016104a09190613a63565b60405160208183030381529060405260008460ff16815481106104c6576104c561395b565b5b90600052602060002090600c020160030160009054906101000a900473ffffffffffffffffffffffffffffffffffffffff1660008560ff168154811061050f5761050e61395b565b5b90600052602060002090600c020160040160009054906101000a900473ffffffffffffffffffffffffffffffffffffffff1660008660ff16815481106105585761055761395b565b5b90600052602060002090600c02016005015460405160200161057a9190613a9f565b60405160208183030381529060405260008760ff16815481106105a05761059f61395b565b5b90600052602060002090600c0201600601546040516020016105c29190613a9f565b60405160208183030381529060405260008860ff16815481106105e8576105e761395b565b5b90600052602060002090600c020160070160009054906101000a900460ff1660008960ff168154811061061e5761061d61395b565b5b90600052602060002090600c02016008015460008a60ff16815481106106475761064661395b565b5b90600052602060002090600c02016009015460008b60ff16815481106106705761066f61395b565b5b90600052602060002090600c0201600a0160008c60ff16815481106106985761069761395b565b5b90600052602060002090600c0201600b018180546106b590613ae9565b80601f01602080910402602001604051908101604052809291908181526020018280546106e190613ae9565b801561072e5780601f106107035761010080835404028352916020019161072e565b820191906000526020600020905b81548152906001019060200180831161071157829003601f168201915b5050505050915080805480602002602001604051908101604052809291908181526020016000905b8282101561080257838290600052602060002001805461077590613ae9565b80601f01602080910402602001604051908101604052809291908181526020018280546107a190613ae9565b80156107ee5780601f106107c3576101008083540402835291602001916107ee565b820191906000526020600020905b8154815290600101906020018083116107d157829003601f168201915b505050505081526020019060010190610756565b5050505090509c509c509c509c509c509c509c509c509c509c509c509c505061083b565b808061083190613a19565b9150506103b7565b505b91939597999b5091939597999b565b600080600090505b6000805490508160ff161015610b7d578360008260ff168154811061087a5761087961395b565b5b90600052602060002090600c02016000015403610b6a576000805b60008360ff16815481106108ac576108ab61395b565b5b90600052602060002090600c02016001015481101561096a5760005b60008460ff16815481106108df576108de61395b565b5b90600052602060002090600c02016001015481101561095657600186838151811061090d5761090c61395b565b5b602002602001015182815181106109275761092661395b565b5b60200260200101510361094357828061093f90613a19565b9350505b808061094e90613b1a565b9150506108c8565b50808061096290613b1a565b915050610895565b5060008260ff16815481106109825761098161395b565b5b90600052602060002090600c0201600201548160ff1603610b68573373ffffffffffffffffffffffffffffffffffffffff166108fc479081150290604051600060405180830381858888f193505050501580156109e3573d6000803e3d6000fd5b5060008260ff16815481106109fb576109fa61395b565b5b90600052602060002090600c020160030160009054906101000a900473ffffffffffffffffffffffffffffffffffffffff1673ffffffffffffffffffffffffffffffffffffffff163373ffffffffffffffffffffffffffffffffffffffff1603610ae5577f225c3410f200f0ce1abb8da5f51091ee7a720d0c8303589688bc98962f23c12e3360008460ff1681548110610a9857610a9761395b565b5b90600052602060002090600c020160040160009054906101000a900473ffffffffffffffffffffffffffffffffffffffff16604051610ad8929190613b62565b60405180910390a1610b67565b7f225c3410f200f0ce1abb8da5f51091ee7a720d0c8303589688bc98962f23c12e60008360ff1681548110610b1d57610b1c61395b565b5b90600052602060002090600c020160040160009054906101000a900473ffffffffffffffffffffffffffffffffffffffff1633604051610b5e929190613b62565b60405180910390a15b5b505b8080610b7590613a19565b915050610852565b5092915050565b60008181548110610b9457600080fd5b90600052602060002090600c02016000915090508060000154908060010154908060020154908060030160009054906101000a900473ffffffffffffffffffffffffffffffffffffffff16908060040160009054906101000a900473ffffffffffffffffffffffffffffffffffffffff16908060050154908060060154908060070160009054906101000a900460ff169080600801549080600901549080600a018054610c4090613ae9565b80601f0160208091040260200160405190810160405280929190818152602001828054610c6c90613ae9565b8015610cb95780601f10610c8e57610100808354040283529160200191610cb9565b820191906000526020600020905b815481529060010190602001808311610c9c57829003601f168201915b505050505090508b565b60005b6000805490508160ff1610156116a0578460008260ff1681548110610cee57610ced61395b565b5b90600052602060002090600c0201600001540361168d5760003373ffffffffffffffffffffffffffffffffffffffff1660008360ff1681548110610d3557610d3461395b565b5b90600052602060002090600c020160030160009054906101000a900473ffffffffffffffffffffffffffffffffffffffff1673ffffffffffffffffffffffffffffffffffffffff1603610db25760008260ff1681548110610d9957610d9861395b565b5b90600052602060002090600c0201600801549050610dde565b60008260ff1681548110610dc957610dc861395b565b5b90600052602060002090600c02016009015490505b600085600081518110610df457610df361395b565b5b602002602001015190506000600190505b8651811015610ec65760008290506000888381518110610e2857610e2761395b565b5b602002602001015190506000600288610e419190613b8b565b03610e76578181604051602001610e59929190613bdd565b604051602081830303815290604052805190602001209350610ea2565b8082604051602001610e89929190613bdd565b6040516020818303038152906040528051906020012093505b600287610eaf91906139e8565b965050508080610ebe90613b1a565b915050610e05565b5081810361164e57600085610f10576040518060400160405280600281526020017f2d30000000000000000000000000000000000000000000000000000000000000815250610f47565b6040518060400160405280600281526020017f2d310000000000000000000000000000000000000000000000000000000000008152505b905060008460ff1681548110610f6057610f5f61395b565b5b90600052602060002090600c0201600b0160008560ff1681548110610f8857610f8761395b565b5b90600052602060002090600c0201600a0182604051602001610fab929190613cdd565b604051602081830303815290604052908060018154018082558091505060019003906000526020600020016000909190919091509081610feb9190613e98565b506000808560ff16815481106110045761100361395b565b5b90600052602060002090600c020160030160009054906101000a900473ffffffffffffffffffffffffffffffffffffffff1673ffffffffffffffffffffffffffffffffffffffff163373ffffffffffffffffffffffffffffffffffffffff16036111625760008560ff168154811061107f5761107e61395b565b5b90600052602060002090600c020160040160009054906101000a900473ffffffffffffffffffffffffffffffffffffffff1690507f3720eac80eef1a0032b520af14f1cf6d138e8336fb49aec65910b19d8ac3459060008660ff16815481106110eb576110ea61395b565b5b90600052602060002090600c020160040160009054906101000a900473ffffffffffffffffffffffffffffffffffffffff168860008860ff16815481106111355761113461395b565b5b90600052602060002090600c0201600a0160405161115593929190613fee565b60405180910390a1611258565b60008560ff16815481106111795761117861395b565b5b90600052602060002090600c020160030160009054906101000a900473ffffffffffffffffffffffffffffffffffffffff1690507f3720eac80eef1a0032b520af14f1cf6d138e8336fb49aec65910b19d8ac3459060008660ff16815481106111e5576111e461395b565b5b90600052602060002090600c020160030160009054906101000a900473ffffffffffffffffffffffffffffffffffffffff168860008860ff168154811061122f5761122e61395b565b5b90600052602060002090600c0201600a0160405161124f93929190613fee565b60405180910390a15b61150960008660ff16815481106112725761127161395b565b5b90600052602060002090600c0201604051806101800160405290816000820154815260200160018201548152602001600282015481526020016003820160009054906101000a900473ffffffffffffffffffffffffffffffffffffffff1673ffffffffffffffffffffffffffffffffffffffff1673ffffffffffffffffffffffffffffffffffffffff1681526020016004820160009054906101000a900473ffffffffffffffffffffffffffffffffffffffff1673ffffffffffffffffffffffffffffffffffffffff1673ffffffffffffffffffffffffffffffffffffffff16815260200160058201548152602001600682015481526020016007820160009054906101000a900460ff161515151581526020016008820154815260200160098201548152602001600a820180546113a990613ae9565b80601f01602080910402602001604051908101604052809291908181526020018280546113d590613ae9565b80156114225780601f106113f757610100808354040283529160200191611422565b820191906000526020600020905b81548152906001019060200180831161140557829003601f168201915b50505050508152602001600b8201805480602002602001604051908101604052809291908181526020016000905b828210156114fc57838290600052602060002001805461146f90613ae9565b80601f016020809104026020016040519081016040528092919081815260200182805461149b90613ae9565b80156114e85780601f106114bd576101008083540402835291602001916114e8565b820191906000526020600020905b8154815290600101906020018083116114cb57829003601f168201915b505050505081526020019060010190611450565b5050505081525050612831565b1561154a577fc7e0345890e3d3863c7f66518e8fe24252b162afe06faf9b20c50ac5d774fdfa3360405161153d919061402c565b60405180910390a1611644565b7fca8e1fe07bfdc2062d88c000bbc3453971e9ea79bdb90e60748c50e8526026b7338260405161157b929190613b62565b60405180910390a160008560ff168154811061159a5761159961395b565b5b90600052602060002090600c020160070160009054906101000a900460ff1661160257600160008660ff16815481106115d6576115d561395b565b5b90600052602060002090600c020160070160006101000a81548160ff0219169083151502179055611642565b6000808660ff168154811061161a5761161961395b565b5b90600052602060002090600c020160070160006101000a81548160ff02191690831515021790555b505b50505050506116a2565b7f9709744f7c7359edb2e10790a4a8501b0bb5fcec380968177c7a3e91249d52d83360405161167d919061402c565b60405180910390a15050506116a2565b808061169890613a19565b915050610cc6565b505b50505050565b600080600090505b6000805490508160ff161015611733578260008260ff16815481106116d8576116d761395b565b5b90600052602060002090600c020160000154036117205760008160ff16815481106117065761170561395b565b5b90600052602060002090600c020160050154915050611735565b808061172b90613a19565b9150506116b0565b505b919050565b565b6000801b83146119805760005b6000805490508160ff16101561197e578360008260ff16815481106117715761177061395b565b5b90600052602060002090600c0201600001540361196b57600073ffffffffffffffffffffffffffffffffffffffff1660008260ff16815481106117b7576117b661395b565b5b90600052602060002090600c020160040160009054906101000a900473ffffffffffffffffffffffffffffffffffffffff1673ffffffffffffffffffffffffffffffffffffffff1603611926573360008260ff168154811061181c5761181b61395b565b5b90600052602060002090600c020160040160006101000a81548173ffffffffffffffffffffffffffffffffffffffff021916908373ffffffffffffffffffffffffffffffffffffffff1602179055507f3baf3f8e2dd70ad22e86a9d44c0df0d7b3d08b1febe5cbb35803f1b02d89471b3360008360ff16815481106118a4576118a361395b565b5b90600052602060002090600c02016000015460008460ff16815481106118cd576118cc61395b565b5b90600052602060002090600c02016002015460008560ff16815481106118f6576118f561395b565b5b90600052602060002090600c0201600101546040516119189493929190614047565b60405180910390a150611ed2565b7f3baf3f8e2dd70ad22e86a9d44c0df0d7b3d08b1febe5cbb35803f1b02d89471b33600080600060405161195d9493929190614105565b60405180910390a150611ed2565b808061197690613a19565b915050611749565b505b8115611ccd576000808054905060405160200161199d919061414a565b60405160208183030381529060405280519060200120905060008067ffffffffffffffff8111156119d1576119d0613102565b5b604051908082528060200260200182016040528015611a0457816020015b60608152602001906001900390816119ef5790505b509050600060405180610180016040528084815260200185600181518110611a2f57611a2e61395b565b5b602002602001015160ff16815260200185600081518110611a5357611a5261395b565b5b602002602001015160ff1681526020013373ffffffffffffffffffffffffffffffffffffffff168152602001600073ffffffffffffffffffffffffffffffffffffffff1681526020017fffffffffffffffffffffffffffffffffffffffffffffffffffffffffffffffff8152602001600081526020016001151581526020016000801b81526020016000801b81526020016040518060200160405280600081525081526020018381525090806001815401808255809150506001900390600052602060002090600c020160009091909190915060008201518160000155602082015181600101556040820151816002015560608201518160030160006101000a81548173ffffffffffffffffffffffffffffffffffffffff021916908373ffffffffffffffffffffffffffffffffffffffff16021790555060808201518160040160006101000a81548173ffffffffffffffffffffffffffffffffffffffff021916908373ffffffffffffffffffffffffffffffffffffffff16021790555060a0820151816005015560c0820151816006015560e08201518160070160006101000a81548160ff0219169083151502179055506101008201518160080155610120820151816009015561014082015181600a019081611c329190613e98565b5061016082015181600b019080519060200190611c50929190612c6c565b5050507f3baf3f8e2dd70ad22e86a9d44c0df0d7b3d08b1febe5cbb35803f1b02d89471b338385600081518110611c8a57611c8961395b565b5b602002602001015186600181518110611ca657611ca561395b565b5b6020026020010151604051611cbe9493929190614196565b60405180910390a15050611ed2565b60005b6000805490508160ff161015611e9157600073ffffffffffffffffffffffffffffffffffffffff1660008260ff1681548110611d0f57611d0e61395b565b5b90600052602060002090600c020160040160009054906101000a900473ffffffffffffffffffffffffffffffffffffffff1673ffffffffffffffffffffffffffffffffffffffff1614611e7e573360008260ff1681548110611d7457611d7361395b565b5b90600052602060002090600c020160040160006101000a81548173ffffffffffffffffffffffffffffffffffffffff021916908373ffffffffffffffffffffffffffffffffffffffff1602179055507f3baf3f8e2dd70ad22e86a9d44c0df0d7b3d08b1febe5cbb35803f1b02d89471b3360008360ff1681548110611dfc57611dfb61395b565b5b90600052602060002090600c02016000015460008460ff1681548110611e2557611e2461395b565b5b90600052602060002090600c02016002015460008560ff1681548110611e4e57611e4d61395b565b5b90600052602060002090600c020160010154604051611e709493929190614047565b60405180910390a150611ed2565b8080611e8990613a19565b915050611cd0565b507f3baf3f8e2dd70ad22e86a9d44c0df0d7b3d08b1febe5cbb35803f1b02d89471b336000806000604051611ec99493929190614105565b60405180910390a15b505050565b60005b6000805490508160ff16101561221f578360008260ff1681548110611f0257611f0161395b565b5b90600052602060002090600c0201600001540361220c573373ffffffffffffffffffffffffffffffffffffffff1660008260ff1681548110611f4757611f4661395b565b5b90600052602060002090600c020160030160009054906101000a900473ffffffffffffffffffffffffffffffffffffffff1673ffffffffffffffffffffffffffffffffffffffff16148015611fce575060008160ff1681548110611fae57611fad61395b565b5b90600052602060002090600c020160070160009054906101000a900460ff165b1561209357828260008360ff1681548110611fec57611feb61395b565b5b90600052602060002090600c0201600a01918261200a9291906141e6565b507f9896a41f3ec53837e18850fc683491a3edd592acbd543159a73aae26e3e64b2860008260ff16815481106120435761204261395b565b5b90600052602060002090600c020160040160009054906101000a900473ffffffffffffffffffffffffffffffffffffffff168484604051612086939291906142f2565b60405180910390a161220b565b3373ffffffffffffffffffffffffffffffffffffffff1660008260ff16815481106120c1576120c061395b565b5b90600052602060002090600c020160040160009054906101000a900473ffffffffffffffffffffffffffffffffffffffff1673ffffffffffffffffffffffffffffffffffffffff16148015612149575060008160ff16815481106121285761212761395b565b5b90600052602060002090600c020160070160009054906101000a900460ff16155b1561220a57828260008360ff16815481106121675761216661395b565b5b90600052602060002090600c0201600a0191826121859291906141e6565b507f9896a41f3ec53837e18850fc683491a3edd592acbd543159a73aae26e3e64b2860008260ff16815481106121be576121bd61395b565b5b90600052602060002090600c020160030160009054906101000a900473ffffffffffffffffffffffffffffffffffffffff168484604051612201939291906142f2565b60405180910390a15b5b5b808061221790613a19565b915050611eda565b50505050565b60005b6000805490508160ff1610156124d4578260008260ff16815481106122505761224f61395b565b5b90600052602060002090600c020160000154036124c1576000808260ff168154811061227f5761227e61395b565b5b90600052602060002090600c020160050154121561244d578160008260ff16815481106122af576122ae61395b565b5b90600052602060002090600c0201600501819055503373ffffffffffffffffffffffffffffffffffffffff1660008260ff16815481106122f2576122f161395b565b5b90600052602060002090600c020160030160009054906101000a900473ffffffffffffffffffffffffffffffffffffffff1673ffffffffffffffffffffffffffffffffffffffff16036123c5577f8baeb50b886fb168a371117c6cb88337a25606fe162d778425bd068ef9d25da560008260ff16815481106123775761237661395b565b5b90600052602060002090600c020160040160009054906101000a900473ffffffffffffffffffffffffffffffffffffffff16836040516123b8929190614324565b60405180910390a1612447565b7f8baeb50b886fb168a371117c6cb88337a25606fe162d778425bd068ef9d25da560008260ff16815481106123fd576123fc61395b565b5b90600052602060002090600c020160040160009054906101000a900473ffffffffffffffffffffffffffffffffffffffff168360405161243e929190614324565b60405180910390a15b506124d6565b8160008260ff16815481106124655761246461395b565b5b90600052602060002090600c020160050154036124bb57600282612489919061434d565b60008260ff16815481106124a05761249f61395b565b5b90600052602060002090600c020160060181905550506124d6565b506124d6565b80806124cc90613a19565b915050612228565b505b5050565b606060005b6000805490508160ff1610156125ea578260008260ff16815481106125075761250661395b565b5b90600052602060002090600c020160000154036125d75760008160ff16815481106125355761253461395b565b5b90600052602060002090600c0201600a01805461255190613ae9565b80601f016020809104026020016040519081016040528092919081815260200182805461257d90613ae9565b80156125ca5780601f1061259f576101008083540402835291602001916125ca565b820191906000526020600020905b8154815290600101906020018083116125ad57829003601f168201915b50505050509150506125ec565b80806125e290613a19565b9150506124df565b505b919050565b60005b6000805490508160ff16101561282c578260008260ff168154811061261c5761261b61395b565b5b90600052602060002090600c02016000015403612819573373ffffffffffffffffffffffffffffffffffffffff1660008260ff16815481106126615761266061395b565b5b90600052602060002090600c020160030160009054906101000a900473ffffffffffffffffffffffffffffffffffffffff1673ffffffffffffffffffffffffffffffffffffffff16036126e0578160008260ff16815481106126c6576126c561395b565b5b90600052602060002090600c02016008018190555061270e565b8160008260ff16815481106126f8576126f761395b565b5b90600052602060002090600c0201600901819055505b600160008260ff16815481106127275761272661395b565b5b90600052602060002090600c020160070160006101000a81548160ff0219169083151502179055507fca8e1fe07bfdc2062d88c000bbc3453971e9ea79bdb90e60748c50e8526026b760008260ff16815481106127875761278661395b565b5b90600052602060002090600c020160030160009054906101000a900473ffffffffffffffffffffffffffffffffffffffff1660008360ff16815481106127d0576127cf61395b565b5b90600052602060002090600c020160040160009054906101000a900473ffffffffffffffffffffffffffffffffffffffff16604051612810929190613b62565b60405180910390a15b808061282490613a19565b9150506125f4565b505050565b6000806002836040015161284591906143c5565b905060008360e00151156129215760005b8461016001515181101561291b57846101600151518110156129075760006128d2866101600151838151811061288f5761288e61395b565b5b60200260200101516040518060400160405280600181526020017f2d00000000000000000000000000000000000000000000000000000000000000815250612a0d565b90506128f8816002815181106128eb576128ea61395b565b5b6020026020010151612bd4565b836129039190614407565b9250505b6002816129149190614407565b9050612856565b506129ef565b6000600190505b846101600151518110156129ed57846101600151518110156129d95760006129a486610160015183815181106129615761296061395b565b5b60200260200101516040518060400160405280600181526020017f2d00000000000000000000000000000000000000000000000000000000000000815250612a0d565b90506129ca816002815181106129bd576129bc61395b565b5b6020026020010151612bd4565b836129d59190614407565b9250505b6002816129e69190614407565b9050612928565b505b818103612a0157600192505050612a08565b6000925050505b919050565b606060006040518060200160405280600081525090506000808590506000865167ffffffffffffffff811115612a4657612a45613102565b5b604051908082528060200260200182016040528015612a7957816020015b6060815260200190600190039081612a645790505b50905060005b8251811015612ba75786600081518110612a9c57612a9b61395b565b5b602001015160f81c60f81b7effffffffffffffffffffffffffffffffffffffffffffffffffffffffffffff1916838281518110612adc57612adb61395b565b5b602001015160f81c60f81b7effffffffffffffffffffffffffffffffffffffffffffffffffffffffffffff191603612b525784828581518110612b2257612b2161395b565b5b60200260200101819052506040518060200160405280600081525094508380612b4a90613b1a565b945050612b94565b84888281518110612b6657612b6561395b565b5b602001015160f81c60f81b604051602001612b829291906144c4565b60405160208183030381529060405294505b8080612b9f90613b1a565b915050612a7f565b5083818481518110612bbc57612bbb61395b565b5b60200260200101819052508094505050505092915050565b6000808290506000805b8251811015612c61576000838281518110612bfc57612bfb61395b565b5b602001015160f81c60f81b60f81c60ff16905060308110158015612c21575060398111155b15612c4d57603081612c3391906144ec565b600a84612c4091906143c5565b612c4a9190614407565b92505b508080612c5990613b1a565b915050612bde565b508092505050919050565b828054828255906000526020600020908101928215612cb4579160200282015b82811115612cb3578251829081612ca39190613e98565b5091602001919060010190612c8c565b5b509050612cc19190612cc5565b5090565b5b80821115612ce55760008181612cdc9190612ce9565b50600101612cc6565b5090565b508054612cf590613ae9565b6000825580601f10612d075750612d26565b601f016020900490600052602060002090810190612d259190612d29565b5b50565b5b80821115612d42576000816000905550600101612d2a565b5090565b6000604051905090565b600080fd5b600080fd5b6000819050919050565b612d6d81612d5a565b8114612d7857600080fd5b50565b600081359050612d8a81612d64565b92915050565b600060208284031215612da657612da5612d50565b5b6000612db484828501612d7b565b91505092915050565b612dc681612d5a565b82525050565b600081519050919050565b600082825260208201905092915050565b60005b83811015612e06578082015181840152602081019050612deb565b60008484015250505050565b6000601f19601f8301169050919050565b6000612e2e82612dcc565b612e388185612dd7565b9350612e48818560208601612de8565b612e5181612e12565b840191505092915050565b600073ffffffffffffffffffffffffffffffffffffffff82169050919050565b6000612e8782612e5c565b9050919050565b612e9781612e7c565b82525050565b60008115159050919050565b612eb281612e9d565b82525050565b600081519050919050565b600082825260208201905092915050565b6000612edf82612eb8565b612ee98185612ec3565b9350612ef9818560208601612de8565b612f0281612e12565b840191505092915050565b600081519050919050565b600082825260208201905092915050565b6000819050602082019050919050565b600082825260208201905092915050565b6000612f5582612eb8565b612f5f8185612f39565b9350612f6f818560208601612de8565b612f7881612e12565b840191505092915050565b6000612f8f8383612f4a565b905092915050565b6000602082019050919050565b6000612faf82612f0d565b612fb98185612f18565b935083602082028501612fcb85612f29565b8060005b858110156130075784840389528151612fe88582612f83565b9450612ff383612f97565b925060208a01995050600181019050612fcf565b50829750879550505050505092915050565b60006101808201905061302f600083018f612dbd565b8181036020830152613041818e612e23565b90508181036040830152613055818d612e23565b9050613064606083018c612e8e565b613071608083018b612e8e565b81810360a0830152613083818a612e23565b905081810360c08301526130978189612e23565b90506130a660e0830188612ea9565b6130b4610100830187612dbd565b6130c2610120830186612dbd565b8181036101408301526130d58185612ed4565b90508181036101608301526130ea8184612fa4565b90509d9c50505050505050505050505050565b600080fd5b7f4e487b7100000000000000000000000000000000000000000000000000000000600052604160045260246000fd5b61313a82612e12565b810181811067ffffffffffffffff8211171561315957613158613102565b5b80604052505050565b600061316c612d46565b90506131788282613131565b919050565b600067ffffffffffffffff82111561319857613197613102565b5b602082029050602081019050919050565b600080fd5b600067ffffffffffffffff8211156131c9576131c8613102565b5b602082029050602081019050919050565b6000819050919050565b6131ed816131da565b81146131f857600080fd5b50565b60008135905061320a816131e4565b92915050565b600061322361321e846131ae565b613162565b90508083825260208201905060208402830185811115613246576132456131a9565b5b835b8181101561326f578061325b88826131fb565b845260208401935050602081019050613248565b5050509392505050565b600082601f83011261328e5761328d6130fd565b5b813561329e848260208601613210565b91505092915050565b60006132ba6132b58461317d565b613162565b905080838252602082019050602084028301858111156132dd576132dc6131a9565b5b835b8181101561332457803567ffffffffffffffff811115613302576133016130fd565b5b80860161330f8982613279565b855260208501945050506020810190506132df565b5050509392505050565b600082601f830112613343576133426130fd565b5b81356133538482602086016132a7565b91505092915050565b6000806040838503121561337357613372612d50565b5b600061338185828601612d7b565b925050602083013567ffffffffffffffff8111156133a2576133a1612d55565b5b6133ae8582860161332e565b9150509250929050565b60006020820190506133cd6000830184612ea9565b92915050565b6000819050919050565b6133e6816133d3565b81146133f157600080fd5b50565b600081359050613403816133dd565b92915050565b60006020828403121561341f5761341e612d50565b5b600061342d848285016133f4565b91505092915050565b61343f816133d3565b82525050565b61344e816131da565b82525050565b60006101608201905061346a600083018e612dbd565b613477602083018d613436565b613484604083018c613436565b613491606083018b612e8e565b61349e608083018a612e8e565b6134ab60a0830189613445565b6134b860c0830188613445565b6134c560e0830187612ea9565b6134d3610100830186612dbd565b6134e1610120830185612dbd565b8181036101408301526134f48184612ed4565b90509c9b505050505050505050505050565b600067ffffffffffffffff82111561352157613520613102565b5b602082029050602081019050919050565b600061354561354084613506565b613162565b90508083825260208201905060208402830185811115613568576135676131a9565b5b835b81811015613591578061357d8882612d7b565b84526020840193505060208101905061356a565b5050509392505050565b600082601f8301126135b0576135af6130fd565b5b81356135c0848260208601613532565b91505092915050565b6135d281612e9d565b81146135dd57600080fd5b50565b6000813590506135ef816135c9565b92915050565b6000806000806080858703121561360f5761360e612d50565b5b600061361d87828801612d7b565b945050602085013567ffffffffffffffff81111561363e5761363d612d55565b5b61364a8782880161359b565b935050604061365b878288016135e0565b925050606061366c878288016133f4565b91505092959194509250565b600060208201905061368d6000830184613445565b92915050565b600067ffffffffffffffff8211156136ae576136ad613102565b5b602082029050602081019050919050565b600060ff82169050919050565b6136d5816136bf565b81146136e057600080fd5b50565b6000813590506136f2816136cc565b92915050565b600061370b61370684613693565b613162565b9050808382526020820190506020840283018581111561372e5761372d6131a9565b5b835b81811015613757578061374388826136e3565b845260208401935050602081019050613730565b5050509392505050565b600082601f830112613776576137756130fd565b5b81356137868482602086016136f8565b91505092915050565b6000806000606084860312156137a8576137a7612d50565b5b60006137b686828701612d7b565b93505060206137c7868287016135e0565b925050604084013567ffffffffffffffff8111156137e8576137e7612d55565b5b6137f486828701613761565b9150509250925092565b600080fd5b60008083601f840112613819576138186130fd565b5b8235905067ffffffffffffffff811115613836576138356137fe565b5b602083019150836001820283011115613852576138516131a9565b5b9250929050565b60008060006040848603121561387257613871612d50565b5b600061388086828701612d7b565b935050602084013567ffffffffffffffff8111156138a1576138a0612d55565b5b6138ad86828701613803565b92509250509250925092565b600080604083850312156138d0576138cf612d50565b5b60006138de85828601612d7b565b92505060206138ef858286016131fb565b9150509250929050565b600060208201905081810360008301526139138184612ed4565b905092915050565b6000806040838503121561393257613931612d50565b5b600061394085828601612d7b565b925050602061395185828601612d7b565b9150509250929050565b7f4e487b7100000000000000000000000000000000000000000000000000000000600052603260045260246000fd5b7f4e487b7100000000000000000000000000000000000000000000000000000000600052601260045260246000fd5b7f4e487b7100000000000000000000000000000000000000000000000000000000600052601160045260246000fd5b60006139f3826133d3565b91506139fe836133d3565b925082613a0e57613a0d61398a565b5b828204905092915050565b6000613a24826136bf565b915060ff8203613a3757613a366139b9565b5b600182019050919050565b6000819050919050565b613a5d613a58826133d3565b613a42565b82525050565b6000613a6f8284613a4c565b60208201915081905092915050565b6000819050919050565b613a99613a94826131da565b613a7e565b82525050565b6000613aab8284613a88565b60208201915081905092915050565b7f4e487b7100000000000000000000000000000000000000000000000000000000600052602260045260246000fd5b60006002820490506001821680613b0157607f821691505b602082108103613b1457613b13613aba565b5b50919050565b6000613b25826133d3565b91507fffffffffffffffffffffffffffffffffffffffffffffffffffffffffffffffff8203613b5757613b566139b9565b5b600182019050919050565b6000604082019050613b776000830185612e8e565b613b846020830184612e8e565b9392505050565b6000613b96826133d3565b9150613ba1836133d3565b925082613bb157613bb061398a565b5b828206905092915050565b6000819050919050565b613bd7613bd282612d5a565b613bbc565b82525050565b6000613be98285613bc6565b602082019150613bf98284613bc6565b6020820191508190509392505050565b600081905092915050565b60008190508160005260206000209050919050565b60008154613c3681613ae9565b613c408186613c09565b94506001821660008114613c5b5760018114613c7057613ca3565b60ff1983168652811515820286019350613ca3565b613c7985613c14565b60005b83811015613c9b57815481890152600182019150602081019050613c7c565b838801955050505b50505092915050565b6000613cb782612eb8565b613cc18185613c09565b9350613cd1818560208601612de8565b80840191505092915050565b6000613ce98285613c29565b9150613cf58284613cac565b91508190509392505050565b60006020601f8301049050919050565b600082821b905092915050565b600060088302613d4e7fffffffffffffffffffffffffffffffffffffffffffffffffffffffffffffffff82613d11565b613d588683613d11565b95508019841693508086168417925050509392505050565b6000819050919050565b6000613d95613d90613d8b846133d3565b613d70565b6133d3565b9050919050565b6000819050919050565b613daf83613d7a565b613dc3613dbb82613d9c565b848454613d1e565b825550505050565b600090565b613dd8613dcb565b613de3818484613da6565b505050565b5b81811015613e0757613dfc600082613dd0565b600181019050613de9565b5050565b601f821115613e4c57613e1d81613c14565b613e2684613d01565b81016020851015613e35578190505b613e49613e4185613d01565b830182613de8565b50505b505050565b600082821c905092915050565b6000613e6f60001984600802613e51565b1980831691505092915050565b6000613e888383613e5e565b9150826002028217905092915050565b613ea182612eb8565b67ffffffffffffffff811115613eba57613eb9613102565b5b613ec48254613ae9565b613ecf828285613e0b565b600060209050601f831160018114613f025760008415613ef0578287015190505b613efa8582613e7c565b865550613f62565b601f198416613f1086613c14565b60005b82811015613f3857848901518255600182019150602085019450602081019050613f13565b86831015613f555784890151613f51601f891682613e5e565b8355505b6001600288020188555050505b505050505050565b60008154613f7781613ae9565b613f818186612ec3565b94506001821660008114613f9c5760018114613fb257613fe5565b60ff198316865281151560200286019350613fe5565b613fbb85613c14565b60005b83811015613fdd57815481890152600182019150602081019050613fbe565b808801955050505b50505092915050565b60006060820190506140036000830186612e8e565b6140106020830185612ea9565b81810360408301526140228184613f6a565b9050949350505050565b60006020820190506140416000830184612e8e565b92915050565b600060808201905061405c6000830187612e8e565b6140696020830186612dbd565b6140766040830185613436565b6140836060830184613436565b95945050505050565b6000819050919050565b60008160001b9050919050565b60006140be6140b96140b48461408c565b614096565b612d5a565b9050919050565b6140ce816140a3565b82525050565b60006140ef6140ea6140e58461408c565b613d70565b6133d3565b9050919050565b6140ff816140d4565b82525050565b600060808201905061411a6000830187612e8e565b61412760208301866140c5565b61413460408301856140f6565b61414160608301846140f6565b95945050505050565b600060208201905061415f6000830184613436565b92915050565b600061418061417b614176846136bf565b613d70565b6133d3565b9050919050565b61419081614165565b82525050565b60006080820190506141ab6000830187612e8e565b6141b86020830186612dbd565b6141c56040830185614187565b6141d26060830184614187565b95945050505050565b600082905092915050565b6141f083836141db565b67ffffffffffffffff81111561420957614208613102565b5b6142138254613ae9565b61421e828285613e0b565b6000601f83116001811461424d576000841561423b578287013590505b6142458582613e7c565b8655506142ad565b601f19841661425b86613c14565b60005b828110156142835784890135825560018201915060208501945060208101905061425e565b868310156142a0578489013561429c601f891682613e5e565b8355505b6001600288020188555050505b50505050505050565b82818337600083830152505050565b60006142d18385612ec3565b93506142de8385846142b6565b6142e783612e12565b840190509392505050565b60006040820190506143076000830186612e8e565b818103602083015261431a8184866142c5565b9050949350505050565b60006040820190506143396000830185612e8e565b6143466020830184613445565b9392505050565b6000614358826131da565b9150614363836131da565b9250828202614371816131da565b91507f800000000000000000000000000000000000000000000000000000000000000084146000841216156143a9576143a86139b9565b5b82820584148315176143be576143bd6139b9565b5b5092915050565b60006143d0826133d3565b91506143db836133d3565b92508282026143e9816133d3565b91508282048414831517614400576143ff6139b9565b5b5092915050565b6000614412826133d3565b915061441d836133d3565b9250828201905080821115614435576144346139b9565b5b92915050565b600081905092915050565b600061445182612dcc565b61445b818561443b565b935061446b818560208601612de8565b80840191505092915050565b60007fff0000000000000000000000000000000000000000000000000000000000000082169050919050565b6000819050919050565b6144be6144b982614477565b6144a3565b82525050565b60006144d08285614446565b91506144dc82846144ad565b6001820191508190509392505050565b60006144f7826133d3565b9150614502836133d3565b925082820390508181111561451a576145196139b9565b5b9291505056fea26469706673582212209c7faf567631292f793632b6f6b11e17cdae9177040616a2660e4fc60951ff6864736f6c63430008130033",
  "immutableReferences": {},
  "source": "// SPDX-License-Identifier: MIT \npragma solidity >=0.8.2 <0.9.0;\npragma abicoder v2;\npragma experimental ABIEncoderV2;\n\ncontract Game {\n\n    struct GameMatch{\n        bytes32 gameId;\n        uint tableSize;\n        uint ships;\n        address p1; // also the creator\n        address p2;\n        int registration; // -1: not registered, otherwise the amount \n        int reward;\n        bool turn; // if true --> p1 have to play otherwise p2 \n        bytes32 b1; // hash of the board to proof merkle tree\n        bytes32 b2;\n        string lastMove; // last move played in the game [1-2][2-4][1-1][2-2] --> first x then y\n        string[] moves;     // l'array avr quindi le caselle pari per il p1 e disapari per il p2 e li metterai le mosse fatte in chiaro\n                            // con anche il risultato della mossa tipo 1.1.0 (casella 1 1 mancato) 2.1.1 (casella 2 1 colpito)\n    }\n\n    GameMatch[] public matches;\n    event SendNewGameCreate(address player, bytes32 gameId, uint ships, uint tableSize);\n    event SendRequestAmount(address player, int amount);    //tell to the player to put the money to start play\n    event SendTurnAdvice(address play, address wait);   //tell to the player that is his/her turn\n    event SendMovesAdvice(address player, string move);  //tell to the player that have been shoot\n    event SendRequestBoard(address player);   //tell to the player that have won\n    event SendWrongMove(address player);    //tell to the player that is not a valid move\n    event SendVictory(address winner, address loser);\n    event SendMoveResult(address player, bool hit, string coordinate);\n\n    function join(bytes32 _gameId, bool _isNew, uint8[] memory _info) public{\n        \n        // set player 2 in case of given game id\n        if(_gameId != 0){\n            for(uint8 i=0; i < matches.length; i++){\n                if(matches[i].gameId == _gameId){\n                    if(matches[i].p2 == address(0)){\n                        matches[i].p2 = msg.sender;\n                        emit SendNewGameCreate(msg.sender, matches[i].gameId, matches[i].ships, matches[i].tableSize);\n                        return;\n                    }\n                    else{\n                        emit SendNewGameCreate(msg.sender, 0, 0, 0);\n                        return;\n                    }\n                }\n            }\n        }\n\n        if(_isNew){\n            // otherwise create a new game\n            bytes32 newGameId = keccak256(abi.encode(matches.length));\n            string[] memory _moves = new string[](0);\n            matches.push(GameMatch(newGameId, _info[1], _info[0], msg.sender, address(0), -1, 0, true, 0, 0, \"\",  _moves));\n            emit SendNewGameCreate(msg.sender, newGameId, _info[0], _info[1]);\n            return;\n        }\n\n        // set player 2 in random game if available\n        for(uint8 i=0; i<matches.length; i++){\n            if(matches[i].p2 != address(0)){\n                matches[i].p2=msg.sender;\n                emit SendNewGameCreate(msg.sender, matches[i].gameId, matches[i].ships, matches[i].tableSize);\n                return;\n            }\n        }\n\n        emit SendNewGameCreate(msg.sender, 0, 0, 0);\n    }\n\n    /**\n        The two part agree offline and the first who call this method\n        also set the reward.    \n     */\n    function setReward(bytes32 _gameId, int _registration) external{\n        for(uint8 i=0; i<matches.length; i++){\n            if(matches[i].gameId == _gameId){\n                if(matches[i].registration < 0){\n                    matches[i].registration=_registration;\n                    if(matches[i].p1==msg.sender)\n                        emit SendRequestAmount(matches[i].p2, _registration);\n                    else\n                        emit SendRequestAmount(matches[i].p2, _registration);\n                    return;\n                }\n                else{\n                    if(matches[i].registration == _registration){\n                        matches[i].reward=_registration*2;\n                        return;\n                    }\n                    else{\n                        return;\n                    }\n                }\n            }\n        }\n    }\n\n    function getInformations(bytes32 _gameId) external view returns(\n        bytes32, \n        bytes memory,\n        bytes memory,\n        address ,\n        address ,\n        bytes memory ,\n        bytes memory ,\n        bool , \n        bytes32 ,\n        bytes32 ,\n        string memory,\n        string[] memory\n    ){\n        for(uint8 i=0; i < matches.length; i++){\n            if(matches[i].gameId == _gameId){\n                return(matches[i].gameId, abi.encodePacked(matches[i].tableSize), abi.encodePacked(matches[i].ships), matches[i].p1, matches[i].p2, abi.encodePacked(matches[i].registration), abi.encodePacked(matches[i].reward), matches[i].turn, matches[i].b1, matches[i].b2, matches[i].lastMove, matches[i].moves);\n            }\n        }\n    }\n\n    function getReward(bytes32 _gameId) external view returns(int){\n        for(uint8 i=0; i < matches.length; i++){\n            if(matches[i].gameId == _gameId){\n                return matches[i].registration;\n            }\n        }\n    }\n\n    function pay(bytes32 _gameId) public payable{\n        for(uint8 i=0; i < matches.length; i++){\n            if(matches[i].gameId == _gameId){\n                require((msg.value/1000000000000000000) == uint(matches[i].registration));\n            }\n        }\n    }\n\n    function setBoard(bytes32 _gameId, bytes32 _hashedBoard) public{\n        for(uint8 i=0; i < matches.length; i++){\n            if(matches[i].gameId == _gameId){\n                if(matches[i].p1==msg.sender){\n                    matches[i].b1=_hashedBoard;\n                }\n                else{\n                    matches[i].b2=_hashedBoard;\n                }\n                matches[i].turn=true;\n                emit SendTurnAdvice(matches[i].p1, matches[i].p2);\n            }\n        }\n    }\n\n    function shoot(bytes32 _gameId, string calldata _coordinate) public{\n        // stores the coordination for the other player\n        for(uint8 i=0; i < matches.length; i++){\n            if(matches[i].gameId == _gameId){\n                if(matches[i].p1==msg.sender && matches[i].turn){\n                    matches[i].lastMove=_coordinate;\n                    emit SendMovesAdvice(matches[i].p2, _coordinate);\n                }\n                else if(matches[i].p2==msg.sender && !matches[i].turn){\n                    matches[i].lastMove=_coordinate;\n                    emit SendMovesAdvice(matches[i].p1, _coordinate);\n                }\n            }\n        }\n    }\n\n    /**\n        get the last move of the game\n        then compute the merkle tree as a proof \n     */\n    function getLastMoves(bytes32 _gameId) public view returns(string memory){\n        for(uint8 i=0; i < matches.length; i++){\n            if(matches[i].gameId == _gameId){\n                return matches[i].lastMove;\n            }\n        }\n    }\n\n    function checkMerkleProof(bytes32 _gameId, bytes32[] memory _sibilings, bool _hit, uint256 _leafIndex) public {\n        \n        for(uint8 i=0; i < matches.length; i++){\n            if(matches[i].gameId == _gameId){\n                bytes32 _trueBoard;\n                if(matches[i].p1==msg.sender){\n                    _trueBoard=matches[i].b1;\n                }\n                else{\n                    _trueBoard=matches[i].b2;\n                }        \n                \n               \n                //uint row = stringToUint(splitString(matches[i].lastMove, \"-\")[0]) - 1;\n                //uint col = stringToUint(splitString(matches[i].lastMove, \"-\")[1]) - 1;\n                //uint toCheck = row*matches[i].tableSize + col;\n                \n                //if(toCheck%2!=0){\n                //    bytes32 _t = _sibilings[0];\n                //    _sibilings[0] = _sibilings[1];\n                //    _sibilings[1] = _t;\n                //}\n\n                bytes32 _b=_sibilings[0];\n                for(uint j=1; j < _sibilings.length; j++){\n                    // compute the merkle proof\n                    bytes32 _b1=_b;\n                    bytes32 _b2=_sibilings[j];\n                    if(_leafIndex% 2 == 0)\n                        _b=keccak256(abi.encodePacked(_b1, _b2));\n                    else\n                        _b=keccak256(abi.encodePacked(_b2, _b1));\n\n                    _leafIndex = _leafIndex / 2;\n                }\n\n                // confronta il risultato con _b se ok allora memorizza la mossa valida e return true\n\n                if(_b == _trueBoard){\n                    string memory _r=_hit?\"-1\":\"-0\";\n                    matches[i].moves.push(string(abi.encodePacked(matches[i].lastMove, _r)));\n                    address _wait;\n                    if(msg.sender==matches[i].p1){\n                        _wait=matches[i].p2;\n                        emit SendMoveResult(matches[i].p2, _hit, matches[i].lastMove);\n                    }else{\n                        _wait =matches[i].p1;\n                        emit SendMoveResult(matches[i].p1, _hit, matches[i].lastMove);\n                    }\n\n                    // chiama la funzione checkWin e richiedi la board da controllare\n                    if(checkWin(matches[i])){\n                        emit SendRequestBoard(msg.sender);\n                        \n                    }else{\n                        // altrimenti emetti l'evento cambia turno\n                        emit SendTurnAdvice(msg.sender, _wait);\n                        matches[i].turn ? matches[i].turn=false : matches[i].turn=true; \n                    }\n                        \n                    return;\n                }\n                else{   \n                    emit SendWrongMove(msg.sender);             \n                    return;\n                }                \n            }\n        }\n    }\n\n    function checkWin(GameMatch memory g) internal pure returns(bool){\n        uint _shipToSink=g.ships*2; //because all ships have fixed length of two\n        uint _shipSinked=0;\n        if(g.turn){\n            for (uint i=0; i<g.moves.length; i+=2){\n                if(i < g.moves.length){\n                    string[] memory _s = splitString(g.moves[i], \"-\");\n                    _shipSinked += stringToUint(_s[2]);\n                }\n            }\n        }else{\n            for(uint i = 1; i < g.moves.length; i+=2){\n                if(i < g.moves.length){\n                    string[] memory _s = splitString(g.moves[i], \"-\");\n                    _shipSinked += stringToUint(_s[2]);\n                }\n            }\n        }\n\n        if(_shipSinked==_shipToSink){\n            return true;\n        }else{\n            return false;\n        }\n    }\n\n    function checkBoard(bytes32 _gameId, int[][] memory _board) public payable returns(bool){        \n        for(uint8 i=0; i < matches.length; i++){\n            if(matches[i].gameId == _gameId){\n                //controllo sovrapposizioni navi\n                uint8 count=0;\n                for(uint q = 0; q < matches[i].tableSize; q++){\n                    for(uint k = 0; k < matches[i].tableSize; k++){\n                        if(_board[q][k] == 1) //there is a ship\n                            count++;\n                    }\n                }\n\n                if(count == matches[i].ships){ //there aren't ship overlapped\n                    payable(msg.sender).transfer(address(this).balance);\n                    if(msg.sender == matches[i].p1)\n                        emit SendVictory(msg.sender, matches[i].p2);\n                    else\n                        emit SendVictory(matches[i].p2, msg.sender);\n                }\n            }\n        }\n    }\n\n    function notifyDelay() public{\n        //wait for 5 blocks and if there isn't a reply\n        // pay the other player\n    }\n\n    fallback() external{\n        pay(0);\n    }\n\n\n    /**\n        Some utility functions for internal use only    \n     */\n    function splitString(string memory _s, string memory _separator) internal pure returns(string[] memory){\n        string memory _temp=\"\";\n        uint count=0;\n        bytes memory _sbytes=bytes(_s);\n        string[] memory _res = new string[](bytes(_s).length);\n        for(uint i=0; i < _sbytes.length; i++){\n            if(_sbytes[i]==bytes(_separator)[0]){\n                _res[count] = _temp;\n                _temp=\"\";\n                count++;\n            }\n            else{\n                _temp=string(bytes.concat(bytes(_temp), bytes(_s)[i]));\n            }\n        }\n        _res[count] = _temp;\n        return _res;\n    }\n\n    function stringToUint(string memory _str) internal pure returns (uint) {\n        bytes memory b = bytes(_str);\n        uint result = 0;\n        for (uint i = 0; i < b.length; i++) {\n            uint c = uint(uint8(b[i]));\n            if (c >= 48 && c <= 57) {\n                result = result * 10 + (c - 48);\n            }\n        }\n        return result;\n    }\n}",
  "sourcePath": "/home/davide/Documenti/magistrale/P2PBC/projects/battleship/contracts/Game.sol",
  "compiler": {
    "name": "solc",
    "version": "0.8.19+commit.7dd6d404.Emscripten.clang"
  },
  "schemaVersion": "3.4.13",
  "updatedAt": "2023-06-13T14:24:18.864Z",
  "networkType": "ethereum",
  "devdoc": {
    "kind": "dev",
    "methods": {},
    "version": 1
  },
  "userdoc": {
    "kind": "user",
    "methods": {
      "getLastMoves(bytes32)": {
        "notice": "get the last move of the game then compute the merkle tree as a proof "
      },
      "setReward(bytes32,int256)": {
        "notice": "The two part agree offline and the first who call this method also set the reward.    "
      }
    },
    "version": 1
  }
}